:100000000C9430020C9458020C9458020C942B0D52
:100010000C942B0D0C942B0D0C9458020C9458023C
:100020000C9458020C9458020C9458020C945802E8
:100030000C9458020C9458020C9458020C945802D8
:100040000C94BD0E0C9458020C9476110C94A811CB
:100050000C9458020C9458020C9458020C945802B8
:100060000C9458020C9458025458204F4B210044D1
:100070006174612072656365697665643A005458FD
:10008000204F4B21002E2E2E0053656E64696E6743
:1000900020746F20706F727420005061796C6F61F2
:1000A000643A004E4F54204A4F494E454421204A5D
:1000B0006F696E696E67202E2E2E00556E6B6E6F07
:1000C000776E206D6F6465004E4F54206A6F696EC5
:1000D0006564212121004A6F696E65642121210038
:1000E0004E4F54206A6F696E65642C2063686563A7
:1000F0006B206E6574776F726B2026206B65797349
:1001000021004A6F696E6564212121004A6F696E82
:10011000696E67202E2E2E0041542B564552002A20
:100120002A2A2A2A2A2A2A2A2A2A2A2A2A2A2A2A2F
:100130002A2A2A2A2A2A2A2A2A2A2A2A2A2A2A2A1F
:100140002A2A2A2A2A2A0D0A0031312E53686F776B
:10015000207472616E736365697665722070617276
:10016000616D65746572733A73686F770D0A00315B
:10017000302E53656E6420636F6E6669726D6564C0
:10018000207061796C6F61643A090973656E64432C
:100190003A646174612868657820737472696E6767
:1001A000290D0A00392E53656E6420756E636F6EDB
:1001B0006669726D6564207061796C6F61643A097B
:1001C0000973656E64553A646174612868657820C6
:1001D000737472696E67290D0A00382E5365742096
:1001E0006368616E6E656C3A09096368616E6E657D
:1001F0006C3A312D3233300D0A00372E4A6F696E5A
:100200002047573A09096A6F696E3A5B6162702C40
:100210006F7461615D0D0A00362E417070206B6550
:10022000793A09096D616320736574206170706BA0
:1002300065790D0A00352E417070204555493A09FF
:10024000096D616320736574206170706575690D57
:100250000A00466F72204F54414120617574686FE7
:100260007269736174696F6E3A0D0A00342E4170C1
:10027000702073657373696F6E206B65793A090935
:100280006D61632073657420617070736B65790DA7
:100290000A00332E4E6574776F726B20736573732B
:1002A000696F6E206B65793A09096D61632073652A
:1002B00074206E776B736B65790D0A00466F722040
:1002C00041425020617574686F7269736174696F1F
:1002D0006E3A0D0A00322E446576204555493A099A
:1002E000096D616320736574206465766575690DB9
:1002F0000A00312E44657620416464726573733A56
:1003000009096D61632073657420646576616464B6
:10031000720D0A002A2A2A2A2A2A2A2A2A2A2A2A5C
:100320002A2A2A2A2A2A48454C502A2A2A2A2A2AAC
:100330002A2A2A2A2A2A2A2A2A2A2A0D0A002E2E7C
:100340002E0053656E64696E6720746F20706F7243
:100350007420005061796C6F61643A004E4F5420F4
:100360004A4F494E454421204A6F696E696E6720A5
:100370002E2E2E00506F7274207365743A005365F0
:100380006E736F722046572076657273696F6E3A8E
:10039000312E302E30005472616E7363656976655C
:1003A000722046572076657273696F6E3A002A2A6A
:1003B0002A2A2A506172616D6574657273207374A4
:1003C0006F72656420696E20466C6173683A2A2AF0
:1003D0002A2A2A0041542B5245534554000A2A2AFE
:1003E0002A2A2A2A2A2A2A2A4C6F526157414E2049
:1003F00052484637362A2A2A2A2A2A2A2A2A2A000C
:1004000000000008000201000003040700000000D3
:1004100000000000010204081020408001020408CE
:10042000102001020408102004040404040404043D
:10043000020202020202030303030303000000009E
:1004400023002600290000000000250028002B00C2
:1004500000000000240027002A002C03D8115D03AF
:1004600011241FBECFEFD8E0DEBFCDBF12E0A0E069
:10047000B1E0EEEFF2E302C005900D92A63DB107A8
:10048000D9F724E0A6EDB2E001C01D92A035B20775
:10049000E1F714E0CEE5D4E004C02297FE010E940B
:1004A0008616CA35D107C9F70E941C120C9472191E
:1004B0000C94000086ED92E00E94A50D85EF92E07D
:1004C0000E94D8138CEF92E00E94D81382E093E050
:1004D0000E94D81388E093E00E94D8138EE093E046
:1004E0000E94D81384E193E00E94D8138AE193E03C
:1004F0000C94D813CF93DF93EC01FB012481358159
:100500000E94C415CE01DF91CF91089526E040E00E
:1005100052EC61E070E08FEA93E00E9414116DEDFF
:1005200073E08FEA93E00E94A71240E855E260E092
:1005300070E086ED92E00E942E0E61E089E00E945C
:10054000FB0F64EF71E080E090E00E94360F60E006
:1005500089E00E94FB0F64ED73E086ED92E00C945D
:10056000A71266E071E08FEA93E00E94CB1260E090
:1005700084E00E94FB0F64E670E080E090E00E945F
:10058000360F61E084E00C94FB0F64E173E08AE1D4
:1005900093E00E94E21462EF72E08AE193E00E942D
:1005A000491565ED72E08AE193E00E9449156CEB14
:1005B00072E08AE193E00E94491562E972E08AE103
:1005C00093E00E9449156CE672E08AE193E00E9494
:1005D000491562E572E08AE193E00E94491565E3FE
:1005E00072E08AE193E00E94491568E172E08AE1D5
:1005F00093E00E9449156AEF71E08AE193E00E945E
:1006000049156AED71E08AE193E00E94491564EAB8
:1006100071E08AE193E00E9449156FE671E08AE19A
:1006200093E00E94491569E471E08AE193E00E9439
:1006300049156FE171E08AE193E00E9449156AE192
:1006400073E08FEA93E00E948E1260E070E0CB01CD
:100650000E94360F0C94BC0E69EC72E08AE193E0C4
:100660000E94461469EC72E084E193E00E94461413
:1006700069EC72E08EE093E00E94461469EC72E04F
:1006800088E093E00E94461469EC72E082E093E017
:100690000E94461469EC72E08CEF92E00E944614CE
:1006A00069EC72E085EF92E00E94461420E048E099
:1006B00067E086ED92E00C94FE0D0C945A020F93C5
:1006C0001F93CF93DF9300D000D000D0CDB7DEB71B
:1006D0008C0169EC72E00E94461468EC70E080E0E6
:1006E00090E00E94360F86ED92E00E94C50C18162D
:1006F0001906CCF786ED92E00E94C50C1816190673
:1007000024F586ED92E00E94380C80932003682F38
:10071000C8010E943615809120038A3059F7F801EC
:10072000248135812250310940E050E0B801CE01EA
:1007300001960E94C415BE016F5F7F4FC8010E94E1
:100740007D14CE0101960E94D813C80126960FB6DB
:10075000F894DEBF0FBECDBFDF91CF911F910F91F7
:1007600008950F931F93CF93DF9300D000D000D054
:10077000CDB7DEB78C0169EC72E00E94461486EDBD
:1007800092E00E94C50C1816190694F486ED92E0CA
:100790000E94380C60E070E0CB010E94360F0E948E
:1007A000BC0E65E070E080E090E00E94360FE7CF7D
:1007B00068E171E086ED92E00E94A712CE010196F9
:1007C0000E945F03BE016F5F7F4FC8010E947D14CE
:1007D000CE0101960E94D81346E050E0B801CE0148
:1007E00001960E947A02BE016F5F7F4FC8010E948E
:1007F0007D14CE0101960E94D813C80126960FB62B
:10080000F894DEBF0FBECDBFDF91CF911F910F9146
:10081000089586ED92E00E94C50C181619065CF446
:1008200086ED92E00E94380C62E070E080E090E09B
:100830000E94360FEECF08950F931F93CF93DF934F
:10084000CDB7DEB762970FB6F894DEBF0FBECDBF4F
:100850008C0169EC72E0CE010D960E94461464E1B1
:1008600071E0C8010E94A515882309F469C068E1F8
:1008700071E086ED92E00E94CB12CE0101960E94BB
:100880005F03BE016F5F7F4FCE010D960E947D1406
:10089000CE0101960E94D81360E271E0CE010D9660
:1008A0000E94A515882351F081E08093FB0264E14A
:1008B00071E08CEF92E00E949D143BC063E371E015
:1008C00086ED92E00E94CB12CE0101960E945F035A
:1008D000BE016F5F7F4FCE010D960E947D14CE0149
:1008E00001960E94D81349E050E0BE01635F7F4F3C
:1008F000CE0107960E947A0261E471E0CE01019672
:100900000E944614BE01695F7F4FCE0101960E948E
:100910007815BC018FEA93E00E94B912CE010196CE
:100920000E94D813CE0107960E94D81381E08093CD
:10093000FB0267E471E08FEA93E00E94CB1221C1D1
:1009400063E571E0C8010E94A515882309F411C16F
:1009500068E171E086ED92E00E94CB12CE01019633
:100960000E945F03BE016F5F7F4FCE010D960E9414
:100970007D14CE0101960E94D81360E271E0CE0191
:100980000D960E94A5158823C1F168E571E086EDFA
:1009900092E00E94CB12CE0101960E945F03BE013D
:1009A0006F5F7F4FCE010D960E947D14CE010196A0
:1009B0000E94D81349E050E0BE01635F7F4FCE0133
:1009C00007960E947A0261E471E0CE0101960E94CE
:1009D0004614BE01695F7F4FCE0101960E947815D3
:1009E000BC018FEA93E00E94B912CE0101960E94E9
:1009F000D813CE0107960E94D8136CE071E08FEAFD
:100A000093E00E94A71263E571E08CEF92E00E94F0
:100A10009D1467E671E086ED92E00E94CB126FE6CE
:100A200071E086ED92E00E94CD138823C1F3CE01E0
:100A300001960E945F03BE016F5F7F4FCE010D964E
:100A40000E947D14CE0101960E94D81367E771E0E1
:100A5000CE010D960E94A515882331F081E0809388
:100A6000FB0262E071E07BC06FE671E086ED92E030
:100A70000E94CD138823C1F3CE0101960E945F032B
:100A8000BE016F5F7F4FCE010D960E947D14CE0197
:100A900001960E94D8136FE671E086ED92E00E9405
:100AA000CD138823C1F3CE0101960E945F03BE01DE
:100AB0006F5F7F4FCE010D960E947D14CE0101968F
:100AC0000E94D81366E871E0CE010D960E94A5152C
:100AD000882319F060EE70E042C06FE671E086EDA9
:100AE00092E00E94CD138823C1F3CE0101960E94AB
:100AF0005F03BE016F5F7F4FCE010D960E947D1494
:100B0000CE0101960E94D813BE01635F7F4F8FEA2A
:100B100093E00E94B9126FE671E086ED92E00E94C8
:100B2000CD138823C1F3CE0101960E945F03BE015D
:100B30006F5F7F4FCE010D960E947D14CE0101960E
:100B40000E94D81362E971E0CE010D960E94A515AE
:100B5000882351F081E08093FB0266ED70E08FEA1C
:100B600093E00E94A7120DC01092FB0268EC70E0A7
:100B7000F6CF6BEB70E08FEA93E00E94A7120E9421
:100B80000904CE010D960E94D81362960FB6F89410
:100B9000DEBF0FBECDBFDF91CF911F910F910895A2
:100BA0000F931F93CF93DF9300D000D000D0CDB729
:100BB000DEB78C0169EC72E00E9446140E940904C1
:100BC00067E971E086ED92E00E94CB1260E070E090
:100BD000CB010E94360FCE0101960E945F03BE0139
:100BE0006F5F7F4FC8010E947D14CE0101960E9465
:100BF000D813C80126960FB6F894DEBF0FBECDBF3E
:100C0000DF91CF911F910F9108950F931F93CF9371
:100C1000DF9300D000D000D0CDB7DEB78C0169ECF7
:100C200072E00E9446140E94090463EA71E086EDB6
:100C300092E00E94CB1260E070E0CB010E94360F80
:100C4000CE0101960E945F03BE016F5F7F4FC80116
:100C50000E947D14CE0101960E94D813C8012696E9
:100C60000FB6F894DEBF0FBECDBFDF91CF911F91BD
:100C70000F9108950F931F93CF93DF93CDB7DEB7F6
:100C800062970FB6F894DEBF0FBECDBF8C0169EC42
:100C900072E0CE010D960E9446140E9409048091D4
:100CA000FB02811142C063EA70E08FEA93E00E9488
:100CB000A71268E171E086ED92E00E94CB1261EB31
:100CC00071E086ED92E00E94CD138823C1F3CE013E
:100CD00001960E945F03BE016F5F7F4FCE010D96AC
:100CE0000E947D14CE0101960E94D8136DE472E03B
:100CF000CE010D960E94A515882319F063E571E0D9
:100D000002C064E171E085EF92E00E949D1465EFFE
:100D100072E0CE0101960E949414CE0101960E94C9
:100D20001C04CE0101960E94D8130E94090460E0C1
:100D300089E00E94FB0F6AE970E08FEA93E00E946D
:100D40006912B8018FEA93E00E94B91269E870E075
:100D50008FEA93E00E94691269EB71E086ED92E000
:100D60000E94CB12CE0101960E945F03BE016F5F0D
:100D70007F4FCE010D960E947D14CE0101960E94F8
:100D8000D81347E050E0BE01635F7F4FCE0101966C
:100D90000E947A02BE016F5F7F4FCE010D960E94C6
:100DA0007D14CE0101960E94D813BE01635F7F4F70
:100DB0008FEA93E00E948E1265E870E08FEA93E07C
:100DC0000E94A71261E089E00E94FB0F61EC71E0D4
:100DD000CE0101960E944614B801CE0101960E94F0
:100DE0007815BC0186ED92E00E94B912CE01019601
:100DF0000E94D81369EC71E086ED92E00E94CD1359
:100E00008823C1F3CE0101960E945F03BE016F5F8C
:100E10007F4FCE010D960E947D14CE0101960E9457
:100E2000D81360ED71E0CE010D960E94A5158111D9
:100E3000FAC069EC71E086ED92E00E94CD13882340
:100E4000C1F369EC71E086ED92E00E94CD13882336
:100E5000C1F3CE0101960E945F03BE016F5F7F4F19
:100E6000CE010D960E947D14CE0101960E94D813EA
:100E700062E971E0CE010D960E94A515882331F03C
:100E80006EE770E08FEA93E00E94A71225E030E061
:100E900040E050E0BE01635F7F4FCE0101960E94AB
:100EA000C4156AEE71E0CE0101960E94A515182FB7
:100EB000CE0101960E94D813112309F4B4C06FE645
:100EC00070E08FEA93E00E94691229893A892150E3
:100ED00031094FE050E0BE01635F7F4FCE010196C4
:100EE0000E94C415BE016F5F7F4FCE010D960E9418
:100EF0007D14CE0101960E94D81369EC72E0CE01F8
:100F000007960E94461400E010E089899A890396AA
:100F10000817190768F522E030E040E050E0BE0114
:100F2000635F7F4FCE0101960E94C415BE016F5FC3
:100F30007F4FCE0107960E942F15CE0101960E9489
:100F4000D81343E050E0BE01635F7F4FCE010196AE
:100F50000E947A02BE016F5F7F4FCE010D960E9404
:100F60007D14CE0101960E94D8130F5F1F4FCDCF85
:100F7000BE01695F7F4F8FEA93E00E94B91269EC6E
:100F800071E086ED92E00E94CD138823C1F3CE017B
:100F900001960E945F03BE016F5F7F4FCE010D96E9
:100FA0000E947D14CE0101960E94D81348E050E0C3
:100FB000BE01635F7F4FCE0101960E947A02BE019F
:100FC0006F5F7F4F8FEA93E00E94B912CE010196C6
:100FD0000E94D81369EC71E086ED92E00E94CD1377
:100FE0008823C1F3CE0101960E945F03BE016F5FAB
:100FF0007F4FCE010D960E947D14CE0101960E9476
:10100000D81362E971E0CE010D960E94A5158823E0
:1010100031F068E670E08FEA93E00E94A712CE01FB
:1010200007960E94D813CE010D960E94D81362969F
:101030000FB6F894DEBF0FBECDBFDF91CF911F91E9
:101040000F910895FF920F931F93CF93DF93CDB726
:10105000DEB762970FB6F894DEBF0FBECDBF8C012E
:1010600069EC72E0CE010D960E9446140E940904BC
:1010700060EF71E084E193E00E94A515882309F4F4
:10108000B1C069EC72E0CE0107960E9446146EEA88
:1010900073E08FEA93E00E94A71265EF71E086ED9E
:1010A00092E00E94CB12CE0101960E945F03BE0126
:1010B0006F5F7F4FCE010D960E947D14CE01019689
:1010C0000E94D81345E050E0BE01635F7F4FCE0120
:1010D00001960E947A02BE016F5F7F4F8FEA93E014
:1010E0000E94B912CE0101960E94D813CE0101963A
:1010F0000E945F03BE016F5F7F4FCE010D960E947D
:101100007D14CE0101960E94D81345E050E0BE0147
:10111000635F7F4FCE0101960E947A02BE016F5F2E
:101120007F4F8FEA93E00E94B912CE0101960E9490
:10113000D813CE0101960E945F03BE016F5F7F4FFF
:10114000CE010D960E947D14CE0101960E94D81307
:1011500045E050E0BE01635F7F4FCE0101960E94E3
:101160007A02BE016F5F7F4F8FEA93E00E94B9124F
:10117000CE0101960E94D81366E973E08FEA93E0EE
:101180000E9469126BEF71E086ED92E00E94CB1233
:10119000CE0101960E945F03BE016F5F7F4FCE01BB
:1011A0000D960E947D14CE0101960E94D81346E050
:1011B00050E0BE01635F7F4FCE0101960E947A022C
:1011C000BE016F5F7F4F8FEA93E00E94B912CE019C
:1011D00001960E94D8136EE773E08FEA93E00E94B5
:1011E000A712A3C225E030E040E050E064E173E0E4
:1011F000CE0101960E94C41562E072E0CE01019614
:101200000E94A515F82ECE0101960E94D813FF204A
:1012100009F145E050E064E173E0CE0101960E94DF
:101220007A02BE016F5F7F4F84E193E00E947D14DC
:10123000CE0101960E94D81364E173E0CE010196BD
:101240000E949414CE0101960E941C04CE010196C6
:101250000E94D81368E072E084E193E00E94A51533
:101260008823A1F0CE0107960E94D00560E172E0CC
:10127000CE0101960E944614BE01695F7F4FCE01E8
:1012800001960E94781569E172E01BC06DEA71E079
:1012900084E193E00E94A5158823B1F0CE01079662
:1012A0000E9405066CE172E0CE0101960E94461490
:1012B000BE01695F7F4FCE0101960E94781561E201
:1012C00072E00E948B15C6C125E030E040E050E09E
:1012D00064E173E0CE0101960E94C41562E072E001
:1012E000CE0101960E94A515F82ECE0101960E940E
:1012F000D813FF20F1F045E050E064E173E0CE0147
:1013000001960E947A02BE016F5F7F4F84E193E0F5
:101310000E947D14CE0101960E94D81364E173E00F
:10132000CE0101960E949414CE0101960E941C04E5
:1013300014C064E272E084E193E00E94A515882362
:1013400079F00E94C50268EC70E080E090E00E94B5
:10135000360FCE0101960E94B103CE010196E7C17E
:1013600028E030E040E050E0B801CE0101960E9454
:10137000C41569E272E0CE0101960E94A515F82E0F
:10138000CE0101960E94D813FF2009F451C048E015
:1013900050E0B801CE0101960E947A02BE016F5F53
:1013A0007F4FC8010E947D14CE0101960E94D81380
:1013B000B8018EE093E00E947D146FE272E0CE01EE
:1013C00001960E9446146EE073E0CE0101960E94E1
:1013D0007815BC0186ED92E00E94B912CE0101960B
:1013E0000E94D813CE0101960E945F03BE016F5F79
:1013F0007F4FCE010D960E947D14CE0101960E9472
:10140000D81364E773E08FEA93E00E94691247E023
:1014100050E0BE01635F7F4FCE0101960E947A02C9
:10142000BE016F5F7F4F8FEA93E00E94B91295CFA4
:1014300026E030E040E050E0B801CE0101960E9485
:10144000C41568E372E0CE0101960E94A515F82E3E
:10145000CE0101960E94D813FF2061F046E050E0D3
:10146000B801CE0101960E947A02CE0101960E9437
:101470003A0673CF26E030E040E050E0B801CE01FC
:1014800001960E94C4156FE372E0CE0101960E949E
:10149000A515F82ECE0101960E94D813FF2009F45D
:1014A000C1C00E9409048091FB0281113AC06CE521
:1014B00073E08FEA93E00E94A71268E171E086ED85
:1014C00092E00E94CB12CE0101960E945F03BE0102
:1014D0006F5F7F4FCE010D960E947D14CE01019665
:1014E0000E94D81366E472E0CE010D960E94A51505
:1014F000882319F063E571E002C064E171E085EFD3
:1015000092E00E949D1465EF72E0CE0101960E9468
:101510009414CE0101960E941C04CE0101960E94F3
:10152000D8130E94090460E089E00E94FB0F69EC77
:1015300072E0CE0107960E94461446E050E0B801E2
:10154000CE0101960E947A02BE016F5F7F4FC801F3
:101550000E947D14CE0101960E94D81363E573E0CA
:101560008FEA93E00E946912B8018FEA93E00E942B
:10157000B91262E473E08FEA93E00E94691269EBAA
:1015800071E086ED92E00E94CB12CE0101960E949E
:101590005F03BE016F5F7F4FCE010D960E947D14E9
:1015A000CE0101960E94D81347E050E0BE01635F70
:1015B0007F4FCE0101960E947A02BE016F5F7F4F7E
:1015C000CE010D960E947D14CE0101960E94D81383
:1015D000BE01635F7F4F8FEA93E00E948E126EE33D
:1015E00073E08FEA93E00E94A71261E089E00E9415
:1015F000FB0F6AE572E0CE0101960E944614B80125
:10160000CE0101960E947815BC0186ED92E00E9401
:10161000B912CE0101960E94D81360E089E00E94C1
:10162000FB0F83C063E672E0C8010E94A515882302
:10163000A9F0CE0107960E94B10367E672E0CE01E1
:1016400001960E944614BE01695F7F4FCE0101964C
:101650000E947815BC018FEA93E061C026E030E07B
:1016600040E050E0B801CE0101960E94C4156CE73D
:1016700072E0CE0101960E94A515F82ECE010196CA
:101680000E94D813FF2009F455C046E050E0B8018D
:10169000CE0101960E947A02BE016F5F7F4FC801A2
:1016A0000E947D14CE0101960E94D813C8010E94A9
:1016B0000916DB0120E63AEE0E946916AB01BC0177
:1016C0002AE0CE0107960E94B51463E872E0CE01CD
:1016D00001960E944614BE01695F7F4FCE010196BC
:1016E0000E94781563E972E00E948B15BC018FEAB5
:1016F00093E00E94B912CE0101960E94D81366E9C8
:1017000072E0CE0101960E944614BE01695F7F4FD0
:10171000CE0101960E947815BC0186ED92E00E94F0
:10172000B912CE0101960E94D813CE0107960E94ED
:10173000D81309C061EA72E0C8010E94A515882388
:1017400021F00E94B10211E001C010E0CE010D961F
:101750000E94D813812F62960FB6F894DEBF0FBE99
:10176000CDBFDF91CF911F910F91FF9008951F93EF
:10177000CF93DF9300D000D000D0CDB7DEB786ED99
:1017800092E00E94C50C1816190684F486ED92E0CA
:101790000E94380C80932103682F8FEA93E00E9407
:1017A0009C1260E070E0CB010E94360F8FEA93E05C
:1017B0000E943110181619060CF050C08FEA93E001
:1017C0000E944A1080932003682F8FEA93E00E94C2
:1017D0009C126091200384E193E00E943615809171
:1017E00020038A30B1F5209118033091190322505B
:1017F000310940E050E064E173E0CE0101960E94BF
:10180000C415BE016F5F7F4F84E193E00E947D1499
:10181000CE0101960E94D81364E173E0CE010196D7
:101820000E949414CE0101960E942208182FCE0126
:1018300001960E94D813111106C064E173E086ED91
:1018400092E00E94B91269EC72E084E193E00E9498
:101850009D1460E070E0CB010E94360F26960FB613
:10186000F894DEBF0FBECDBFDF91CF911F910895D9
:101870002091A4033091A50328173907B9F490915A
:10188000220380912303981789F0E0912203F0E06E
:10189000EC5DFC4F80812091220330E02F5F3F4FB1
:1018A0002F7733272093220390E008958FEF9FEF47
:1018B00008951F93CF93DF93DC015C968D919C91EB
:1018C0005D97009749F481E090E013969C938E9386
:1018D000129780E090E03BC05196ED91FC915297B9
:1018E00050962C915097322F30951FB75E964C91A1
:1018F0005E9741FB772770F941FD6095F894408130
:10190000772311F0422B01C043234083EC01219740
:10191000F1F748E0508160FF02C0522B01C0532311
:101920005083EC012197F1F76695415099F780813A
:10193000772311F0832301C0822B80831FBF5C9625
:101940008D919C915D970197F1F781E090E0DF9197
:10195000CF911F9108952091A4033091A5032817DA
:10196000390781F49091220380912303981751F055
:10197000E0912203F0E0EC5DFC4F8081992787FD28
:10198000909508958FEF9FEF08952091A4033091D3
:10199000A5032817390771F48091230320912203AE
:1019A00090E080589F4F821B910960E870E00E9490
:1019B0001416089580E090E008952091A4033091DA
:1019C000A5032817390739F48FB7F8941092230329
:1019D000109222038FBF0895E091A403F091A50314
:1019E000E817F90769F4A389B4899C9185898095E2
:1019F00089238C931092A5031092A40381E008958B
:101A000080E00895CF93DF93EC018A8D9B8D892B25
:101A1000F1F08091A4039091A5038C179D07B9F074
:101A2000009711F00E94EC0C8E8D8E7F8E8F10929D
:101A3000230310922203D093A503C093A403EB8940
:101A4000FC8980819D89892B808381E001C080E0B1
:101A5000DF91CF9108951F920F920FB60F9211242C
:101A60002F933F934F935F936F937F938F939F93A6
:101A7000AF93BF93EF93FF93E091A403F091A5037D
:101A8000309709F451C0868DA685B785958581FF6D
:101A900004C08C91892329F447C08C91892309F0D3
:101AA00043C0A389B4899C918589809589238C93AF
:101AB000868997890197F1F7208D318DA685B785A5
:101AC000758558E040E0C9010197F1F7842F90E057
:101AD00095958795482F6C91672309F04068515080
:101AE00091F7868D81FD40958091230390E00196CA
:101AF0008F77992720912203281749F0A09123037B
:101B0000B0E0AC5DBC4F4C938093230303C0868D43
:101B10008160868F828D938D0197F1F7A389B489B7
:101B20008C919589892B8C93FF91EF91BF91AF9107
:101B30009F918F917F916F915F914F913F912F91E5
:101B40000F900FBE0F901F9018952BEA32E0FC010A
:101B5000318320830C94EC0C1F93CF93DF93EC0123
:101B6000162F6E8D6695617081E06827812F0E9427
:101B7000FB0F61E0812F0E94C20F812F90E0FC01DA
:101B8000EC5EFB4FE491E88BFC01E85DFB4FE491D8
:101B9000F0E0EE0FFF1FEA5BFB4F859194919A8B6B
:101BA000898BDF91CF911F9108951F93CF93DF937E
:101BB000EC01162F60E0812F0E94C20F8E8D81FDF7
:101BC00004C061E0812F0E94FB0F1C87812F90E0F1
:101BD000FC01EC5EFB4FE491ED87FC01E85DFB4FFF
:101BE000E491F0E0EE0FFF1FE45CFB4F85919491D0
:101BF0009F878E87DF91CF911F910895FF920F935A
:101C00001F93CF93DF93EC01F62E522F1B821A8283
:101C100008EE13E020E030E00C831D832E833F8329
:101C20008BEA92E0998388831F8A1E8A198E188E08
:101C30001B8E1A8E1D8E1C8E8E8D8E7F50FB81F911
:101C40008E8F642FCE010E94AC0D6F2DCE01DF91DF
:101C5000CF911F910F91FF900C94D50DCF93DF93EF
:101C6000EC019A01AB011B8E1A8E198E188E1F8AF9
:101C70001E8A60E079E08DE390E00E944A16C90177
:101C80002430310520F0B9016350710902C061E0D0
:101C900070E07D8F6C8FEC85E63108F068C0B9018B
:101CA000769567956431710518F06351710902C02A
:101CB00061E070E07F8B6E8B069718F0C901059785
:101CC00002C081E090E0998F888FC901880F991F29
:101CD000820F931F96958795969587958D309105E0
:101CE00010F00C9702C081E090E09B8F8A8F2091CA
:101CF0006800E83050F091E0EE3008F490E081E0C8
:101D000001C0880F9A95EAF701C084E0822B809386
:101D100068002C85283038F02E3040F0263148F409
:101D20008CE690E008C08DE690E005C08BE690E080
:101D300002C080E090E09C8B8B8B283030F481E0F7
:101D400001C0880F2A95EAF70DC0822F90E02E304F
:101D500010F4089701C00E9791E001C0990F8A9581
:101D6000EAF7892F8D8B8C8D9D8D0197F1F7CE0130
:101D7000DF91CF910C94020D08951F920F920FB630
:101D80000F9211242F933F938F939F93AF93BF9301
:101D90008091A7039091A803A091A903B091AA03F1
:101DA0003091A60323E0230F2D3720F40196A11DC7
:101DB000B11D05C026E8230F0296A11DB11D209379
:101DC000A6038093A7039093A803A093A903B093BD
:101DD000AA038091AB039091AC03A091AD03B091A5
:101DE000AE030196A11DB11D8093AB039093AC038C
:101DF000A093AD03B093AE03BF91AF919F918F912C
:101E00003F912F910F900FBE0F901F9018952FB7F5
:101E1000F8946091A7037091A8038091A903909111
:101E2000AA032FBF08953FB7F8948091AB03909118
:101E3000AC03A091AD03B091AE0326B5A89B05C03D
:101E40002F3F19F00196A11DB11D3FBF6627782FC6
:101E5000892F9A2F620F711D811D911D42E0660F1F
:101E6000771F881F991F4A95D1F70895CF92DF9267
:101E7000EF92FF92CF93DF936B017C010E94130FCF
:101E8000EB01C114D104E104F10489F00E94BC0EFD
:101E90000E94130F6C1B7D0B683E734090F381E032
:101EA000C81AD108E108F108C851DC4FEACFDF9128
:101EB000CF91FF90EF90DF90CF900895789484B504
:101EC000826084BD84B5816084BD85B5826085BD36
:101ED00085B5816085BDEEE6F0E08081816080831C
:101EE000E1E8F0E0108280818260808380818160FF
:101EF0008083E0E8F0E0808181608083E1EBF0E0C6
:101F0000808184608083E0EBF0E080818160808369
:101F1000EAE7F0E080818460808380818260808352
:101F20008081816080838081806880831092C1007D
:101F30000895833081F028F4813099F08230A1F047
:101F400008958730A9F08830B9F08430D1F48091B9
:101F500080008F7D03C0809180008F778093800008
:101F6000089584B58F7702C084B58F7D84BD0895B0
:101F70008091B0008F7703C08091B0008F7D8093F7
:101F8000B0000895CF93DF9390E0FC01EC5EFB4F2F
:101F90002491FC01E85DFB4F8491882349F190E096
:101FA000880F991FFC01E05BFB4FA591B4918A5B00
:101FB0009B4FFC01C591D4919FB7611108C0F89463
:101FC0008C91209582238C93888182230AC0623071
:101FD00051F4F8948C91322F309583238C9388811F
:101FE000822B888304C0F8948C91822B8C939FBFA2
:101FF000DF91CF9108950F931F93CF93DF931F929B
:10200000CDB7DEB7282F30E0F901E050FC4F8491C6
:10201000F901EC5EFB4F1491F901E85DFB4F04916F
:102020000023C9F0882321F069830E94990F6981F8
:10203000E02FF0E0EE0FFF1FEA5BFB4FA591B4919C
:102040009FB7F8948C91611103C01095812301C052
:10205000812B8C939FBF0F90DF91CF911F910F9198
:102060000895FC01818D228D90E0805C9F4F821B42
:1020700091098F7399270895FC01918D828D98178E
:1020800031F0828DE80FF11D858D90E008958FEF7E
:102090009FEF0895FC01918D828D981761F0828DDC
:1020A000DF01A80FB11D5D968C91928D9F5F9F738C
:1020B000928F90E008958FEF9FEF08958EEC91E15D
:1020C000892B49F080E090E0892B29F00E94CE1105
:1020D00081110C9400000895FC01848DDF01A80F8C
:1020E000B11DA35ABF4F2C91848D90E001968F7340
:1020F0009927848FA689B7892C93A089B1898C915F
:1021000080648C93938D848D981306C00288F38924
:10211000E02D80818F7D80830895CF93DF93EC0144
:10212000888D8823C9F0EA89FB89808185FD05C0F7
:10213000A889B9898C9186FD0FC00FB607FCF5CF31
:10214000808185FFF2CFA889B9898C9185FFEDCF79
:10215000CE010E946C10E7CFDF91CF910895CF920E
:10216000DF92FF920F931F93CF93DF931F92CDB710
:10217000DEB76C0181E0D60158968C9358975B9638
:102180009C915B975C968C915C97981307C05096D6
:10219000ED91FC915197808185FD2EC0F601038D54
:1021A00010E00F5F1F4F0F731127F02EF601848D83
:1021B000F81211C00FB607FCF9CFD6015096ED9179
:1021C000FC915197808185FFF1CFC60169830E9400
:1021D0006C106981EBCF838DE80FF11DE35AFF4F3F
:1021E0006083D6015B960C935B975296ED91FC91C0
:1021F0005397808180620CC0D6015696ED91FC9178
:10220000579760835096ED91FC915197808180643F
:10221000808381E090E00F90DF91CF911F910F912B
:10222000FF90DF90CF900895BF92CF92DF92EF9210
:10223000FF92CF93DF93EC016A017B01B22EE88914
:10224000F98982E08083411581EE580761057105A7
:10225000A1F060E079E08DE390E0A70196010E9493
:10226000281621503109410951095695479537954E
:102270002795211580E1380798F0E889F9891082BF
:1022800060E874E88EE190E0A70196010E942816AC
:1022900021503109410951095695479537952795A0
:1022A000EC85FD853083EE85FF852083188EEC89D3
:1022B000FD89B082EA89FB89808180618083EA8917
:1022C000FB89808188608083EA89FB8980818068BE
:1022D0008083EA89FB8980818F7D8083DF91CF9124
:1022E000FF90EF90DF90CF90BF9008951F920F92D4
:1022F0000FB60F9211242F938F939F93EF93FF9319
:10230000E091BF03F091C0038081E091C503F0919B
:10231000C60382FD12C090818091C8038F5F8F73C6
:102320002091C903821751F0E091C803F0E0E15514
:10233000FC4F958F8093C80301C08081FF91EF917E
:102340009F918F912F910F900FBE0F901F90189516
:102350001F920F920FB60F9211242F933F934F931A
:102360005F936F937F938F939F93AF93BF93EF93FD
:10237000FF938FEA93E00E946C10FF91EF91BF9161
:10238000AF919F918F917F916F915F914F913F910D
:102390002F910F900FBE0F901F9018958FEA93E02A
:1023A0000E94311021E0892B09F420E0822F08954A
:1023B0001092B2031092B10388EE93E0A0E0B0E077
:1023C0008093B3039093B403A093B503B093B60383
:1023D0008BEB92E09093B0038093AF0385EC90E099
:1023E0009093BC038093BB0384EC90E09093BE0376
:1023F0008093BD0380EC90E09093C0038093BF0373
:1024000081EC90E09093C2038093C10382EC90E052
:102410009093C4038093C30386EC90E09093C6032B
:102420008093C5031092C8031092C9031092CA0387
:102430001092CB03089508950E945E0F0E941B1214
:102440000E948602CEE5D0E10E94B70B2097E1F30F
:102450000E945E10F9CFCF92DF92EF92FF920F931E
:102460001F93CF93DF936C017A01EB01E60EF71E09
:1024700000E010E0CE15DF0561F06991D601ED9125
:10248000FC910190F081E02DC6010995080F191FFC
:10249000F1CFC801DF91CF911F910F91FF90EF9085
:1024A000DF90CF9008956115710581F0DB010D90EB
:1024B0000020E9F7AD0141505109461B570BDC01E3
:1024C000ED91FC910280F381E02D099480E090E091
:1024D0000895EF92FF920F931F93CF93DF938C0198
:1024E000FB01C0E0D0E064917F018FEFE81AF80AA9
:1024F000662361F0D801ED91FC910190F081E02D0F
:10250000C8010995C80FD91FF701EDCFCE01DF91A2
:10251000CF911F910F91FF90EF900895DC01ED9105
:10252000FC91DB0114964D915C9115976D917C9116
:102530000280F381E02D0994DC01ED91FC91019082
:10254000F081E02D099467EC72E00C9453120F9324
:102550001F93CF93DF93EC010E9469128C01CE018F
:102560000E94A312800F911FDF91CF911F910F91B5
:1025700008950F931F93CF93DF93EC010E948E1267
:102580008C01CE010E94A312800F911FDF91CF9189
:102590001F910F9108950F931F93CF93DF93EC0139
:1025A0000E9453128C01CE010E94A312800F911F32
:1025B000DF91CF911F910F9108950F931F93CF93A8
:1025C000DF93EC010E94070F688779878A879B87D2
:1025D000E881F9810680F781E02DCE01099597FF0A
:1025E00015C00E94070F088519852A853B85601B49
:1025F000710B820B930B0C811D812E813F81601723
:1026000071078207930720F38FEF9FEFDF91CF9140
:102610001F910F9108954F925F926F927F928F92C8
:102620009F92AF92BF92CF92DF92EF92FF920F9361
:102630001F93CF93DF934C01EB0186E0849F8001D1
:10264000859F100D1124060F171FFB01E017F107DE
:1026500008F582819381892B21F13696F7CF40814D
:10266000518164817581DA01A60FB71F2C91332740
:1026700027FD30958217930711F56F5F7F4F7583A4
:102680006483228133816217730759F03696E0170D
:10269000F10728F3C4010E94DD1297FD46C0FE0138
:1026A000F6CFEC1BFD0BF595E7952BEA3AEAE29F96
:1026B000C001E39F900DF29F900D112438C0611569
:1026C000710521F3A480B58095012150310935832E
:1026D0002483DA01A20FB31FAC91BB27A7FDB095ED
:1026E0008A179B07F9F421153105C9F06A017B01AE
:1026F000E21AF30AE40EF51E412C512CD6016D901E
:102700006D01D7017D907D01671006C0BFEF4B1AA8
:102710005B0A4216530690F34216530699F6B582A9
:10272000A482B4CF232B71F6B1CF8FEF9FEFDF914F
:10273000CF911F910F91FF90EF90DF90CF90BF90BE
:10274000AF909F908F907F906F905F904F90089583
:10275000CF93DF9300D000D000D0CDB7DEB7FE011D
:10276000319626E0DF011D922A95E9F77A83698385
:102770005C834B8341E050E0BF010E940B1321E0DA
:10278000892B09F020E0822F26960FB6F894DEBF41
:102790000FBECDBFDF91CF910895FB0101900020C6
:1027A000E9F7AF0141505109461B570B0C94A81390
:1027B000FC01808191810C943117CF93DF93EC0160
:1027C00088819981009711F00E943117198218822F
:1027D0001D821C821B821A82DF91CF9108950F9374
:1027E0001F93CF93DF93EC018B016F5F7F4F888145
:1027F00099810E94C017009731F0998388831B83C9
:102800000A8381E001C080E0DF91CF911F910F9199
:102810000895CF93DF93EC0188819981892B29F06A
:102820008A819B818617970760F4CE010E94EF137F
:10283000882341F08C819D81892B19F4E881F981ED
:10284000108281E0DF91CF910895EF92FF920F9374
:102850001F93CF93DF93EC017B018A01BA010E94A1
:102860000914811104C0CE010E94DD1307C01D832D
:102870000C83B701888199810E94D318CE01DF9122
:10288000CF911F910F91FF90EF900895FC0111825D
:10289000108213821282158214826115710559F01B
:1028A000FB0101900020E9F7AF0141505109461B9F
:1028B000570B0C9425140895EF92FF920F931F93DA
:1028C000CF93DF93EC017B018A01BA010E940914C6
:1028D000811104C0CE010E94DD1307C01D830C834B
:1028E000B701888199810E94B118CE01DF91CF9103
:1028F0001F910F91FF90EF900895CF93DF93EC011C
:10290000FB018617970761F0608171816115710580
:1029100029F0448155810E94251402C00E94DD13D4
:10292000CE01DF91CF910895FC01118210821382B4
:102930001282158214820C947D14CF93DF93EC01E4
:102940006115710561F0FB0101900020E9F7AF010D
:1029500041505109461B570B0E94251402C00E948A
:10296000DD13CE01DF91CF9108950F931F93CF9385
:10297000DF93CDB7DEB7A2970FB6F894DEBF0FBED8
:10298000CDBF8C01CB01BA01F801118210821382F4
:1029900012821582148230E0AE014F5F5F4F0E94B9
:1029A000DA18BE016F5F7F4FC8010E949D14A29686
:1029B0000FB6F894DEBF0FBECDBFDF91CF911F9150
:1029C0000F9108950F931F93CF93DF9300D0CDB74E
:1029D000DEB78C016115710561F0CB0169837A83E3
:1029E0000E94B818AC0169817A81C8010E945C1408
:1029F00002C00E94DD13C8010F900F90DF91CF91AC
:102A00001F910F910895EF92FF920F931F93CF9311
:102A1000DF93EC017B010C811D816115710511F4BF
:102A200080E016C04115510591F0040F151FB80143
:102A30000E9409148823A1F3288139818C819D810A
:102A4000B701820F931F0E94D3181D830C8381E06E
:102A5000DF91CF911F910F91FF90EF900895FB01AF
:102A600044815581608171810C940315CF93DF936C
:102A700000D0CDB7DEB769831A8241E050E0BE01D5
:102A80006F5F7F4F0E9403150F900F90DF91CF91E2
:102A90000895EF92FF920F931F93CF93DF93EC0172
:102AA0007B016115710511F480E01BC0CB010E9410
:102AB000B8180097A9F00C811D81080F191FB801E3
:102AC000CE010E940914882379F3288139818C81F1
:102AD0009D81B701820F931F0E94B1181D830C8343
:102AE00081E0DF91CF911F910F91FF90EF900895BA
:102AF000CF93DF93EC01FB014481558160817181AB
:102B00000E940315811103C0CE010E94DD13CE0186
:102B1000DF91CF910895CF93DF93EC01611571059B
:102B200069F0FB0101900020E9F7AF014150510924
:102B3000461B570B0E940315811103C0CE010E9452
:102B4000DD13CE01DF91CF910895FC012481358101
:102B5000232B31F421E061157105A1F0FB0108C0C0
:102B6000FC01808191816115710531F421E0FC0146
:102B70008081882339F005C00E94CA1821E0892B82
:102B800009F020E0822F0895BF92CF92DF92EF925A
:102B9000FF920F931F93CF93DF936C017B01EA01A8
:102BA00089012417350720F48D2FE901042F182FF0
:102BB00069EC72E0C6010E944614D70114968D910B
:102BC0009C911597C817D907C8F48017910708F486
:102BD0008C01D701ED91FC911197E00FF11FB080AE
:102BE00010826D917C916C0F7D1FC6010E949D1417
:102BF000D701ED91FC91E00FF11FB082C601DF918A
:102C0000CF911F910F91FF90EF90DF90CF90BF90E9
:102C10000895FC0180819181009711F00C948A182D
:102C200060E070E0CB01089597FB072E16F4009446
:102C300007D077FD09D00E94701607FC05D03EF43E
:102C4000909581959F4F0895709561957F4F089558
:102C5000A1E21A2EAA1BBB1BFD010DC0AA1FBB1FA0
:102C6000EE1FFF1FA217B307E407F50720F0A21B12
:102C7000B30BE40BF50B661F771F881F991F1A947F
:102C800069F760957095809590959B01AC01BD01A9
:102C9000CF010895052E97FB1EF400940E94611643
:102CA00057FD07D00E94281607FC03D04EF40C9461
:102CB000611650954095309521953F4F4F4F5F4F8E
:102CC000089590958095709561957F4F8F4F9F4F98
:102CD00008950E948A16B7FF0895821B930B0895EA
:102CE000AA1BBB1B51E107C0AA1FBB1FA617B70732
:102CF00010F0A61BB70B881F991F5A95A9F780954E
:102D00009095BC01CD010895EE0FFF1F0590F49141
:102D1000E02D0994A29FB001B39FC001A39F700D45
:102D2000811D1124911DB29F700D811D1124911DD3
:102D30000895CF93DF938230910510F482E090E004
:102D4000E0914E04F0914F0420E030E0A0E0B0E0CC
:102D5000309739F14081518148175907B8F0481729
:102D6000590771F482819381109729F013969C93EF
:102D70008E9312972CC090934F0480934E0427C0DB
:102D80002115310531F04217530718F0A901DB0175
:102D900001C0EF019A01BD01DF010280F381E02D46
:102DA000D7CF21153105F9F0281B390B2430310517
:102DB00080F48A819B816115710521F0FB01938369
:102DC000828304C090934F0480934E04FE01329698
:102DD00044C0FE01E20FF31F819391932250310909
:102DE000398328833AC020914C0430914D04232B21
:102DF00041F4209102013091030130934D0420935E
:102E00004C0420910001309101012115310541F45C
:102E10002DB73EB74091040150910501241B350B9D
:102E2000E0914C04F0914D04E217F307A0F42E1B3F
:102E30003F0B2817390778F0AC014E5F5F4F24171E
:102E4000350748F04E0F5F1F50934D0440934C04DC
:102E50008193919302C0E0E0F0E0CF01DF91CF9148
:102E60000895CF93DF93009709F487C0FC01329750
:102E700013821282C0914E04D0914F04209781F4A6
:102E800020813181280F391F80914C0490914D048D
:102E90008217930779F5F0934D04E0934C046DC0CD
:102EA000DE0120E030E0AE17BF0750F412964D91DE
:102EB0005C9113979D014115510509F1DA01F3CF9A
:102EC000B383A28340815181840F951F8A179B078A
:102ED00071F48D919C911197840F951F02969183A7
:102EE000808312968D919C911397938382832115F1
:102EF000310529F4F0934F04E0934E043EC0D9010C
:102F00001396FC93EE9312974D915D91A40FB51F0C
:102F1000EA17FB0779F480819181840F951F02964F
:102F2000D90111969C938E938281938113969C93E1
:102F30008E931297E0E0F0E08A819B81009719F070
:102F4000FE01EC01F9CFCE01029628813981820F72
:102F5000931F20914C0430914D042817390769F4D0
:102F6000309729F410924F0410924E0402C013823D
:102F70001282D0934D04C0934C04DF91CF910895F9
:102F8000A0E0B0E0E6ECF7E10C943F19EC01CB01D6
:102F9000209719F40E949916B8C0FE01E60FF71F9A
:102FA0009E0122503109E217F30708F4ACC0D901A1
:102FB0000D911C91119706171707B8F005301105F0
:102FC00008F49FC0A801445051094617570708F458
:102FD00098C002501109061B170B019311936D93B2
:102FE0007C93CF010E9431178CC05B01A01AB10AFB
:102FF0004E01800E911EA0914E04B0914F04612CA1
:10300000712C60E070E0109709F449C0A815B9056B
:10301000C9F5ED90FC901197670142E0C40ED11CF8
:10302000CA14DB0478F147018A189B08640142E066
:10303000C40ED11C1296BC9012971396AC91B5E0B9
:10304000CB16D10440F0B282A38391828082D90151
:103050008D939C9309C00E5F1F4F0E0D1F1DF9012C
:1030600011830083EB2DFA2F6115710531F0DB011F
:103070001396FC93EE93129744C0F0934F04E093A1
:103080004E043FC06D917C9111976616770608F447
:103090003B01BD0112960D90BC91A02DB4CF609163
:1030A0004C0470914D0468157905E9F468167906A9
:1030B000D0F440910001509101014115510541F4B6
:1030C0004DB75EB76091040170910501461B570B27
:1030D000E417F507C0F4F0934D04E0934C04F901B4
:1030E000918380830EC00E9499167C01009759F04D
:1030F000A801BE010E94C118CE010E943117C7016C
:1031000004C0CE0102C080E090E0CDB7DEB7EEE0B3
:103110000C945B191F93FC0199278827BC01E89444
:1031200011911032E9F3193010F01E30C8F31B3240
:1031300051F01D3249F4689406C00E94F418610FE2
:10314000711D811D911D119110531A30B0F33EF481
:1031500090958095709561957F4F8F4F9F4F1F91F0
:103160000895FB01DC0105900D920020E1F7089520
:10317000FC0105900020E9F7809590958E0F9F1F28
:103180000895FB01DC0102C001900D9241505040B6
:10319000D8F70895FB01DC018D9101908019011091
:1031A000D9F3990B0895FB01DC0101900D920020E9
:1031B000E1F708952532310520F4223010F00C9407
:1031C000E518FA011082CA010895BB272A3051F48C
:1031D000992342F4BDE290958095709561957F4F5B
:1031E0008F4F9F4F0C940A19592F482F372F262F96
:1031F000660F771F881F991F660F771F881F991FFB
:10320000620F731F841F951F660F771F881F991FFA
:103210000895BB27FA01A62F621771058105910554
:10322000330B30FB66F0AA27660F771F881F991FA4
:10323000AA1FA21710F0A21B63953850A9F7A05D32
:10324000AA3308F0A95DA19336F7B111B1931082AA
:10325000CA010C942B19DC01FC01672F71917723B3
:10326000E1F7329704C07C916D9370836291AE1741
:10327000BF07C8F308952F923F924F925F926F92CB
:103280007F928F929F92AF92BF92CF92DF92EF92F6
:10329000FF920F931F93CF93DF93CDB7DEB7CA1B77
:1032A000DB0B0FB6F894DEBF0FBECDBF09942A88A2
:1032B000398848885F846E847D848C849B84AA844A
:1032C000B984C884DF80EE80FD800C811B81AA81D7
:1032D000B981CE0FD11D0FB6F894DEBF0FBECDBFA2
:1032E000ED01089514E0CEE5D4E004C0FE010E9493
:0E32F00086162296C036D107C9F7F894FFCF94
:1032FE0000005004800072657374617274696E67A9
:10330E002E2E2E006162700041542B4D4F4445000D
:10331E002B4D4F44453A204C6F526157414E204140
:10332E0042500041542B4D4F44453D4C5741425065
:10333E00004D6F64653A00414250206A6F696E65B8
:10334E006421006F7461610041542B4D4F44453D23
:10335E004C574F5441410041542B4A4F494E002B7C
:10336E004A4F494E3A20004A6F696E656420616C7F
:10337E007265616479004A6F696E206661696C6579
:10338E006400446F6E6500737973206765742076F0
:10339E00646400726164696F2067657420736E7275
:1033AE00002B4D4F44453A200041542B504F525460
:1033BE000041542B4D53473D002B4D53473A2000AF
:1033CE00506C65617365206A6F696E206E657477E7
:1033DE006F726B20666972737400504F52543A00CC
:1033EE0073686F770041542B49440041542B564566
:1033FE0052006A6F696E3A00766F6C746167650091
:10340E00566F6C746167653A006D5600534E523AB2
:10341E000064420068656C7000706F72743A00410F
:10342E00542B504F52543D0073656E64553A0073E1
:10343E00656E64433A002B4D4F44453A204C6F5213
:10344E006157414E204F5441410041542B434D533F
:10345E00473D00766572005472616E7363656976DE
:10346E0065722076657273696F6E3A00736C65656E
:10347E00703A00524E20736C6565702074696D65EC
:10348E003A20006D730073797320736C656570203C
:10349E000072657365740000000000590C2B12C594
:1034AE000C380CAB0CDD0C00000000AF102B1231F1
:1034BE00104A103C108D100D0A006E616E00696E80
:0634CE0066006F76660047
:00000001FF
