:100000000C94FC020C94251E0C94521E0C943C1C67
:100010000C943C1C0C943C1C0C94F6090C9424038A
:100020000C9424030C9424030C9424030C942403B4
:100030000C9424030C94CD1D0C9424030C942403E1
:100040000C947F1E0C9424030C9489210C94BB21E6
:100050000C9424030C9424030C9424030C94240384
:100060000C9424030C94240343005465706C6F7447
:10007000613A004A6F696E206D6F64653A004E4FB9
:1000800054204A4F494E45442120436865636B2004
:100090006E6574776F726B206F7220706172616D24
:1000A000657465727321004E6F206B6579732065EE
:1000B0006E7472792100627573792E2E2E004E6F48
:1000C0002066726565206368616E6E656C2C2072B7
:1000D00065747279696E672E2E2E0052656A6F699B
:1000E0006E20436F756E7465723A0052756E3A00F9
:1000F0004177616B652100545258204F4B00546981
:100100006D6520746F6F20686967682100496E769D
:10011000616C69642074696D652100506172616D64
:100120006574657273207375636365737366756C4C
:100130007920736176656421006D61632073617657
:1001400065004144523A0044523A00566F6C746163
:1001500067653A005472616E736369657665723AD9
:100160000046572076657273696F6E3A004C4942BB
:100170002076657273696F6E3A004170706C6963C6
:100180006174696F6E204555493A0044657669632C
:100190006520616464726573733A004465766963CF
:1001A00065204555493A002A2A2A2A2A5061726157
:1001B0006D65746572732073746F72656420696E07
:1001C00020466C6173683A2A2A2A2A2A0053656EEF
:1001D00064696E6720746F20706F727420005061C4
:1001E000796C6F61643A0053656E64696E67207460
:1001F0006F20706F727420005061796C6F61643A87
:10020000002073746F72656420746F2045455052EE
:100210004F4D004E657720706F72743A00506F72C8
:1002200074206F7574206F662072616E676521009F
:10023000506F77657220736176656421006D61632C
:1002400020736176650041445220736176656421B4
:10025000006D61632073617665004452207361769E
:10026000656421006D61632073617665004D6F6484
:10027000652073746F72656420746F204545505219
:100280004F4D00556E737570706F72746564206D9C
:100290006F646500446174613A00506F72743A0093
:1002A0004E6F20646174612E00466972737420631E
:1002B0006F6D6D756E69636174696F6E202E2E2E81
:1002C000006D6163206765742064657665756900FB
:1002D0002A2A2A2A2A2A2A2A2A2A2A2A2A2A2A2A7E
:1002E0002A2A2A2A2A2A2A2A2A2A2A2A2A2A2A2A6E
:1002F0002A2A2A2A2A2A2A2A0073797320676574EF
:10030000207665720046572076657273696F6E3A83
:10031000002A2A2A2A2A2A2A2A2A2A2A2A53656EBF
:10032000736F722072656164792A2A2A2A2A2A2A1E
:100330002A2A2A2A2A00372E53656E642070617992
:100340006C6F61643A090973656E64553A6461744F
:100350006128686578290D0A00362E53657420706F
:100360006F72743A0909706F72743A312D323535F3
:100370000D0A00352E4A6F696E2047573A09096DFC
:100380006163206A6F696E205B6162702C6F7461BB
:10039000615D0D0A00342E417070206B65793A0959
:1003A000096D61632073657420617070736B65798A
:1003B0000D0A00332E4E6574776F726B206B657972
:1003C0003A09096D616320736574206E776B736BF6
:1003D00065790D0A00322E446576204555493A0963
:1003E000096D616320736574206465766575690DB8
:1003F0000A00312E44657620416464726573733A55
:1004000009096D61632073657420646576616464B5
:10041000720D0A002A2A2A2A2A2A2A2A2A2A2A2A5B
:100420002A2A2A2A48454C502A2A2A2A2A2A2A2AAB
:100430002A2A2A2A2A2A2A0D0A00524E323438330E
:10044000206E6F7420646574656374656421005266
:100450004E32343833206368697020646574656394
:100460007465642100737973206765742076657202
:10047000002A2A2A2A2A2A2A2A2A2A2A2A4C6F5277
:100480006120524E32343833207365742A2A2A2A66
:100490002A2A2A2A2A2A2A2A000000000800020101
:1004A0000000030407000000000000000001020437
:1004B00008102040800102040810200102040810E6
:1004C00020040404040404040402020202020203DD
:1004D000030303030300000000230026002900009B
:1004E000000000250028002B000000000024002749
:1004F000002A0000407A10F35A00A0724E1809003A
:1005000010A5D4E80000E87648170000E40B540278
:100510000000CA9A3B000000E1F5050000809698B3
:1005200000000040420F000000A086010000001003
:100530002700000000E80300000000640000000045
:10054000000A00000000000100000000002C76D826
:1005500088DC674F0823DFC1DFAE59E1B1B796E50C
:10056000E3E453C63AE651997696E8E6C28426EB70
:10057000898C9B62ED407C6FFCEFBC9C9F40F2BA83
:10058000A56FA5F490055A2AF75C936B6CF9676D1B
:10059000C11BFCE0E40D47FEF520E6B500D0ED9070
:1005A0002E0300943577050080841E080000204E3D
:1005B0000A000000C80C333333330F986E128311D6
:1005C00041EF8D2114893BE65516CFFEE6DB18D1AD
:1005D000844B381BF77C1D901DA4BBE4242032847F
:1005E000725E228100C9F124ECA1E53D27003307AA
:1005F0007E0AEB214907850A11241FBECFEFD8E000
:10060000DEBFCDBF13E0A0E0B1E0E2E5FDE502C052
:1006100005900D92AA3EB107D9F725E0AAEEB3E006
:1006200001C01D92AB3BB207E1F715E0C4EFD5E086
:1006300004C02297FE010E940E29CE3ED107C9F7C1
:100640000E942F220C949C2E0C9400008091420456
:10065000882349F08091530490915404019690931B
:100660005404809353040895CF93DF93EC01FB016E
:10067000248135810E949526CE01DF91CF91089586
:100680008F929F92AF92BF92CF92DF92EF92FF92A2
:100690000F931F93CF93DF93CDB7DEB72C970FB691
:1006A000F894DEBF0FBECDBF88E10FB6F8948093FB
:1006B0006000109260000FBE85EF93E00E945A1810
:1006C00021E020934304E1E8F0E080E18083109290
:1006D000800085E0809309058FEF9FEF90930B05D5
:1006E00080930A05909387008093860085E180833C
:1006F0002093420486E293E09093080580930705D7
:1007000020936F0067E071E0CE0101960E945924AA
:10071000BE016F5F7F4F85EF93E00E947B0ACE01A1
:1007200001960E94EB238AEE93E00E947D080AEE78
:1007300013E0F80161857285882777FD8095982FF1
:100740000E94B42720E030E040E251E40E944A27B2
:100750006B017C01F80167817085882777FD8095A2
:10076000982F0E94B42720E030E040E251E40E943C
:100770004A274B015C016AE670E089E195E00E943E
:100780007C2221E0B701A601CE0101960E9421251D
:10079000BE016F5F7F4F89E195E00E94A122CE01EB
:1007A00001960E94EB23E0911905F0911A05019042
:1007B000F081E02D60EB89E195E0099568E670E055
:1007C00089E195E00E94BA2221E0B501A401CE01A1
:1007D00007960E9421256DE071E0CE0101960E94EE
:1007E0005924BE01695F7F4FCE0101960E94F72513
:1007F00066E171E00E940A26BC0189E195E00E9451
:10080000CC22CE0101960E94EB23CE0107960E94D6
:10081000EB232C960FB6F894DEBF0FBECDBFDF9151
:10082000CF911F910F91FF90EF90DF90CF90BF90ED
:10083000AF909F908F9008954F925F926F927F92AA
:100840008F929F92AF92BF92CF92DF92EF92FF92E0
:100850000F931F93CF93DF93CDB7DEB72C970FB6CF
:10086000F894DEBF0FBECDBF8C016DED73E0CE01FD
:1008700007960E9459246DED73E0C8010E94592427
:100880008AEE93E00E947D086091F1037091F2037B
:10089000882777FD8095982F0E94B42720E030E0CC
:1008A00040E251E40E944A272B013C016091F3038E
:1008B0007091F403882777FD8095982F0E94B427C4
:1008C00020E030E040E251E40E944A27AB01BC0145
:1008D00021E0CE0101960E942125BE016F5F7F4F6E
:1008E000CE0107960E949024CE0101960E94EB2330
:1008F00021E030E040E050E0BE01695F7F4FCE0173
:1009000001960E94952668E171E0CE0101960E9451
:100910002426F82ECE0101960E94EB23FF20D1F071
:100920006AE171E0C8010E94B02441E050E0BE01DC
:10093000695F7F4FCE0101960E943403BE016F5F55
:100940007F4FCE0107960E949024CE0101960E940F
:10095000EB2305C068E672E0C8010E94B02464EE93
:1009600072E0CE0101960E945924BE016F5F7F4F55
:10097000CE0107960E9491265C01CE0101960E944D
:10098000EB23BB24950140E050E0BE01695F7F4F3F
:10099000CE0101960E949526CE0101960E94DA268C
:1009A0006B017C01CE0101960E94EB2380E1C81609
:1009B000D1042CF46BE071E0C8010E94A52540E150
:1009C000B601CE0101960E94F524BE016F5F7F4FF4
:1009D000C8010E949E25CE0101960E94EB23A5012D
:1009E0004F5F5F4FBE01695F7F4FCE0101960E944E
:1009F0003403CE0101960E94DA262AE0269F700178
:100A0000279FF00C1124CE0101960E94EB2380E178
:100A1000E816F1042CF46BE071E0C8010E94A525F2
:100A200040E1B701CE0101960E94F524BE016F5F3F
:100A30007F4FC8010E949E25CE0101960E94EB23A4
:100A400021E0B301A201CE0101960E942125BE0141
:100A50006F5F7F4FCE0107960E949024CE010196D2
:100A60000E94EB2364EE72E0CE0101960E945924AD
:100A7000BE016F5F7F4FCE0107960E9491265C01F9
:100A8000CE0101960E94EB23BB24950140E050E08B
:100A9000BE01695F7F4FCE0101960E949526CE016F
:100AA00001960E94DA266B017C01CE0101960E941C
:100AB000EB2380E1C816D1042CF46BE071E0C8018F
:100AC0000E94A52540E1B601CE0101960E94F524C1
:100AD000BE016F5F7F4FC8010E949E25CE01019627
:100AE0000E94EB23A5014F5F5F4FBE01695F7F4FFF
:100AF000CE0101960E943403CE0101960E94DA26AF
:100B00002AE0269F7001279FF00C1124CE01019648
:100B10000E94EB2380E1E816F1042CF46BE071E015
:100B2000C8010E94A52540E1B701CE0101960E94AF
:100B3000F524BE016F5F7F4FC8010E949E25CE0144
:100B400001960E94EB23CE0107960E94EB23C80179
:100B50002C960FB6F894DEBF0FBECDBFDF91CF91BC
:100B60001F910F91FF90EF90DF90CF90BF90AF90CB
:100B70009F908F907F906F905F904F900895FF921D
:100B80000F931F93CF93DF93CDB7DEB763970FB665
:100B9000F894DEBF0FBECDBF8C016DED73E00E94F7
:100BA00059246DED73E0CE010D960E94592465EF36
:100BB00073E0CE0101960E94B117BE016F5F7F4FB7
:100BC000CE010D960E949024CE0101960E94EB2347
:100BD00021E030E040E050E0BE01635F7F4FCE0196
:100BE00001960E94952668E672E0CE0101960E9469
:100BF0002426F82ECE0101960E94EB23FF2011F04F
:100C00003FEF01C037EF42E050E0BE01635F7F4F2E
:100C1000CE0101963B8B0E943403BE016F5F7F4F74
:100C2000C8010E949024CE0101960E94EB2365EF3B
:100C300073E0CE0101960E94F616BE016F5F7F4FF2
:100C4000C8010E949E25CE0101960E94EB2385EFEC
:100C500093E00E94890A6DE171E084E694E00E94CD
:100C6000DE2265EF73E0CE0101960E949C0ABE0170
:100C70006F5F7F4FCE010D960E949024CE010196AA
:100C80000E94EB2369E271E0CE010D960E942426BA
:100C90003B89811101C03F776CE271E084E694E00A
:100CA0003B8B0E94DE2265EF73E0CE0101960E942D
:100CB0009C0ABE016F5F7F4FCE010D960E9490246B
:100CC000CE0101960E94EB23CE010D960E94DA26FA
:100CD000262F2295207F2F683B89232340E1622F16
:100CE000CE0107962B8B0E94C824BE01695F7F4FFF
:100CF000CE0101960E94A724B801CE0101960E9460
:100D0000F725BC01C8010E949024CE0101960E94E3
:100D1000EB23CE0107960E94EB232B89203198F418
:100D20006BE071E0CE0101960E945924B801CE011A
:100D300001960E94F725BC01C8010E949024CE01B3
:100D400001960E94EB23CE0101960E941C04BE0175
:100D50006F5F7F4FCE010D960E949024CE010196C9
:100D60000E94EB2342E050E0BE01635F7F4FCE0163
:100D700001960E943403BE016F5F7F4FC8010E943D
:100D80009E25CE0101960E94EB2321E030E040E059
:100D900050E0BE01635F7F4FCE0101960E94952611
:100DA0006AE171E0CE0101960E942426F82ECE0160
:100DB00001960E94EB2361E0F11001C060E08CE03D
:100DC0006B8B0E941B206B89019709F062608EE09B
:100DD0006B8B0E94661F6B898C3B92400CF06460A9
:100DE00040E1CE0107960E94C8246BE071E0CE017D
:100DF00001960E945924BE01695F7F4FCE01019682
:100E00000E94F725BC01C8010E949E25CE010196D3
:100E10000E94EB23CE0107960E94EB2367E371E06B
:100E2000CE0101960E945924B801CE0101960E947C
:100E3000F725BC0189E195E00E94CC22CE01019604
:100E40000E94EB23CE010D960E94EB23C80163960E
:100E50000FB6F894DEBF0FBECDBFDF91CF911F91CB
:100E60000F91FF9008956DED73E08DE594E00E9481
:100E700059246DED73E087E594E00E94592461E008
:100E800085EF93E00E94130A6AE08AEE93E00C94E7
:100E9000580887E394E00E94EB2381E394E00E94EA
:100EA000EB238BE294E00E94EB2385E294E00E9426
:100EB000EB238FE194E00E94EB2389E194E00E9410
:100EC000EB2383E194E00E94EB238DE094E00E9409
:100ED000EB2387E094E00E94EB2381E094E00E9402
:100EE000EB238BEF93E00E94EB2385EF93E00E94CE
:100EF000EB2387E594E00E94EB238DE594E00C94CE
:100F0000EB231F93CF93DF9300D000D000D0CDB759
:100F1000DEB780914B04882319F1CE0101960E941F
:100F2000BF05BE016F5F7F4F8DE594E00E94902466
:100F3000CE0101960E94EB2380E1809381006DE554
:100F400074E0CE0101960E94A724BE016F5F7F4F1F
:100F500085EF93E00E947C0FCE0101960E94EB2367
:100F6000809153049091540405973CF110925404DD
:100F700010925304CE0101960E94BF05BE016F5F1F
:100F80007F4F8DE594E00E949024CE0101960E944F
:100F9000EB2381E080934B046DE574E0CE01019674
:100FA0000E94A724BE016F5F7F4F85EF93E00E94F0
:100FB0007C0FCE0101960E94EB2389E195E00E940F
:100FC0004420181619060CF057C089E195E00E94DC
:100FD0005D2080935604682F89E195E00E94AF223E
:100FE0006091560487E594E00E94B52580915604EF
:100FF0008A3009F041C01092540410925304209199
:101000005B0430915C042250310940E050E067E518
:1010100074E0CE0101960E949526BE016F5F7F4F5E
:1010200087E594E00E949024CE0101960E94EB2374
:1010300067E574E0CE0101960E94A724BE016F5FB0
:101040007F4F85EF93E00E947F10182FCE0101960D
:101050000E94EB2311110AC0109254041092530401
:1010600067E574E084E694E00E94CC226DED73E0C5
:1010700087E594E00E94B02484E694E00E94E51B9A
:10108000181619065CF484E694E00E94591B8093BC
:101090005504682F89E195E00E94AF2226960FB68D
:1010A000F894DEBF0FBECDBFDF91CF911F910895A1
:1010B000CF93DF93EC0170E0FB01E355FB4FE4912C
:1010C000E883FB01EF53FB4FE491F0E0EE0FFF1FCD
:1010D000EB52FB4F859194919A8389830E94C91E9C
:1010E0006B837C838D839E838DE19CEF98878F83B8
:1010F0009A878987DF91CF9108957F928F929F92EF
:10110000AF92BF92CF92DF92EF92FF920F931F9315
:10111000CF93DF93CDB7DEB7A9970FB6F894DEBFB4
:101120000FBECDBF7C01FC017080018112810E9445
:10113000C91E6E01FAE2CF0ED11CFE01319611924A
:10114000EC15FD05E1F7F70183809480A580B6805A
:101150009B01AC01281939094A095B0949015A0167
:1011600030ED831637E09306A104B10408F4D8C02B
:101170006383748385839683F894F8018181B72C07
:10118000B0948B2181837894EEE7AE2E82E090E0DC
:101190000E94201FF8018081872129F4AA94B1F7C9
:1011A00081E090E0C2C0F894F80182818B218283B3
:1011B00081818729818378948CE494E00E94201FA8
:1011C000F894F80181818B21818378947AE1B72E9C
:1011D00082E090E00E94201FF8018081872129F49D
:1011E000BA94B1F782E090E0A0C063E3B62E82E04B
:1011F00090E00E94201FF8018081872129F0BA9495
:10120000B1F783E090E091C09E012F5F3F4F5901FD
:1012100054E2952E82E090E00E94201FF801808128
:10122000872129F49A94B1F784E090E07EC0912C54
:10123000939482E090E00E94201FF8018081872132
:1012400031F0F3E39F12F4CF85E090E06EC0F5013A
:1012500091925F01EC15FD05D9F6FE0132968FE003
:1012600090E040E050E021E030E061916C3048F0E7
:10127000B901082E02C0660F771F0A94E2F7462BC9
:10128000572B019790F7FE0172968FE090E020E0D7
:1012900030E061E070E0A191AC3048F0DB01082E55
:1012A00002C0AA0FBB1F0A94E2F72A2B3B2B01971F
:1012B00090F7FE01B29687E090E060E0A1E0B0E038
:1012C00071917C3038F08D01082E01C0000F0A9416
:1012D000EAF7602B0197A0F7CA019F77F701908783
:1012E000878337FF08C0C9019F7791958195910940
:1012F0009287818703C0F7013287218770E0852FAD
:101300009927840F911D432F5527840F951F820F16
:10131000911D99276817790731F480E090E005C0A6
:1013200087E090E002C086E090E0A9960FB6F894BE
:10133000DEBF0FBECDBFDF91CF911F910F91FF9008
:10134000EF90DF90CF90BF90AF909F908F907F9065
:1013500008954115510529F4EAE7F0E080818F777F
:1013600080836A307105B1F063FF02C088E201C07A
:1013700088E06770682B88E190E00FB6F894A89534
:10138000809360000FBE60936000E0E6F0E0808133
:1013900080648083232BA1F483B7817F846083BF23
:1013A000F89483B7816083BF85B7806685BF8F7DE2
:1013B00085BF7894889583B78E7F83BF78940EC05D
:1013C00083B7817F846083BFF89483B7816083BFD4
:1013D0007894889583B78E7F83BF7894452B29F4C2
:1013E000EAE7F0E080818068808308951F920F9281
:1013F0000FB60F9211248F9388E10FB6F894809363
:101400006000109260000FBE8F910F900FBE0F9082
:101410001F901895089561E085E00C94E51F0C94E9
:10142000E92B0C94F12B1F93CF93DF93EC01162F34
:101430006DED73E00E9459246DED73E0CE010696C8
:101440000E9459246DED73E0CE010C960E94592440
:101450006DED73E0CE0142960E9459246DED73E06C
:10146000CE0148960E94592460E471E0CE014E9668
:101470000E9459246DED73E0CE0184960E94592498
:101480006DED73E0CE018A960E9459246DED73E0F4
:10149000CE01C0960E94592465E471E0CE01C69643
:1014A0000E9459246DED73E0CE01CC960E94592420
:1014B0006DED73E0CE018E5B9F4F0E945924FE01BB
:1014C000EA5AFF4F1082359681E08083C35ADF4F7E
:1014D0001883DF91CF911F91089560E084E00E940E
:1014E000E51F64E670E080E090E00E94F81E61E095
:1014F00084E00C94E51F0C960C94902420E048E0C6
:1015000067E084E694E00C940F1D84E694E00C946C
:10151000B61C84E694E00E94E51B181619065CF4DC
:1015200062E070E080E090E00E94F81E84E694E0C3
:101530000E94591BEECF0895EF92FF920F931F93D5
:10154000CF93DF9300D000D000D0CDB7DEB78C01B1
:101550007B016DED73E00E94592484E694E00E94C3
:10156000E51B1816190634F060E070E0CB010E940C
:10157000F81EF3CF8CE5E80EF11C84E694E00E949F
:10158000E51B1816190664F584E694E00E94591BC1
:10159000F7018083682FC8010E94B52560E070E0E4
:1015A000CB010E94F81E0E94F41DF70180818A3051
:1015B00021F7F801248135812250310940E050E0C3
:1015C000B801CE0101960E949526BE016F5F7F4F44
:1015D000C8010E949024CE0101960E94EB23CDCF3A
:1015E000C80126960FB6F894DEBF0FBECDBFDF91BF
:1015F000CF911F910F91FF90EF900895CF92DF92BE
:10160000EF92FF920F931F93CF93DF93CDB7DEB787
:101610002C970FB6F894DEBF0FBECDBF8C017B01B7
:101620006A016DED73E0CE0107960E94592469E4CA
:1016300071E0CE0101960E945924B601CE010196B7
:101640000E94F725BC0184E694E00E94CC22CE01E2
:1016500001960E94EB23B701CE0101960E949C0ADD
:10166000BE016F5F7F4FCE0107960E949024CE018E
:1016700001960E94EB2363E571E0CE0107960E947C
:1016800024269701255B3F4F6901882371F0F901FA
:10169000108267EA70E089E195E00E94BA2261E673
:1016A00071E0C8010E9459241CC068E671E084E61C
:1016B00094E00E94E023882321F081E0F6018083FA
:1016C00008C0F60110826EE770E089E195E00E94A3
:1016D000BA22C7010E94890A63E072E0C8010E9431
:1016E0005924CE0107960E94EB23C8012C960FB611
:1016F000F894DEBF0FBECDBFDF91CF911F910F9148
:10170000FF90EF90DF90CF9008958F929F92AF92CD
:10171000BF92CF92DF92EF92FF920F931F93CF93DE
:10172000DF93CDB7DEB762970FB6F894DEBF0FBE7A
:10173000CDBF6C018B016DED73E0CE010D960E9463
:1017400059248FE090E00E940F0A98012A5C3F4FD5
:1017500079018F3F31F465E471E0C9010E94B02442
:1017600005C06FE671E0C9010E94B02463E770E034
:1017700089E195E00E947C22B70189E195E00E9411
:10178000CC2258013BE4A30EB11C480189E5880E28
:10179000911CF5018081811130C0F401808191811B
:1017A000019691838083B701CE0107960E94A724FA
:1017B000AE01495F5F4FB801CE0101960E94FE0A5B
:1017C000BE016F5F7F4FCE010D960E949024CE0127
:1017D00001960E94EB23CE0107960E94EB2361E65F
:1017E00071E0CE010D960E942426882391F261E6D5
:1017F00071E0C6010E94592408C0C8010E94890AEC
:1018000063E072E0C6010E945924CE010D960E9449
:10181000EB23C60162960FB6F894DEBF0FBECDBFB4
:10182000DF91CF911F910F91FF90EF90DF90CF90BC
:10183000BF90AF909F908F9008954F925F926F925C
:101840007F928F929F92AF92BF92CF92DF92EF9250
:10185000FF920F931F93CF93DF93CDB7DEB72C97F3
:101860000FB6F894DEBF0FBECDBF6C017B014A01FD
:10187000590138016DED73E0CE0107960E9459249D
:101880008701005D1F4F6DED73E0C8010E94B02419
:1018900027018BE4480E511CF2018081811129C07F
:1018A000B701CE0101960E94850BBE016F5F7F4F8D
:1018B000CE0107960E949024CE0101960E94EB2350
:1018C00061E671E0CE0107960E942426882331F05C
:1018D00061E671E0C6010E9459246EC163E072E0C6
:1018E000CE0107960E942426882319F081E0F20198
:1018F000808364E771E0C4010E9424268823D9F024
:1019000066E771E0CE0101960E945924B501CE012F
:1019100001960E94F72563E372E00E940A26B30154
:101920000E94F725BC0184E694E00E94CC22CE01FF
:1019300001960E94EB2364E871E0C4010E94242612
:101940008823D9F066E871E0CE0101960E945924FF
:10195000B501CE0101960E94F72563E372E00E9473
:101960000A26B3010E94F725BC0184E694E00E9498
:10197000CC22CE0101960E94EB23B701CE01019645
:101980000E949C0ABE016F5F7F4FCE0107960E94A6
:101990009024CE0101960E94EB2362E971E0CE0112
:1019A00001960E945924BE01695F7F4FCE010196C6
:1019B0000E94F725BC0189E195E00E94CC22CE016E
:1019C00001960E94EB2364EA71E0CE0107960E9423
:1019D00024268823D9F0F2011082B701CE010196A6
:1019E0000E94850BBE016F5F7F4FCE0107960E945C
:1019F0009024CE0101960E94EB2361E671E0CE01B6
:101A000007960E942426811163CF46C066EB71E0E1
:101A1000CE0107960E942426882379F06EEB70E0B1
:101A200089E195E00E94BA22F201108261EC71E036
:101A300084E694E00E94DE2216C06BEC71E0CE01D9
:101A400007960E942426882369F166EB70E089E1FD
:101A500095E00E94BA2261EC71E084E694E00E9475
:101A6000DE22F2011082B701CE0101960E949C0A8B
:101A7000BE016F5F7F4FCE0107960E949024CE017A
:101A800001960E94EB23B701CE0101960E94850BBF
:101A9000CE0101960E94EB236FEA71E0C6010E941D
:101AA00059248AC060ED71E0CE0107960E94242679
:101AB000882331F06EED71E0C6010E9459247CC08C
:101AC00064E670E080E090E00E94F81EB701CE016D
:101AD00001960E949C0ABE016F5F7F4FCE01079660
:101AE0000E949024CE0101960E94EB236DEE71E0DE
:101AF000CE0101960E945924BE01695F7F4FCE013D
:101B000001960E94F725BC0189E195E00E94CC2254
:101B1000CE0101960E94EB236CEF71E0CE01079697
:101B20000E942426811133C047E050E0BE01695F66
:101B30007F4FCE0101960E943403BE016F5F7F4F3D
:101B4000C8010E949024CE0101960E94EB2360E21E
:101B5000C8010E94712699270196AC01B801CE01F7
:101B600001960E94340366E072E0CE0101960E9465
:101B70002426811112C069E072E0CE0101960E9414
:101B8000242681110AC0CE0101960E94EB2363E056
:101B900072E0C6010E9459240FC061E089E00E94F2
:101BA000E51F68EC70E080E090E00E94F81E60E0C5
:101BB00089E00E94E51FE7CFCE0107960E94EB2344
:101BC000C6012C960FB6F894DEBF0FBECDBFDF91D5
:101BD000CF911F910F91FF90EF90DF90CF90BF902A
:101BE000AF909F908F907F906F905F904F900895EF
:101BF0008F929F92AF92BF92CF92DF92EF92FF921D
:101C00000F931F93CF93DF93CDB7DEB72C970FB60B
:101C1000F894DEBF0FBECDBF8C014B0188E10FB63B
:101C2000F89480936000109260000FBEC8010E947B
:101C3000890A6CE072E084E694E00E94DE22B8013A
:101C4000CE0101960E949C0A580182E4A80EB11CA4
:101C5000BE016F5F7F4FC5010E949024CE010196A7
:101C60000E94EB236AE172E0CE0101960E945924A2
:101C7000B501CE0101960E94F725BC0189E195E0EE
:101C80000E94CC22CE0101960E94EB23C4010E9447
:101C9000DA266B017C01B401C8014E960E949024A3
:101CA000C701B6010E94B42720E030E64AE657E4B7
:101CB0000E94402820E030EB41E855E40E94E526F0
:101CC000AB01BC0120E0CE0107960E94212565E210
:101CD00072E0CE0101960E945924B401CE01019612
:101CE0000E94F72565E372E00E940A26BC0189E1A3
:101CF00095E00E94CC22CE0101960E94EB236BE37B
:101D000072E0CE0101960E945924BE01695F7F4FA7
:101D1000CE0101960E94F725BC0184E694E00E9462
:101D2000CC22CE0101960E94EB2364E670E080E0B5
:101D300090E00E94F81E60E08DE00E94E51FF8012F
:101D4000E35BFF4F1082399610823497108260E077
:101D500085E00E94E51F43E050E06AE07AE080E021
:101D60000E94F51D41E050E06BE07AE081E00E94C6
:101D7000F51D88E10FB6F894809360001092600022
:101D80000FBE20E030E040E050E06AE070E083E623
:101D900094E00E94A90980E00E94151E81E00E9443
:101DA000151EF801EA5AFF4FFF24F394F08285E0F4
:101DB0000E941B20F801EE5AFF4F019709F04FC017
:101DC000F082C8010E946D0A84E694E00E94E51B3F
:101DD00018161906CCF766E472E084E694E00E94D7
:101DE000E0238823C1F367EF70E089E195E00E946A
:101DF000BA22B801CE0101960E949C0ACE0101963A
:101E00000E94EB2362E370E080E090E00E94F81E05
:101E10006DE472E0CE0101960E945924B501CE0115
:101E200001960E94F725BC0184E694E00E94CC2232
:101E3000CE0101960E94EB2384E694E00E94E51B0C
:101E400018161906CCF763E072E084E694E00E946D
:101E5000E0238823C1F3F801E55BFF4F1082C8013E
:101E60000E94890A61E08DE00E94E51F6CE572E046
:101E700084E694E00E94DE2220E030E040E050E082
:101E800066E070E083E694E00E94A90984E694E0AD
:101E90000E94E51B18161906CCF7B801CE01019671
:101EA0000E949C0A63E072E0CE0101960E94242603
:101EB000182FCE0101960E94EB23112331F060EF21
:101EC00070E089E195E00E94BA22CE0107960E9457
:101ED000EB232C960FB6F894DEBF0FBECDBFDF917B
:101EE000CF911F910F91FF90EF90DF90CF90BF9017
:101EF000AF909F908F900895CF92DF92EF92FF92D4
:101F00000F931F93CF93DF93CDB7DEB7A4970FB690
:101F1000F894DEBF0FBECDBF7C018B016DED73E089
:101F2000CE014F960E9459246DED73E0CE01499683
:101F30000E945924670186E5C80ED11CF601108263
:101F4000B801CE0149960E9490246BE672E0CE0162
:101F500001960E945924BE01675E7F4FCE01019613
:101F60000E94F725BC0189E195E00E94CC22CE01B8
:101F700001960E94EB23BE01675E7F4FCE0107965C
:101F80000E94A724B7016E5E7F4FCE010D960E947E
:101F9000A72464E771E0CE0143960E9459248E0184
:101FA000095F1F4F9E01235F3F4FAE014D5E5F4FA4
:101FB000B701CE0101960E941D0CBE016F5F7F4FDD
:101FC000CE014F960E949024CE0101960E94EB23F1
:101FD000CE0143960E94EB23CE010D960E94EB2387
:101FE000C8010E94EB2368E772E0CE0101960E94CF
:101FF0005924BE01615E7F4FCE0101960E94F725F4
:10200000BC0189E195E00E94CC22CE0101960E949C
:10201000EB236FEA71E0CE014F960E9424268823BD
:1020200031F081E0F60180833597808351C08701CC
:10203000095A1F4FF8018081918101969183808315
:102040006BEE70E089E195E00E947C22F8016081EE
:1020500071814AE0CE0101960E94F524BE016F5FB6
:102060007F4F89E195E00E94CC22CE0101960E942B
:10207000EB236BED70E089E195E00E947C22F70193
:10208000E75AFF4F608171814AE0CE0101960E94BC
:10209000F524BE016F5F7F4F89E195E00E94CC225D
:1020A000CE0101960E94EB23C7010E94890AB70165
:1020B000625E7F4FCE0101960E94A724BE016F5F32
:1020C0007F4FC7010E94F80DCE0101960E94EB23BD
:1020D000CE0149960E94EB23CE014F960E94EB233E
:1020E000A4960FB6F894DEBF0FBECDBFDF91CF919F
:1020F0001F910F91FF90EF90DF90CF9008959F92E6
:10210000AF92BF92CF92DF92EF92FF920F931F9305
:10211000CF93DF93CDB7DEB7A4970FB6F894DEBFA9
:102120000FBECDBF7C018B012CE030E040E050E0E1
:10213000CE0101960E9495266CE772E0CE010196D1
:102140000E942426D82ECE0101960E94EB23DD208A
:10215000B1F14CE050E0B801CE0101960E94340389
:10216000BE016F5F7F4FC8010E949024CE0101968F
:102170000E94EB2369E271E0C8010E9424268823B3
:1021800051F081E0F701E65BFF4F80836FEF81E163
:1021900090E00E94110A69E872E0C8010E942426BA
:1021A000882309F4B7C4F701E65BFF4F81E0808321
:1021B00060E081E190E00E94110A81E005C66DE8CF
:1021C00072E0C8010E942426882309F461C06DEDE5
:1021D00073E0CE0107960E945924B701605D7F4FDE
:1021E000CE0101960E94A724BE016F5F7F4FCE01F2
:1021F00007960E949024CE0101960E94EB238B85C6
:102200009C85029738F460EA72E089E195E00E94CB
:10221000BA227CC460E2CE0107960E9471268C012E
:102220006AE972E089E195E00E947C221127980119
:1022300040E050E0BE01695F7F4FCE0101960E94F1
:102240009526BE016F5F7F4F89E195E00E94CC2209
:10225000CE0101960E94EB2364E972E089E195E0EA
:102260000E947C22A8014F5F5F4FBE01695F7F4FD4
:10227000CE0101960E943403BE016F5F7F4F89E15A
:1022800095E00E94CC22CE0101960E94EB233EC431
:1022900029E030E040E050E0B801CE0101960E9414
:1022A000952666E972E0CE0101960E942426D82E7A
:1022B000CE0101960E94EB23DD2009F44DC049E0D8
:1022C00050E0B801CE0101960E943403BE016F5F59
:1022D0007F4FC8010E949024CE0101960E94EB23FB
:1022E00065E471E0C8010E942426882369F08FE02C
:1022F00090E00E940F0A8F3F09F40CC46FEF8FE04B
:1023000090E00E94110A1CC06FE671E0C8010E94B3
:102310002426882369F08FE090E00E940F0A88232A
:1023200009F4F8C360E08FE090E00E94110A08C051
:1023300063E872E089E195E00E94BA2281E044C539
:10234000F701E55BFF4F10826DE672E089E195E0F1
:102350000E94BA2281E038C523E030E040E050E03E
:10236000B801CE0101960E9495266DEA72E0CE0179
:1023700001960E942426D82ECE0101960E94EB23BE
:10238000DD2009F45CC043E050E0B801CE010196C5
:102390000E943403BE016F5F7F4F8701065D1F4FB0
:1023A000C8010E949024CE0101960E94EB2360EAAE
:1023B00072E0CE0101960E945924B801CE01019627
:1023C0000E94F725BC0184E694E00E94CC22CE0155
:1023D00001960E94EB23B701CE0101960E949C0A50
:1023E00063E072E0CE0101960E942426182FCE01F0
:1023F00001960E94EB23112309F48CC364E672E07A
:1024000084E694E00E94BA22B701CE0101960E94B0
:102410009C0A63E072E0CE0101960E942426182FE8
:10242000CE0101960E94EB23112309F473C36AE5E0
:1024300072E089E195E00E94BA2281E0C5C424E0FF
:1024400030E040E050E0B801CE0101960E949526B0
:102450006CEA72E0CE0101960E942426D82ECE01AD
:1024600001960E94EB23DD2009F459C044E050E0BE
:10247000B801CE0101960E943403BE016F5F7F4F09
:10248000C8010E949024CE0101960E94EB2361EBCB
:1024900072E0CE0101960E945924B801CE01019646
:1024A0000E94F725BC0184E694E00E94CC22CE0174
:1024B00001960E94EB23B701CE0101960E949C0A6F
:1024C00063E072E0CE0101960E942426182FCE010F
:1024D00001960E94EB23112309F41CC361E572E00D
:1024E00084E694E00E94BA22B701CE0101960E94D0
:1024F0009C0A63E072E0CE0101960E942426182F08
:10250000CE0101960E94EB23112309F403C366E474
:1025100072E089E195E00E94BA2281E055C426E08C
:1025200030E040E050E0B801CE0101960E949526CF
:102530006EEB72E0CE0101960E942426D82ECE01C9
:1025400001960E94EB23DD2009F45BC046E050E0D9
:10255000B801CE0101960E943403BE016F5F7F4F28
:10256000C8010E949024CE0101960E94EB2365ECE5
:1025700072E0CE0101960E945924B7016C5D7F4F35
:10258000CE0101960E94F725BC0184E694E00E94EA
:10259000CC22CE0101960E94EB23B701CE01019619
:1025A0000E949C0A63E072E0CE0101960E942426FC
:1025B000182FCE0101960E94EB23112309F4AAC221
:1025C0006DE372E084E694E00E94BA22B701CE0186
:1025D00001960E949C0A63E072E0CE0101960E947F
:1025E0002426182FCE0101960E94EB23112309F413
:1025F00091C260E372E089E195E00E94BA2281E035
:10260000E3C325E030E040E050E0B801CE010196A0
:102610000E94952665ED72E0CE0101960E94242667
:10262000D82ECE0101960E94EB23DD2009F442C092
:1026300045E050E0B801CE0101960E943403BE018E
:102640006F5F7F4FC8010E949024CE0101960E94C7
:10265000EB2322E1E20EF11CB801C7010E94902495
:10266000C7010E94DA26673E71058105910544F095
:102670006DE172E089E195E00E94BA2280E0A4C396
:10268000C7010E94DA268AE090E00E94110A63E105
:1026900072E089E195E00E947C22B80189E195E031
:1026A0000E94A12261E072E089E195E00E94BA22D5
:1026B00081E08AC326E030E040E050E0B801CE017E
:1026C00001960E9495266BED72E0CE0101960E9464
:1026D0002426D82ECE0101960E94EB23DD2009F49A
:1026E0004BC061E089E00E94E51F6DED73E0CE0113
:1026F0004F960E94592446E050E0B801CE01019661
:102700000E943403BE016F5F7F4FC8010E94902476
:10271000CE0101960E94EB2368EF71E089E195E01C
:102720000E947C22B80189E195E00E94CC22B80188
:10273000C7010E94902467EE71E089E195E00E9454
:102740007C2287010E5E1F4FB80189E195E00E944F
:10275000A12262EE72E089E195E00E94DE22B701DB
:10276000CE010D960E94A724B801CE0143960E9487
:10277000A72464E771E061C026E030E040E050E06B
:10278000B801CE0101960E94952661EF72E0CE015C
:1027900001960E942426D82ECE0101960E94EB239A
:1027A000DD2009F48BC061E089E00E94E51F6DED3A
:1027B00073E0CE014F960E94592446E050E0B801E4
:1027C000CE0101960E943403BE016F5F7F4FC801A6
:1027D0000E949024CE0101960E94EB236EED71E0E1
:1027E00089E195E00E947C22B80189E195E00E9490
:1027F000CC22B801C7010E9490246DEC71E089E100
:1028000095E00E947C2287010E5E1F4FB80189E18E
:1028100095E00E94A12262EE72E089E195E00E94BB
:10282000DE22B701CE010D960E94A724B801CE0189
:1028300043960E94A72464E871E0CE0149960E9465
:1028400059248E01035F1F4F9E012D5E3F4FAE0145
:10285000475E5F4FB701CE0107960E941D0C66EEE2
:1028600072E0CE0101960E945924BE01695F7F4F3C
:10287000CE0101960E94F725BC0189E195E00E94F6
:10288000CC22CE0101960E94EB23CE0107960E9436
:10289000EB23CE0149960E94EB23CE0143960E9482
:1028A000EB23C8010E94EB2360E089E00E94E51F52
:1028B000CE014F960E94EB2381E086C268EF72E062
:1028C000C8010E942426882309F426C16DED73E017
:1028D000CE0107960E94592467EA71E089E195E0EC
:1028E0000E94BA226BE971E089E195E00E947C22A6
:1028F0006DEF72E084E694E00E94DE22B701CE0123
:1029000001960E949C0ABE016F5F7F4FCE01079621
:102910000E949024CE0101960E94EB23BE01695FC4
:102920007F4F89E195E00E94CC226BE871E089E15C
:1029300095E00E947C226CE073E084E694E00E94C3
:10294000DE22B701CE0101960E949C0ABE016F5F94
:102950007F4FCE0107960E949024CE0101960E94DF
:10296000EB23BE01695F7F4F89E195E00E94CC2295
:102970006AE771E089E195E00E947C226CE173E0F6
:1029800084E694E00E94DE22B701CE0101960E9407
:102990009C0ABE016F5F7F4FCE0107960E94902474
:1029A000CE0101960E94EB23BE01695F7F4F89E152
:1029B00095E00E94CC226DE671E089E195E00E94ED
:1029C0007C226BE273E089E195E00E94DE2261E601
:1029D00071E089E195E00E947C22B701645F7F4F3E
:1029E00089E195E00E94CC2264E571E089E195E0FF
:1029F0000E947C226FE273E084E694E00E94DE2273
:102A0000B701CE0101960E949C0ABE016F5F7F4F05
:102A1000CE0107960E949024CE0101960E94EB23DE
:102A2000BE01695F7F4F89E195E00E94CC226BE493
:102A300071E089E195E00E947C226BE373E084E61B
:102A400094E00E94DE22B701CE0101960E949C0A0A
:102A5000BE016F5F7F4FCE0107960E949024CE018A
:102A600001960E94EB23BE01695F7F4F89E195E0EB
:102A70000E94A12267E473E089E195E00E94DE22D2
:102A800067E471E089E195E00E947C226CE271E0EC
:102A900084E694E00E94DE22B701CE0101960E94F6
:102AA0009C0ABE016F5F7F4FCE0107960E94902463
:102AB000CE0101960E94EB23BE01695F7F4F89E141
:102AC00095E00E94CC2262E471E089E195E00E94E9
:102AD0007C226DE171E084E694E00E94DE22B70181
:102AE000CE0101960E949C0ABE016F5F7F4FCE010E
:102AF00007960E949024CE0101960E94EB23BE010E
:102B0000695F7F4F89E195E00E94CC22CE01079654
:102B10000E94EB2381E058C16AE473E0C8010E947F
:102B20002426882309F46BC06DED73E0CE0107966F
:102B30000E94592469E371E084E694E00E94BA227D
:102B400084E694E00E94E51B18161906CCF73CE5D4
:102B5000E30EF11C84E694E00E94E51B18161906AA
:102B60000CF046C084E694E00E94591BF701808374
:102B7000682FCE0107960E94B525F70180818A3023
:102B800049F72B853C852250310940E050E0BE01D9
:102B9000695F7F4FCE0101960E949526BE016F5F4F
:102BA0007F4FCE0107960E949024CE0101960E948D
:102BB000EB2362E971E0CE0101960E945924BE0127
:102BC000695F7F4FCE0101960E94F725BC0189E124
:102BD00095E00E94CC22CE0101960E94EB2363E097
:102BE00072E0CE0107960E9424268111B3CF8ECFCA
:102BF0006BE171E089E195E00E94BA2287CF26E07F
:102C000030E040E050E0B801CE0101960E949526E8
:102C10006FE473E0CE0101960E942426D82ECE01E7
:102C200001960E94EB23DD20F9F046E050E0B80168
:102C3000CE0101960E943403BE016F5F7F4FC80131
:102C40000E949024CE0101960E94EB23F80184811A
:102C50009581892B31F1C8010E94DA2616161706D4
:102C60001806190634F11DC064E773E0C8010E941C
:102C70002426882349F0B701685E7F4F89E195E0FB
:102C80000E94CC2281E0A0C065EC71E0C8010E94E6
:102C90002426882321F0C7010E946D0A3BCF80E0E3
:102CA00093C06DE071E089E195E00E94BA2281E075
:102CB0008BC0C8010E94DA266031774281059105F8
:102CC00044F06EEF70E089E195E00E94BA2281E065
:102CD0007BC06701FEE1CF0ED11CB801C6010E9486
:102CE000902400E010E084E0A82EB12CF70182A12E
:102CF00093A19501281B390B02171307B0F46BE061
:102D000071E0CE0101960E945924B601CE010196D0
:102D10000E94F725BC01C6010E949024CE010196B5
:102D20000E94EB230F5F1F4FE1CF66E573E0CE01FA
:102D300001960E945924B601CE0101960E94F72502
:102D400066E372E00E940A26BC0189E195E00E94D8
:102D5000CC22CE0101960E94EB23A12CB12C85013F
:102D60000F5F1F4FC8010E940F0A982EB501C601C0
:102D70000E944326492D50E0FC012081332727FD86
:102D800030954217530729F404301105C1F058015A
:102D9000E6CF00E010E0B801C6010E9443260F5FB5
:102DA0001F4FFC016081C8010E94110A0430110507
:102DB00091F762E673E089E195E00E94DE22F70177
:102DC000EA5AFF4F81E08083A4960FB6F894DEBFE5
:102DD0000FBECDBFDF91CF911F910F91FF90EF906C
:102DE000DF90CF90BF90AF909F900895AF92BF9229
:102DF000CF92DF92EF92FF920F931F93CF93DF93C7
:102E0000CDB7DEB762970FB6F894DEBF0FBECDBF69
:102E10008C017B016DED73E0CE010D960E9459246B
:102E20006DED73E0CE0107960E9459246DED73E0BD
:102E3000C8010E94592484E694E00E94E51B1816FC
:102E400019062CF484E694E00E94591BF4CF6BE33E
:102E500073E084E694E00E94DE22B701CE01019681
:102E60000E949C0ABE016F5F7F4FCE010D960E94AB
:102E70009024CE0101960E94EB2322E030E040E056
:102E800050E0BE01635F7F4FCE0101960E94952600
:102E9000CE0101960E94DA266B017C01CE010196DB
:102EA0000E94EB2380E1C816D1042CF46BE071E0A2
:102EB000C8010E94A52540E1B601CE0101960E94FD
:102EC000F524BE016F5F7F4FC8010E949E25CE0191
:102ED00001960E94EB2342E050E0BE01635F7F4F0A
:102EE000CE0101960E943403CE0101960E94DA269B
:102EF0006B017C01CE0101960E94EB2380E1C81694
:102F0000D1042CF46BE071E0C8010E94A52540E1DA
:102F1000B601CE0101960E94F524BE016F5F7F4F7E
:102F2000C8010E949E25CE0101960E94EB23CE018E
:102F300007960E94EB23CE010D960E94EB23C80159
:102F400062960FB6F894DEBF0FBECDBFDF91CF9172
:102F50001F910F91FF90EF90DF90CF90BF90AF90B7
:102F60000895CF92DF92EF92FF920F931F93CF932A
:102F7000DF93CDB7DEB72C970FB6F894DEBF0FBE48
:102F8000CDBF8C017B016DED73E0CE0107960E94F1
:102F900059246DED73E0C8010E94592484E694E041
:102FA0000E94E51B181619062CF484E694E00E9492
:102FB000591BF4CF69E773E084E694E00E94DE22B7
:102FC000B701CE0101960E949C0ABE016F5F7F4F40
:102FD000CE0107960E949024CE0101960E94EB2319
:102FE00021E030E040E050E0BE01695F7F4FCE015C
:102FF00001960E94952668E171E0CE0101960E943B
:103000002426F82ECE0101960E94EB23FF20D1F05A
:103010006AE171E0C8010E94A52541E050E0BE01CF
:10302000695F7F4FCE0101960E943403BE016F5F3E
:103030007F4FCE0107960E949024CE0101960E94F8
:10304000EB2305C068E672E0C8010E94A525CE0109
:1030500007960E94DA266B017C0180E1C816D10434
:103060002CF46BE071E0C8010E94A52540E1B60197
:10307000CE0101960E94F524BE016F5F7F4FC8010B
:103080000E949E25CE0101960E94EB23CE01079659
:103090000E94EB23C8012C960FB6F894DEBF0FBE3A
:1030A000CDBFDF91CF911F910F91FF90EF90DF90F7
:1030B000CF9008958F929F92AF92BF92CF92DF925E
:1030C000EF92FF920F931F93CF93DF93CDB7DEB7AD
:1030D0006E970FB6F894DEBF0FBECDBF7C0160E0E7
:1030E00082E00E94AC1F61E08DE00E94AC1F61E0B5
:1030F00089E00E94AC1F61E084E00E94AC1F60E0A8
:1031000084E00E94E51F61E089E00E94E51F61E024
:103110008DE00E94E51F60E971E080E090E00E9490
:10312000F81E61E084E00E94E51F61E089E00E94F2
:10313000E51F26E040E052EC61E070E089E195E0B7
:103140000E94272140E051EE60E070E084E694E0C8
:103150000E943F1D61E774E089E195E00E94BA2278
:1031600084E694E00E94E51B1816190684F484E6B0
:1031700094E00E94591B682F89E195E00E94AF22DC
:1031800065E070E080E090E00E94F81EE9CF65E61F
:1031900074E084E694E00E94BA2268EC70E080E07B
:1031A00090E00E94F81E66E472E084E694E00E94DB
:1031B000E023882309F466C06FE474E089E195E0B8
:1031C0000E94BA22F701E35AFF4F8081813009F053
:1031D00060C064E174E08701085E1F4FC8010E946F
:1031E000512562EF73E0C8010E94C82565ED73E0C8
:1031F000C8010E94C82563EB73E0C8010E94C8257E
:1032000065E973E0C8010E94C82563E773E0C8015F
:103210000E94C82569E573E0C8010E94C82566E3DD
:1032200073E0C8010E94C825B80189E195E00E94B9
:10323000A12261E173E089E195E00E94BA2265E094
:1032400073E089E195E00E94BA2269EF72E084E6BA
:1032500094E00E94BA2262E370E080E090E00E9475
:10326000F81EB701CE0101960E949C0ABE016F5F55
:103270007F4F89E195E00E94CC22CE0101960E9409
:10328000EB2307C06AE374E089E195E00E94BA226B
:10329000FFCF6CED75E080E090E00E94F81E60E0EA
:1032A00089E00E94E51F6DED73E0C70106960E945C
:1032B000B024B701CE0107960E94F61667E873E0C6
:1032C000CE0101960E945924BE01695F7F4FCE0155
:1032D00001960E94F725BC0189E195E00E94CC226D
:1032E000CE0101960E94EB23CE0107960E94EB23AC
:1032F000B701CE0107960E94B11765E973E0CE01D0
:1033000001960E945924BE01695F7F4FCE0101964C
:103310000E94F725BC0189E195E00E94CC22CE01F4
:1033200001960E94EB23CE0107960E94EB2360EDED
:1033300072E089E195E00E94BA2257012BE4A20EC7
:10334000B11CF501108280E090E00E940F0A970105
:10335000225E3F4F69018C3AD1F000E010E0B801E5
:10336000C6010E9443260F5F1F4FFC016081C80108
:103370000E94110A0430110591F76CEA80E090E098
:103380000E94110A6FEF81E190E00E94110A00E0B3
:1033900010E0B801C6010E9443264C010F5F1F4F89
:1033A000C8010E940F0AF40180830430110589F7D7
:1033B0006FE973E0CE0101960E945924B601CE0157
:1033C00001960E94F725BC0189E195E00E94CC227C
:1033D000CE0101960E94EB236701F2E1CF0ED11CD2
:1033E0006DED73E0C6010E94B0248AE090E00E9477
:1033F0000F0A4AE0682FCE0101960E94C824BE0140
:103400006F5F7F4FC6010E949024CE0101960E94FB
:10341000EB238AE090E00E940F0A8F3F29F46BEAC9
:1034200073E0C6010E94B0246DEA73E0CE010196FC
:103430000E945924B601CE0101960E94F725BC01D5
:1034400089E195E00E94CC22CE0101960E94EB23F7
:103450008FE090E00E940F0A97012A5C3F4F8F3F58
:1034600031F465E471E0C9010E94B02405C06FE643
:1034700071E0C9010E94B02481E190E00E940F0A2E
:103480008701065B1F4F8F3F21F481E0F8018083A5
:1034900002C0F80110826DED73E0CE0149960E94E2
:1034A0005924F501108281E0F701E45BFF4F80832E
:1034B000B701CE0101960E94850BBE016F5F7F4F61
:1034C000CE0149960E949024CE0101960E94EB23E2
:1034D000BE01675E7F4F89E195E00E94CC2263E0E8
:1034E00072E0CE0149960E942426882309F4BAC0CE
:1034F000C7010E94890AF8018081811105C0F70186
:10350000E45BFF4F1082AEC061EC72E084E694E0B1
:103510000E94BA22B701CE0101960E949C0ABE0108
:103520006F5F7F4FCE0149960E949024CE01019695
:103530000E94EB2363EB73E0CE0101960E945924B5
:10354000BE01675E7F4FCE0101960E94F725BC0148
:1035500089E195E00E94CC22CE0101960E94EB23E6
:1035600069EA72E089E195E00E94BA22BE01675ED5
:103570007F4FCE0107960E94A724B601CE010D967B
:103580000E94A7245E01F3E1AF0EB11C64E771E075
:10359000C5010E9459248E01095F1F4F9E01235FC0
:1035A0003F4FA501B701CE0101960E941D0CBE013F
:1035B0006F5F7F4FCE0149960E949024CE01019605
:1035C0000E94EB23C5010E94EB23CE010D960E94C1
:1035D000EB23C8010E94EB2363E072E0CE01499621
:1035E0000E94242681118BCF61E671E0CE014996BD
:1035F0000E942426811183CFBE01675E7F4FCE01DA
:1036000007960E94A724B601CE010D960E94A7241A
:1036100064E771E0C5010E9459248E01095F1F4FC4
:103620009E01235F3F4FA501B701CE0101960E9485
:103630001D0C63E072E0CE0101960E942426182F33
:10364000CE0101960E94EB23C5010E94EB23CE011F
:103650000D960E94EB23CE0107960E94EB231123C7
:1036600059F24DCF89E195E00E94442018161906C1
:103670002CF489E195E00E945D20F4CF89E195E08A
:103680000E94A020CE0149960E94EB236E960FB6B1
:10369000F894DEBF0FBECDBFDF91CF911F910F9188
:1036A000FF90EF90DF90CF90BF90AF909F908F9062
:1036B0000895209105053091060528173907B9F4BA
:1036C0009091830480918404981789F0E091830499
:1036D000F0E0EB57FB4F80812091830430E02F5FB7
:1036E0003F4F2F7733272093830490E008958FEF87
:1036F0009FEF08951F93CF93DF93DC015C968D912C
:103700009C915D97009749F481E090E013969C931B
:103710008E93129780E090E03BC05196ED91FC9122
:10372000529750962C915097322F30951FB75E9636
:103730004C915E9741FB772770F941FD6095F894B5
:103740004081772311F0422B01C043234083EC01D9
:103750002197F1F748E0508160FF02C0522B01C071
:1037600053235083EC012197F1F76695415099F767
:103770008081772311F0832301C0822B80831FBFB8
:103780005C968D919C915D970197F1F781E090E0B7
:10379000DF91CF911F9108950895209105053091F3
:1037A00006052817390771F49091830480918404E9
:1037B000981741F0E0918304F0E0EB57FB4F8081D4
:1037C00090E008958FEF9FEF0895209105053091C7
:1037D00006052817390771F4809184042091830429
:1037E00090E080589F4F821B910960E870E00E9432
:1037F000A328089580E090E00895E0910505F091F8
:103800000605E817F90769F4A389B4899C918589AD
:10381000809589238C93109206051092050581E00E
:10382000089580E00895CF93DF93EC018A8D9B8DFE
:10383000892BF1F080910505909106058C179D0765
:10384000B9F0009711F00E94FD1B8E8D8E7F8E8F38
:103850001092840410928304D0930605C09305054A
:10386000EB89FC8980819D89892B808381E001C05F
:1038700080E0DF91CF9108951F920F920FB60F92C3
:1038800011242F933F934F935F936F937F938F9365
:103890009F93AF93BF93EF93FF93E0910505F09152
:1038A0000605309709F451C0868DA685B7859585A4
:1038B00081FF04C08C91892329F447C08C9189230E
:1038C00009F043C0A389B4899C9185898095892397
:1038D0008C93868997890197F1F7208D318DA68584
:1038E000B785758558E040E0C9010197F1F7842F4D
:1038F00090E095958795482F6C91672309F0406873
:10390000515091F7868D81FD40958091840490E01F
:1039100001968F77992720918304281749F0A09169
:103920008404B0E0AB57BB4F4C938093840403C036
:10393000868D8160868F828D938D0197F1F7A389A3
:10394000B4898C919589892B8C93FF91EF91BF91CC
:10395000AF919F918F917F916F915F914F913F9127
:103960002F910F900FBE0F901F9018952FEB33E003
:10397000FC01318320830C94FD1B1F93CF93DF93B5
:10398000EC01162F6E8D6695617081E06827812F9E
:103990000E94E51F61E0812F0E94AC1F812F90E003
:1039A000FC01E355FB4FE491E88BFC01EF53FB4F27
:1039B000E491F0E0EE0FFF1FE152FB4F85919491EF
:1039C0009A8B898BDF91CF911F9108951F93CF938D
:1039D000DF93EC01162F60E0812F0E94AC1F8E8DCB
:1039E00081FD04C061E0812F0E94E51F1C87812FAB
:1039F00090E0FC01E355FB4FE491ED87FC01EF53B0
:103A0000FB4FE491F0E0EE0FFF1FEB52FB4F85916F
:103A100094919F878E87DF91CF911F910895FF9298
:103A20000F931F93CF93DF93EC01F62E522F1B823F
:103A30001A8208EE13E020E030E00C831D832E8311
:103A40003F838FEB93E0998388831F8A1E8A198EA8
:103A5000188E1B8E1A8E1D8E1C8E8E8D8E7F50FBA7
:103A600081F98E8F642FCE010E94BD1C6F2DCE0177
:103A7000DF91CF911F910F91FF900C94E61CCF9393
:103A8000DF93EC019A01AB011B8E1A8E198E188EF2
:103A90001F8A1E8A60E079E08DE390E00E94D928B9
:103AA000C9012430310520F0B9016350710902C009
:103AB00061E070E07D8F6C8FEC85E63108F068C0C6
:103AC000B901769567956431710518F063517109F4
:103AD00002C061E070E07F8B6E8B069718F0C90121
:103AE000059702C081E090E0998F888FC901880F07
:103AF000991F820F931F96958795969587958D3080
:103B0000910510F00C9702C081E090E09B8F8A8FA6
:103B100020916800E83050F091E0EE3008F490E039
:103B200081E001C0880F9A95EAF701C084E0822BFA
:103B3000809368002C85283038F02E3040F02631F4
:103B400048F48CE690E008C08DE690E005C08BE676
:103B500090E002C080E090E09C8B8B8B283030F4AA
:103B600081E001C0880F2A95EAF70DC0822F90E00E
:103B70002E3010F4089701C00E9791E001C0990F04
:103B80008A95EAF7892F8D8B8C8D9D8D0197F1F7A2
:103B9000CE01DF91CF910C94131C1F920F920FB6A0
:103BA0000F9211242F933F934F935F936F937F93C3
:103BB0008F939F93AF93BF93EF93FF93E09107058C
:103BC000F09108050995FF91EF91BF91AF919F91F9
:103BD0008F917F916F915F914F913F912F910F90B6
:103BE0000FBE0F901F90189508958230E8F4E82FCB
:103BF000F0E0EE0FFF1FE45FFA4F718360838130C6
:103C000041F0809169008C7F842B80936900E89A51
:103C1000089580916900440F551F440F551F837FFD
:103C2000842B80936900E99A0895823068F481308A
:103C300011F0E89801C0E998E82FF0E0EE0FFF1FBF
:103C4000E45FFA4F1182108208951F920F920FB60F
:103C50000F9211242F933F934F935F936F937F9312
:103C60008F939F93AF93BF93EF93FF9380910C0536
:103C700090910D05892B29F0E0910C05F0910D052F
:103C80000995FF91EF91BF91AF919F918F917F9196
:103C90006F915F914F913F912F910F900FBE0F90B9
:103CA0001F9018951F920F920FB60F9211242F9309
:103CB0003F934F935F936F937F938F939F93AF93B4
:103CC000BF93EF93FF9380910E0590910F05892B81
:103CD00029F0E0910E05F0910F050995FF91EF9104
:103CE000BF91AF919F918F917F916F915F914F9114
:103CF0003F912F910F900FBE0F901F9018951F921C
:103D00000F920FB60F9211242F933F938F939F938F
:103D1000AF93BF938091110590911205A091130567
:103D2000B09114053091100523E0230F2D3720F4B6
:103D30000196A11DB11D05C026E8230F0296A11D05
:103D4000B11D209310058093110590931205A09347
:103D50001305B09314058091150590911605A09157
:103D60001705B09118050196A11DB11D8093150589
:103D700090931605A0931705B0931805BF91AF91C6
:103D80009F918F913F912F910F900FBE0F901F9099
:103D900018952FB7F89460911105709112058091D4
:103DA0001305909114052FBF08953FB7F8948091A3
:103DB000150590911605A0911705B091180526B527
:103DC000A89B05C02F3F19F00196A11DB11D3FBF53
:103DD0006627782F892F9A2F620F711D811D911DE3
:103DE00042E0660F771F881F991F4A95D1F7089503
:103DF000CF92DF92EF92FF92CF93DF936B017C0122
:103E00000E94D51EEB01C114D104E104F10489F034
:103E10000E94F41D0E94D51E6C1B7D0B683E7340F2
:103E200090F381E0C81AD108E108F108C851DC4FCD
:103E3000EACFDF91CF91FF90EF90DF90CF90089580
:103E40008230910538F0880F991F880F991F0597C8
:103E50000197F1F70895789484B5826084BD84B5A4
:103E6000816084BD85B5826085BD85B5816085BD75
:103E7000EEE6F0E0808181608083E1E8F0E010828E
:103E8000808182608083808181608083E0E8F0E0CF
:103E9000808181608083E1EBF0E0808184608083B9
:103EA000E0EBF0E0808181608083EAE7F0E08081F0
:103EB0008460808380818260808380818160808350
:103EC0008081806880831092C10008958E3008F050
:103ED0008E5087702091060190E4299F9001112453
:103EE000822B80937C0080917A00806480937A009A
:103EF00080917A0086FDFCCF809178002091790036
:103F000090E0922B0895833081F028F4813099F06D
:103F10008230A1F008958730A9F08830B9F084305C
:103F2000D1F4809180008F7D03C0809180008F77D5
:103F300080938000089584B58F7702C084B58F7D0B
:103F400084BD08958091B0008F7703C08091B00048
:103F50008F7D8093B0000895CF93DF9390E0FC01B4
:103F6000E355FB4F2491FC01EF53FB4F84918823D1
:103F700049F190E0880F991FFC01E751FB4FA59193
:103F8000B49181529B4FFC01C591D4919FB76111AF
:103F900008C0F8948C91209582238C938881822389
:103FA0000AC0623051F4F8948C91322F30958323FB
:103FB0008C938881822B888304C0F8948C91822B07
:103FC0008C939FBFDF91CF9108950F931F93CF9351
:103FD000DF931F92CDB7DEB7282F30E0F901E75607
:103FE000FB4F8491F901E355FB4F1491F901EF5315
:103FF000FB4F04910023C9F0882321F069830E94BC
:10400000831F6981E02FF0E0EE0FFF1FE152FB4FAD
:10401000A591B4919FB7F8948C91611103C010954C
:10402000812301C0812B8C939FBF0F90DF91CF9193
:104030001F910F910895CF93DF93282F30E0F9015E
:10404000E756FB4F8491F901E355FB4FD491F901F9
:10405000EF53FB4FC491CC2391F081110E94831F39
:10406000EC2FF0E0EE0FFF1FEB52FB4FA591B49148
:104070002C912D2381E090E021F480E002C080E0CB
:1040800090E0DF91CF910895FC01818D228D90E029
:10409000805C9F4F821B91098F7399270895FC01C3
:1040A000918D828D981731F0828DE80FF11D858DED
:1040B00090E008958FEF9FEF0895FC01918D828D20
:1040C000981761F0828DDF01A80FB11D5D968C916C
:1040D000928D9F5F9F73928F90E008958FEF9FEF77
:1040E000089581EE91E2892B49F080E090E0892BE0
:1040F00029F00E94E12181110C9400000895FC0137
:10410000848DDF01A80FB11DA35ABF4F2C91848D60
:1041100090E001968F739927848FA689B7892C9395
:10412000A089B1898C9180648C93938D848D981330
:1041300006C00288F389E02D80818F7D80830895F9
:10414000CF93DF93EC01888D8823C9F0EA89FB893E
:10415000808185FD05C0A889B9898C9186FD0FC035
:104160000FB607FCF5CF808185FFF2CFA889B9890A
:104170008C9185FFEDCFCE010E947F20E7CFDF91AC
:10418000CF910895CF92DF92FF920F931F93CF9319
:10419000DF931F92CDB7DEB76C0181E0D601589650
:1041A0008C9358975B969C915B975C968C915C97EF
:1041B000981307C05096ED91FC915197808185FD31
:1041C0002EC0F601038D10E00F5F1F4F0F731127F4
:1041D000F02EF601848DF81211C00FB607FCF9CF4E
:1041E000D6015096ED91FC915197808185FFF1CFDA
:1041F000C60169830E947F206981EBCF838DE80F20
:10420000F11DE35AFF4F6083D6015B960C935B97D9
:104210005296ED91FC915397808180620CC0D6013B
:104220005696ED91FC91579760835096ED91FC91D5
:10423000519780818064808381E090E00F90DF91CE
:10424000CF911F910F91FF90DF90CF900895BF9273
:10425000CF92DF92EF92FF92CF93DF93EC016A014E
:104260007B01B22EE889F98982E08083411581EED5
:10427000580761057105A1F060E079E08DE390E0F9
:10428000A70196010E94B72821503109410951091F
:104290005695479537952795211580E1380798F071
:1042A000E889F989108260E874E88EE190E0A7015E
:1042B00096010E94B72821503109410951095695AC
:1042C000479537952795EC85FD853083EE85FF85ED
:1042D0002083188EEC89FD89B082EA89FB89808170
:1042E00080618083EA89FB89808188608083EA8994
:1042F000FB89808180688083EA89FB8980818F7D4A
:104300008083DF91CF91FF90EF90DF90CF90BF90AF
:1043100008951F920F920FB60F9211242F938F932F
:104320009F93EF93FF93E0912905F0912A058081F7
:10433000E0912F05F091300582FD12C090818091AF
:1043400032058F5F8F7320913305821751F0E09112
:104350003205F0E0E75EFA4F958F8093320501C099
:104360008081FF91EF919F918F912F910F900FBEC0
:104370000F901F9018951F920F920FB60F92112455
:104380002F933F934F935F936F937F938F939F935D
:10439000AF93BF93EF93FF9389E195E00E947F2055
:1043A000FF91EF91BF91AF919F918F917F916F910D
:1043B0005F914F913F912F910F900FBE0F901F90E3
:1043C000189589E195E00E94442021E0892B09F4A9
:1043D00020E0822F089510921C0510921B0588EE94
:1043E00093E0A0E0B0E080931D0590931E05A0939C
:1043F0001F05B09320058FEC93E090931A058093EE
:10440000190585EC90E0909326058093250584ECB2
:1044100090E0909328058093270580EC90E090939E
:104420002A058093290581EC90E090932C058093D8
:104430002B0582EC90E090932E0580932D0586EC61
:1044400090E09093300580932F05109232051092E2
:1044500033051092340510923505089508950E9491
:104460002B1F0E942E220E944003C1E7D0E20E942F
:1044700081072097E1F30E947120F9CFCF92DF925C
:10448000EF92FF920F931F93CF93DF936C017A010A
:10449000EB01E60EF71E00E010E0CE15DF0561F03F
:1044A0006991D601ED91FC910190F081E02DC6015A
:1044B0000995080F191FF1CFC801DF91CF911F9106
:1044C0000F91FF90EF90DF90CF90089561157105E7
:1044D00081F0DB010D900020E9F7AD014150510959
:1044E000461B570BDC01ED91FC910280F381E02D1E
:1044F000099480E090E00895EF92FF920F931F934C
:10450000CF93DF938C01FB01C0E0D0E064917F0189
:104510008FEFE81AF80A662361F0D801ED91FC915B
:104520000190F081E02DC8010995C80FD91FF7014E
:10453000EDCFCE01DF91CF911F910F91FF90EF90C2
:104540000895DC01ED91FC91DB0114964D915C9195
:1045500015976D917C910280F381E02D0994DC0127
:10456000ED91FC910190F081E02D09946BED73E0E9
:104570000C9466220F931F93CF93DF93EC010E945C
:104580007C228C01CE010E94B622800F911FDF9108
:10459000CF911F910F9108950F931F93CF93DF93A6
:1045A000EC010E94A1228C01CE010E94B622800F54
:1045B000911FDF91CF911F910F9108950F931F933A
:1045C000CF93DF93EC010E9466228C01CE010E9402
:1045D000B622800F911FDF91CF911F910F91089507
:1045E0000F931F93CF93DF93EC010E94C91E68873E
:1045F00079878A879B87E881F9810680F781E02D9A
:10460000CE01099597FF15C00E94C91E088519851E
:104610002A853B85601B710B820B930B0C811D81DE
:104620002E813F81601771078207930720F38FEF78
:104630009FEFDF91CF911F910F9108954F925F925D
:104640006F927F928F929F92AF92BF92CF92DF92A2
:10465000EF92FF920F931F93CF93DF934C01EB01E7
:1046600086E0849F8001859F100D1124060F171F7F
:10467000FB01E017F10708F582819381892B21F175
:104680003696F7CF4081518164817581DA01A60F9A
:10469000B71F2C91332727FD30958217930711F50B
:1046A0006F5F7F4F75836483228133816217730745
:1046B00059F03696E017F10728F3C4010E94F02262
:1046C00097FD46C0FE01F6CFEC1BFD0BF595E79577
:1046D0002BEA3AEAE29FC001E39F900DF29F900D12
:1046E000112438C06115710521F3A480B5809501AE
:1046F0002150310935832483DA01A20FB31FAC9115
:10470000BB27A7FDB0958A179B07F9F42115310542
:10471000C9F06A017B01E21AF30AE40EF51E412C8E
:10472000512CD6016D906D01D7017D907D016710F0
:1047300006C0BFEF4B1A5B0A4216530690F34216AF
:10474000530699F6B582A482B4CF232B71F6B1CF6C
:104750008FEF9FEFDF91CF911F910F91FF90EF901F
:10476000DF90CF90BF90AF909F908F907F906F9091
:104770005F904F900895CF93DF9300D000D000D08A
:10478000CDB7DEB7FE01319626E0DF011D922A95F6
:10479000E9F77A8369835C834B8341E050E0BF0192
:1047A0000E941E2321E0892B09F020E0822F26960B
:1047B0000FB6F894DEBF0FBECDBFDF91CF91089545
:1047C000FB0101900020E9F7AF0141505109461B60
:1047D000570B0C94BB23FC01808191810C94CB2955
:1047E000CF93DF93EC0188819981009711F00E94AB
:1047F000CB29198218821D821C821B821A82DF91AA
:10480000CF9108950F931F93CF93DF93EC018B010A
:104810006F5F7F4F888199810E945A2A009731F0FB
:10482000998388831B830A8381E001C080E0DF9144
:10483000CF911F910F910895CF93DF93EC01888161
:104840009981892B29F08A819B818617970760F4CB
:10485000CE010E940224882341F08C819D81892B06
:1048600019F4E881F981108281E0DF91CF910895F8
:10487000EF92FF920F931F93CF93DF93EC017B0195
:104880008A01BA010E941C24811104C0CE010E9439
:10489000F02307C01D830C83B701888199810E9492
:1048A000782BCE01DF91CF911F910F91FF90EF9068
:1048B0000895FC01118210821382128215821482E3
:1048C0006115710559F0FB0101900020E9F7AF0176
:1048D00041505109461B570B0C9438240895EF9210
:1048E000FF920F931F93CF93DF93EC017B018A011B
:1048F000BA010E941C24811104C0CE010E94F02341
:1049000007C01D830C83B701888199810E944B2BBE
:10491000CE01DF91CF911F910F91FF90EF900895FD
:10492000CF93DF93EC01FB018617970761F060815D
:1049300071816115710529F0448155810E943824E7
:1049400002C00E94F023CE01DF91CF910895FC01B7
:104950001182108213821282158214820C94902488
:10496000CF93DF93EC016115710561F0FB010190BC
:104970000020E9F7AF0141505109461B570B0E9437
:10498000382402C00E94F023CE01DF91CF91089518
:104990000F931F93CF93DF93CDB7DEB729970FB651
:1049A000F894DEBF0FBECDBF8C01862FF8011182B7
:1049B0001082138212821582148250E0BE016F5F52
:1049C0007F4F90E00E94C42BBE016F5F7F4FC801F4
:1049D0000E94B02429960FB6F894DEBF0FBECDBF5B
:1049E000DF91CF911F910F9108950F931F93CF9354
:1049F000DF93CDB7DEB762970FB6F894DEBF0FBE78
:104A0000CDBF8C01CB01F80111821082138212827A
:104A10001582148250E0BE016F5F7F4F0E94992B78
:104A2000BE016F5F7F4FC8010E94B02462960FB62F
:104A3000F894DEBF0FBECDBFDF91CF911F910F91D4
:104A40000895EF92FF920F931F93CF93DF93CDB70B
:104A5000DEB7A1970FB6F894DEBF0FBECDBF7C01C5
:104A6000CB01BA01F70111821082138212821582E2
:104A7000148242E0420F8E010F5F1F4F0E941229E5
:104A8000BC01C7010E94B024A1960FB6F894DEBF06
:104A90000FBECDBFDF91CF911F910F91FF90EF908F
:104AA00008950F931F93CF93DF9300D0CDB7DEB758
:104AB0008C016115710561F0CB0169837A830E94D5
:104AC000522BAC0169817A81C8010E946F2402C017
:104AD0000E94F023C8010F900F90DF91CF911F919A
:104AE0000F910895EF92FF920F931F93CF93DF934F
:104AF000EC017B010C811D816115710511F480E0D1
:104B000016C04115510591F0040F151FB8010E9400
:104B10001C248823A1F3288139818C819D81B701D0
:104B2000820F931F0E94782B1D830C8381E0DF91FD
:104B3000CF911F910F91FF90EF900895FB01448159
:104B40005581608171810C9472256115710559F050
:104B5000FB0101900020E9F7AF0141505109461BCC
:104B6000570B0C94722580E00895CF93DF9300D00B
:104B7000CDB7DEB769831A8241E050E0BE016F5FB6
:104B80007F4F0E9472250F900F90DF91CF91089573
:104B9000EF92FF920F931F93CF93DF93EC017B0172
:104BA0006115710511F480E01BC0CB010E94522BEE
:104BB0000097A9F00C811D81080F191FB801CE01C3
:104BC0000E941C24882379F3288139818C819D815E
:104BD000B701820F931F0E944B2B1D830C8381E032
:104BE000DF91CF911F910F91FF90EF900895CF9398
:104BF000DF93EC01FB0144815581608171810E944A
:104C00007225811103C0CE010E94F023CE01DF91F5
:104C1000CF910895CF93DF93EC016115710569F091
:104C2000FB0101900020E9F7AF0141505109461BFB
:104C3000570B0E947225811103C0CE010E94F02300
:104C4000CE01DF91CF910895FC0124813581232B82
:104C500031F421E061157105A1F0FB0108C0FC01F0
:104C6000808191816115710531F421E0FC01808121
:104C7000882339F005C00E946F2B21E0892B09F0B1
:104C800020E0822F0895FC018481958168177907BF
:104C900020F480819181009729F41092B60586EB6B
:104CA00095E00895860F971F0895CF93DF93FC0139
:104CB000848195814817590778F4C081D18177277D
:104CC00067FD7095CE01840F951F0E94642B00979D
:104CD00019F08C1B9D0B02C08FEF9FEFDF91CF91DE
:104CE000089540E050E00C945526CF93DF93FC01EB
:104CF000848195814817590778F4C081D181FB01DF
:104D000060817181CE01840F951F0E947F2B0097D7
:104D100019F08C1B9D0B02C08FEF9FEFDF91CF919D
:104D2000089540E050E00C947526BF92CF92DF9238
:104D3000EF92FF920F931F93CF93DF936C017B0150
:104D4000EA0189012417350720F48D2FE901042F8A
:104D5000182F6DED73E0C6010E945924D7011496F7
:104D60008D919C911597C817D907C8F480179107A2
:104D700008F48C01D701ED91FC911197E00FF11F20
:104D8000B08010826D917C916C0F7D1FC6010E94D6
:104D9000B024D701ED91FC91E00FF11FB082C60164
:104DA000DF91CF911F910F91FF90EF90DF90CF9007
:104DB000BF900895FC0180819181009711F00C94BF
:104DC000242B60E070E0CB0108955058BB27AA2740
:104DD0000ED01CC10DD130F012D120F031F49F3F24
:104DE00011F41EF402C10EF4E095E7FBF8C0E92FC0
:104DF0001ED180F3BA17620773078407950718F06E
:104E000071F49EF536C10EF4E0950B2EBA2FA02D4D
:104E10000B01B90190010C01CA01A0011124FF2767
:104E2000591B99F0593F50F4503E68F11A16F04062
:104E3000A22F232F342F4427585FF3CF4695379561
:104E40002795A795F0405395C9F77EF41F16BA0B26
:104E5000620B730B840BBAF09150A1F0FF0FBB1FD4
:104E6000661F771F881FC2F70EC0BA0F621F731F1D
:104E7000841F48F4879577956795B795F7959E3F7A
:104E800008F0B3CF9395880F08F09927EE0F979508
:104E9000879508950CD0BAC0B2D040F0A9D030F0B8
:104EA00021F45F3F19F09BC05111E4C09EC0BFD0F8
:104EB00098F39923C9F35523B1F3951B550BBB27E1
:104EC000AA2762177307840738F09F5F5F4F220F8E
:104ED000331F441FAA1FA9F333D00E2E3AF0E0E887
:104EE00030D091505040E695001CCAF729D0FE2FD3
:104EF00027D0660F771F881FBB1F26173707480765
:104F0000AB07B0E809F0BB0B802DBF01FF2793581A
:104F10005F4F2AF09E3F510568F061C0ABC05F3F14
:104F2000ECF3983EDCF3869577956795B795F79502
:104F30009F5FC9F7880F911D9695879597F90895FA
:104F4000E1E0660F771F881FBB1F62177307840796
:104F5000BA0720F0621B730B840BBA0BEE1F88F7A5
:104F6000E0950895E89409C097FB3EF490958095EC
:104F7000709561957F4F8F4F9F4F9923A9F0F92F1F
:104F800096E9BB279395F695879577956795B7959D
:104F9000F111F8CFFAF4BB0F11F460FF1BC06F5F83
:104FA0007F4F8F4F9F4F16C0882311F096E911C095
:104FB000772321F09EE8872F762F05C0662371F0B6
:104FC00096E8862F70E060E02AF09A95660F771FCA
:104FD000881FDAF7880F9695879597F9089597F9BE
:104FE0009F6780E870E060E008959FEF80EC08958F
:104FF00000240A94161617061806090608950024B8
:105000000A9412161306140605060895092E039431
:10501000000C11F4882352F0BB0F40F4BF2B11F4A5
:1050200060FF04C06F5F7F4F8F4F9F4F089557FD04
:105030009058440F551F59F05F3F71F04795880F06
:1050400097FB991F61F09F3F79F08795089512169D
:1050500013061406551FF2CF4695F1DF08C0161649
:1050600017061806991FF1CF8695710561050894FA
:105070000895E894BB2766277727CB0197F9089511
:105080000BD0C4CFB5DF28F0BADF18F0952309F0B4
:10509000A6CFABCF1124EECFCADFA0F3959FD1F3FB
:1050A000950F50E0551F629FF001729FBB27F00DD6
:1050B000B11D639FAA27F00DB11DAA1F649F66272B
:1050C000B00DA11D661F829F2227B00DA11D621F7A
:1050D000739FB00DA11D621F839FA00D611D221F34
:1050E000749F3327A00D611D231F849F600D211D18
:1050F000822F762F6A2F11249F5750408AF0E1F0BB
:1051000088234AF0EE0FFF1FBB1F661F771F881F03
:1051100091505040A9F79E3F510570F060CFAACF43
:105120005F3FECF3983EDCF3869577956795B795EE
:10513000F795E7959F5FC1F7FE2B880F911D969518
:10514000879597F9089597FB072E16F4009407D0DA
:1051500077FD09D00E94F82807FC05D03EF4909511
:1051600081959F4F0895709561957F4F0895A1E2B5
:105170001A2EAA1BBB1BFD010DC0AA1FBB1FEE1FD1
:10518000FF1FA217B307E407F50720F0A21BB30B1C
:10519000E40BF50B661F771F881F991F1A9469F798
:1051A00060957095809590959B01AC01BD01CF01F4
:1051B0000895052E97FB1EF400940E94F02857FDD9
:1051C00007D00E94B72807FC03D04EF40C94F028B7
:1051D00050954095309521953F4F4F4F5F4F089523
:1051E00090958095709561957F4F8F4F9F4F089553
:1051F000AA1BBB1B51E107C0AA1FBB1FA617B707FD
:1052000010F0A61BB70B881F991F5A95A9F7809518
:105210009095BC01CD010895EE0FFF1F0590F4910C
:10522000E02D0994EF920F931F93CF93DF93E80142
:1052300047FF02C034E101C034E0E42FFF27E7FD5F
:10524000F095F7FF03C0F195E195F109E32E022FE8
:105250002E2FAE010E94FF2BCE01DF91CF911F9127
:105260000F91EF900895CF93DF938230910510F462
:1052700082E090E0E091B905F091BA0520E030E0DD
:10528000A0E0B0E0309739F14081518148175907CB
:10529000B8F04817590771F482819381109729F06B
:1052A00013969C938E9312972CC09093BA0580937B
:1052B000B90527C02115310531F04217530718F001
:1052C000A901DB0101C0EF019A01BD01DF010280EC
:1052D000F381E02DD7CF21153105F9F0281B390BCB
:1052E0002430310580F48A819B816115710521F09C
:1052F000FB019383828304C09093BA058093B90520
:10530000FE01329644C0FE01E20FF31F8193919398
:1053100022503109398328833AC02091B705309152
:10532000B805232B41F42091020130910301309301
:10533000B8052093B7052091000130910101211596
:10534000310541F42DB73EB740910401509105015C
:10535000241B350BE091B705F091B805E217F30770
:10536000A0F42E1B3F0B2817390778F0AC014E5FD5
:105370005F4F2417350748F04E0F5F1F5093B80555
:105380004093B7058193919302C0E0E0F0E0CF0134
:10539000DF91CF910895CF93DF93009709F487C0F1
:1053A000FC01329713821282C091B905D091BA05DF
:1053B000209781F420813181280F391F8091B70512
:1053C0009091B8058217930779F5F093B805E093AB
:1053D000B7056DC0DE0120E030E0AE17BF0750F426
:1053E00012964D915C9113979D014115510509F15C
:1053F000DA01F3CFB383A28340815181840F951FDB
:105400008A179B0771F48D919C911197840F951FBA
:1054100002969183808312968D919C91139793832A
:1054200082832115310529F4F093BA05E093B9057B
:105430003EC0D9011396FC93EE9312974D915D9166
:10544000A40FB51FEA17FB0779F480819181840FBF
:10545000951F0296D90111969C938E938281938118
:1054600013969C938E931297E0E0F0E08A819B81E3
:10547000009719F0FE01EC01F9CFCE0102962881C8
:105480003981820F931F2091B7053091B8052817F5
:10549000390769F4309729F41092BA051092B905CA
:1054A00002C013821282D093B805C093B705DF9172
:1054B000CF910895A0E0B0E0E0E6FAE20C94692E06
:1054C000EC01CB01209719F40E943329B8C0FE01EA
:1054D000E60FF71F9E0122503109E217F30708F487
:1054E000ACC0D9010D911C91119706171707B8F0A0
:1054F0000530110508F49FC0A80144505109461712
:10550000570708F498C002501109061B170B0193A6
:1055100011936D937C93CF010E94CB298CC05B01CA
:10552000A01AB10A4E01800E911EA091B905B0914A
:10553000BA05612C712C60E070E0109709F449C045
:10554000A815B905C9F5ED90FC901197670142E0E7
:10555000C40ED11CCA14DB0478F147018A189B08D9
:10556000640142E0C40ED11C1296BC9012971396AF
:10557000AC91B5E0CB16D10440F0B282A383918206
:105580008082D9018D939C9309C00E5F1F4F0E0D31
:105590001F1DF90111830083EB2DFA2F6115710591
:1055A00031F0DB011396FC93EE93129744C0F09315
:1055B000BA05E093B9053FC06D917C9111976616CD
:1055C000770608F43B01BD0112960D90BC91A02D09
:1055D000B4CF6091B7057091B80568157905E9F405
:1055E00068167906D0F440910001509101014115EF
:1055F000510541F44DB75EB760910401709105010A
:10560000461B570BE417F507C0F4F093B805E09379
:10561000B705F901918380830EC00E9433297C0174
:10562000009759F0A801BE010E945B2BCE010E9499
:10563000CB29C70104C0CE0102C080E090E0CDB705
:10564000DEB7EEE00C94852E1F93FC019927882786
:10565000BC01E89411911032E9F3193010F01E30BA
:10566000C8F31B3251F01D3249F4689406C00E9401
:10567000AF2B610F711D811D911D119110531A30B7
:10568000B0F33EF490958095709561957F4F8F4F64
:105690009F4F1F910895FB01DC0105900D920020A2
:1056A000E1F70895FC0105900020E9F780959095B9
:1056B0008E0F9F1F0895FB01DC0102C001900D9227
:1056C00041505040D8F70895FC018191861721F090
:1056D0008823D9F7992708953197CF010895FB01C1
:1056E000DC018D91019080190110D9F3990B089577
:1056F000FB01DC0101900D920020E1F70895FB0110
:1057000051915523A9F0BF01DC014D91451741117D
:10571000E1F759F4CD010190002049F04D91401579
:105720004111C9F3FB014111EFCF81E090E00197F6
:1057300008954532510520F4423010F00C94A42B0A
:10574000FB011082CB010895BB274A3031F4992325
:1057500022F4BDE2909581959F4F0C94D02B592F48
:10576000482F372F262F660F771F881F991F660F28
:10577000771F881F991F620F731F841F951F660F65
:10578000771F881F991F08954532510520F4423034
:1057900010F00C94CF2BFB011082CB010895BB2796
:1057A000FB015527AA27880F991FAA1FA41710F0DD
:1057B000A41B83955051B9F7A05DAA3308F0A95DE9
:1057C000A193009779F7B111B1931192CB010C9489
:1057D000552EF999FECF92BD81BDF89A992780B5D3
:1057E0000895262FF999FECF1FBA92BD81BD20BD25
:1057F0000FB6F894FA9AF99A0FBE019608956F922F
:105800007F929F92AF92BF92CF92DF92EF92FF92E0
:105810000F931F93CF93DF93CDB7DEB729970FB6C2
:10582000F894DEBF0FBECDBF6A01B22E102F0C332D
:1058300020F4FF24F394F00E02C04CE3F42E0F2D5D
:1058400027E0AE014F5F5F4F0E947D2D7981272FAA
:105850002970213031F0E1FC06C0E0FC06C060E0B8
:1058600005C06DE203C06BE201C060E2AE2DA07125
:1058700073FF36C0662311F084E001C083E08B150E
:1058800010F4B81A01C0B12CA1110BC0F6018B2D78
:1058900090E2882319F091938150FBCFCB0CD11C5F
:1058A000B12C662331F0F601608396012F5F3F4FE4
:1058B0006901C6010396E2FE05C02EE4F6012083CD
:1058C00031E404C02EE6F601208331E631832283E1
:1058D000FC012B2D30E22223F1F131932150FBCF3B
:1058E00072FF40C0662311F084E001C083E08B1595
:1058F00010F4B81A01C0B12CA1110BC0F6018B2D08
:1059000090E2882319F091938150FBCFCB0CD11CEE
:10591000B12C662331F0F601608396012F5F3F4F73
:105920006901C6010396E2FE07C029E4F60120835F
:105930002EE4218326E406C029E6F60120832EE624
:10594000218326E62283FC012B2D30E2222319F04D
:1059500031932150FBCFFC01EB0DF11D10828EEF36
:105960009FEFB7C0B1E0611101C0B0E04B2F50E034
:105970001816190624F49C012F5F3F4F02C021E046
:1059800030E0240F351F112329F0412F50E04F5FE5
:105990005F4F02C040E050E0420F531F2B2D30E01C
:1059A0004217530714F4B41A01C0B12C2E2D2871DC
:1059B00059F4F6012B2D30E2222319F031932150B6
:1059C000FBCFCB0CD11CB12CBB2331F0F601608393
:1059D00096012F5F3F4F6901A1110BC0F6012B2DDE
:1059E00030E3222319F031932150FBCFCB0CD11C93
:1059F000B12CF80E0A81372F3071A32E74FF03C02B
:105A0000013309F4FA941F142CF42F2D293018F0C7
:105A100028E001C021E0682F392F97FF02C060E025
:105A200030E0462F532F612C712C3EE2932EBC01A7
:105A3000621B71099B01DC01A41BB50BE1E0F0E0E6
:105A4000EC0FFD1FAE0FBF1FE12EF12CF194E1947E
:105A5000F1084F3FFFEF5F0731F4F6019082B60186
:105A60006F5F7F4F6B01841795074CF02417350744
:105A700034F4BD01660D771DFB01118101C010E3F7
:105A800041505109FFEF6F1A7F0AB6016F5F7F4FD8
:105A90004E155F0524F0F60110836B01DACF48172D
:105AA000590739F4063320F4053319F4A11001C065
:105AB00011E3F6011083FB018B2D90E2882319F08E
:105AC00091938150FBCFFB01EB0DF11D108280E023
:105AD00090E029960FB6F894DEBF0FBECDBFDF91E0
