:100000000C94F8020C94E91D0C94161E0C94001C20
:100010000C94001C0C94001C0C94EE090C9420030E
:100020000C9420030C9420030C9420030C942003C4
:100030000C9420030C94911D0C9420030C94200329
:100040000C94431E0C9420030C944D210C947F219E
:100050000C9420030C9420030C9420030C94200394
:100060000C9420030C94200343005465706C6F744F
:10007000613A004A6F696E206D6F64653A004E4FB9
:1000800054204A4F494E45442120436865636B2004
:100090006E6574776F726B206F7220706172616D24
:1000A000657465727321004E6F206B6579732065EE
:1000B0006E7472792100627573792E2E2E004E6F48
:1000C0002066726565206368616E6E656C2C2072B7
:1000D00065747279696E672E2E2E0052656A6F699B
:1000E0006E20436F756E7465723A0052756E3A00F9
:1000F0004177616B65210054696D6520746F6F20D5
:10010000686967682100496E76616C69642074696A
:100110006D652100506172616D6574657273207345
:1001200075636365737366756C7920736176656456
:1001300021006D61632073617665004144523A008D
:1001400044523A00566F6C746167653A00547261AC
:100150006E736369657665723A00465720766572FC
:1001600073696F6E3A004C49422076657273696F0D
:100170006E3A004170706C69636174696F6E2045FE
:1001800055493A0044657669636520616464726527
:1001900073733A00446576696365204555493A00B2
:1001A0002A2A2A2A2A506172616D65746572732049
:1001B00073746F72656420696E20466C6173683A6F
:1001C0002A2A2A2A2A0053656E64696E6720746F92
:1001D00020706F727420005061796C6F61643A0016
:1001E00053656E64696E6720746F20706F7274203F
:1001F000005061796C6F61643A002073746F7265AE
:100200006420746F20454550524F4D004E65772055
:10021000706F72743A00506F7274206F7574206F33
:10022000662072616E67652100506F77657220737A
:100230006176656421006D616320736176650041BC
:10024000445220736176656421006D61632073619F
:10025000766500445220736176656421006D6163A8
:100260002073617665004D6F64652073746F7265ED
:100270006420746F20454550524F4D00556E737584
:1002800070706F72746564206D6F64650044617492
:10029000613A00506F72743A004E6F20646174616D
:1002A0002E00466972737420636F6D6D756E69639D
:1002B0006174696F6E202E2E2E006D61632067655C
:1002C0007420646576657569002A2A2A2A2A2A2AF2
:1002D0002A2A2A2A2A2A2A2A2A2A2A2A2A2A2A2A7E
:1002E0002A2A2A2A2A2A2A2A2A2A2A2A2A2A2A2A6E
:1002F0002A0073797320676574207665720046570B
:100300002076657273696F6E3A002A2A2A2A2A2A91
:100310002A2A2A2A2A2A53656E736F72207265610F
:1003200064792A2A2A2A2A2A2A2A2A2A2A2A0037C1
:100330002E53656E64207061796C6F61643A0909AF
:1003400073656E64553A6461746128686578290D37
:100350000A00362E53657420706F72743A09097062
:100360006F72743A312D3235350D0A00352E4A6FD1
:10037000696E2047573A09096D6163206A6F696E9B
:10038000205B6162702C6F7461615D0D0A00342E18
:10039000417070206B65793A09096D61632073655E
:1003A0007420617070736B65790D0A00332E4E6591
:1003B00074776F726B206B65793A09096D61632000
:1003C000736574206E776B736B65790D0A00322E3E
:1003D000446576204555493A09096D616320736586
:1003E00074206465766575690D0A00312E44657662
:1003F00020416464726573733A09096D6163207307
:10040000657420646576616464720D0A002A2A2A84
:100410002A2A2A2A2A2A2A2A2A2A2A2A2A48454CE1
:10042000502A2A2A2A2A2A2A2A2A2A2A2A2A2A2A06
:100430000D0A00524E32343833206E6F74206465DA
:100440007465637465642100524E3234383320631E
:1004500068697020646574656374656421007379EC
:10046000732067657420766572002A2A2A2A2A2A50
:100470002A2A2A2A2A2A4C6F526120524E323438B4
:1004800033207365742A2A2A2A2A2A2A2A2A2A2AFF
:100490002A00000000080002010000030407000019
:1004A000000000000000010204081020408001024A
:1004B00004081020010204081020040404040404A9
:1004C0000404020202020202030303030303000006
:1004D000000023002600290000000000250028005D
:1004E0002B0000000000240027002A0000407A10A2
:1004F000F35A00A0724E18090010A5D4E80000E8D5
:100500007648170000E40B54020000CA9A3B000032
:1005100000E1F505000080969800000040420F00C1
:100520000000A08601000000102700000000E80382
:10053000000000006400000000000A00000000004D
:100540000100000000002C76D888DC674F0823DF0C
:10055000C1DFAE59E1B1B796E5E3E453C63AE651DF
:10056000997696E8E6C28426EB898C9B62ED407C06
:100570006FFCEFBC9C9F40F2BAA56FA5F490055AA2
:100580002AF75C936B6CF9676DC11BFCE0E40D47C7
:10059000FEF520E6B500D0ED902E030094357705EA
:1005A0000080841E080000204E0A000000C80C33A2
:1005B0003333330F986E12831141EF8D2114893B31
:1005C000E65516CFFEE6DB18D1844B381BF77C1DB1
:1005D000901DA4BBE424203284725E228100C9F104
:1005E00024ECA1E53D272F076F0AAF214507760AC6
:1005F00011241FBECFEFD8E0DEBFCDBF13E0A0E0D7
:10060000B1E0EAEDFCE502C005900D92A43EB10711
:10061000D9F725E0A4EEB3E001C01D92AF3AB207CE
:10062000E1F715E0CCEED5E004C02297FE010E9470
:10063000D228C63ED107C9F70E94F3210C94602E40
:100640000C94000080913604882349F0809147047F
:10065000909148040196909348048093470408952C
:10066000CF93DF93EC01FB01248135810E94592651
:10067000CE01DF91CF9108958F929F92AF92BF925A
:10068000CF92DF92EF92FF920F931F93CF93DF935E
:10069000CDB7DEB72C970FB6F894DEBF0FBECDBF37
:1006A00088E10FB6F89480936000109260000FBE4E
:1006B0008FEE93E00E941E1821E020933704E1E8BA
:1006C000F0E080E180831092800085E08093FD045B
:1006D0008FEF9FEF9093FF048093FE049093870029
:1006E0008093860085E180832093360482E293E044
:1006F0009093FC048093FB0420936F0067E071E00B
:10070000CE0101960E941D24BE016F5F7F4F8FEEC8
:1007100093E00E946C0ACE0101960E94AF2384EE02
:1007200093E00E94750804EE13E0F801618572857C
:10073000882777FD8095982F0E94782720E030E069
:1007400040E251E40E940E276B017C01F8016781B1
:100750007085882777FD8095982F0E94782720E064
:1007600030E040E251E40E940E274B015C016AE652
:1007700070E08DE095E00E94402221E0B701A601E3
:10078000CE0101960E94E524BE016F5F7F4F8DE090
:1007900095E00E946522CE0101960E94AF23E09170
:1007A0000D05F0910E050190F081E02D60EB8DE0DC
:1007B00095E0099568E670E08DE095E00E947E2264
:1007C00021E0B501A401CE0107960E94E5246DE069
:1007D00071E0CE0101960E941D24BE01695F7F4F2A
:1007E000CE0101960E94BB2566E171E00E94CE25F4
:1007F000BC018DE095E00E949022CE0101960E94FE
:10080000AF23CE0107960E94AF232C960FB6F89423
:10081000DEBF0FBECDBFDF91CF911F910F91FF9033
:10082000EF90DF90CF90BF90AF909F908F90089502
:100830004F925F926F927F928F929F92AF92BF92F0
:10084000CF92DF92EF92FF920F931F93CF93DF939C
:10085000CDB7DEB72C970FB6F894DEBF0FBECDBF75
:100860008C0166ED73E0CE0107960E941D2466EDB3
:1008700073E0C8010E941D2484EE93E00E94750875
:100880006091EB037091EC03882777FD8095982F9A
:100890000E94782720E030E040E251E40E940E27D9
:1008A0002B013C016091ED037091EE03882777FDE9
:1008B0008095982F0E94782720E030E040E251E4B4
:1008C0000E940E27AB01BC0121E0CE0101960E94DF
:1008D000E524BE016F5F7F4FCE0107960E9454242E
:1008E000CE0101960E94AF2321E030E040E050E0CD
:1008F000BE01695F7F4FCE0101960E94592668E1D3
:1009000071E0CE0101960E94E825F82ECE010196F5
:100910000E94AF23FF20D1F06AE171E0C8010E947C
:10092000742441E050E0BE01695F7F4FCE01019623
:100930000E943003BE016F5F7F4FCE0107960E9479
:100940005424CE0101960E94AF2305C06AE572E0EF
:10095000C8010E94742466ED72E0CE0101960E94E7
:100960001D24BE016F5F7F4FCE0107960E94552662
:100970005C01CE0101960E94AF23BB24950140E0AB
:1009800050E0BE01695F7F4FCE0101960E9459265B
:10099000CE0101960E949E266B017C01CE0101963C
:1009A0000E94AF2380E1C816D1042CF46BE071E003
:1009B000C8010E94692540E1B601CE0101960E945E
:1009C000B924BE016F5F7F4FC8010E946225CE012E
:1009D00001960E94AF23A5014F5F5F4FBE01695F83
:1009E0007F4FCE0101960E943003CE0101960E94F6
:1009F0009E262AE0269F7001279FF00C1124CE012D
:100A000001960E94AF2380E1E816F1042CF46BE01C
:100A100071E0C8010E94692540E1B701CE0101964D
:100A20000E94B924BE016F5F7F4FC8010E946225FA
:100A3000CE0101960E94AF2321E0B301A201CE01B5
:100A400001960E94E524BE016F5F7F4FCE0107969D
:100A50000E945424CE0101960E94AF2366ED72E0FD
:100A6000CE0101960E941D24BE016F5F7F4FCE0113
:100A700007960E9455265C01CE0101960E94AF2385
:100A8000BB24950140E050E0BE01695F7F4FCE017D
:100A900001960E945926CE0101960E949E266B0166
:100AA0007C01CE0101960E94AF2380E1C816D104DB
:100AB0002CF46BE071E0C8010E94692540E1B601A9
:100AC000CE0101960E94B924BE016F5F7F4FC8011D
:100AD0000E946225CE0101960E94AF23A5014F5FBF
:100AE0005F4FBE01695F7F4FCE0101960E943003C8
:100AF000CE0101960E949E262AE0269F7001279F24
:100B0000F00C1124CE0101960E94AF2380E1E8167B
:100B1000F1042CF46BE071E0C8010E94692540E10A
:100B2000B701CE0101960E94B924BE016F5F7F4FCD
:100B3000C8010E946225CE0101960E94AF23CE011A
:100B400007960E94AF23C8012C960FB6F894DEBF1B
:100B50000FBECDBFDF91CF911F910F91FF90EF900E
:100B6000DF90CF90BF90AF909F908F907F906F90CD
:100B70005F904F900895FF920F931F93CF93DF9351
:100B8000CDB7DEB763970FB6F894DEBF0FBECDBF0B
:100B90008C0166ED73E00E941D2466ED73E0CE01CA
:100BA0000D960E941D246FEE73E0CE0101960E9407
:100BB0007517BE016F5F7F4FCE010D960E945424C2
:100BC000CE0101960E94AF2321E030E040E050E0EA
:100BD000BE01635F7F4FCE0101960E9459266AE5F0
:100BE00072E0CE0101960E94E825F82ECE01019612
:100BF0000E94AF23FF2011F03FEF01C037EF42E02A
:100C000050E0BE01635F7F4FCE0101963B8B0E9497
:100C10003003BE016F5F7F4FC8010E945424CE0194
:100C200001960E94AF236FEE73E0CE0101960E9401
:100C3000BA16BE016F5F7F4FC8010E946225CE01C8
:100C400001960E94AF238FEE93E00E947A0A6DE135
:100C500071E088E594E00E94A2226FEE73E0CE017D
:100C600001960E948D0ABE016F5F7F4FCE010D96E7
:100C70000E945424CE0101960E94AF2369E271E0E4
:100C8000CE010D960E94E8253B89811101C03F7776
:100C90006CE271E088E594E03B8B0E94A2226FEE4B
:100CA00073E0CE0101960E948D0ABE016F5F7F4FF7
:100CB000CE010D960E945424CE0101960E94AF23CE
:100CC000CE010D960E949E26262F2295207F2F680A
:100CD0003B89232340E1622FCE0107962B8B0E9494
:100CE0008C24BE01695F7F4FCE0101960E946B2468
:100CF000B801CE0101960E94BB25BC01C8010E942B
:100D00005424CE0101960E94AF23CE0107960E9483
:100D1000AF232B89203198F46BE071E0CE0101966E
:100D20000E941D24B801CE0101960E94BB25BC0182
:100D3000C8010E945424CE0101960E94AF23CE0127
:100D400001960E941804BE016F5F7F4FCE010D9681
:100D50000E945424CE0101960E94AF2342E050E04D
:100D6000BE01635F7F4FCE0101960E943003BE013A
:100D70006F5F7F4FC8010E946225CE0101960E94DD
:100D8000AF2321E030E040E050E0BE01635F7F4FE1
:100D9000CE0101960E9459266AE171E0CE010196CA
:100DA0000E94E825F82ECE0101960E94AF2361E053
:100DB000F11001C060E08CE06B8B0E94DF1F6B893B
:100DC000019709F062608EE06B8B0E942A1F6B898D
:100DD0008C3B92400CF0646040E1CE0107960E948B
:100DE0008C246BE071E0CE0101960E941D24BE01AF
:100DF000695F7F4FCE0101960E94BB25BC01C801EF
:100E00000E946225CE0101960E94AF23CE01079673
:100E10000E94AF2367E371E0CE0101960E941D247A
:100E2000B801CE0101960E94BB25BC018DE095E082
:100E30000E949022CE0101960E94AF23CE010D9612
:100E40000E94AF23C80163960FB6F894DEBF0FBEB1
:100E5000CDBFDF91CF911F910F91FF90089566ED67
:100E600073E081E594E00E941D2466ED73E08BE45D
:100E700094E00E941D2461E08FEE93E00E940B0A33
:100E80006AE084EE93E00C9450088BE294E00E94B8
:100E9000AF2385E294E00E94AF238FE194E00E94AB
:100EA000AF2389E194E00E94AF2383E194E00E94A4
:100EB000AF238DE094E00E94AF2387E094E00E948E
:100EC000AF2381E094E00E94AF238BEF93E00E9478
:100ED000AF2385EF93E00E94AF238FEE93E00E9453
:100EE000AF238BE494E00E94AF2381E594E00C945F
:100EF000AF231F93CF93DF9300D000D000D0CDB7A6
:100F0000DEB780913F04882319F1CE0101960E943B
:100F1000BB05BE016F5F7F4F81E594E00E945424C2
:100F2000CE0101960E94AF2380E18093810061E5AC
:100F300074E0CE0101960E946B24BE016F5F7F4F6B
:100F40008FEE93E00E94400FCE0101960E94AF23E6
:100F5000809147049091480405973CF11092480411
:100F600010924704CE0101960E94BB05BE016F5F3F
:100F70007F4F81E594E00E945424CE0101960E94A7
:100F8000AF2381E080933F0461E574E0CE010196D8
:100F90000E946B24BE016F5F7F4F8FEE93E00E9433
:100FA000400FCE0101960E94AF238DE095E00E9494
:100FB0000820181619060CF057C08DE095E00E9425
:100FC000212080934A04682F8DE095E00E947322CF
:100FD00060914A048BE494E00E94792580914A0450
:100FE0008A3009F041C010924804109247042091C1
:100FF0004F04309150042250310940E050E06BE43E
:1010000074E0CE0101960E945926BE016F5F7F4FAA
:101010008BE494E00E945424CE0101960E94AF23F9
:101020006BE474E0CE0101960E946B24BE016F5FF9
:101030007F4F8FEE93E00E944310182FCE01019650
:101040000E94AF2311110AC0109248041092470465
:101050006BE474E088E594E00E94902266ED73E012
:101060008BE494E00E94742488E594E00E94A91B1C
:10107000181619065CF488E594E00E941D1B809305
:101080004904682F8DE095E00E94732226960FB6E2
:10109000F894DEBF0FBECDBFDF91CF911F910895B1
:1010A000CF93DF93EC0170E0FB01EA55FB4FE49135
:1010B000E883FB01E654FB4FE491F0E0EE0FFF1FE5
:1010C000E253FB4F859194919A8389830E948D1EF0
:1010D0006B837C838D839E838DE19CEF98878F83C8
:1010E0009A878987DF91CF9108957F928F929F92FF
:1010F000AF92BF92CF92DF92EF92FF920F931F9326
:10110000CF93DF93CDB7DEB7A9970FB6F894DEBFC4
:101110000FBECDBF7C01FC017080018112810E9455
:101120008D1E6E01FAE2CF0ED11CFE013196119296
:10113000EC15FD05E1F7F70183809480A580B6806A
:101140009B01AC01281939094A095B0949015A0177
:1011500030ED831637E09306A104B10408F4D8C03B
:101160006383748385839683F894F8018181B72C17
:10117000B0948B2181837894EEE7AE2E82E090E0EC
:101180000E94E41EF8018081872129F4AA94B1F716
:1011900081E090E0C2C0F894F80182818B218283C3
:1011A00081818729818378948CE494E00E94E41EF5
:1011B000F894F80181818B21818378947AE1B72EAC
:1011C00082E090E00E94E41EF8018081872129F4EA
:1011D000BA94B1F782E090E0A0C063E3B62E82E05B
:1011E00090E00E94E41EF8018081872129F0BA94E2
:1011F000B1F783E090E091C09E012F5F3F4F59010E
:1012000054E2952E82E090E00E94E41EF801808175
:10121000872129F49A94B1F784E090E07EC0912C64
:10122000939482E090E00E94E41EF801808187217F
:1012300031F0F3E39F12F4CF85E090E06EC0F5014A
:1012400091925F01EC15FD05D9F6FE0132968FE013
:1012500090E040E050E021E030E061916C3048F0F7
:10126000B901082E02C0660F771F0A94E2F7462BD9
:10127000572B019790F7FE0172968FE090E020E0E7
:1012800030E061E070E0A191AC3048F0DB01082E65
:1012900002C0AA0FBB1F0A94E2F72A2B3B2B01972F
:1012A00090F7FE01B29687E090E060E0A1E0B0E048
:1012B00071917C3038F08D01082E01C0000F0A9426
:1012C000EAF7602B0197A0F7CA019F77F701908793
:1012D000878337FF08C0C9019F7791958195910950
:1012E0009287818703C0F7013287218770E0852FBD
:1012F0009927840F911D432F5527840F951F820F27
:10130000911D99276817790731F480E090E005C0B6
:1013100087E090E002C086E090E0A9960FB6F894CE
:10132000DEBF0FBECDBFDF91CF911F910F91FF9018
:10133000EF90DF90CF90BF90AF909F908F907F9075
:1013400008954115510529F4EAE7F0E080818F778F
:1013500080836A307105B1F063FF02C088E201C08A
:1013600088E06770682B88E190E00FB6F894A89544
:10137000809360000FBE60936000E0E6F0E0808143
:1013800080648083232BA1F483B7817F846083BF33
:10139000F89483B7816083BF85B7806685BF8F7DF2
:1013A00085BF7894889583B78E7F83BF78940EC06D
:1013B00083B7817F846083BFF89483B7816083BFE4
:1013C0007894889583B78E7F83BF7894452B29F4D2
:1013D000EAE7F0E080818068808308951F920F9291
:1013E0000FB60F9211248F9388E10FB6F894809373
:1013F0006000109260000FBE8F910F900FBE0F9093
:101400001F901895089561E085E00C94A91F0C9435
:10141000AD2B0C94B52B1F93CF93DF93EC01162FBC
:1014200066ED73E00E941D2466ED73E0CE01069622
:101430000E941D2466ED73E0CE010C960E941D24CF
:1014400066ED73E0CE0142960E941D2466ED73E0C6
:10145000CE0148960E941D2460E471E0CE014E96B4
:101460000E941D2466ED73E0CE0184960E941D2427
:1014700066ED73E0CE018A960E941D2466ED73E04E
:10148000CE01C0960E941D2465E471E0CE01C6968F
:101490000E941D2466ED73E0CE01CC960E941D24AF
:1014A000FE01E05BFF4F1082359681E08083C95AD0
:1014B000DF4F1883DF91CF911F91089560E084E0A2
:1014C0000E94A91F64E670E080E090E00E94BC1ECC
:1014D00061E084E00C94A91F0C960C94542420E045
:1014E00048E067E088E594E00C94D31C88E594E03C
:1014F0000C947A1C88E594E00E94A91B1816190622
:101500005CF462E070E080E090E00E94BC1E88E540
:1015100094E00E941D1BEECF0895EF92FF920F936F
:101520001F93CF93DF9300D000D000D0CDB7DEB7AC
:101530008C017B0166ED73E00E941D2488E594E038
:101540000E94A91B1816190634F060E070E0CB0168
:101550000E94BC1EF3CF86E5E80EF11C88E594E0FE
:101560000E94A91B1816190664F588E594E00E94EC
:101570001D1BF7018083682FC8010E94792560E058
:1015800070E0CB010E94BC1E0E94B81DF701808153
:101590008A3021F7F801248135812250310940E059
:1015A00050E0B801CE0101960E945926BE016F5F3E
:1015B0007F4FC8010E945424CE0101960E94AF23A0
:1015C000CDCFC80126960FB6F894DEBF0FBECDBFB3
:1015D000DF91CF911F910F91FF90EF900895CF92DF
:1015E000DF92EF92FF920F931F93CF93DF93CDB7CC
:1015F000DEB72C970FB6F894DEBF0FBECDBF7C01CF
:101600008B016A0166ED73E0CE0107960E941D24EE
:1016100069E471E0CE0101960E941D24B601CE015D
:1016200001960E94BB25BC0188E594E00E949022AF
:10163000CE0101960E94AF23B801CE0101960E940F
:101640008D0ABE016F5F7F4FCE0107960E94542422
:10165000CE0101960E94AF2363E571E0CE010796AB
:101660000E94E82598012B5B3F4F6901882371F0A8
:10167000F901108267EA70E08DE095E00E947E2219
:1016800061E671E0C7010E941D242CC0B801CE01A3
:1016900001960E948D0ABE016F5F7F4FCE010796B3
:1016A0000E945424CE0101960E94AF2368E671E0A7
:1016B000CE0107960E94E825882321F081E0F601FB
:1016C000808308C0F60110826EE770E08DE095E03F
:1016D0000E947E22C8010E947A0A64E272E0C70179
:1016E0000E941D24CE0107960E94AF23C7012C96AD
:1016F0000FB6F894DEBF0FBECDBFDF91CF911F9123
:101700000F91FF90EF90DF90CF9008955F926F92CE
:101710007F928F929F92AF92BF92CF92DF92EF9281
:10172000FF920F931F93CF93DF93CDB7DEB76297EE
:101730000FB6F894DEBF0FBECDBF7C018B0166ED06
:1017400073E0CE010D960E941D248FE090E00E9470
:10175000070A98012A5C3F4F69018F3F31F465E425
:1017600071E0C9010E94742405C061E771E0C901FC
:101770000E94742463E770E08DE095E00E944022AF
:10178000B6018DE095E00E949022380135E4630EA9
:10179000711C580183E5A80EB11C4801E6E48E0EC9
:1017A000911C83E0582EF3018081811150C0F50116
:1017B00080819181019691838083B601CE01079645
:1017C0000E946B24AE01495F5F4FB801CE010196C4
:1017D0000E94EF0ABE016F5F7F4FCE010D960E94FF
:1017E0005424CE0101960E94AF23CE0107960E9499
:1017F000AF2361E671E0CE010D960E94E8258823B3
:1018000031F061E671E0C7010E941D2428C05A949E
:1018100051F6F4018081882331F066E771E0C70159
:101820000E941D241CC0C8010E945E0AB801CE019E
:1018300001960E948D0ABE016F5F7F4FCE010D960B
:101840000E945424CE0101960E94AF23AACFC80162
:101850000E947A0A64E272E0C7010E941D24CE0150
:101860000D960E94AF23C70162960FB6F894DEBFB3
:101870000FBECDBFDF91CF911F910F91FF90EF90E1
:10188000DF90CF90BF90AF909F908F907F906F90A0
:101890005F9008954F925F926F927F928F929F9286
:1018A000AF92BF92CF92DF92EF92FF920F931F936E
:1018B000CF93DF93CDB7DEB72C970FB6F894DEBF8A
:1018C0000FBECDBF6C017B014A015901380166EDA5
:1018D00073E0CE0107960E941D248701005D1F4F13
:1018E00066ED73E0C8010E947424270185E4480E68
:1018F000511CF2018081811129C0B701CE010196EE
:101900000E94860BBE016F5F7F4FCE0107960E943B
:101910005424CE0101960E94AF2361E671E0CE010E
:1019200007960E94E825882331F061E671E0C60140
:101930000E941D246EC164E272E0CE0107960E94EF
:10194000E825882319F081E0F201808365E971E0E0
:10195000C4010E94E8258823D9F067E971E0CE012F
:1019600001960E941D24B501CE0101960E94BB255F
:101970006BE372E00E94CE25B3010E94BB25BC013F
:1019800088E594E00E949022CE0101960E94AF2348
:1019900065EA71E0C4010E94E8258823D9F067EA6E
:1019A00071E0CE0101960E941D24B501CE01019681
:1019B0000E94BB256BE372E00E94CE25B3010E941A
:1019C000BB25BC0188E594E00E949022CE010196DF
:1019D0000E94AF23B701CE0101960E948D0ABE017D
:1019E0006F5F7F4FCE0107960E945424CE0101966F
:1019F0000E94AF2363EB71E0CE0101960E941D248B
:101A0000BE01695F7F4FCE0101960E94BB25BC01DC
:101A10008DE095E00E949022CE0101960E94AF23B6
:101A200065EC71E0CE0107960E94E8258823D9F085
:101A3000F2011082B701CE0101960E94860BBE0111
:101A40006F5F7F4FCE0107960E945424CE0101960E
:101A50000E94AF2361E671E0CE0107960E94E8255F
:101A6000811163CF46C067ED71E0CE0107960E94F9
:101A7000E825882379F06EEB70E08DE095E00E9418
:101A80007E22F201108262EE71E088E594E00E940D
:101A9000A22216C06CEE71E0CE0107960E94E825E6
:101AA000882369F166EB70E08DE095E00E947E226C
:101AB00062EE71E088E594E00E94A222F2011082B9
:101AC000B701CE0101960E948D0ABE016F5F7F4F64
:101AD000CE0107960E945424CE0101960E94AF23A6
:101AE000B701CE0101960E94860BCE0101960E949D
:101AF000AF2360ED71E0C6010E941D248AC061EF32
:101B000071E0CE0107960E94E825882331F06FEF3F
:101B100071E0C6010E941D247CC064E670E080E094
:101B200090E00E94BC1EB701CE0101960E948D0A72
:101B3000BE016F5F7F4FCE0107960E945424CE01F5
:101B400001960E94AF236EE072E0CE0101960E94E2
:101B50001D24BE01695F7F4FCE0101960E94BB2507
:101B6000BC018DE095E00E949022CE0101960E947A
:101B7000AF236DE172E0CE0107960E94E825811146
:101B800033C047E050E0BE01695F7F4FCE01019650
:101B90000E943003BE016F5F7F4FC8010E94542432
:101BA000CE0101960E94AF2360E2C8010E94352653
:101BB00099270196AC01B801CE0101960E9430032D
:101BC00067E272E0CE0101960E94E825811112C001
:101BD0006AE272E0CE0101960E94E82581110AC0F6
:101BE000CE0101960E94AF2364E272E0C6010E941A
:101BF0001D240FC061E089E00E94A91F68EC70E01D
:101C000080E090E00E94BC1E60E089E00E94A91F75
:101C1000E7CFCE0107960E94AF23C6012C960FB6E0
:101C2000F894DEBF0FBECDBFDF91CF911F910F9112
:101C3000FF90EF90DF90CF90BF90AF909F908F90EC
:101C40007F906F905F904F900895AF92BF92CF9228
:101C5000DF92EF92FF920F931F93CF93DF93CDB755
:101C6000DEB762970FB6F894DEBF0FBECDBF8C0112
:101C70005B0188E10FB6F8948093600010926000D9
:101C80000FBECB010E949E266B017C01B501C801ED
:101C90004E960E945424C701B6010E94782720E086
:101CA00030E64AE657E40E94042820E030EB41E8A1
:101CB00055E40E94A926AB01BC0120E0CE010D969F
:101CC0000E94E5246DE272E0CE0101960E941D247F
:101CD000B501CE0101960E94BB256DE372E00E9422
:101CE000CE25BC018DE095E00E949022CE010196A8
:101CF0000E94AF2363E472E0CE0101960E941D248E
:101D0000BE01635F7F4FCE0101960E94BB25BC01DF
:101D100088E594E00E949022CE0101960E94AF23B4
:101D200064E670E080E090E00E94BC1E60E08DE020
:101D30000E94A91FF801E95BFF4F108239961082BB
:101D40003497108260E085E00E94A91F66ED73E081
:101D5000CE0107960E941D2443E050E062E07AE045
:101D600080E00E94B91D41E050E063E07AE081E04C
:101D70000E94B91D88E10FB6F8948093600010921C
:101D800060000FBE20E030E040E050E06AE070E02C
:101D900087E594E00E94A10980E00E94D91D81E0BE
:101DA0000E94D91DF801E05BFF4FFF24F394F082FD
:101DB00085E00E94DF1FF801E45BFF4F0197A1F46B
:101DC000F082C8010E945E0A88E594E00E94A91B87
:101DD00018161906CCF7B801CE0101960E948D0A9B
:101DE000CE0101960E94AF2361E08DE00E94A91F01
:101DF0006EE472E088E594E00E94A22220E030E0E8
:101E000040E050E066E070E087E594E00E94A109C0
:101E100088E594E00E94A91B18161906CCF7B801B2
:101E2000CE0101960E948D0A64E272E0CE01019615
:101E30000E94E825182FCE0101960E94AF2311239E
:101E400031F060EF70E08DE095E00E947E22CE01DF
:101E500007960E94AF23CE010D960E94AF23629693
:101E60000FB6F894DEBF0FBECDBFDF91CF911F91AB
:101E70000F91FF90EF90DF90CF90BF90AF900895BB
:101E8000CF92DF92EF92FF920F931F93CF93DF9346
:101E9000CDB7DEB7A4970FB6F894DEBF0FBECDBFA7
:101EA0007C018B0166ED73E0CE014F960E941D24EC
:101EB00066ED73E0CE0149960E941D24670180E51E
:101EC000C80ED11CF6011082B801CE0149960E94BD
:101ED00054246DE572E0CE0101960E941D24BE01DE
:101EE000675E7F4FCE0101960E94BB25BC018DE04D
:101EF00095E00E949022CE0101960E94AF23BE0180
:101F0000675E7F4FCE0107960E946B24B7016E5E1D
:101F10007F4FCE010D960E946B2465E971E0CE01E2
:101F200043960E941D248E01095F1F4F9E01235F6F
:101F30003F4FAE014D5E5F4FB701CE0101960E944B
:101F40004A0CBE016F5F7F4FCE014F960E94542412
:101F5000CE0101960E94AF23CE0143960E94AF238B
:101F6000CE010D960E94AF23C8010E94AF236AE6FE
:101F700072E0CE0101960E941D24BE01615E7F4F7A
:101F8000CE0101960E94BB25BC018DE095E00E9428
:101F90009022CE0101960E94AF2360ED71E0CE0148
:101FA0004F960E94E825882331F081E0F601808376
:101FB0003597808351C087010F5A1F4FF8018081E8
:101FC00091810196918380836BEE70E08DE095E0C6
:101FD0000E944022F801608171814AE0CE010196A1
:101FE0000E94B924BE016F5F7F4F8DE095E00E9493
:101FF0009022CE0101960E94AF236BED70E08DE040
:1020000095E00E944022F701ED5AFF4F60817181F7
:102010004AE0CE0101960E94B924BE016F5F7F4F56
:102020008DE095E00E949022CE0101960E94AF23A0
:10203000C7010E947A0AB701625E7F4FCE01019606
:102040000E946B24BE016F5F7F4FC7010E94250E67
:10205000CE0101960E94AF23CE0149960E94AF2384
:10206000CE014F960E94AF23A4960FB6F894DEBF20
:102070000FBECDBFDF91CF911F910F91FF90EF90D9
:10208000DF90CF9008959F92AF92BF92CF92DF9250
:10209000EF92FF920F931F93CF93DF93CDB7DEB7ED
:1020A000A4970FB6F894DEBF0FBECDBF7C018B01A5
:1020B0002CE030E040E050E0CE0101960E9459262D
:1020C0006EE672E0CE0101960E94E825D82ECE0180
:1020D00001960E94AF23DD20B1F14CE050E0B80141
:1020E000CE0101960E943003BE016F5F7F4FC80191
:1020F0000E945424CE0101960E94AF2369E271E050
:10210000C8010E94E825882351F081E0F701EC5BCB
:10211000FF4F80836FEF81E190E00E94090A6BE737
:1021200072E0C8010E94E825882309F4B7C4F701CA
:10213000EC5BFF4F81E0808360E081E190E00E94F2
:10214000090A81E005C66FE772E0C8010E94E82530
:10215000882309F461C066ED73E0CE0107960E9402
:102160001D24B701605D7F4FCE0101960E946B2454
:10217000BE016F5F7F4FCE0107960E945424CE01AF
:1021800001960E94AF238B859C85029738F469E9FC
:1021900072E08DE095E00E947E227CC460E2CE0178
:1021A00007960E9435268C0163E972E08DE095E088
:1021B0000E9440221127980140E050E0BE01695F73
:1021C0007F4FCE0101960E945926BE016F5F7F4F5F
:1021D0008DE095E00E949022CE0101960E94AF23EF
:1021E0006DE872E08DE095E00E944022A8014F5F0B
:1021F0005F4FBE01695F7F4FCE0101960E943003A1
:10220000BE016F5F7F4F8DE095E00E949022CE016E
:1022100001960E94AF233EC429E030E040E050E048
:10222000B801CE0101960E94592668E872E0CE01FD
:1022300001960E94E825D82ECE0101960E94AF2378
:10224000DD2009F44DC049E050E0B801CE0101960F
:102250000E943003BE016F5F7F4FC8010E9454246B
:10226000CE0101960E94AF2365E471E0C8010E948F
:10227000E825882369F08FE090E00E94070A8F3FED
:1022800009F40CC46FEF8FE090E00E94090A1CC0B3
:1022900061E771E0C8010E94E825882369F08FE0BA
:1022A00090E00E94070A882309F4F8C360E08FE0F9
:1022B00090E00E94090A08C06CE772E08DE095E0AA
:1022C0000E947E2281E044C5F701EB5BFF4F108244
:1022D00066E672E08DE095E00E947E2281E038C5DE
:1022E00023E030E040E050E0B801CE0101960E94CA
:1022F00059266FE972E0CE0101960E94E825D82E9A
:10230000CE0101960E94AF23DD2009F45CC043E0BA
:1023100050E0B801CE0101960E943003BE016F5F0C
:102320007F4F8701065D1F4FC8010E945424CE01D4
:1023300001960E94AF2362E972E0CE0101960E94ED
:102340001D24B801CE0101960E94BB25BC0188E581
:1023500094E00E949022CE0101960E94AF23B70123
:10236000CE0101960E948D0A64E272E0CE010196D0
:102370000E94E825182FCE0101960E94AF23112359
:1023800009F48CC36DE572E088E594E00E947E223A
:10239000B701CE0101960E948D0A64E272E0CE017F
:1023A00001960E94E825182FCE0101960E94AF23C6
:1023B000112309F473C363E572E08DE095E00E9498
:1023C0007E2281E0C5C424E030E040E050E0B80166
:1023D000CE0101960E9459266EE972E0CE01019667
:1023E0000E94E825D82ECE0101960E94AF23DD2061
:1023F00009F459C044E050E0B801CE0101960E94B2
:102400003003BE016F5F7F4FC8010E945424CE018C
:1024100001960E94AF2363EA72E0CE0101960E940A
:102420001D24B801CE0101960E94BB25BC0188E5A0
:1024300094E00E949022CE0101960E94AF23B70142
:10244000CE0101960E948D0A64E272E0CE010196EF
:102450000E94E825182FCE0101960E94AF23112378
:1024600009F41CC36AE472E088E594E00E947E22CD
:10247000B701CE0101960E948D0A64E272E0CE019E
:1024800001960E94E825182FCE0101960E94AF23E5
:10249000112309F403C36FE372E08DE095E00E941D
:1024A0007E2281E055C426E030E040E050E0B801F3
:1024B000CE0101960E94592660EB72E0CE01019692
:1024C0000E94E825D82ECE0101960E94AF23DD2080
:1024D00009F45BC046E050E0B801CE0101960E94CD
:1024E0003003BE016F5F7F4FC8010E945424CE01AC
:1024F00001960E94AF2367EB72E0CE0101960E9425
:102500001D24B7016C5D7F4FCE0101960E94BB2553
:10251000BC0188E594E00E949022CE0101960E94C1
:10252000AF23B701CE0101960E948D0A64E272E0EA
:10253000CE0101960E94E825182FCE0101960E9437
:10254000AF23112309F4AAC266E372E088E594E0A0
:102550000E947E22B701CE0101960E948D0A64E29C
:1025600072E0CE0101960E94E825182FCE01019657
:102570000E94AF23112309F491C269E272E08DE059
:1025800095E00E947E2281E0E3C325E030E040E058
:1025900050E0B801CE0101960E94592667EC72E026
:1025A000CE0101960E94E825D82ECE0101960E9408
:1025B000AF23DD2009F442C045E050E0B801CE0170
:1025C00001960E943003BE016F5F7F4FC8010E94D9
:1025D0005424CE0101960E94AF2322E1E20EF11CA9
:1025E000B801C7010E945424C7010E949E26673E7D
:1025F00071058105910544F066E172E08DE095E09A
:102600000E947E2280E0A4C3C7010E949E268AE029
:1026100090E00E94090A6CE072E08DE095E00E9473
:102620004022B8018DE095E00E9465226AEF71E0DA
:102630008DE095E00E947E2281E08AC326E030E0B2
:1026400040E050E0B801CE0101960E9459266DECA1
:1026500072E0CE0101960E94E825D82ECE010196A7
:102660000E94AF23DD2009F44BC061E089E00E94A5
:10267000A91F66ED73E0CE014F960E941D2446E02F
:1026800050E0B801CE0101960E943003BE016F5F99
:102690007F4FC8010E945424CE0101960E94AF23AF
:1026A00061EF71E08DE095E00E944022B8018DE07D
:1026B00095E00E949022B801C7010E94542460EE68
:1026C00071E08DE095E00E94402287010E5E1F4F71
:1026D000B8018DE095E00E94652264ED72E08DE026
:1026E00095E00E94A222B701CE010D960E946B24B4
:1026F000B801CE0143960E946B2465E971E061C088
:1027000026E030E040E050E0B801CE0101960E94A2
:10271000592663EE72E0CE0101960E94E825D82E7C
:10272000CE0101960E94AF23DD2009F48BC061E049
:1027300089E00E94A91F66ED73E0CE014F960E94CA
:102740001D2446E050E0B801CE0101960E943003FE
:10275000BE016F5F7F4FC8010E945424CE010196D5
:102760000E94AF2367ED71E08DE095E00E9440226A
:10277000B8018DE095E00E949022B801C7010E9447
:10278000542466EC71E08DE095E00E9440228701C0
:102790000E5E1F4FB8018DE095E00E94652264ED4A
:1027A00072E08DE095E00E94A222B701CE010D9665
:1027B0000E946B24B801CE0143960E946B2465EA07
:1027C00071E0CE0149960E941D248E01035F1F4FC8
:1027D0009E012D5E3F4FAE01475E5F4FB701CE01B8
:1027E00007960E944A0C68ED72E0CE0101960E94A5
:1027F0001D24BE01695F7F4FCE0101960E94BB255B
:10280000BC018DE095E00E949022CE0101960E94CD
:10281000AF23CE0107960E94AF23CE0149960E94B6
:10282000AF23CE0143960E94AF23C8010E94AF237D
:1028300060E089E00E94A91FCE014F960E94AF235D
:1028400081E086C26AEE72E0C8010E94E825882312
:1028500009F426C166ED73E0CE0107960E941D249F
:1028600060EA71E08DE095E00E947E2264E971E00B
:102870008DE095E00E9440226FEE72E088E594E0E2
:102880000E94A222B701CE0101960E948D0ABE01CC
:102890006F5F7F4FCE0107960E945424CE010196B0
:1028A0000E94AF23BE01695F7F4F8DE095E00E94DB
:1028B000902264E871E08DE095E00E9440226EEF86
:1028C00072E088E594E00E94A222B701CE01019651
:1028D0000E948D0ABE016F5F7F4FCE0107960E9456
:1028E0005424CE0101960E94AF23BE01695F7F4F41
:1028F0008DE095E00E94902263E771E08DE095E025
:102900000E9440226EE073E088E594E00E94A222DB
:10291000B701CE0101960E948D0ABE016F5F7F4F05
:10292000CE0107960E945424CE0101960E94AF2347
:10293000BE01695F7F4F8DE095E00E94902266E6C0
:1029400071E08DE095E00E9440226DE173E08DE042
:1029500095E00E94A2226AE571E08DE095E00E9478
:102960004022B701645F7F4F8DE095E00E94902286
:102970006DE471E08DE095E00E94402261E273E039
:1029800088E594E00E94A222B701CE0101960E9440
:102990008D0ABE016F5F7F4FCE0107960E945424BF
:1029A000CE0101960E94AF23BE01695F7F4F8DE08B
:1029B00095E00E94902264E471E08DE095E00E9431
:1029C00040226DE273E088E594E00E94A222B70104
:1029D000CE0101960E948D0ABE016F5F7F4FCE012E
:1029E00007960E945424CE0101960E94AF23BE0197
:1029F000695F7F4F8DE095E00E94652269E373E097
:102A00008DE095E00E94A22260E471E08DE095E007
:102A10000E9440226CE271E088E594E00E94A222CC
:102A2000B701CE0101960E948D0ABE016F5F7F4FF4
:102A3000CE0107960E945424CE0101960E94AF2336
:102A4000BE01695F7F4F8DE095E00E9490226BE3AD
:102A500071E08DE095E00E9440226DE171E088E533
:102A600094E00E94A222B701CE0101960E948D0A35
:102A7000BE016F5F7F4FCE0107960E945424CE01A6
:102A800001960E94AF23BE01695F7F4F8DE095E004
:102A90000E949022CE0107960E94AF2381E058C188
:102AA0006CE373E0C8010E94E825882309F46BC039
:102AB00066ED73E0CE0107960E941D2462E371E08B
:102AC00088E594E00E947E2288E594E00E94A91B9C
:102AD00018161906CCF736E5E30EF11C88E594E0EC
:102AE0000E94A91B181619060CF046C088E594E050
:102AF0000E941D1BF7018083682FCE0107960E945C
:102B00007925F70180818A3049F72B853C85225051
:102B1000310940E050E0BE01695F7F4FCE01019670
:102B20000E945926BE016F5F7F4FCE0107960E941B
:102B30005424CE0101960E94AF2363EB71E0CE01D5
:102B400001960E941D24BE01695F7F4FCE01019650
:102B50000E94BB25BC018DE095E00E949022CE0131
:102B600001960E94AF2364E272E0CE0107960E94B4
:102B7000E8258111B3CF8ECF64E171E08DE095E05F
:102B80000E947E2287CF26E030E040E050E0B8018E
:102B9000CE0101960E94592661E473E0CE010196B0
:102BA0000E94E825D82ECE0101960E94AF23DD2099
:102BB000F9F046E050E0B801CE0101960E943003E2
:102BC000BE016F5F7F4FC8010E945424CE01019661
:102BD0000E94AF23F80184819581892B31F1C801CE
:102BE0000E949E26161617061806190634F11DC0F7
:102BF00066E673E0C8010E94E825882349F0B70122
:102C0000685E7F4F8DE095E00E94902281E0A0C039
:102C100066EE71E0C8010E94E825882321F0C70113
:102C20000E945E0A3BCF80E093C066E071E08DE0D9
:102C300095E00E947E2281E08BC0C8010E949E2602
:102C4000603177428105910544F067EF70E08DE0D7
:102C500095E00E947E2281E07BC06701FEE1CF0EFD
:102C6000D11CB801C6010E94542400E010E094E099
:102C7000A92EB12CF70182A193A19501281B390B34
:102C800002171307B0F46BE071E0CE0101960E94C9
:102C90001D24B601CE0101960E94BB25BC01C601D0
:102CA0000E945424CE0101960E94AF230F5F1F4F54
:102CB000E1CF68E473E0CE0101960E941D24B601C5
:102CC000CE0101960E94BB256EE372E00E94CE25E4
:102CD000BC018DE095E00E949022CE0101960E94F9
:102CE000AF23A12CB12C85010F5F1F4FC8010E949B
:102CF000070A982EB501C6010E940726492D50E00B
:102D0000FC012081332727FD30954217530729F412
:102D100004301105C1F05801E6CF00E010E0B80121
:102D2000C6010E9407260F5F1F4FFC016081C8018A
:102D30000E94090A0430110591F764E573E08DE003
:102D400095E00E94A222F701E05BFF4F81E08083C3
:102D5000A4960FB6F894DEBF0FBECDBFDF91CF9122
:102D60001F910F91FF90EF90DF90CF90BF90AF90A9
:102D70009F900895AF92BF92CF92DF92EF92FF9211
:102D80000F931F93CF93DF93CDB7DEB762970FB644
:102D9000F894DEBF0FBECDBF8C017B0166ED73E002
:102DA000CE010D960E941D2466ED73E0CE010796BC
:102DB0000E941D2466ED73E0C8010E941D2488E571
:102DC00094E00E94A91B181619062CF488E594E0DB
:102DD0000E941D1BF4CF6DE273E088E594E00E9431
:102DE000A222B701CE0101960E948D0ABE016F5F3B
:102DF0007F4FCE010D960E945424CE0101960E9471
:102E0000AF2322E030E040E050E0BE01635F7F4F3F
:102E1000CE0101960E945926CE0101960E949E265F
:102E20006B017C01CE0101960E94AF2380E1C816A0
:102E3000D1042CF46BE071E0C8010E94692540E1E7
:102E4000B601CE0101960E94B924BE016F5F7F4F8B
:102E5000C8010E946225CE0101960E94AF2342E084
:102E600050E0BE01635F7F4FCE0101960E943003A8
:102E7000CE0101960E949E266B017C01CE01019637
:102E80000E94AF2380E1C816D1042CF46BE071E0FE
:102E9000C8010E94692540E1B601CE0101960E9459
:102EA000B924BE016F5F7F4FC8010E946225CE0129
:102EB00001960E94AF23CE0107960E94AF23CE0158
:102EC0000D960E94AF23C80162960FB6F894DEBF3C
:102ED0000FBECDBFDF91CF911F910F91FF90EF906B
:102EE000DF90CF90BF90AF900895CF92DF92EF9296
:102EF000FF920F931F93CF93DF93CDB7DEB72C973D
:102F00000FB6F894DEBF0FBECDBF8C017B0166ED1E
:102F100073E0CE0107960E941D2466ED73E0C801A0
:102F20000E941D2488E594E00E94A91B181619062A
:102F30002CF488E594E00E941D1BF4CF6BE673E04F
:102F400088E594E00E94A222B701CE0101960E947A
:102F50008D0ABE016F5F7F4FCE0107960E945424F9
:102F6000CE0101960E94AF2321E030E040E050E026
:102F7000BE01695F7F4FCE0101960E94592668E12C
:102F800071E0CE0101960E94E825F82ECE0101964F
:102F90000E94AF23FF20D1F06AE171E0C8010E94D6
:102FA000692541E050E0BE01695F7F4FCE01019687
:102FB0000E943003BE016F5F7F4FCE0107960E94D3
:102FC0005424CE0101960E94AF2305C06AE572E049
:102FD000C8010E946925CE0107960E949E266B01BA
:102FE0007C0180E1C816D1042CF46BE071E0C801CB
:102FF0000E94692540E1B601CE0101960E94B924E4
:10300000BE016F5F7F4FC8010E946225CE0101960D
:103010000E94AF23CE0107960E94AF23C8012C96D1
:103020000FB6F894DEBF0FBECDBFDF91CF911F91D9
:103030000F91FF90EF90DF90CF9008958F929F9225
:10304000AF92BF92CF92DF92EF92FF920F931F93B6
:10305000CF93DF93CDB7DEB76E970FB6F894DEBF90
:103060000FBECDBF7C0160E082E00E94701F61E076
:103070008DE00E94701F61E089E00E94701F61E096
:1030800084E00E94701F60E084E00E94A91F61E05C
:1030900089E00E94A91F61E08DE00E94A91F60E9FC
:1030A00071E080E090E00E94BC1E61E084E00E943C
:1030B000A91F61E089E00E94A91F26E040E052ECD0
:1030C00061E070E08DE095E00E94EB2040E051EE81
:1030D00060E070E088E594E00E94031D6AE674E019
:1030E0008DE095E00E947E2288E594E00E94A91B75
:1030F0001816190684F488E594E00E941D1B682FB9
:103100008DE095E00E94732265E070E080E090E041
:103110000E94BC1EE9CF6EE574E088E594E00E9451
:103120007E2268EC70E080E090E00E94BC1E69E7BF
:1031300073E088E594E00E94A423882309F466C024
:1031400068E474E08DE095E00E947E22F701E95A80
:10315000FF4F8081813009F060C06DE074E087012D
:10316000085E1F4FC8010E9415256BEE73E0C80171
:103170000E948C256EEC73E0C8010E948C256CEADD
:1031800073E0C8010E948C256EE873E0C8010E94BC
:103190008C256CE673E0C8010E948C2562E573E023
:1031A000C8010E948C256FE273E0C8010E948C2543
:1031B000B8018DE095E00E9465226AE073E08DE041
:1031C00095E00E947E226EEF72E08DE095E00E9415
:1031D0007E2262EF72E088E594E00E947E2262E344
:1031E00070E080E090E00E94BC1EB701CE01019625
:1031F0000E948D0ABE016F5F7F4F8DE095E00E94B7
:103200009022CE0101960E94AF2307C063E374E0D1
:103210008DE095E00E947E22FFCF6CED75E080E0AE
:1032200090E00E94BC1E60E089E00E94A91F66ED4C
:1032300073E0C70106960E947424B701CE01079679
:103240000E94BA1660E873E0CE0101960E941D2428
:10325000BE01695F7F4FCE0101960E94BB25BC0174
:103260008DE095E00E949022CE0101960E94AF234E
:10327000CE0107960E94AF23B701CE0107960E94A8
:1032800075176EE873E0CE0101960E941D24BE0101
:10329000695F7F4FCE0101960E94BB25BC018DE086
:1032A00095E00E949022CE0101960E94AF23CE01AC
:1032B00007960E94AF2369EC72E08DE095E00E94D2
:1032C0007E22570125E4A20EB11CF501108280E098
:1032D00090E00E94070A9701225E3F4F69018C3AF5
:1032E000D1F000E010E0B801C6010E9407260F5F90
:1032F0001F4FFC016081C8010E94090A04301105BA
:1033000091F76CEA80E090E00E94090A6FEF81E19A
:1033100090E00E94090A00E010E0B801C6010E9496
:1033200007264C010F5F1F4FC8010E94070AF401D6
:1033300080830430110589F768E973E0CE010196B6
:103340000E941D24B601CE0101960E94BB25BC013E
:103350008DE095E00E949022CE0101960E94AF235D
:103360006701F2E1CF0ED11C66ED73E0C6010E9449
:1033700074248AE090E00E94070A4AE0682FCE0198
:1033800001960E948C24BE016F5F7F4FC6010E9490
:103390005424CE0101960E94AF238AE090E00E945F
:1033A000070A8F3F29F464EA73E0C6010E9474247F
:1033B00066EA73E0CE0101960E941D24B601CE019B
:1033C00001960E94BB25BC018DE095E00E949022F1
:1033D000CE0101960E94AF238FE090E00E94070A81
:1033E00097012A5C3F4F8F3F31F465E471E0C901DA
:1033F0000E94742405C061E771E0C9010E94742431
:1034000081E190E00E94070A87010C5B1F4F8F3F0C
:1034100021F481E0F801808302C0F801108266ED9A
:1034200073E0CE0149960E941D24F501108281E0CF
:10343000F701EA5BFF4F8083B701CE0101960E943E
:10344000860BBE016F5F7F4FCE0149960E945424C8
:10345000CE0101960E94AF23BE01675E7F4F8DE0D3
:1034600095E00E94902264E272E0CE0149960E94AB
:10347000E825882309F4BAC0C7010E947A0AF80136
:103480008081811105C0F701EA5BFF4F1082AEC059
:103490006AEB72E088E594E00E947E22B701CE01DB
:1034A00001960E948D0ABE016F5F7F4FCE01499643
:1034B0000E945424CE0101960E94AF236CEA73E06F
:1034C000CE0101960E941D24BE01675E7F4FCE0192
:1034D00001960E94BB25BC018DE095E00E949022E0
:1034E000CE0101960E94AF2362EA72E08DE095E082
:1034F0000E947E22BE01675E7F4FCE0107960E942A
:103500006B24B601CE010D960E946B245E01F3E19F
:10351000AF0EB11C65E971E0C5010E941D248E014A
:10352000095F1F4F9E01235F3F4FA501B701CE01E9
:1035300001960E944A0CBE016F5F7F4FCE014996F3
:103540000E945424CE0101960E94AF23C5010E941F
:10355000AF23CE010D960E94AF23C8010E94AF2376
:1035600064E272E0CE0149960E94E82581118BCF7A
:1035700061E671E0CE0149960E94E825811183CF72
:10358000BE01675E7F4FCE0107960E946B24B60195
:10359000CE010D960E946B2465E971E0C5010E9481
:1035A0001D248E01095F1F4F9E01235F3F4FA50120
:1035B000B701CE0101960E944A0C64E272E0CE018E
:1035C00001960E94E825182FCE0101960E94AF2394
:1035D000C5010E94AF23CE010D960E94AF23CE01FC
:1035E00007960E94AF23112359F24DCF8DE095E04D
:1035F0000E940820181619062CF48DE095E00E9410
:103600002120F4CF8DE095E00E946420CE01499600
:103610000E94AF236E960FB6F894DEBF0FBECDBFEB
:10362000DF91CF911F910F91FF90EF90DF90CF909E
:10363000BF90AF909F908F9008952091F9043091A2
:10364000FA0428173907B9F4909177048091780427
:10365000981789F0E0917704F0E0E758FB4F8081FC
:103660002091770430E02F5F3F4F2F77332720934F
:10367000770490E008958FEF9FEF08951F93CF9305
:10368000DF93DC015C968D919C915D97009749F4E6
:1036900081E090E013969C938E93129780E090E0E7
:1036A0003BC05196ED91FC91529750962C915097BA
:1036B000322F30951FB75E964C915E9741FB77276E
:1036C00070F941FD6095F8944081772311F0422B09
:1036D00001C043234083EC012197F1F748E050817A
:1036E00060FF02C0522B01C053235083EC0121978D
:1036F000F1F76695415099F78081772311F0832384
:1037000001C0822B80831FBF5C968D919C915D9739
:103710000197F1F781E090E0DF91CF911F9108953B
:1037200008952091F9043091FA042817390771F4AB
:103730009091770480917804981741F0E091770494
:10374000F0E0E758FB4F808190E008958FEF9FEF06
:1037500008952091F9043091FA042817390771F47B
:10376000809178042091770490E080589F4F821BCD
:10377000910960E870E00E946728089580E090E079
:103780000895E091F904F091FA04E817F90769F453
:10379000A389B4899C918589809589238C93109203
:1037A000FA041092F90481E0089580E00895CF931F
:1037B000DF93EC018A8D9B8D892BF1F08091F904C8
:1037C0009091FA048C179D07B9F0009711F00E94B0
:1037D000C11B8E8D8E7F8E8F10927804109277048D
:1037E000D093FA04C093F904EB89FC8980819D8908
:1037F000892B808381E001C080E0DF91CF91089523
:103800001F920F920FB60F9211242F933F934F9355
:103810005F936F937F938F939F93AF93BF93EF9338
:10382000FF93E091F904F091FA04309709F451C044
:10383000868DA685B785958581FF04C08C918923E7
:1038400029F447C08C91892309F043C0A389B48926
:103850009C918589809589238C9386899789019786
:10386000F1F7208D318DA685B785758558E040E04C
:10387000C9010197F1F7842F90E095958795482F1E
:103880006C91672309F04068515091F7868D81FD56
:1038900040958091780490E001968F779927209148
:1038A0007704281749F0A0917804B0E0A758BB4FDF
:1038B0004C938093780403C0868D8160868F828DBF
:1038C000938D0197F1F7A389B4898C919589892B00
:1038D0008C93FF91EF91BF91AF919F918F917F91C9
:1038E0006F915F914F913F912F910F900FBE0F906D
:1038F0001F90189528EB33E0FC01318320830C9452
:10390000C11B1F93CF93DF93EC01162F6E8D66952D
:10391000617081E06827812F0E94A91F61E0812FDB
:103920000E94701F812F90E0FC01EA55FB4FE4914B
:10393000E88BFC01E654FB4FE491F0E0EE0FFF1F33
:10394000E852FB4F859194919A8B898BDF91CF91AF
:103950001F9108951F93CF93DF93EC01162F60E022
:10396000812F0E94701F8E8D81FD04C061E0812F28
:103970000E94A91F1C87812F90E0FC01EA55FB4F94
:10398000E491ED87FC01E654FB4FE491F0E0EE0F8B
:10399000FF1FE253FB4F859194919F878E87DF91A4
:1039A000CF911F910895FF920F931F93CF93DF93B1
:1039B000EC01F62E522F1B821A8208EE13E020E053
:1039C00030E00C831D832E833F8388EB93E0998343
:1039D00088831F8A1E8A198E188E1B8E1A8E1D8E42
:1039E0001C8E8E8D8E7F50FB81F98E8F642FCE01C1
:1039F0000E94811C6F2DCE01DF91CF911F910F91FD
:103A0000FF900C94AA1CCF93DF93EC019A01AB01B9
:103A10001B8E1A8E198E188E1F8A1E8A60E079E01E
:103A20008DE390E00E949D28C9012430310520F0EB
:103A3000B9016350710902C061E070E07D8F6C8F45
:103A4000EC85E63108F068C0B90176956795643178
:103A5000710518F06351710902C061E070E07F8B5D
:103A60006E8B069718F0C901059702C081E090E0BF
:103A7000998F888FC901880F991F820F931F969580
:103A80008795969587958D30910510F00C9702C01B
:103A900081E090E09B8F8A8F20916800E83050F0A1
:103AA00091E0EE3008F490E081E001C0880F9A9533
:103AB000EAF701C084E0822B809368002C852830CF
:103AC00038F02E3040F0263148F48CE690E008C003
:103AD0008DE690E005C08BE690E002C080E090E0CB
:103AE0009C8B8B8B283030F481E001C0880F2A95A5
:103AF000EAF70DC0822F90E02E3010F4089701C035
:103B00000E9791E001C0990F8A95EAF7892F8D8B66
:103B10008C8D9D8D0197F1F7CE01DF91CF910C94A3
:103B2000D71B1F920F920FB60F9211242F933F9322
:103B30004F935F936F937F938F939F93AF93BF93B5
:103B4000EF93FF93E091FB04F091FC040995FF9142
:103B5000EF91BF91AF919F918F917F916F915F9105
:103B60004F913F912F910F900FBE0F901F9018957E
:103B700008958230E8F4E82FF0E0EE0FFF1FE050E8
:103B8000FB4F71836083813041F0809169008C7FAD
:103B9000842B80936900E89A089580916900440F0E
:103BA000551F440F551F837F842B80936900E99A2A
:103BB0000895823068F4813011F0E89801C0E998E6
:103BC000E82FF0E0EE0FFF1FE050FB4F1182108254
:103BD00008951F920F920FB60F9211242F933F93C7
:103BE0004F935F936F937F938F939F93AF93BF9305
:103BF000EF93FF938091000590910105892B29F0A7
:103C0000E0910005F09101050995FF91EF91BF91B9
:103C1000AF919F918F917F916F915F914F913F9164
:103C20002F910F900FBE0F901F9018951F920F921B
:103C30000FB60F9211242F933F934F935F936F937F
:103C40007F938F939F93AF93BF93EF93FF93809155
:103C5000020590910305892B29F0E0910205F0916E
:103C600003050995FF91EF91BF91AF919F918F91BE
:103C70007F916F915F914F913F912F910F900FBE68
:103C80000F901F9018951F920F920FB60F9211244C
:103C90002F933F938F939F93AF93BF93809105058D
:103CA00090910605A0910705B09108053091040593
:103CB00023E0230F2D3720F40196A11DB11D05C06F
:103CC00026E8230F0296A11DB11D209304058093C1
:103CD000050590930605A0930705B093080580910C
:103CE000090590910A05A0910B05B0910C0501966C
:103CF000A11DB11D8093090590930A05A0930B05A2
:103D0000B0930C05BF91AF919F918F913F912F91EF
:103D10000F900FBE0F901F9018952FB7F8946091D9
:103D200005057091060580910705909108052FBF44
:103D300008953FB7F8948091090590910A05A091E4
:103D40000B05B0910C0526B5A89B05C02F3F19F0B7
:103D50000196A11DB11D3FBF6627782F892F9A2F8D
:103D6000620F711D811D911D42E0660F771F881F34
:103D7000991F4A95D1F70895CF92DF92EF92FF9263
:103D8000CF93DF936B017C010E94991EEB01C1145C
:103D9000D104E104F10489F00E94B81D0E94991E2B
:103DA0006C1B7D0B683E734090F381E0C81AD1080C
:103DB000E108F108C851DC4FEACFDF91CF91FF90C5
:103DC000EF90DF90CF9008958230910538F0880F02
:103DD000991F880F991F05970197F1F70895789417
:103DE00084B5826084BD84B5816084BD85B5826000
:103DF00085BD85B5816085BDEEE6F0E0808181609E
:103E00008083E1E8F0E0108280818260808380819D
:103E100081608083E0E8F0E0808181608083E1EB75
:103E2000F0E0808184608083E0EBF0E0808181605D
:103E30008083EAE7F0E08081846080838081826013
:103E400080838081816080838081806880831092FC
:103E5000C10008958E3008F08E50877020910601C1
:103E600090E4299F90011124822B80937C00809103
:103E70007A00806480937A0080917A0086FDFCCF7E
:103E8000809178002091790090E0922B0895833002
:103E900081F028F4813099F08230A1F008958730C4
:103EA000A9F08830B9F08430D1F4809180008F7D02
:103EB00003C0809180008F7780938000089584B53F
:103EC0008F7702C084B58F7D84BD08958091B00046
:103ED0008F7703C08091B0008F7D8093B0000895EC
:103EE000CF93DF9390E0FC01EA55FB4F2491FC0156
:103EF000E654FB4F8491882349F190E0880F991F85
:103F0000FC01EE51FB4FA591B49188529B4FFC01EF
:103F1000C591D4919FB7611108C0F8948C912095F8
:103F200082238C93888182230AC0623051F4F894F2
:103F30008C91322F309583238C938881822B8883B8
:103F400004C0F8948C91822B8C939FBFDF91CF910A
:103F500008950F931F93CF93DF931F92CDB7DEB7D2
:103F6000282F30E0F901EE56FB4F8491F901EA5514
:103F7000FB4F1491F901E654FB4F04910023C9F063
:103F8000882321F069830E94471F6981E02FF0E0B8
:103F9000EE0FFF1FE852FB4FA591B4919FB7F89425
:103FA0008C91611103C01095812301C0812B8C93EA
:103FB0009FBF0F90DF91CF911F910F910895CF93E5
:103FC000DF93282F30E0F901EE56FB4F8491F90181
:103FD000EA55FB4FD491F901E654FB4FC491CC2331
:103FE00091F081110E94471FEC2FF0E0EE0FFF1FB0
:103FF000E253FB4FA591B4912C912D2381E090E0E9
:1040000021F480E002C080E090E0DF91CF9108953C
:10401000FC01818D228D90E0805C9F4F821B910975
:104020008F7399270895FC01918D828D981731F037
:10403000828DE80FF11D858D90E008958FEF9FEF41
:104040000895FC01918D828D981761F0828DDF01BA
:10405000A80FB11D5D968C91928D9F5F9F73928F7B
:1040600090E008958FEF9FEF089585EA91E2892B04
:1040700049F080E090E0892B29F00E94A521811170
:104080000C9400000895FC01848DDF01A80FB11D80
:10409000A35ABF4F2C91848D90E001968F7399277E
:1040A000848FA689B7892C93A089B1898C9180646B
:1040B0008C93938D848D981306C00288F389E02D2C
:1040C00080818F7D80830895CF93DF93EC01888D6D
:1040D0008823C9F0EA89FB89808185FD05C0A8890C
:1040E000B9898C9186FD0FC00FB607FCF5CF808192
:1040F00085FFF2CFA889B9898C9185FFEDCFCE01DC
:104100000E944320E7CFDF91CF910895CF92DF92B5
:10411000FF920F931F93CF93DF931F92CDB7DEB71C
:104120006C0181E0D60158968C9358975B969C91D0
:104130005B975C968C915C97981307C05096ED91B5
:10414000FC915197808185FD2EC0F601038D10E012
:104150000F5F1F4F0F731127F02EF601848DF81299
:1041600011C00FB607FCF9CFD6015096ED91FC9126
:104170005197808185FFF1CFC60169830E9443205A
:104180006981EBCF838DE80FF11DE35AFF4F608308
:10419000D6015B960C935B975296ED91FC915397E9
:1041A000808180620CC0D6015696ED91FC915797A4
:1041B00060835096ED91FC9151978081806480835B
:1041C00081E090E00F90DF91CF911F910F91FF90D0
:1041D000DF90CF900895BF92CF92DF92EF92FF923F
:1041E000CF93DF93EC016A017B01B22EE889F98954
:1041F00082E08083411581EE580761057105A1F0C9
:1042000060E079E08DE390E0A70196010E947B28B1
:104210002150310941095109569547953795279500
:10422000211580E1380798F0E889F989108260E863
:1042300074E88EE190E0A70196010E947B2821504E
:104240003109410951095695479537952795EC85D0
:10425000FD853083EE85FF852083188EEC89FD89EE
:10426000B082EA89FB89808180618083EA89FB8949
:10427000808188608083EA89FB898081806880836F
:10428000EA89FB8980818F7D8083DF91CF91FF90C8
:10429000EF90DF90CF90BF9008951F920F920FB6CE
:1042A0000F9211242F938F939F93EF93FF93E0919D
:1042B0001D05F0911E058081E0912305F0912405F4
:1042C00082FD12C09081809126058F5F8F732091AF
:1042D0002705821751F0E0912605F0E0E35FFA4FE1
:1042E000958F8093260501C08081FF91EF919F916A
:1042F0008F912F910F900FBE0F901F9018951F92C6
:104300000F920FB60F9211242F933F934F935F9309
:104310006F937F938F939F93AF93BF93EF93FF938D
:104320008DE095E00E944320FF91EF91BF91AF9106
:104330009F918F917F916F915F914F913F912F91BD
:104340000F900FBE0F901F9018958DE095E00E9482
:10435000082021E0892B09F420E0822F0895109293
:10436000100510920F0588EE93E0A0E0B0E0809376
:10437000110590931205A0931305B093140588ECD2
:1043800093E090930E0580930D0585EC90E090935B
:104390001A058093190584EC90E090931C05809396
:1043A0001B0580EC90E090931E0580931D0581EC29
:1043B00090E09093200580931F0582EC90E090930D
:1043C00022058093210586EC90E09093240580934C
:1043D00023051092260510922705109228051092A9
:1043E0002905089508950E94EF1E0E94F2210E945F
:1043F0003C03C5E3D0E20E9479072097E1F30E94D5
:104400003520F9CFCF92DF92EF92FF920F931F9357
:10441000CF93DF936C017A01EB01E60EF71E00E00B
:1044200010E0CE15DF0561F06991D601ED91FC91A8
:104430000190F081E02DC6010995080F191FF1CFF9
:10444000C801DF91CF911F910F91FF90EF90DF9006
:10445000CF9008956115710581F0DB010D9000206A
:10446000E9F7AD0141505109461B570BDC01ED91B5
:10447000FC910280F381E02D099480E090E00895A2
:10448000EF92FF920F931F93CF93DF938C01FB0169
:10449000C0E0D0E064917F018FEFE81AF80A66234C
:1044A00061F0D801ED91FC910190F081E02DC801FF
:1044B0000995C80FD91FF701EDCFCE01DF91CF913C
:1044C0001F910F91FF90EF900895DC01ED91FC9109
:1044D000DB0114964D915C9115976D917C91028052
:1044E000F381E02D0994DC01ED91FC910190F081C4
:1044F000E02D099464ED73E00C942A220F931F932E
:10450000CF93DF93EC010E9440228C01CE010E94E8
:104510007A22800F911FDF91CF911F910F91089503
:104520000F931F93CF93DF93EC010E9465228C01C0
:10453000CE010E947A22800F911FDF91CF911F91AF
:104540000F9108950F931F93CF93DF93EC010E9477
:104550002A228C01CE010E947A22800F911FDF91C6
:10456000CF911F910F9108950F931F93CF93DF93D6
:10457000EC010E948D1E688779878A879B87E88176
:10458000F9810680F781E02DCE01099597FF15C0CE
:104590000E948D1E088519852A853B85601B710B3D
:1045A000820B930B0C811D812E813F816017710757
:1045B0008207930720F38FEF9FEFDF91CF911F9139
:1045C0000F9108954F925F926F927F928F929F9278
:1045D000AF92BF92CF92DF92EF92FF920F931F9311
:1045E000CF93DF934C01EB0186E0849F8001859F90
:1045F000100D1124060F171FFB01E017F10708F536
:1046000082819381892B21F13696F7CF40815181A8
:1046100064817581DA01A60FB71F2C91332727FD1E
:1046200030958217930711F56F5F7F4F7583648311
:10463000228133816217730759F03696E017F1072C
:1046400028F3C4010E94B42297FD46C0FE01F6CFB4
:10465000EC1BFD0BF595E7952BEA3AEAE29FC001CA
:10466000E39F900DF29F900D112438C061157105E4
:1046700021F3A480B580950121503109358324832D
:10468000DA01A20FB31FAC91BB27A7FDB0958A1723
:104690009B07F9F421153105C9F06A017B01E21A83
:1046A000F30AE40EF51E412C512CD6016D906D01DC
:1046B000D7017D907D01671006C0BFEF4B1A5B0AE2
:1046C0004216530690F34216530699F6B582A48219
:1046D000B4CF232B71F6B1CF8FEF9FEFDF91CF9146
:1046E0001F910F91FF90EF90DF90CF90BF90AF9010
:1046F0009F908F907F906F905F904F900895CF9391
:10470000DF9300D000D000D0CDB7DEB7FE013196E8
:1047100026E0DF011D922A95E9F77A8369835C839D
:104720004B8341E050E0BF010E94E22221E0892B4F
:1047300009F020E0822F26960FB6F894DEBF0FBE58
:10474000CDBFDF91CF910895FB0101900020E9F7E3
:10475000AF0141505109461B570B0C947F23FC01BC
:10476000808191810C948F29CF93DF93EC01888114
:104770009981009711F00E948F29198218821D8259
:104780001C821B821A82DF91CF9108950F931F9391
:10479000CF93DF93EC018B016F5F7F4F888199810D
:1047A0000E941E2A009731F0998388831B830A8315
:1047B00081E001C080E0DF91CF911F910F910895BA
:1047C000CF93DF93EC0188819981892B29F08A812D
:1047D0009B818617970760F4CE010E94C623882329
:1047E00041F08C819D81892B19F4E881F981108237
:1047F00081E0DF91CF910895EF92FF920F931F9385
:10480000CF93DF93EC017B018A01BA010E94E02380
:10481000811104C0CE010E94B42307C01D830C8304
:10482000B701888199810E943C2BCE01DF91CF9105
:104830001F910F91FF90EF900895FC01118210825B
:1048400013821282158214826115710559F0FB01E1
:1048500001900020E9F7AF0141505109461B570B69
:104860000C94FC230895EF92FF920F931F93CF9324
:10487000DF93EC017B018A01BA010E94E0238111E0
:1048800004C0CE010E94B42307C01D830C83B7016E
:10489000888199810E940F2BCE01DF91CF911F91CA
:1048A0000F91FF90EF900895CF93DF93EC01FB0100
:1048B0008617970761F0608171816115710529F094
:1048C000448155810E94FC2302C00E94B423CE0182
:1048D000DF91CF910895FC01118210821382128220
:1048E000158214820C945424CF93DF93EC0161154C
:1048F000710561F0FB0101900020E9F7AF01415023
:104900005109461B570B0E94FC2302C00E94B4238E
:10491000CE01DF91CF9108950F931F93CF93DF9333
:10492000CDB7DEB729970FB6F894DEBF0FBECDBF67
:104930008C01862FF8011182108213821282158257
:10494000148250E0BE016F5F7F4F90E00E94882B81
:10495000BE016F5F7F4FC8010E94742429960FB675
:10496000F894DEBF0FBECDBFDF91CF911F910F91A5
:1049700008950F931F93CF93DF93CDB7DEB7629760
:104980000FB6F894DEBF0FBECDBF8C01CB01F8018E
:1049900011821082138212821582148250E0BE01AD
:1049A0006F5F7F4F0E945D2BBE016F5F7F4FC8011D
:1049B0000E94742462960FB6F894DEBF0FBECDBF7E
:1049C000DF91CF911F910F910895EF92FF920F9376
:1049D0001F93CF93DF93CDB7DEB7A1970FB6F894AF
:1049E000DEBF0FBECDBF7C01CB01BA01F701118242
:1049F0001082138212821582148242E0420F8E01CD
:104A00000F5F1F4F0E94D628BC01C7010E9474246B
:104A1000A1960FB6F894DEBF0FBECDBFDF91CF9148
:104A20001F910F91FF90EF9008950F931F93CF93D5
:104A3000DF9300D0CDB7DEB78C016115710561F051
:104A4000CB0169837A830E94162BAC0169817A813C
:104A5000C8010E94332402C00E94B423C8010F90F1
:104A60000F90DF91CF911F910F910895EF92FF92D8
:104A70000F931F93CF93DF93EC017B010C811D817A
:104A80006115710511F480E016C04115510591F0D2
:104A9000040F151FB8010E94E0238823A1F3288189
:104AA00039818C819D81B701820F931F0E943C2B1D
:104AB0001D830C8381E0DF91CF911F910F91FF90B7
:104AC000EF900895FB0144815581608171810C94C0
:104AD00036256115710559F0FB0101900020E9F7B9
:104AE000AF0141505109461B570B0C94362580E00D
:104AF0000895CF93DF9300D0CDB7DEB769831A82D4
:104B000041E050E0BE016F5F7F4F0E9436250F905D
:104B10000F90DF91CF910895EF92FF920F931F9323
:104B2000CF93DF93EC017B016115710511F480E0F7
:104B30001BC0CB010E94162B0097A9F00C811D8190
:104B4000080F191FB801CE010E94E023882379F3D2
:104B5000288139818C819D81B701820F931F0E942A
:104B60000F2B1D830C8381E0DF91CF911F910F915B
:104B7000FF90EF900895CF93DF93EC01FB01448108
:104B80005581608171810E943625811103C0CE015B
:104B90000E94B423CE01DF91CF910895CF93DF938C
:104BA000EC016115710569F0FB0101900020E9F746
:104BB000AF0141505109461B570B0E943625811108
:104BC00003C0CE010E94B423CE01DF91CF9108959E
:104BD000FC0124813581232B31F421E0611571051D
:104BE000A1F0FB0108C0FC01808191816115710574
:104BF00031F421E0FC018081882339F005C00E9456
:104C0000332B21E0892B09F020E0822F0895FC014D
:104C1000848195816817790720F4808191810097BC
:104C200029F41092AA058AEA95E00895860F971F45
:104C30000895CF93DF93FC0184819581481759072C
:104C400078F4C081D181772767FD7095CE01840FFC
:104C5000951F0E94282B009719F08C1B9D0B02C0FA
:104C60008FEF9FEFDF91CF91089540E050E00C94DB
:104C70001926CF93DF93FC0184819581481759074A
:104C800078F4C081D181FB0160817181CE01840FF4
:104C9000951F0E94432B009719F08C1B9D0B02C09F
:104CA0008FEF9FEFDF91CF91089540E050E00C949B
:104CB0003926BF92CF92DF92EF92FF920F931F930C
:104CC000CF93DF936C017B01EA018901241735073B
:104CD00020F48D2FE901042F182F66ED73E0C60133
:104CE0000E941D24D70114968D919C911597C81789
:104CF000D907C8F48017910708F48C01D701ED910A
:104D0000FC911197E00FF11FB08010826D917C91A2
:104D10006C0F7D1FC6010E947424D701ED91FC9198
:104D2000E00FF11FB082C601DF91CF911F910F916B
:104D3000FF90EF90DF90CF90BF900895FC018081AD
:104D40009181009711F00C94E82A60E070E0CB01AB
:104D500008955058BB27AA270ED01CC10DD130F0A2
:104D600012D120F031F49F3F11F41EF402C10EF471
:104D7000E095E7FBF8C0E92F1ED180F3BA17620770
:104D800073078407950718F071F49EF536C10EF489
:104D9000E0950B2EBA2FA02D0B01B90190010C014B
:104DA000CA01A0011124FF27591B99F0593F50F463
:104DB000503E68F11A16F040A22F232F342F4427BB
:104DC000585FF3CF469537952795A795F0405395B3
:104DD000C9F77EF41F16BA0B620B730B840BBAF083
:104DE0009150A1F0FF0FBB1F661F771F881FC2F7EE
:104DF0000EC0BA0F621F731F841F48F48795779502
:104E00006795B795F7959E3F08F0B3CF9395880FB8
:104E100008F09927EE0F9795879508950CD0BAC0A2
:104E2000B2D040F0A9D030F021F45F3F19F09BC020
:104E30005111E4C09EC0BFD098F39923C9F3552304
:104E4000B1F3951B550BBB27AA276217730784077D
:104E500038F09F5F5F4F220F331F441FAA1FA9F333
:104E600033D00E2E3AF0E0E830D091505040E69525
:104E7000001CCAF729D0FE2F27D0660F771F881F86
:104E8000BB1F261737074807AB07B0E809F0BB0B75
:104E9000802DBF01FF2793585F4F2AF09E3F510599
:104EA00068F061C0ABC05F3FECF3983EDCF38695E1
:104EB00077956795B795F7959F5FC9F7880F911D0F
:104EC0009695879597F90895E1E0660F771F881FFB
:104ED000BB1F621773078407BA0720F0621B730BAE
:104EE000840BBA0BEE1F88F7E0950895E89409C08B
:104EF00097FB3EF490958095709561957F4F8F4F0D
:104F00009F4F9923A9F0F92F96E9BB279395F69522
:104F1000879577956795B795F111F8CFFAF4BB0FA0
:104F200011F460FF1BC06F5F7F4F8F4F9F4F16C004
:104F3000882311F096E911C0772321F09EE8872F8E
:104F4000762F05C0662371F096E8862F70E060E04A
:104F50002AF09A95660F771F881FDAF7880F9695C3
:104F6000879597F9089597F99F6780E870E060E06A
:104F700008959FEF80EC089500240A9416161706F2
:104F800018060906089500240A941216130614063A
:104F900005060895092E0394000C11F4882352F09D
:104FA000BB0F40F4BF2B11F460FF04C06F5F7F4F55
:104FB0008F4F9F4F089557FD9058440F551F59F03C
:104FC0005F3F71F04795880F97FB991F61F09F3FF6
:104FD00079F087950895121613061406551FF2CF1F
:104FE0004695F1DF08C0161617061806991FF1CF6F
:104FF00086957105610508940895E894BB27662796
:105000007727CB0197F908950BD0C4CFB5DF28F0EF
:10501000BADF18F0952309F0A6CFABCF1124EECF5D
:10502000CADFA0F3959FD1F3950F50E0551F629F03
:10503000F001729FBB27F00DB11D639FAA27F00DF1
:10504000B11DAA1F649F6627B00DA11D661F829F18
:105050002227B00DA11D621F739FB00DA11D621FFD
:10506000839FA00D611D221F749F3327A00D611D1A
:10507000231F849F600D211D822F762F6A2F1124FC
:105080009F5750408AF0E1F088234AF0EE0FFF1F4F
:10509000BB1F661F771F881F91505040A9F79E3F86
:1050A000510570F060CFAACF5F3FECF3983EDCF380
:1050B000869577956795B795F795E7959F5FC1F7C3
:1050C000FE2B880F911D9695879597F9089597FB6C
:1050D000072E16F4009407D077FD09D00E94BC2853
:1050E00007FC05D03EF4909581959F4F08957095EB
:1050F00061957F4F0895A1E21A2EAA1BBB1BFD01EB
:105100000DC0AA1FBB1FEE1FFF1FA217B307E407A6
:10511000F50720F0A21BB30BE40BF50B661F771FFE
:10512000881F991F1A9469F76095709580959095DE
:105130009B01AC01BD01CF010895052E97FB1EF424
:1051400000940E94B42857FD07D00E947B2807FCDA
:1051500003D04EF40C94B428509540953095219589
:105160003F4F4F4F5F4F0895909580957095619593
:105170007F4F8F4F9F4F0895AA1BBB1B51E107C064
:10518000AA1FBB1FA617B70710F0A61BB70B881FD7
:10519000991F5A95A9F780959095BC01CD01089566
:1051A000EE0FFF1F0590F491E02D0994EF920F93FD
:1051B0001F93CF93DF93E80147FF02C034E101C0A2
:1051C00034E0E42FFF27E7FDF095F7FF03C0F195EA
:1051D000E195F109E32E022F2E2FAE010E94C32B81
:1051E000CE01DF91CF911F910F91EF900895CF9352
:1051F000DF938230910510F482E090E0E091AD05FC
:10520000F091AE0520E030E0A0E0B0E0309739F159
:105210004081518148175907B8F04817590771F470
:1052200082819381109729F013969C938E93129705
:105230002CC09093AE058093AD0527C02115310594
:1052400031F04217530718F0A901DB0101C0EF014B
:105250009A01BD01DF010280F381E02DD7CF211536
:105260003105F9F0281B390B2430310580F48A818F
:105270009B816115710521F0FB019383828304C03A
:105280009093AE058093AD05FE01329644C0FE01B9
:10529000E20FF31F819391932250310939832883C0
:1052A0003AC02091AB053091AC05232B41F42091FD
:1052B0000201309103013093AC052093AB0520919E
:1052C0000001309101012115310541F42DB73EB7A0
:1052D0004091040150910501241B350BE091AB0571
:1052E000F091AC05E217F307A0F42E1B3F0B281733
:1052F000390778F0AC014E5F5F4F2417350748F04F
:105300004E0F5F1F5093AC054093AB058193919373
:1053100002C0E0E0F0E0CF01DF91CF910895CF939C
:10532000DF93009709F487C0FC0132971382128241
:10533000C091AD05D091AE05209781F420813181D7
:10534000280F391F8091AB059091AC058217930708
:1053500079F5F093AC05E093AB056DC0DE0120E07C
:1053600030E0AE17BF0750F412964D915C91139741
:105370009D014115510509F1DA01F3CFB383A283F1
:1053800040815181840F951F8A179B0771F48D917D
:105390009C911197840F951F02969183808312969A
:1053A0008D919C911397938382832115310529F464
:1053B000F093AE05E093AD053EC0D9011396FC9382
:1053C000EE9312974D915D91A40FB51FEA17FB075D
:1053D00079F480819181840F951F0296D9011196ED
:1053E0009C938E938281938113969C938E931297B4
:1053F000E0E0F0E08A819B81009719F0FE01EC016A
:10540000F9CFCE01029628813981820F931F209116
:10541000AB053091AC052817390769F4309729F4AA
:105420001092AE051092AD0502C013821282D09385
:10543000AC05C093AB05DF91CF910895A0E0B0E03B
:10544000E4E2FAE20C942D2EEC01CB01209719F442
:105450000E94F728B8C0FE01E60FF71F9E012250F8
:105460003109E217F30708F4ACC0D9010D911C9182
:10547000119706171707B8F00530110508F49FC0FB
:10548000A801445051094617570708F498C0025024
:105490001109061B170B019311936D937C93CF0198
:1054A0000E948F298CC05B01A01AB10A4E01800EA8
:1054B000911EA091AD05B091AE05612C712C60E0FC
:1054C00070E0109709F449C0A815B905C9F5ED9029
:1054D000FC901197670142E0C40ED11CCA14DB0492
:1054E00078F147018A189B08640142E0C40ED11C80
:1054F0001296BC9012971396AC91B5E0CB16D104DE
:1055000040F0B282A38391828082D9018D939C93D3
:1055100009C00E5F1F4F0E0D1F1DF901118300837F
:10552000EB2DFA2F6115710531F0DB011396FC9319
:10553000EE93129744C0F093AE05E093AD053FC0E3
:105540006D917C9111976616770608F43B01BD01B9
:1055500012960D90BC91A02DB4CF6091AB057091C7
:10556000AC0568157905E9F468167906D0F4409120
:105570000001509101014115510541F44DB75EB74D
:105580006091040170910501461B570BE417F50764
:10559000C0F4F093AC05E093AB05F90191838083EF
:1055A0000EC00E94F7287C01009759F0A801BE01A7
:1055B0000E941F2BCE010E948F29C70104C0CE017B
:1055C00002C080E090E0CDB7DEB7EEE00C94492E4B
:1055D0001F93FC0199278827BC01E8941191103290
:1055E000E9F3193010F01E30C8F31B3251F01D32B0
:1055F00049F4689406C00E94732B610F711D811DD0
:10560000911D119110531A30B0F33EF4909580958E
:10561000709561957F4F8F4F9F4F1F910895FB01AC
:10562000DC0105900D920020E1F70895FC01059042
:105630000020E9F7809590958E0F9F1F0895FB013C
:10564000DC0102C001900D9241505040D8F70895FE
:10565000FC018191861721F08823D9F799270895B5
:105660003197CF010895FB01DC018D9101908019E4
:105670000110D9F3990B0895FB01DC0101900D9203
:105680000020E1F70895FB0151915523A9F0BF01D6
:10569000DC014D9145174111E1F759F4CD0101901D
:1056A000002049F04D9140154111C9F3FB01411112
:1056B000EFCF81E090E0019708954532510520F445
:1056C000423010F00C94682BFB011082CB0108953E
:1056D000BB274A3031F4992322F4BDE2909581959D
:1056E0009F4F0C94942B592F482F372F262F660F3E
:1056F000771F881F991F660F771F881F991F620FDA
:10570000731F841F951F660F771F881F991F0895A9
:105710004532510520F4423010F00C94932BFB01DC
:105720001082CB010895BB27FB015527AA27880FBC
:10573000991FAA1FA41710F0A41B83955051B9F705
:10574000A05DAA3308F0A95DA193009779F7B11184
:10575000B1931192CB010C94192EF999FECF92BD01
:1057600081BDF89A992780B50895262FF999FECF23
:105770001FBA92BD81BD20BD0FB6F894FA9AF99A6E
:105780000FBE019608956F927F929F92AF92BF9243
:10579000CF92DF92EF92FF920F931F93CF93DF93FD
:1057A000CDB7DEB729970FB6F894DEBF0FBECDBFD9
:1057B0006A01B22E102F0C3320F4FF24F394F00E64
:1057C00002C04CE3F42E0F2D27E0AE014F5F5F4F78
:1057D0000E94412D7981272F2970213031F0E1FC81
:1057E00006C0E0FC06C060E005C06DE203C06BE2ED
:1057F00001C060E2AE2DA07173FF36C0662311F0C8
:1058000084E001C083E08B1510F4B81A01C0B12CFC
:10581000A1110BC0F6018B2D90E2882319F0919312
:105820008150FBCFCB0CD11CB12C662331F0F6019B
:10583000608396012F5F3F4F6901C6010396E2FE28
:1058400005C02EE4F601208331E404C02EE6F60103
:10585000208331E631832283FC012B2D30E2222389
:10586000F1F131932150FBCF72FF40C0662311F05C
:1058700084E001C083E08B1510F4B81A01C0B12C8C
:10588000A1110BC0F6018B2D90E2882319F09193A2
:105890008150FBCFCB0CD11CB12C662331F0F6012B
:1058A000608396012F5F3F4F6901C6010396E2FEB8
:1058B00007C029E4F60120832EE4218326E406C0F4
:1058C00029E6F60120832EE6218326E62283FC01C9
:1058D0002B2D30E2222319F031932150FBCFFC0114
:1058E000EB0DF11D10828EEF9FEFB7C0B1E061119B
:1058F00001C0B0E04B2F50E01816190624F49C01AB
:105900002F5F3F4F02C021E030E0240F351F1123ED
:1059100029F0412F50E04F5F5F4F02C040E050E060
:10592000420F531F2B2D30E04217530714F4B41AC3
:1059300001C0B12C2E2D287159F4F6012B2D30E227
:10594000222319F031932150FBCFCB0CD11CB12C69
:10595000BB2331F0F601608396012F5F3F4F690151
:10596000A1110BC0F6012B2D30E3222319F0319346
:105970002150FBCFCB0CD11CB12CF80E0A81372F54
:105980003071A32E74FF03C0013309F4FA941F147D
:105990002CF42F2D293018F028E001C021E0682FC9
:1059A000392F97FF02C060E030E0462F532F612C63
:1059B000712C3EE2932EBC01621B71099B01DC013C
:1059C000A41BB50BE1E0F0E0EC0FFD1FAE0FBF1F15
:1059D000E12EF12CF194E194F1084F3FFFEF5F07C6
:1059E00031F4F6019082B6016F5F7F4F6B0184172F
:1059F00095074CF02417350734F4BD01660D771D6B
:105A0000FB01118101C010E341505109FFEF6F1AF2
:105A10007F0AB6016F5F7F4F4E155F0524F0F601D8
:105A200010836B01DACF4817590739F4063320F495
:105A3000053319F4A11001C011E3F6011083FB0135
:105A40008B2D90E2882319F091938150FBCFFB01BD
:105A5000EB0DF11D108280E090E029960FB6F894CE
:105A6000DEBF0FBECDBFDF91CF911F910F91FF9091
:105A7000EF90DF90CF90BF90AF909F907F906F900E
:105A80000895283008F027E03327DA01990F311DF7
:105A900087FD916000966105710539F432602E5FD3
:105AA0003D9330E32A95E1F708959F3F30F0803829
:105AB0007105610509F03C5F3C5F3D93913008F052
:105AC0008068911DDF93CF931F930F93FF92EF9206
:105AD000192F987F9695E92F96959695E90FFF27B0
