:100000000C94F6020C94431E0C94701E0C945A1C13
:100010000C945A1C0C945A1C0C94F2090C941E0358
:100020000C941E030C941E030C941E030C941E03CC
:100030000C941E030C94EB1D0C941E030C941E03D5
:100040000C949D1E0C941E030C94A7210C94D92192
:100050000C941E030C941E030C941E030C941E039C
:100060000C941E030C941E0343005465706C6F7453
:10007000613A004E4F54204A4F494E454421204397
:100080006865636B206E6574776F726B206F72208A
:10009000706172616D657465727321004E6F206BC3
:1000A00065797320656E7472792100627573792E9B
:1000B0002E2E004E6F2066726565206368616E6E3D
:1000C000656C2C207265747279696E672E2E2E0015
:1000D00052656A6F696E20436F756E7465723A007F
:1000E00052756E3A004177616B6521005452582079
:1000F0004F4B0054696D6520746F6F2068696768A5
:100100002100496E76616C69642074696D65210017
:10011000506172616D657465727320737563636598
:10012000737366756C7920736176656421006D6107
:10013000632073617665004144523A0044523A00AC
:10014000566F6C746167653A005472616E736369CF
:10015000657665723A0046572076657273696F6EF0
:100160003A004C49422076657273696F6E3A0041DD
:1001700070706C69636174696F6E204555493A000F
:1001800044657669636520616464726573733A00DF
:10019000446576696365204555493A002A2A2A2A2A
:1001A0002A506172616D65746572732073746F7229
:1001B000656420696E20466C6173683A2A2A2A2A8F
:1001C0002A0053656E64696E6720746F20706F72C9
:1001D0007420005061796C6F61643A0053656E64FD
:1001E000696E6720746F20706F727420005061799F
:1001F0006C6F61643A002073746F72656420746F71
:1002000020454550524F4D004E657720706F7274F7
:100210003A00506F7274206F7574206F662072619F
:100220006E67652100506F77657220736176656433
:1002300021006D6163207361766500414452207333
:100240006176656421006D616320736176650044A9
:100250005220736176656421006D6163207361765D
:1002600065004D6F64652073746F72656420746FF0
:1002700020454550524F4D00556E737570706F722A
:10028000746564206D6F646500446174613A005068
:100290006F72743A004E6F20646174612E0046697B
:1002A00072737420636F6D6D756E69636174696FCD
:1002B0006E202E2E2E006D616320676574206465AC
:1002C00076657569002A2A2A2A2A2A2A2A2A2A2AA7
:1002D0002A2A2A2A2A2A2A2A2A2A2A2A2A2A2A2A7E
:1002E0002A2A2A2A2A2A2A2A2A2A2A2A2A00737900
:1002F00073206765742076657200465720766572B4
:1003000073696F6E3A002A2A2A2A2A2A2A2A2A2A56
:100310002A2A53656E736F722072656164792A2A86
:100320002A2A2A2A2A2A2A2A2A2A00372E53656E9E
:1003300064207061796C6F61643A090973656E6459
:10034000553A6461746128686578290D0A00362E73
:1003500053657420706F72743A0909706F72743A41
:10036000312D3235350D0A00352E4A6F696E204722
:10037000573A09096D6163206A6F696E205B61629B
:10038000702C6F7461615D0D0A00342E4170702015
:100390006B65793A09096D6163207365742061703A
:1003A00070736B65790D0A00332E4E6574776F722A
:1003B0006B206B65793A09096D6163207365742060
:1003C0006E776B736B65790D0A00322E446576206B
:1003D0004555493A09096D61632073657420646568
:1003E000766575690D0A00312E4465762041646496
:1003F000726573733A09096D6163207365742064D3
:100400006576616464720D0A002A2A2A2A2A2A2A39
:100410002A2A2A2A2A2A2A2A2A48454C502A2A2ABB
:100420002A2A2A2A2A2A2A2A2A2A2A2A0D0A00526B
:100430004E32343833206E6F742064657465637493
:1004400065642100524E323438332063686970206D
:1004500064657465637465642100737973206765EE
:100460007420766572002A2A2A2A2A2A2A2A2A2A07
:100470002A2A4C6F526120524E3234383320736531
:10048000742A2A2A2A2A2A2A2A2A2A2A2A00000000
:100490000008000201000003040700000000000043
:1004A000000001020408102040800102040810200E
:1004B00001020408102004040404040404040202D9
:1004C00002020202030303030303000000002300EF
:1004D0002600290000000000250028002B00000055
:1004E0000000240027002A0000407A10F35A00A0E0
:1004F000724E18090010A5D4E80000E876481700ED
:1005000000E40B54020000CA9A3B000000E1F5052C
:10051000000080969800000040420F000000A08676
:1005200001000000102700000000E80300000000A8
:100530006400000000000A0000000000010000004C
:1005400000002C76D888DC674F0823DFC1DFAE5966
:10055000E1B1B796E5E3E453C63AE651997696E8F9
:10056000E6C28426EB898C9B62ED407C6FFCEFBC7D
:100570009C9F40F2BAA56FA5F490055A2AF75C93A8
:100580006B6CF9676DC11BFCE0E40D47FEF520E6DE
:10059000B500D0ED902E0300943577050080841EC1
:1005A000080000204E0A000000C80C333333330F1C
:1005B000986E12831141EF8D2114893BE65516CFB9
:1005C000FEE6DB18D1844B381BF77C1D901DA4BBC5
:1005D000E424203284725E228100C9F124ECA1E57A
:1005E0003D272F077A0A09224507810A11241FBED9
:1005F000CFEFD8E0DEBFCDBF14E0A0E0B1E0EEE881
:10060000FDE502C005900D92AA30B107D9F725E0AB
:10061000AAE0B4E001C01D92AB3DB207E1F715E0DE
:10062000C8EED5E004C02297FE010E942C29C23EEC
:10063000D107C9F70E944D220C94BA2E0C940000E9
:1006400080916204882349F080917304909174042E
:10065000019690937404809373040895CF93DF936D
:10066000EC01FB01248135810E94B326CE01DF918C
:10067000CF9108958F929F92AF92BF92CF92DF92C7
:10068000EF92FF920F931F93CF93DF93CDB7DEB717
:100690002C970FB6F894DEBF0FBECDBF88E10FB622
:1006A000F89480936000109260000FBE11E01093E8
:1006B000610485E194E00E94781810936304E1E8F6
:1006C000F0E080E180831092800085E0809329052E
:1006D0008FEF9FEF90932B0580932A0590938700CF
:1006E0008093860085E180831093620480E293E02A
:1006F000909328058093270510936F0067E071E0C1
:10070000CE0101960E947724BE016F5F7F4F85E185
:1007100094E00E94770ACE0101960E9409248AE0A3
:1007200094E00E9479080AE014E0F801618572857E
:10073000882777FD8095982F0E94D22720E030E00F
:1007400040E251E40E9468276B017C01F801678157
:100750007085882777FD8095982F0E94D22720E00A
:1007600030E040E251E40E9468274B015C016AE6F8
:1007700070E089E395E00E949A2221E0B701A6018A
:10078000CE0101960E943F25BE016F5F7F4F89E336
:1007900095E00E94BF22CE0101960E940924E091BB
:1007A0003905F0913A050190F081E02D60EB89E385
:1007B00095E0099568E670E089E395E00E94D8220B
:1007C00021E0B501A401CE0107960E943F256DE00E
:1007D00071E0CE0101960E947724BE01695F7F4FD0
:1007E000CE0101960E94152666E171E00E9428263E
:1007F000BC0189E395E00E94EA22CE0101960E94A5
:100800000924CE0107960E9409242C960FB6F8946D
:10081000DEBF0FBECDBFDF91CF911F910F91FF9033
:10082000EF90DF90CF90BF90AF909F908F90089502
:100830004F925F926F927F928F929F92AF92BF92F0
:10084000CF92DF92EF92FF920F931F93CF93DF939C
:10085000CDB7DEB72C970FB6F894DEBF0FBECDBF75
:100860008C016CEF73E0CE0107960E9477246CEF49
:1008700073E0C8010E9477248AE094E00E9479081E
:100880006091110470911204882777FD8095982F4C
:100890000E94D22720E030E040E251E40E94682725
:1008A0002B013C016091130470911404882777FD9B
:1008B0008095982F0E94D22720E030E040E251E45A
:1008C0000E946827AB01BC0121E0CE0101960E9485
:1008D0003F25BE016F5F7F4FCE0107960E94AE2479
:1008E000CE0101960E94092421E030E040E050E072
:1008F000BE01695F7F4FCE0101960E94B32668E179
:1009000071E0CE0101960E944226F82ECE0101969A
:100910000E940924FF20D1F06AE171E0C8010E9421
:10092000CE2441E050E0BE01695F7F4FCE010196C9
:100930000E942E03BE016F5F7F4FCE0107960E947B
:10094000AE24CE0101960E94092405C067E872E03A
:10095000C8010E94CE2463E073E0CE0101960E949C
:100960007724BE016F5F7F4FCE0107960E94AF26AE
:100970005C01CE0101960E940924BB24950140E050
:1009800050E0BE01695F7F4FCE0101960E94B32601
:10099000CE0101960E94F8266B017C01CE010196E2
:1009A0000E94092480E1C816D1042CF46BE071E0A8
:1009B000C8010E94C32540E1B601CE0101960E9404
:1009C0001325BE016F5F7F4FC8010E94BC25CE0179
:1009D00001960E940924A5014F5F5F4FBE01695F28
:1009E0007F4FCE0101960E942E03CE0101960E94F8
:1009F000F8262AE0269F7001279FF00C1124CE01D3
:100A000001960E94092480E1E816F1042CF46BE0C1
:100A100071E0C8010E94C32540E1B701CE010196F3
:100A20000E941325BE016F5F7F4FC8010E94BC2545
:100A3000CE0101960E94092421E0B301A201CE015A
:100A400001960E943F25BE016F5F7F4FCE01079642
:100A50000E94AE24CE0101960E94092463E073E057
:100A6000CE0101960E947724BE016F5F7F4FCE01B9
:100A700007960E94AF265C01CE0101960E940924D0
:100A8000BB24950140E050E0BE01695F7F4FCE017D
:100A900001960E94B326CE0101960E94F8266B01B2
:100AA0007C01CE0101960E94092480E1C816D10480
:100AB0002CF46BE071E0C8010E94C32540E1B6014F
:100AC000CE0101960E941325BE016F5F7F4FC801C2
:100AD0000E94BC25CE0101960E940924A5014F5F0A
:100AE0005F4FBE01695F7F4FCE0101960E942E03CA
:100AF000CE0101960E94F8262AE0269F7001279FCA
:100B0000F00C1124CE0101960E94092480E1E81620
:100B1000F1042CF46BE071E0C8010E94C32540E1B0
:100B2000B701CE0101960E941325BE016F5F7F4F72
:100B3000C8010E94BC25CE0101960E940924CE0165
:100B400007960E940924C8012C960FB6F894DEBFC0
:100B50000FBECDBFDF91CF911F910F91FF90EF900E
:100B6000DF90CF90BF90AF909F908F907F906F90CD
:100B70005F904F900895FF920F931F93CF93DF9351
:100B8000CDB7DEB763970FB6F894DEBF0FBECDBF0B
:100B90008C016CEF73E00E9477246CEF73E0CE0160
:100BA0000D960E94772465E174E0CE0101960E94C3
:100BB000CF17BE016F5F7F4FCE010D960E94AE240E
:100BC000CE0101960E94092421E030E040E050E08F
:100BD000BE01635F7F4FCE0101960E94B32667E896
:100BE00072E0CE0101960E944226F82ECE010196B7
:100BF0000E940924FF2011F03FEF01C037EF42E0CF
:100C000050E0BE01635F7F4FCE0101963B8B0E9497
:100C10002E03BE016F5F7F4FC8010E94AE24CE013C
:100C200001960E94092465E174E0CE0101960E94BC
:100C30001417BE016F5F7F4FC8010E94BC25CE0113
:100C400001960E94092485E194E00E94850A6DE1E5
:100C500071E084E894E00E94FC2265E174E0CE013A
:100C600001960E94980ABE016F5F7F4FCE010D96DC
:100C70000E94AE24CE0101960E94092469E271E02F
:100C8000CE010D960E9442263B89811101C03F771B
:100C90006CE271E084E894E03B8B0E94FC2265E109
:100CA00074E0CE0101960E94980ABE016F5F7F4FEB
:100CB000CE010D960E94AE24CE0101960E94092419
:100CC000CE010D960E94F826262F2295207F2F68B0
:100CD0003B89232340E1622FCE0107962B8B0E9494
:100CE000E624BE01695F7F4FCE0101960E94C524B4
:100CF000B801CE0101960E941526BC01C8010E94D0
:100D0000AE24CE0101960E940924CE0107960E94CE
:100D100009242B89203198F46BE071E0CE01019613
:100D20000E947724B801CE0101960E941526BC01CD
:100D3000C8010E94AE24CE0101960E940924CE0172
:100D400001960E941804BE016F5F7F4FCE010D9681
:100D50000E94AE24CE0101960E94092442E050E098
:100D6000BE01635F7F4FCE0101960E942E03BE013C
:100D70006F5F7F4FC8010E94BC25CE0101960E9483
:100D8000092421E030E040E050E0BE01635F7F4F86
:100D9000CE0101960E94B3266AE171E0CE01019670
:100DA0000E944226F82ECE0101960E94092461E09D
:100DB000F11001C060E08CE06B8B0E9439206B89E0
:100DC000019709F062608EE06B8B0E94841F6B8933
:100DD0008C3B92400CF0646040E1CE0107960E948B
:100DE000E6246BE071E0CE0101960E947724BE01FB
:100DF000695F7F4FCE0101960E941526BC01C80194
:100E00000E94BC25CE0101960E940924CE010796BE
:100E10000E94092467E371E0CE0101960E947724C5
:100E2000B801CE0101960E941526BC0189E395E028
:100E30000E94EA22CE0101960E940924CE010D965D
:100E40000E940924C80163960FB6F894DEBF0FBE56
:100E5000CDBFDF91CF911F910F91FF9008956CEF5F
:100E600073E08DE794E00E9477246CEF73E087E7EE
:100E700094E00E94772461E085E194E00E940F0AEB
:100E80006AE08AE094E00C94540887E594E00E94BC
:100E9000092481E594E00E9409248BE494E00E94F7
:100EA000092485E494E00E9409248FE394E00E94E1
:100EB000092489E394E00E94092483E394E00E94DA
:100EC00009248DE294E00E94092487E294E00E94C4
:100ED000092481E294E00E9409248BE194E00E94BD
:100EE000092485E194E00E94092487E794E00E94A8
:100EF00009248DE794E00C9409241F93CF93DF938A
:100F000000D000D000D0CDB7DEB780916B0488232D
:100F100019F1CE0101960E94BB05BE016F5F7F4FA4
:100F20008DE794E00E94AE24CE0101960E94092430
:100F300080E1809381006DE774E0CE0101960E940C
:100F4000C524BE016F5F7F4F85E194E00E949A0F38
:100F5000CE0101960E94092480917304909174043B
:100F600005973CF11092740410927304CE0101961F
:100F70000E94BB05BE016F5F7F4F8DE794E00E942A
:100F8000AE24CE0101960E94092481E080936B0477
:100F90006DE774E0CE0101960E94C524BE016F5F2B
:100FA0007F4F85E194E00E949A0FCE0101960E9446
:100FB000092489E395E00E946220181619060CF0B6
:100FC00057C089E395E00E947B2080937604682FC8
:100FD00089E395E00E94CD226091760487E794E052
:100FE0000E94D325809176048A3009F041C0109286
:100FF00074041092730420917B0430917C0422507D
:10100000310940E050E067E774E0CE0101960E94AC
:10101000B326BE016F5F7F4F87E794E00E94AE2446
:10102000CE0101960E94092467E774E0CE01019683
:101030000E94C524BE016F5F7F4F85E194E00E944E
:101040009D10182FCE0101960E94092411110AC08B
:10105000109274041092730467E774E084E894E0DB
:101060000E94EA226CEF73E087E794E00E94CE24AE
:1010700084E894E00E94031C181619065CF484E8C6
:1010800094E00E94771B80937504682F89E395E0B4
:101090000E94CD2226960FB6F894DEBF0FBECDBFBC
:1010A000DF91CF911F910895CF93DF93EC0170E012
:1010B000FB01EE55FB4FE491E883FB01EA54FB4F43
:1010C000E491F0E0EE0FFF1FE653FB4F8591949102
:1010D0009A8389830E94E71E6B837C838D839E8322
:1010E0008DE19CEF98878F839A878987DF91CF91D5
:1010F00008957F928F929F92AF92BF92CF92DF928C
:10110000EF92FF920F931F93CF93DF93CDB7DEB78C
:10111000A9970FB6F894DEBF0FBECDBF7C01FC01CE
:101120007080018112810E94E71E6E01FAE2CF0EEB
:10113000D11CFE0131961192EC15FD05E1F7F70186
:1011400083809480A580B6809B01AC012819390961
:101150004A095B0949015A0130ED831637E09306CD
:10116000A104B10408F4D8C0638374838583968393
:10117000F894F8018181B72CB0948B218183789405
:10118000EEE7AE2E82E090E00E943E1FF8018081E3
:10119000872129F4AA94B1F781E090E0C2C0F894C5
:1011A000F80182818B2182838181872981837894D0
:1011B0008CE494E00E943E1FF894F80181818B2119
:1011C000818378947AE1B72E82E090E00E943E1FFE
:1011D000F8018081872129F4BA94B1F782E090E088
:1011E000A0C063E3B62E82E090E00E943E1FF801AB
:1011F0008081872129F0BA94B1F783E090E091C013
:101200009E012F5F3F4F590154E2952E82E090E0FE
:101210000E943E1FF8018081872129F49A94B1F73A
:1012200084E090E07EC0912C939482E090E00E9454
:101230003E1FF8018081872131F0F3E39F12F4CF44
:1012400085E090E06EC0F50191925F01EC15FD051F
:10125000D9F6FE0132968FE090E040E050E021E0C8
:1012600030E061916C3048F0B901082E02C0660F81
:10127000771F0A94E2F7462B572B019790F7FE0150
:1012800072968FE090E020E030E061E070E0A191A4
:10129000AC3048F0DB01082E02C0AA0FBB1F0A9435
:1012A000E2F72A2B3B2B019790F7FE01B29687E0DD
:1012B00090E060E0A1E0B0E071917C3038F08D0109
:1012C000082E01C0000F0A94EAF7602B0197A0F7DF
:1012D000CA019F77F7019087878337FF08C0C9014C
:1012E0009F779195819591099287818703C0F70136
:1012F0003287218770E0852F9927840F911D432F16
:101300005527840F951F820F911D9927681779071C
:1013100031F480E090E005C087E090E002C086E014
:1013200090E0A9960FB6F894DEBF0FBECDBFDF9157
:10133000CF911F910F91FF90EF90DF90CF90BF90D2
:10134000AF909F908F907F9008954115510529F49B
:10135000EAE7F0E080818F7780836A307105B1F031
:1013600063FF02C088E201C088E06770682B88E1F3
:1013700090E00FB6F894A895809360000FBE60933C
:101380006000E0E6F0E0808180648083232BA1F49C
:1013900083B7817F846083BFF89483B7816083BF04
:1013A00085B7806685BF8F7D85BF7894889583B724
:1013B0008E7F83BF78940EC083B7817F846083BFA4
:1013C000F89483B7816083BF7894889583B78E7FC4
:1013D00083BF7894452B29F4EAE7F0E080818068A8
:1013E000808308951F920F920FB60F9211248F934E
:1013F00088E10FB6F89480936000109260000FBEF1
:101400008F910F900FBE0F901F901895089561E077
:1014100085E00C9403200C94072C0C940F2C1F9344
:10142000CF93DF93EC01162F6CEF73E00E947724CB
:101430006CEF73E0CE0106960E9477246CEF73E0A8
:10144000CE010C960E9477246CEF73E0CE01429699
:101450000E9477246CEF73E0CE0148960E947724B7
:1014600060E471E0CE014E960E9477246CEF73E049
:10147000CE0184960E9477246CEF73E0CE018A96A9
:101480000E9477246CEF73E0CE01C0960E9477240F
:1014900065E471E0CE01C6960E9477246CEF73E09C
:1014A000CE01CC960E9477246CEF73E0CE018E5B68
:1014B0009F4F0E947724FE01EA5AFF4F1082359613
:1014C00081E08083C35ADF4F1883DF91CF911F9152
:1014D000089560E084E00E94032064E670E080E00C
:1014E00090E00E94161F61E084E00C9403200C96AB
:1014F0000C94AE2420E048E067E084E894E00C948B
:101500002D1D84E894E00C94D41C84E894E00E949F
:10151000031C181619065CF462E070E080E090E0AD
:101520000E94161F84E894E00E94771BEECF089576
:10153000EF92FF920F931F93CF93DF9300D000D0D1
:1015400000D0CDB7DEB78C017B016CEF73E00E9459
:10155000772484E894E00E94031C1816190634F0DE
:1015600060E070E0CB010E94161FF3CF8CE5E80E1F
:10157000F11C84E894E00E94031C1816190664F517
:1015800084E894E00E94771BF7018083682FC801EC
:101590000E94D32560E070E0CB010E94161F0E94DC
:1015A000121EF70180818A3021F7F80124813581EC
:1015B0002250310940E050E0B801CE0101960E946E
:1015C000B326BE016F5F7F4FC8010E94AE24CE01DB
:1015D00001960E940924CDCFC80126960FB6F89433
:1015E000DEBF0FBECDBFDF91CF911F910F91FF9056
:1015F000EF900895CF92DF92EF92FF920F931F9397
:10160000CF93DF93CDB7DEB72C970FB6F894DEBF3C
:101610000FBECDBF8C017B016A016CEF73E0CE0180
:1016200007960E94772469E471E0CE0101960E943A
:101630007724B601CE0101960E941526BC0184E8EC
:1016400094E00E94EA22CE0101960E940924B7018B
:10165000CE0101960E94980ABE016F5F7F4FCE01B6
:1016600007960E94AE24CE0101960E94092463E5EC
:1016700071E0CE0107960E9442269701255B3F4FFD
:101680006901882371F0F90110826CE970E089E347
:1016900095E00E94D82261E671E0C8010E9477249B
:1016A0001CC068E671E084E894E00E94FE23882371
:1016B00021F081E0F601808308C0F601108263E723
:1016C00070E089E395E00E94D822C7010E94850A54
:1016D00062E272E0C8010E947724CE0107960E9460
:1016E0000924C8012C960FB6F894DEBF0FBECDBFFB
:1016F000DF91CF911F910F91FF90EF90DF90CF90EE
:1017000008955F926F927F928F929F92AF92BF9255
:10171000CF92DF92EF92FF920F931F93CF93DF93BD
:10172000CDB7DEB762970FB6F894DEBF0FBECDBF60
:101730007C018B016CEF73E0CE010D960E94772443
:101740008FE090E00E940B0A98012A5C3F4F6901EC
:101750008F3F91F465E471E0C9010E94CE24380105
:101760003BE4630E711C580189E5A80EB11C4801C9
:10177000ECE48E0E911C19C06FE671E0C9010E9465
:10178000CE24EDCFC8010E94690AB801CE010196AE
:101790000E94980ABE016F5F7F4FCE010D960E9496
:1017A000AE24CE0101960E94092483E0582EF30155
:1017B000808181113DC0F5018081918101969183E5
:1017C0008083B601CE0107960E94C524AE01495F11
:1017D0005F4FB801CE0101960E94FA0ABE016F5F09
:1017E0007F4FCE010D960E94AE24CE0101960E943D
:1017F0000924CE0107960E94092461E671E0CE011A
:101800000D960E944226882331F061E671E0C701FF
:101810000E94772415C05A9451F6F40180818823E0
:1018200009F4B0CF64E771E0C7010E94772408C0D3
:10183000C8010E94850A62E272E0C7010E94772413
:10184000CE010D960E940924C70162960FB6F89446
:10185000DEBF0FBECDBFDF91CF911F910F91FF90E3
:10186000EF90DF90CF90BF90AF909F908F907F9040
:101870006F905F9008954F925F926F927F928F92D8
:101880009F92AF92BF92CF92DF92EF92FF920F930F
:101890001F93CF93DF93CDB7DEB72C970FB6F89495
:1018A000DEBF0FBECDBF6C017B014A01590138017B
:1018B0006CEF73E0CE0107960E9477248701005DEC
:1018C0001F4F6CEF73E0C8010E94CE2427018BE408
:1018D000480E511CF2018081811129C0B701CE014F
:1018E00001960E94810BBE016F5F7F4FCE0107966C
:1018F0000E94AE24CE0101960E94092461E671E0A7
:10190000CE0107960E944226882331F061E671E0FD
:10191000C6010E9477246EC162E272E0CE01079692
:101920000E944226882319F081E0F201808363E956
:1019300071E0C4010E9442268823D9F065E971E074
:10194000CE0101960E947724B501CE0101960E9436
:10195000152662E572E00E942826B3010E94152632
:10196000BC0184E894E00E94EA22CE0101960E9424
:10197000092463EA71E0C4010E9442268823D9F059
:1019800065EA71E0CE0101960E947724B501CE018F
:1019900001960E94152662E572E00E942826B30196
:1019A0000E941526BC0184E894E00E94EA22CE0140
:1019B00001960E940924B701CE0101960E94980A5F
:1019C000BE016F5F7F4FCE0107960E94AE24CE010D
:1019D00001960E94092461EB71E0CE0101960E94FC
:1019E0007724BE01695F7F4FCE0101960E941526C4
:1019F000BC0189E395E00E94EA22CE0101960E9493
:101A0000092463EC71E0CE0107960E9442268823E8
:101A1000D9F0F2011082B701CE0101960E94810B2C
:101A2000BE016F5F7F4FCE0107960E94AE24CE01AC
:101A300001960E94092461E671E0CE0107960E949A
:101A40004226811163CF46C065ED71E0CE01079655
:101A50000E944226882379F063EB70E089E395E0E9
:101A60000E94D822F201108260EE71E084E894E0D6
:101A70000E94FC2216C06AEE71E0CE0107960E9419
:101A80004226882369F16BEA70E089E395E00E94C1
:101A9000D82260EE71E084E894E00E94FC22F2011A
:101AA0001082B701CE0101960E94980ABE016F5FB5
:101AB0007F4FCE0107960E94AE24CE0101960E9470
:101AC0000924B701CE0101960E94810BCE01019637
:101AD0000E9409246EEC71E0C6010E9477248AC03E
:101AE0006FEE71E0CE0107960E944226882331F006
:101AF0006DEF71E0C6010E9477247CC064E670E05F
:101B000080E090E00E94161FB701CE0101960E946E
:101B1000980ABE016F5F7F4FCE0107960E94AE24E8
:101B2000CE0101960E9409246CE072E0CE0101967C
:101B30000E947724BE01695F7F4FCE0101960E940B
:101B40001526BC0189E395E00E94EA22CE010196A8
:101B50000E9409246BE172E0CE0107960E944226A2
:101B6000811133C047E050E0BE01695F7F4FCE0175
:101B700001960E942E03BE016F5F7F4FC8010E9435
:101B8000AE24CE0101960E94092460E2C8010E94A1
:101B90008F2699270196AC01B801CE0101960E94CB
:101BA0002E0365E272E0CE0101960E944226811169
:101BB00012C068E272E0CE0101960E9442268111B5
:101BC0000AC0CE0101960E94092462E272E0C601B9
:101BD0000E9477240FC061E089E00E94032068EC36
:101BE00070E080E090E00E94161F60E089E00E94B3
:101BF0000320E7CFCE0107960E940924C6012C9648
:101C00000FB6F894DEBF0FBECDBFDF91CF911F910D
:101C10000F91FF90EF90DF90CF90BF90AF909F908B
:101C20008F907F906F905F904F9008958F929F92CA
:101C3000AF92BF92CF92DF92EF92FF920F931F93DA
:101C4000CF93DF93CDB7DEB72C970FB6F894DEBFF6
:101C50000FBECDBF8C014B0188E10FB6F894809385
:101C60006000109260000FBEC8010E94850A6BE2FE
:101C700072E084E894E00E94FC22B801CE01019653
:101C80000E94980A580182E4A80EB11CBE016F5F41
:101C90007F4FC5010E94AE24CE0101960E94092407
:101CA00069E372E0CE0101960E947724B501CE016E
:101CB00001960E941526BC0189E395E00E94EA2264
:101CC000CE0101960E940924C4010E94F8266B01EE
:101CD0007C01B401C8014E960E94AE24C701B60132
:101CE0000E94D22720E030E64AE657E40E945E28B0
:101CF00020E030EB41E855E40E940327AB01BC0132
:101D000020E0CE0107960E943F2564E472E0CE01F8
:101D100001960E947724B401CE0101960E941526F7
:101D200064E572E00E942826BC0189E395E00E94E8
:101D3000EA22CE0101960E9409246AE572E0CE01F2
:101D400001960E947724BE01695F7F4FCE01019604
:101D50000E941526BC0184E894E00E94EA22CE018C
:101D600001960E94092464E670E080E090E00E9401
:101D7000161F60E08DE00E940320F801E35BFF4F37
:101D80001082399610823497108260E085E00E94BC
:101D9000032043E050E066E07AE080E00E94131EFA
:101DA00041E050E067E07AE081E00E94131E88E1A4
:101DB0000FB6F89480936000109260000FBE20E090
:101DC00030E040E050E06AE070E083E894E00E9498
:101DD000A50980E00E94331E81E00E94331EF801B5
:101DE000EA5AFF4FFF24F394F08285E00E943920E5
:101DF000F801EE5AFF4F019709F04FC0F082C80179
:101E00000E94690A84E894E00E94031C18161906CF
:101E1000CCF765E672E084E894E00E94FE23882314
:101E2000C1F36CEE70E089E395E00E94D822B8011E
:101E3000CE0101960E94980ACE0101960E940924C3
:101E400062E370E080E090E00E94161F6CE672E0B2
:101E5000CE0101960E947724B501CE0101960E9421
:101E60001526BC0184E894E00E94EA22CE01019686
:101E70000E94092484E894E00E94031C18161906A5
:101E8000CCF762E272E084E894E00E94FE238823AB
:101E9000C1F3F801E55BFF4F1082C8010E94850A7B
:101EA00061E08DE00E9403206BE772E084E894E03B
:101EB0000E94FC2220E030E040E050E066E070E06C
:101EC00083E894E00E94A50984E894E00E94031C42
:101ED00018161906CCF7B801CE0101960E94980A8F
:101EE00062E272E0CE0101960E944226182FCE01D6
:101EF00001960E940924112331F065EE70E089E318
:101F000095E00E94D822CE0107960E9409242C96C3
:101F10000FB6F894DEBF0FBECDBFDF91CF911F91FA
:101F20000F91FF90EF90DF90CF90BF90AF909F9078
:101F30008F900895CF92DF92EF92FF920F931F93AD
:101F4000CF93DF93CDB7DEB7A4970FB6F894DEBF7B
:101F50000FBECDBF7C018B016CEF73E0CE014F96BD
:101F60000E9477246CEF73E0CE0149960E9477249B
:101F7000670186E5C80ED11CF6011082B801CE01BA
:101F800049960E94AE246AE872E0CE0101960E9452
:101F90007724BE01675E7F4FCE0101960E94152611
:101FA000BC0189E395E00E94EA22CE0101960E94DD
:101FB0000924BE01675E7F4FCE0107960E94C524AB
:101FC000B7016E5E7F4FCE010D960E94C52463E976
:101FD00071E0CE0143960E9477248E01095F1F4F66
:101FE0009E01235F3F4FAE014D5E5F4FB701CE01B3
:101FF00001960E943B0CBE016F5F7F4FCE014F9652
:102000000E94AE24CE0101960E940924CE0143967F
:102010000E940924CE010D960E940924C8010E9445
:10202000092467E972E0CE0101960E947724BE017F
:10203000615E7F4FCE0101960E941526BC0189E3A7
:1020400095E00E94EA22CE0101960E9409246EECDE
:1020500071E0CE014F960E944226882331F081E044
:10206000F60180833597808351C08701095A1F4F3D
:10207000F8018081918101969183808360EE70E008
:1020800089E395E00E949A22F801608171814AE01B
:10209000CE0101960E941325BE016F5F7F4F89E339
:1020A00095E00E94EA22CE0101960E94092460ED8B
:1020B00070E089E395E00E949A22F701E75AFF4F0A
:1020C000608171814AE0CE0101960E941325BE0114
:1020D0006F5F7F4F89E395E00E94EA22CE0101966F
:1020E0000E940924C7010E94850AB701625E7F4FE2
:1020F000CE0101960E94C524BE016F5F7F4FC701CC
:102100000E94160ECE0101960E940924CE01499626
:102110000E940924CE014F960E940924A4960FB66E
:10212000F894DEBF0FBECDBFDF91CF911F910F910D
:10213000FF90EF90DF90CF9008959F92AF92BF9263
:10214000CF92DF92EF92FF920F931F93CF93DF9383
:10215000CDB7DEB7A4970FB6F894DEBF0FBECDBFE4
:102160007C018B012CE030E040E050E0CE01019694
:102170000E94B3266BE972E0CE0101960E944226CE
:10218000D82ECE0101960E940924DD20B1F14CE049
:1021900050E0B801CE0101960E942E03BE016F5F90
:1021A0007F4FC8010E94AE24CE0101960E940924EF
:1021B00069E271E0C8010E944226882351F081E063
:1021C000F701E65BFF4F80836FEF81E190E00E94B3
:1021D0000D0A68EA72E0C8010E944226882309F4C9
:1021E000B7C4F701E65BFF4F81E0808360E081E1E7
:1021F00090E00E940D0A81E005C66CEA72E0C80119
:102200000E944226882309F461C06CEF73E0CE017E
:1022100007960E947724B701605D7F4FCE0101963B
:102220000E94C524BE016F5F7F4FCE0107960E94BA
:10223000AE24CE0101960E9409248B859C850297CD
:1022400038F465E972E089E395E00E94D8227CC405
:1022500060E2CE0107960E948F268C016FE872E043
:1022600089E395E00E949A221127980140E050E00E
:10227000BE01695F7F4FCE0101960E94B326BE0169
:102280006F5F7F4F89E395E00E94EA22CE010196BD
:102290000E94092469E872E089E395E00E949A228D
:1022A000A8014F5F5F4FBE01695F7F4FCE0101966E
:1022B0000E942E03BE016F5F7F4F89E395E00E946D
:1022C000EA22CE0101960E9409243EC429E030E0B2
:1022D00040E050E0B801CE0101960E94B32665EBC4
:1022E00072E0CE0101960E944226D82ECE010196C0
:1022F0000E940924DD2009F44DC049E050E0B801F6
:10230000CE0101960E942E03BE016F5F7F4FC80170
:102310000E94AE24CE0101960E94092465E471E07A
:10232000C8010E944226882369F08FE090E00E9455
:102330000B0A8F3F09F40CC46FEF8FE090E00E940E
:102340000D0A1CC06FE671E0C8010E944226882376
:1023500069F08FE090E00E940B0A882309F4F8C32B
:1023600060E08FE090E00E940D0A08C068E772E02C
:1023700089E395E00E94D82281E044C5F701E55B3E
:10238000FF4F108262E672E089E395E00E94D82256
:1023900081E038C523E030E040E050E0B801CE01F4
:1023A00001960E94B3266CEC72E0CE0101960E9469
:1023B0004226D82ECE0101960E940924DD2009F480
:1023C0005CC043E050E0B801CE0101960E942E03AC
:1023D000BE016F5F7F4F8701065D1F4FC8010E94DE
:1023E000AE24CE0101960E9409246FEB72E0CE016B
:1023F00001960E947724B801CE0101960E9415260D
:10240000BC0184E894E00E94EA22CE0101960E9479
:102410000924B701CE0101960E94980A62E272E097
:10242000CE0101960E944226182FCE0101960E94ED
:102430000924112309F48CC369E572E084E894E06F
:102440000E94D822B701CE0101960E94980A62E24A
:1024500072E0CE0101960E944226182FCE0101960D
:102460000E940924112309F473C36FE472E089E325
:1024700095E00E94D82281E0C5C424E030E040E02D
:1024800050E0B801CE0101960E94B3266BEC72E0D9
:10249000CE0101960E944226D82ECE0101960E94BE
:1024A0000924DD2009F459C044E050E0B801CE0110
:1024B00001960E942E03BE016F5F7F4FC8010E94EC
:1024C000AE24CE0101960E94092460ED72E0CE0197
:1024D00001960E947724B801CE0101960E9415262C
:1024E000BC0184E894E00E94EA22CE0101960E9499
:1024F0000924B701CE0101960E94980A62E272E0B7
:10250000CE0101960E944226182FCE0101960E940C
:102510000924112309F41CC366E472E084E894E002
:102520000E94D822B701CE0101960E94980A62E269
:1025300072E0CE0101960E944226182FCE0101962C
:102540000E940924112309F403C36BE372E089E3B9
:1025500095E00E94D82281E055C426E030E040E0BA
:1025600050E0B801CE0101960E94B3266DED72E0F5
:10257000CE0101960E944226D82ECE0101960E94DD
:102580000924DD2009F45BC046E050E0B801CE012B
:1025900001960E942E03BE016F5F7F4FC8010E940B
:1025A000AE24CE0101960E94092464EE72E0CE01B1
:1025B00001960E947724B7016C5D7F4FCE01019692
:1025C0000E941526BC0184E894E00E94EA22CE0114
:1025D00001960E940924B701CE0101960E94980A33
:1025E00062E272E0CE0101960E944226182FCE01CF
:1025F00001960E940924112309F4AAC262E372E041
:1026000084E894E00E94D822B701CE0101960E948E
:10261000980A62E272E0CE0101960E944226182FCB
:10262000CE0101960E940924112309F491C265E2AA
:1026300072E089E395E00E94D82281E0E3C325E0BF
:1026400030E040E050E0B801CE0101960E94B32690
:1026500064EF72E0CE0101960E944226D82ECE0190
:1026600001960E940924DD2009F442C045E050E0B3
:10267000B801CE0101960E942E03BE016F5F7F4F0D
:10268000C8010E94AE24CE0101960E94092422E1D5
:10269000E20EF11CB801C7010E94AE24C7010E94DE
:1026A000F826673E71058105910544F062E172E00C
:1026B00089E395E00E94D82280E0A4C3C7010E946C
:1026C000F8268AE090E00E940D0A68E072E089E353
:1026D00095E00E949A22B80189E395E00E94BF220A
:1026E00066EF71E089E395E00E94D82281E08AC319
:1026F00026E030E040E050E0B801CE0101960E94B3
:10270000B3266AEF72E0CE0101960E944226D82ECF
:10271000CE0101960E940924DD2009F44BC061E03E
:1027200089E00E9403206CEF73E0CE014F960E9477
:10273000772446E050E0B801CE0101960E942E03B6
:10274000BE016F5F7F4FC8010E94AE24CE0101968B
:102750000E9409246DEE71E089E395E00E949A22BF
:10276000B80189E395E00E94EA22B801C7010E94FE
:10277000AE246CED71E089E395E00E949A22870116
:102780000E5E1F4FB80189E395E00E94BF2261E011
:1027900073E089E395E00E94FC22B701CE010D961B
:1027A0000E94C524B801CE0143960E94C52463E966
:1027B00071E061C026E030E040E050E0B801CE01B9
:1027C00001960E94B32660E173E0CE0101960E945B
:1027D0004226D82ECE0101960E940924DD2009F45C
:1027E0008BC061E089E00E9403206CEF73E0CE01B2
:1027F0004F960E94772446E050E0B801CE01019642
:102800000E942E03BE016F5F7F4FC8010E94AE245D
:10281000CE0101960E94092463ED71E089E395E001
:102820000E949A22B80189E395E00E94EA22B80149
:10283000C7010E94AE2462EC71E089E395E00E943A
:102840009A2287010E5E1F4FB80189E395E00E942E
:10285000BF2261E073E089E395E00E94FC22B701AA
:10286000CE010D960E94C524B801CE0143960E9468
:10287000C52463EA71E0CE0149960E9477248E0157
:10288000035F1F4F9E012D5E3F4FAE01475E5F4FBE
:10289000B701CE0107960E943B0C65E073E0CE01C4
:1028A00001960E947724BE01695F7F4FCE01019699
:1028B0000E941526BC0189E395E00E94EA22CE0120
:1028C00001960E940924CE0107960E940924CE0198
:1028D00049960E940924CE0143960E940924C8010A
:1028E0000E94092460E089E00E940320CE014F96F7
:1028F0000E94092481E086C267E173E0C8010E945A
:102900004226882309F426C16CEF73E0CE010796B6
:102910000E9477246CE971E089E395E00E94D82257
:1029200060E971E089E395E00E949A226CE173E02E
:1029300084E894E00E94FC22B701CE0101960E9437
:10294000980ABE016F5F7F4FCE0107960E94AE24AA
:10295000CE0101960E940924BE01695F7F4F89E381
:1029600095E00E94EA2260E871E089E395E00E9428
:102970009A226BE273E084E894E00E94FC22B701A3
:10298000CE0101960E94980ABE016F5F7F4FCE0173
:1029900007960E94AE24CE0101960E940924BE0132
:1029A000695F7F4F89E395E00E94EA226FE671E05C
:1029B00089E395E00E949A226BE373E084E894E057
:1029C0000E94FC22B701CE0101960E94980ABE0126
:1029D0006F5F7F4FCE0107960E94AE24CE01019615
:1029E0000E940924BE01695F7F4F89E395E00E9440
:1029F000EA2262E671E089E395E00E949A226AE4A5
:102A000073E089E395E00E94FC2266E571E089E3CA
:102A100095E00E949A22B701645F7F4F89E395E0B9
:102A20000E94EA2269E471E089E395E00E949A221B
:102A30006EE473E084E894E00E94FC22B701CE01CA
:102A400001960E94980ABE016F5F7F4FCE010796E4
:102A50000E94AE24CE0101960E940924BE01695F46
:102A60007F4F89E395E00E94EA2260E471E089E308
:102A700095E00E949A226AE573E084E894E00E945F
:102A8000FC22B701CE0101960E94980ABE016F5F39
:102A90007F4FCE0107960E94AE24CE0101960E9480
:102AA0000924BE01695F7F4F89E395E00E94BF2240
:102AB00066E673E089E395E00E94FC226CE371E036
:102AC00089E395E00E949A226CE271E084E894E048
:102AD0000E94FC22B701CE0101960E94980ABE0115
:102AE0006F5F7F4FCE0107960E94AE24CE01019604
:102AF0000E940924BE01695F7F4F89E395E00E942F
:102B0000EA2267E371E089E395E00E949A226DE191
:102B100071E084E894E00E94FC22B701CE010196A6
:102B20000E94980ABE016F5F7F4FCE0107960E94F8
:102B3000AE24CE0101960E940924BE01695F7F4F39
:102B400089E395E00E94EA22CE0107960E940924BB
:102B500081E058C169E673E0C8010E9442268823DB
:102B600009F46BC06CEF73E0CE0107960E947724E6
:102B70006EE271E084E894E00E94D82284E894E058
:102B80000E94031C18161906CCF73CE5E30EF11C55
:102B900084E894E00E94031C181619060CF046C045
:102BA00084E894E00E94771BF7018083682FCE01B0
:102BB00007960E94D325F70180818A3049F72B853B
:102BC0003C852250310940E050E0BE01695F7F4FF3
:102BD000CE0101960E94B326BE016F5F7F4FCE01EA
:102BE00007960E94AE24CE0101960E94092461EB53
:102BF00071E0CE0101960E947724BE01695F7F4F8C
:102C0000CE0101960E941526BC0189E395E00E9441
:102C1000EA22CE0101960E94092462E272E0CE010E
:102C200007960E9442268111B3CF8ECF60E171E0FA
:102C300089E395E00E94D82287CF26E030E040E08B
:102C400050E0B801CE0101960E94B3266EE673E013
:102C5000CE0101960E944226D82ECE0101960E94F6
:102C60000924DD20F9F046E050E0B801CE010196DC
:102C70000E942E03BE016F5F7F4FC8010E94AE24E9
:102C8000CE0101960E940924F80184819581892B47
:102C900031F1C8010E94F826161617061806190603
:102CA00034F11DC063E973E0C8010E944226882305
:102CB00049F0B701685E7F4F89E395E00E94EA2200
:102CC00081E0A0C064EE71E0C8010E944226882322
:102CD00021F0C7010E94690A3BCF80E093C062E007
:102CE00071E089E395E00E94D82281E08BC0C801A1
:102CF0000E94F826603177428105910544F063EF28
:102D000070E089E395E00E94D82281E07BC06701F2
:102D1000FEE1CF0ED11CB801C6010E94AE2400E036
:102D200010E094E0A92EB12CF70182A193A19501A6
:102D3000281B390B02171307B0F46BE071E0CE01CA
:102D400001960E947724B601CE0101960E941526B5
:102D5000BC01C6010E94AE24CE0101960E94092446
:102D60000F5F1F4FE1CF65E773E0CE0101960E9430
:102D70007724B601CE0101960E94152665E572E022
:102D80000E942826BC0189E395E00E94EA22CE0138
:102D900001960E940924A12CB12C85010F5F1F4FC1
:102DA000C8010E940B0A982EB501C6010E94612637
:102DB000492D50E0FC012081332727FD3095421733
:102DC000530729F404301105C1F05801E6CF00E0A3
:102DD00010E0B801C6010E9461260F5F1F4FFC0181
:102DE0006081C8010E940D0A0430110591F761E865
:102DF00073E089E395E00E94FC22F701EA5AFF4F55
:102E000081E08083A4960FB6F894DEBF0FBECDBFDD
:102E1000DF91CF911F910F91FF90EF90DF90CF90B6
:102E2000BF90AF909F900895AF92BF92CF92DF92E4
:102E3000EF92FF920F931F93CF93DF93CDB7DEB73F
:102E400062970FB6F894DEBF0FBECDBF8C017B0139
:102E50006CEF73E0CE010D960E9477246CEF73E067
:102E6000CE0107960E9477246CEF73E0C8010E94A0
:102E7000772484E894E00E94031C181619062CF4A9
:102E800084E894E00E94771BF4CF6AE573E084E85D
:102E900094E00E94FC22B701CE0101960E94980A9C
:102EA000BE016F5F7F4FCE010D960E94AE24CE0112
:102EB00001960E94092422E030E040E050E0BE018B
:102EC000635F7F4FCE0101960E94B326CE0101962B
:102ED0000E94F8266B017C01CE0101960E94092414
:102EE00080E1C816D1042CF46BE071E0C8010E94A7
:102EF000C32540E1B601CE0101960E941325BE0113
:102F00006F5F7F4FC8010E94BC25CE0101960E94D1
:102F1000092442E050E0BE01635F7F4FCE0101967D
:102F20000E942E03CE0101960E94F8266B017C01BF
:102F3000CE0101960E94092480E1C816D1042CF428
:102F40006BE071E0C8010E94C32540E1B601CE01EB
:102F500001960E941325BE016F5F7F4FC8010E943A
:102F6000BC25CE0101960E940924CE0107960E943D
:102F70000924CE010D960E940924C80162960FB65D
:102F8000F894DEBF0FBECDBFDF91CF911F910F919F
:102F9000FF90EF90DF90CF90BF90AF900895CF92C9
:102FA000DF92EF92FF920F931F93CF93DF93CDB7F2
:102FB000DEB72C970FB6F894DEBF0FBECDBF8C01E5
:102FC0007B016CEF73E0CE0107960E9477246CEFD3
:102FD00073E0C8010E94772484E894E00E94031CF7
:102FE000181619062CF484E894E00E94771BF4CF9D
:102FF00068E973E084E894E00E94FC22B701CE0106
:1030000001960E94980ABE016F5F7F4FCE0107961E
:103010000E94AE24CE0101960E94092421E030E0F6
:1030200040E050E0BE01695F7F4FCE0101960E94F3
:10303000B32668E171E0CE0101960E944226F82E87
:10304000CE0101960E940924FF20D1F06AE171E0CF
:10305000C8010E94C32541E050E0BE01695F7F4F77
:10306000CE0101960E942E03BE016F5F7F4FCE01FD
:1030700007960E94AE24CE0101960E94092405C045
:1030800067E872E0C8010E94C325CE0107960E943E
:10309000F8266B017C0180E1C816D1042CF46BE0AA
:1030A00071E0C8010E94C32540E1B601CE0101963E
:1030B0000E941325BE016F5F7F4FC8010E94BC258F
:1030C000CE0101960E940924CE0107960E94092490
:1030D000C8012C960FB6F894DEBF0FBECDBFDF91AE
:1030E000CF911F910F91FF90EF90DF90CF900895B7
:1030F0008F929F92AF92BF92CF92DF92EF92FF9208
:103100000F931F93CF93DF93CDB7DEB76E970FB6B4
:10311000F894DEBF0FBECDBF7C0160E082E00E946C
:10312000CA1F61E08DE00E94CA1F61E089E00E9431
:10313000CA1F61E084E00E94CA1F60E084E00E9430
:10314000032061E089E00E94032061E08DE00E949D
:10315000032060E971E080E090E00E94161F61E0CA
:1031600084E00E94032061E089E00E94032026E0C1
:1031700040E052EC61E070E089E395E00E94452177
:1031800040E051EE60E070E084E894E00E945D1D54
:1031900066E674E089E395E00E94D82284E894E032
:1031A0000E94031C1816190684F484E894E00E9417
:1031B000771B682F89E395E00E94CD2265E070E0DF
:1031C00080E090E00E94161FE9CF6AE574E084E891
:1031D00094E00E94D82268EC70E080E090E00E94C9
:1031E000161F65E672E084E894E00E94FE238823BF
:1031F00009F466C064E474E089E395E00E94D82293
:10320000F701E35AFF4F8081813009F060C069E027
:1032100074E08701085E1F4FC8010E946F2567EEAA
:1032200073E0C8010E94E6256AEC73E0C8010E94C1
:10323000E62568EA73E0C8010E94E6256AE873E0C3
:10324000C8010E94E62568E673E0C8010E94E625F1
:103250006EE473E0C8010E94E6256BE273E0C801EA
:103260000E94E625B80189E395E00E94BF2266E04E
:1032700073E089E395E00E94D8226AEF72E089E367
:1032800095E00E94D8226EEE72E084E894E00E94FD
:10329000D82262E370E080E090E00E94161FB70140
:1032A000CE0101960E94980ABE016F5F7F4F89E3AD
:1032B00095E00E94EA22CE0101960E94092407C0EF
:1032C0006FE274E089E395E00E94D822FFCF6CEDB5
:1032D00075E080E090E00E94161F60E089E00E94A7
:1032E00003206CEF73E0C70106960E94CE24B7015D
:1032F000CE0107960E94141766EA73E0CE0101968C
:103300000E947724BE01695F7F4FCE0101960E9423
:103310001526BC0189E395E00E94EA22CE010196C0
:103320000E940924CE0107960E940924B701CE010C
:1033300007960E94CF1764EB73E0CE0101960E94BE
:103340007724BE01695F7F4FCE0101960E9415264A
:10335000BC0189E395E00E94EA22CE0101960E9419
:103360000924CE0107960E94092465EC72E089E3E6
:1033700095E00E94D82257012BE4A20EB11CF50162
:10338000108280E090E00E940B0A9701225E3F4F7E
:1033900069018C3AD1F000E010E0B801C6010E944A
:1033A00061260F5F1F4FFC016081C8010E940D0A5A
:1033B0000430110591F76CEA80E090E00E940D0A5C
:1033C0006FEF81E190E00E940D0A00E010E0B8018B
:1033D000C6010E9461264C010F5F1F4FC8010E9469
:1033E0000B0AF40180830430110589F76EEB73E05A
:1033F000CE0101960E947724B601CE0101960E946B
:103400001526BC0189E395E00E94EA22CE010196CF
:103410000E9409246701F2E1CF0ED11C6CEF73E02A
:10342000C6010E94CE248AE090E00E940B0A4AE086
:10343000682FCE0101960E94E624BE016F5F7F4F88
:10344000C6010E94AE24CE0101960E9409248AE0A2
:1034500090E00E940B0A8F3F29F46AEC73E0C601EA
:103460000E94CE246CEC73E0CE0101960E9477247A
:10347000B601CE0101960E941526BC0189E395E0B4
:103480000E94EA22CE0101960E9409248FE090E07A
:103490000E940B0A97012A5C3F4F8F3F31F465E48D
:1034A00071E0C9010E94CE2405C06FE671E0C90138
:1034B0000E94CE2481E190E00E940B0A8701065B06
:1034C0001F4F8F3F21F481E0F801808302C0F80193
:1034D00010826CEF73E0CE0149960E947724F501CB
:1034E000108281E0F701E45BFF4F8083B701CE01DA
:1034F00001960E94810BBE016F5F7F4FCE014996FE
:103500000E94AE24CE0101960E940924BE01675E8E
:103510007F4F89E395E00E94EA2262E272E0CE01E9
:1035200049960E944226882309F4BAC0C7010E9426
:10353000850AF8018081811105C0F701E45BFF4F26
:103540001082AEC066EB72E084E894E00E94D8225C
:10355000B701CE0101960E94980ABE016F5F7F4FAE
:10356000CE0149960E94AE24CE0101960E94092404
:1035700062ED73E0CE0101960E947724BE01675E82
:103580007F4FCE0101960E941526BC0189E395E08C
:103590000E94EA22CE0101960E9409246EE972E09F
:1035A00089E395E00E94D822BE01675E7F4FCE017D
:1035B00007960E94C524B601CE010D960E94C5242F
:1035C0005E01F3E1AF0EB11C63E971E0C5010E9439
:1035D00077248E01095F1F4F9E01235F3F4FA50196
:1035E000B701CE0101960E943B0CBE016F5F7F4F79
:1035F000CE0149960E94AE24CE0101960E94092474
:10360000C5010E940924CE010D960E940924C8011B
:103610000E94092462E272E0CE0149960E9442268D
:1036200081118BCF61E671E0CE0149960E9442265E
:10363000811183CFBE01675E7F4FCE0107960E9446
:10364000C524B601CE010D960E94C52463E971E040
:10365000C5010E9477248E01095F1F4F9E01235FE1
:103660003F4FA501B701CE0101960E943B0C62E2DB
:1036700072E0CE0101960E944226182FCE010196DB
:103680000E940924C5010E940924CE010D960E94C2
:103690000924CE0107960E940924112359F24DCF27
:1036A00089E395E00E946220181619062CF489E33C
:1036B00095E00E947B20F4CF89E395E00E94BE2034
:1036C000CE0149960E9409246E960FB6F894DEBF8B
:1036D0000FBECDBFDF91CF911F910F91FF90EF9063
:1036E000DF90CF90BF90AF909F908F9008952091E2
:1036F00025053091260528173907B9F49091A304C0
:103700008091A404981789F0E091A304F0E0EB55B0
:10371000FB4F80812091A30430E02F5F3F4F2F7734
:1037200033272093A30490E008958FEF9FEF08952F
:103730001F93CF93DF93DC015C968D919C915D97F5
:10374000009749F481E090E013969C938E93129732
:1037500080E090E03BC05196ED91FC9152975096DD
:103760002C915097322F30951FB75E964C915E97F3
:1037700041FB772770F941FD6095F89440817723EC
:1037800011F0422B01C043234083EC012197F1F754
:1037900048E0508160FF02C0522B01C05323508388
:1037A000EC012197F1F76695415099F780817723D5
:1037B00011F0832301C0822B80831FBF5C968D9103
:1037C0009C915D970197F1F781E090E0DF91CF91B7
:1037D0001F910895089520912505309126052817F9
:1037E000390771F49091A3048091A404981741F0D3
:1037F000E091A304F0E0EB55FB4F808190E0089549
:103800008FEF9FEF08952091250530912605281709
:10381000390771F48091A4042091A30490E08058AA
:103820009F4F821B910960E870E00E94C1280895B3
:1038300080E090E00895E0912505F0912605E817D5
:10384000F90769F4A389B4899C91858980958923B6
:103850008C93109226051092250581E0089580E052
:103860000895CF93DF93EC018A8D9B8D892BF1F026
:1038700080912505909126058C179D07B9F000973A
:1038800011F00E941B1C8E8D8E7F8E8F1092A404CF
:103890001092A304D0932605C0932505EB89FC89DB
:1038A00080819D89892B808381E001C080E0DF9148
:1038B000CF9108951F920F920FB60F9211242F935C
:1038C0003F934F935F936F937F938F939F93AF93A8
:1038D000BF93EF93FF93E0912505F0912605309774
:1038E00009F451C0868DA685B785958581FF04C0F2
:1038F0008C91892329F447C08C91892309F043C016
:10390000A389B4899C918589809589238C93868924
:1039100097890197F1F7208D318DA685B78575853B
:1039200058E040E0C9010197F1F7842F90E09595A8
:103930008795482F6C91672309F04068515091F7A3
:10394000868D81FD40958091A40490E001968F774B
:1039500099272091A304281749F0A091A404B0E06E
:10396000AB55BB4F4C938093A40403C0868D8160FC
:10397000868F828D938D0197F1F7A389B4898C91FD
:103980009589892B8C93FF91EF91BF91AF919F9176
:103990008F917F916F915F914F913F912F910F90F8
:1039A0000FBE0F901F9018952EED33E0FC01318370
:1039B00020830C941B1C1F93CF93DF93EC01162FD5
:1039C0006E8D6695617081E06827812F0E940320CB
:1039D00061E0812F0E94CA1F812F90E0FC01EE550B
:1039E000FB4FE491E88BFC01EA54FB4FE491F0E0DB
:1039F000EE0FFF1FEC52FB4F859194919A8B898BB0
:103A0000DF91CF911F9108951F93CF93DF93EC0126
:103A1000162F60E0812F0E94CA1F8E8D81FD04C089
:103A200061E0812F0E9403201C87812F90E0FC0120
:103A3000EE55FB4FE491ED87FC01EA54FB4FE49116
:103A4000F0E0EE0FFF1FE653FB4F859194919F87A7
:103A50008E87DF91CF911F910895FF920F931F934F
:103A6000CF93DF93EC01F62E522F1B821A8208EEC1
:103A700013E020E030E00C831D832E833F838EED26
:103A800093E0998388831F8A1E8A198E188E1B8E55
:103A90001A8E1D8E1C8E8E8D8E7F50FB81F98E8F1F
:103AA000642FCE010E94DB1C6F2DCE01DF91CF91E0
:103AB0001F910F91FF900C94041DCF93DF93EC01A5
:103AC0009A01AB011B8E1A8E198E188E1F8A1E8AC0
:103AD00060E079E08DE390E00E94F728C90124308E
:103AE000310520F0B9016350710902C061E070E056
:103AF0007D8F6C8FEC85E63108F068C0B901769552
:103B000067956431710518F06351710902C061E075
:103B100070E07F8B6E8B069718F0C901059702C085
:103B200081E090E0998F888FC901880F991F820FDB
:103B3000931F96958795969587958D30910510F0F2
:103B40000C9702C081E090E09B8F8A8F20916800E3
:103B5000E83050F091E0EE3008F490E081E001C0F0
:103B6000880F9A95EAF701C084E0822B8093680061
:103B70002C85283038F02E3040F0263148F48CE681
:103B800090E008C08DE690E005C08BE690E002C0B2
:103B900080E090E09C8B8B8B283030F481E001C07A
:103BA000880F2A95EAF70DC0822F90E02E3010F48E
:103BB000089701C00E9791E001C0990F8A95EAF726
:103BC000892F8D8B8C8D9D8D0197F1F7CE01DF9123
:103BD000CF910C94311C1F920F920FB60F921124AB
:103BE0002F933F934F935F936F937F938F939F9305
:103BF000AF93BF93EF93FF93E0912705F0912805D2
:103C00000995FF91EF91BF91AF919F918F917F9116
:103C10006F915F914F913F912F910F900FBE0F9039
:103C20001F90189508958230E8F4E82FF0E0EE0F29
:103C3000FF1FE45DFA4F71836083813041F0809112
:103C400069008C7F842B80936900E89A08958091A5
:103C50006900440F551F440F551F837F842B8093A9
:103C60006900E99A0895823068F4813011F0E8988B
:103C700001C0E998E82FF0E0EE0FFF1FE45DFA4F76
:103C80001182108208951F920F920FB60F92112485
:103C90002F933F934F935F936F937F938F939F9354
:103CA000AF93BF93EF93FF9380912C0590912D05D7
:103CB000892B29F0E0912C05F0912D050995FF91B4
:103CC000EF91BF91AF919F918F917F916F915F9194
:103CD0004F913F912F910F900FBE0F901F9018950D
:103CE0001F920F920FB60F9211242F933F934F9371
:103CF0005F936F937F938F939F93AF93BF93EF9354
:103D0000FF9380912E0590912F05892B29F0E0914A
:103D10002E05F0912F050995FF91EF91BF91AF917D
:103D20009F918F917F916F915F914F913F912F91D3
:103D30000F900FBE0F901F9018951F920F920FB605
:103D40000F9211242F933F938F939F93AF93BF9321
:103D50008091310590913205A0913305B0913405E1
:103D60003091300523E0230F2D3720F40196A11D5B
:103D7000B11D05C026E8230F0296A11DB11D209399
:103D800030058093310590933205A0933305B093AD
:103D900034058091350590913605A0913705B09195
:103DA00038050196A11DB11D809335059093360508
:103DB000A0933705B0933805BF91AF919F918F9134
:103DC0003F912F910F900FBE0F901F9018952FB716
:103DD000F89460913105709132058091330590918E
:103DE00034052FBF08953FB7F89480913505909121
:103DF0003605A0913705B091380526B5A89B05C0BA
:103E00002F3F19F00196A11DB11D3FBF6627782FE6
:103E1000892F9A2F620F711D811D911D42E0660F3F
:103E2000771F881F991F4A95D1F70895CF92DF9287
:103E3000EF92FF92CF93DF936B017C010E94F31E00
:103E4000EB01C114D104E104F10489F00E94121EB7
:103E50000E94F31E6C1B7D0B683E734090F381E063
:103E6000C81AD108E108F108C851DC4FEACFDF9148
:103E7000CF91FF90EF90DF90CF9008958230910521
:103E800038F0880F991F880F991F05970197F1F750
:103E90000895789484B5826084BD84B5816084BDC2
:103EA00085B5826085BD85B5816085BDEEE6F0E0B3
:103EB000808181608083E1E8F0E01082808182600F
:103EC0008083808181608083E0E8F0E08081816090
:103ED0008083E1EBF0E0808184608083E0EBF0E0C0
:103EE000808181608083EAE7F0E080818460808364
:103EF000808182608083808181608083808180680E
:103F000080831092C10008958E3008F08E50877023
:103F10002091060190E4299F90011124822B809327
:103F20007C0080917A00806480937A0080917A008E
:103F300086FDFCCF809178002091790090E0922B53
:103F40000895833081F028F4813099F08230A1F017
:103F500008958730A9F08830B9F08430D1F4809189
:103F600080008F7D03C0809180008F7780938000D8
:103F7000089584B58F7702C084B58F7D84BD089580
:103F80008091B0008F7703C08091B0008F7D8093C7
:103F9000B0000895CF93DF9390E0FC01EE55FB4F06
:103FA0002491FC01EA54FB4F8491882349F190E06D
:103FB000880F991FFC01E252FB4FA591B4918C52DE
:103FC0009B4FFC01C591D4919FB7611108C0F89433
:103FD0008C91209582238C93888182230AC0623041
:103FE00051F4F8948C91322F309583238C938881EF
:103FF000822B888304C0F8948C91822B8C939FBF72
:10400000DF91CF9108950F931F93CF93DF931F926A
:10401000CDB7DEB7282F30E0F901E257FB4F84918E
:10402000F901EE55FB4F1491F901EA54FB4F04914D
:104030000023C9F0882321F069830E94A11F6981B0
:10404000E02FF0E0EE0FFF1FEC52FB4FA591B49173
:104050009FB7F8948C91611103C01095812301C022
:10406000812B8C939FBF0F90DF91CF911F910F9168
:104070000895CF93DF93282F30E0F901E257FB4FEB
:104080008491F901EE55FB4FD491F901EA54FB4FAD
:10409000C491CC2391F081110E94A11FEC2FF0E07C
:1040A000EE0FFF1FE653FB4FA591B4912C912D23EA
:1040B00081E090E021F480E002C080E090E0DF91B8
:1040C000CF910895FC01818D228D90E0805C9F4FFF
:1040D000821B91098F7399270895FC01918D828D20
:1040E000981731F0828DE80FF11D858D90E00895CD
:1040F0008FEF9FEF0895FC01918D828D981761F0ED
:10410000828DDF01A80FB11D5D968C91928D9F5F0E
:104110009F73928F90E008958FEF9FEF08958FEF38
:1041200091E2892B49F080E090E0892B29F00E94F0
:10413000FF2181110C9400000895FC01848DDF01A2
:10414000A80FB11DA35ABF4F2C91848D90E001960A
:104150008F739927848FA689B7892C93A089B189F9
:104160008C9180648C93938D848D981306C0028803
:10417000F389E02D80818F7D80830895CF93DF9335
:10418000EC01888D8823C9F0EA89FB89808185FD4F
:1041900005C0A889B9898C9186FD0FC00FB607FCB0
:1041A000F5CF808185FFF2CFA889B9898C9185FFF1
:1041B000EDCFCE010E949D20E7CFDF91CF910895F2
:1041C000CF92DF92FF920F931F93CF93DF931F92B3
:1041D000CDB7DEB76C0181E0D60158968C93589725
:1041E0005B969C915B975C968C915C97981307C04B
:1041F0005096ED91FC915197808185FD2EC0F6017E
:10420000038D10E00F5F1F4F0F731127F02EF60183
:10421000848DF81211C00FB607FCF9CFD601509665
:10422000ED91FC915197808185FFF1CFC6016983A3
:104230000E949D206981EBCF838DE80FF11DE35A29
:10424000FF4F6083D6015B960C935B975296ED917E
:10425000FC915397808180620CC0D6015696ED91F7
:10426000FC91579760835096ED91FC915197808116
:104270008064808381E090E00F90DF91CF911F9167
:104280000F91FF90DF90CF900895BF92CF92DF9271
:10429000EF92FF92CF93DF93EC016A017B01B22E84
:1042A000E889F98982E08083411581EE580761052C
:1042B0007105A1F060E079E08DE390E0A70196013F
:1042C0000E94D52821503109410951095695479539
:1042D00037952795211580E1380798F0E889F98905
:1042E000108260E874E88EE190E0A70196010E94D8
:1042F000D5282150310941095109569547953795DF
:104300002795EC85FD853083EE85FF852083188E0B
:10431000EC89FD89B082EA89FB8980818061808394
:10432000EA89FB89808188608083EA89FB898081B2
:1043300080688083EA89FB8980818F7D8083DF911B
:10434000CF91FF90EF90DF90CF90BF9008951F9294
:104350000F920FB60F9211242F938F939F93EF9389
:10436000FF93E0914905F0914A058081E0914F0566
:10437000F091500582FD12C09081809152058F5FAF
:104380008F7320915305821751F0E0915205F0E0B0
:10439000E75CFA4F958F8093520501C08081FF91B1
:1043A000EF919F918F912F910F900FBE0F901F90C3
:1043B00018951F920F920FB60F9211242F933F93CF
:1043C0004F935F936F937F938F939F93AF93BF931D
:1043D000EF93FF9389E395E00E949D20FF91EF9179
:1043E000BF91AF919F918F917F916F915F914F910D
:1043F0003F912F910F900FBE0F901F90189589E35A
:1044000095E00E94622021E0892B09F420E0822FB0
:10441000089510923C0510923B0588EE93E0A0E0D1
:10442000B0E080933D0590933E05A0933F05B09387
:1044300040058EEE93E090933A058093390585EC24
:1044400090E0909346058093450584EC90E090932E
:1044500048058093470580EC90E090934A0580934F
:10446000490581EC90E090934C0580934B0582ECDC
:1044700090E090934E0580934D0586EC90E09093EC
:10448000500580934F0510925205109253051092DB
:10449000540510925505089508950E94491F0E94E1
:1044A0004C220E943A03CFE8D0E20E947D07209779
:1044B000E1F30E948F20F9CFCF92DF92EF92FF922B
:1044C0000F931F93CF93DF936C017A01EB01E60EFC
:1044D000F71E00E010E0CE15DF0561F06991D6010E
:1044E000ED91FC910190F081E02DC6010995080F36
:1044F000191FF1CFC801DF91CF911F910F91FF904C
:10450000EF90DF90CF9008956115710581F0DB0188
:104510000D900020E9F7AD0141505109461B570BA2
:10452000DC01ED91FC910280F381E02D099480E0A3
:1045300090E00895EF92FF920F931F93CF93DF9334
:104540008C01FB01C0E0D0E064917F018FEFE81A9D
:10455000F80A662361F0D801ED91FC910190F08199
:10456000E02DC8010995C80FD91FF701EDCFCE0185
:10457000DF91CF911F910F91FF90EF900895DC0193
:10458000ED91FC91DB0114964D915C9115976D9125
:104590007C910280F381E02D0994DC01ED91FC9186
:1045A0000190F081E02D09946AEF73E00C9484226D
:1045B0000F931F93CF93DF93EC010E949A228C01FB
:1045C000CE010E94D422800F911FDF91CF911F91C5
:1045D0000F9108950F931F93CF93DF93EC010E94E7
:1045E000BF228C01CE010E94D422800F911FDF9147
:1045F000CF911F910F9108950F931F93CF93DF9346
:10460000EC010E9484228C01CE010E94D422800FF2
:10461000911FDF91CF911F910F9108950F931F93D9
:10462000CF93DF93EC010E94E71E688779878A8722
:104630009B87E881F9810680F781E02DCE010995FD
:1046400097FF15C00E94E71E088519852A853B85BE
:10465000601B710B820B930B0C811D812E813F819E
:10466000601771078207930720F38FEF9FEFDF91A9
:10467000CF911F910F9108954F925F926F927F9209
:104680008F929F92AF92BF92CF92DF92EF92FF9262
:104690000F931F93CF93DF934C01EB0186E0849F30
:1046A0008001859F100D1124060F171FFB01E017D5
:1046B000F10708F582819381892B21F13696F7CF96
:1046C0004081518164817581DA01A60FB71F2C9159
:1046D000332727FD30958217930711F56F5F7F4FC2
:1046E00075836483228133816217730759F036968C
:1046F000E017F10728F3C4010E940E2397FD46C07E
:10470000FE01F6CFEC1BFD0BF595E7952BEA3AEA97
:10471000E29FC001E39F900DF29F900D112438C0DD
:104720006115710521F3A480B580950121503109EF
:1047300035832483DA01A20FB31FAC91BB27A7FDF9
:10474000B0958A179B07F9F421153105C9F06A0164
:104750007B01E21AF30AE40EF51E412C512CD6011E
:104760006D906D01D7017D907D01671006C0BFEF90
:104770004B1A5B0A4216530690F34216530699F6FB
:10478000B582A482B4CF232B71F6B1CF8FEF9FEF08
:10479000DF91CF911F910F91FF90EF90DF90CF901D
:1047A000BF90AF909F908F907F906F905F904F9051
:1047B0000895CF93DF9300D000D000D0CDB7DEB7FF
:1047C000FE01319626E0DF011D922A95E9F77A83F2
:1047D00069835C834B8341E050E0BF010E943C232E
:1047E00021E0892B09F020E0822F26960FB6F8945D
:1047F000DEBF0FBECDBFDF91CF910895FB010190C9
:104800000020E9F7AF0141505109461B570B0C94AA
:10481000D923FC01808191810C94E929CF93DF9306
:10482000EC0188819981009711F00E94E929198291
:1048300018821D821C821B821A82DF91CF910895FB
:104840000F931F93CF93DF93EC018B016F5F7F4F2B
:10485000888199810E94782A009731F09983888312
:104860001B830A8381E001C080E0DF91CF911F911B
:104870000F910895CF93DF93EC0188819981892B63
:1048800029F08A819B818617970760F4CE010E94E8
:104890002024882341F08C819D81892B19F4E881A3
:1048A000F981108281E0DF91CF910895EF92FF921C
:1048B0000F931F93CF93DF93EC017B018A01BA0121
:1048C0000E943A24811104C0CE010E940E2407C028
:1048D0001D830C83B701888199810E94962BCE019C
:1048E000DF91CF911F910F91FF90EF900895FC0100
:1048F0001182108213821282158214826115710551
:1049000059F0FB0101900020E9F7AF014150510936
:10491000461B570B0C9456240895EF92FF920F9369
:104920001F93CF93DF93EC017B018A01BA010E94B0
:104930003A24811104C0CE010E940E2407C01D83B9
:104940000C83B701888199810E94692BCE01DF9188
:10495000CF911F910F91FF90EF900895CF93DF9328
:10496000EC01FB018617970761F060817181611589
:10497000710529F0448155810E94562402C00E948D
:104980000E24CE01DF91CF910895FC011182108297
:1049900013821282158214820C94AE24CF93DF937B
:1049A000EC016115710561F0FB0101900020E9F750
:1049B000AF0141505109461B570B0E94562402C0BB
:1049C0000E940E24CE01DF91CF9108950F931F9383
:1049D000CF93DF93CDB7DEB729970FB6F894DEBF3C
:1049E0000FBECDBF8C01862FF80111821082138279
:1049F00012821582148250E0BE016F5F7F4F90E0FB
:104A00000E94E22BBE016F5F7F4FC8010E94CE243F
:104A100029960FB6F894DEBF0FBECDBFDF91CF91C0
:104A20001F910F9108950F931F93CF93DF93CDB7ED
:104A3000DEB762970FB6F894DEBF0FBECDBF8C0114
:104A4000CB01F80111821082138212821582148226
:104A500050E0BE016F5F7F4F0E94B72BBE016F5FBA
:104A60007F4FC8010E94CE2462960FB6F894DEBF35
:104A70000FBECDBFDF91CF911F910F910895EF929F
:104A8000FF920F931F93CF93DF93CDB7DEB7A1971C
:104A90000FB6F894DEBF0FBECDBF7C01CB01BA01CB
:104AA000F70111821082138212821582148242E071
:104AB000420F8E010F5F1F4F0E943029BC01C701BA
:104AC0000E94CE24A1960FB6F894DEBF0FBECDBFD4
:104AD000DF91CF911F910F91FF90EF9008950F9369
:104AE0001F93CF93DF9300D0CDB7DEB78C01611554
:104AF000710561F0CB0169837A830E94702BAC0150
:104B000069817A81C8010E948D2402C00E940E240E
:104B1000C8010F900F90DF91CF911F910F910895D1
:104B2000EF92FF920F931F93CF93DF93EC017B01E2
:104B30000C811D816115710511F480E016C04115CD
:104B4000510591F0040F151FB8010E943A248823E3
:104B5000A1F3288139818C819D81B701820F931F38
:104B60000E94962B1D830C8381E0DF91CF911F91D2
:104B70000F91FF90EF900895FB0144815581608172
:104B800071810C9490256115710559F0FB0101901C
:104B90000020E9F7AF0141505109461B570B0C9417
:104BA000902580E00895CF93DF9300D0CDB7DEB796
:104BB00069831A8241E050E0BE016F5F7F4F0E941F
:104BC00090250F900F90DF91CF910895EF92FF9273
:104BD0000F931F93CF93DF93EC017B016115710558
:104BE00011F480E01BC0CB010E94702B0097A9F04C
:104BF0000C811D81080F191FB801CE010E943A24B3
:104C0000882379F3288139818C819D81B701820FB6
:104C1000931F0E94692B1D830C8381E0DF91CF914C
:104C20001F910F91FF90EF900895CF93DF93EC01C8
:104C3000FB0144815581608171810E949025811121
:104C400003C0CE010E940E24CE01DF91CF910895C2
:104C5000CF93DF93EC016115710569F0FB010190C1
:104C60000020E9F7AF0141505109461B570B0E9444
:104C70009025811103C0CE010E940E24CE01DF9148
:104C8000CF910895FC0124813581232B31F421E05B
:104C900061157105A1F0FB0108C0FC0180819181C3
:104CA0006115710531F421E0FC018081882339F020
:104CB00005C00E948D2B21E0892B09F020E0822F76
:104CC0000895FC01848195816817790720F480811B
:104CD0009181009729F41092D60586ED95E008950C
:104CE000860F971F0895CF93DF93FC0184819581F0
:104CF0004817590778F4C081D181772767FD7095EF
:104D0000CE01840F951F0E94822B009719F08C1BF7
:104D10009D0B02C08FEF9FEFDF91CF91089540E090
:104D200050E00C947326CF93DF93FC01848195812E
:104D30004817590778F4C081D181FB0160817181E6
:104D4000CE01840F951F0E949D2B009719F08C1B9C
:104D50009D0B02C08FEF9FEFDF91CF91089540E050
:104D600050E00C949326BF92CF92DF92EF92FF9285
:104D70000F931F93CF93DF936C017B01EA018901AD
:104D80002417350720F48D2FE901042F182F6CEF1D
:104D900073E0C6010E947724D70114968D919C91EF
:104DA0001597C817D907C8F48017910708F48C0124
:104DB000D701ED91FC911197E00FF11FB0801082A7
:104DC0006D917C916C0F7D1FC6010E94CE24D7018E
:104DD000ED91FC91E00FF11FB082C601DF91CF9100
:104DE0001F910F91FF90EF90DF90CF90BF900895AB
:104DF000FC0180819181009711F00C94422B60E0BE
:104E000070E0CB0108955058BB27AA270ED01CC1D3
:104E10000DD130F012D120F031F49F3F11F41EF487
:104E200002C10EF4E095E7FBF8C0E92F1ED180F334
:104E3000BA17620773078407950718F071F49EF597
:104E400036C10EF4E0950B2EBA2FA02D0B01B9013F
:104E500090010C01CA01A0011124FF27591B99F0F0
:104E6000593F50F4503E68F11A16F040A22F232FFC
:104E7000342F4427585FF3CF469537952795A7954C
:104E8000F0405395C9F77EF41F16BA0B620B730BF3
:104E9000840BBAF09150A1F0FF0FBB1F661F771F64
:104EA000881FC2F70EC0BA0F621F731F841F48F419
:104EB000879577956795B795F7959E3F08F0B3CF9F
:104EC0009395880F08F09927EE0F97958795089589
:104ED0000CD0BAC0B2D040F0A9D030F021F45F3F7E
:104EE00019F09BC05111E4C09EC0BFD098F3992324
:104EF000C9F35523B1F3951B550BBB27AA2762179E
:104F00007307840738F09F5F5F4F220F331F441FE2
:104F1000AA1FA9F333D00E2E3AF0E0E830D091501A
:104F20005040E695001CCAF729D0FE2F27D0660F07
:104F3000771F881FBB1F261737074807AB07B0E846
:104F400009F0BB0B802DBF01FF2793585F4F2AF05C
:104F50009E3F510568F061C0ABC05F3FECF3983EE7
:104F6000DCF3869577956795B795F7959F5FC9F7B9
:104F7000880F911D9695879597F90895E1E0660F42
:104F8000771F881FBB1F621773078407BA0720F0BB
:104F9000621B730B840BBA0BEE1F88F7E095089524
:104FA000E89409C097FB3EF49095809570956195C3
:104FB0007F4F8F4F9F4F9923A9F0F92F96E9BB2779
:104FC0009395F695879577956795B795F111F8CFF5
:104FD000FAF4BB0F11F460FF1BC06F5F7F4F8F4F60
:104FE0009F4F16C0882311F096E911C0772321F056
:104FF0009EE8872F762F05C0662371F096E8862FEE
:1050000070E060E02AF09A95660F771F881FDAF744
:10501000880F9695879597F9089597F99F6780E887
:1050200070E060E008959FEF80EC089500240A94FA
:105030001616170618060906089500240A94121673
:105040001306140605060895092E0394000C11F4A6
:10505000882352F0BB0F40F4BF2B11F460FF04C053
:105060006F5F7F4F8F4F9F4F089557FD9058440FAC
:10507000551F59F05F3F71F04795880F97FB991FB7
:1050800061F09F3F79F08795089512161306140674
:10509000551FF2CF4695F1DF08C016161706180601
:1050A000991FF1CF86957105610508940895E894DC
:1050B000BB2766277727CB0197F908950BD0C4CF7C
:1050C000B5DF28F0BADF18F0952309F0A6CFABCFF3
:1050D0001124EECFCADFA0F3959FD1F3950F50E0D6
:1050E000551F629FF001729FBB27F00DB11D639F9A
:1050F000AA27F00DB11DAA1F649F6627B00DA11D40
:10510000661F829F2227B00DA11D621F739FB00DE5
:10511000A11D621F839FA00D611D221F749F332755
:10512000A00D611D231F849F600D211D822F762FEE
:105130006A2F11249F5750408AF0E1F088234AF0EB
:10514000EE0FFF1FBB1F661F771F881F9150504037
:10515000A9F79E3F510570F060CFAACF5F3FECF3F7
:10516000983EDCF3869577956795B795F795E79523
:105170009F5FC1F7FE2B880F911D9695879597F934
:10518000089597FB072E16F4009407D077FD09D0F9
:105190000E94162907FC05D03EF4909581959F4FFB
:1051A0000895709561957F4F0895A1E21A2EAA1B6C
:1051B000BB1BFD010DC0AA1FBB1FEE1FFF1FA217C7
:1051C000B307E407F50720F0A21BB30BE40BF50BC4
:1051D000661F771F881F991F1A9469F7609570954D
:1051E000809590959B01AC01BD01CF010895052EDE
:1051F00097FB1EF400940E940E2957FD07D00E94D1
:10520000D52807FC03D04EF40C940E2950954095F8
:10521000309521953F4F4F4F5F4F08959095809562
:10522000709561957F4F8F4F9F4F0895AA1BBB1BB1
:1052300051E107C0AA1FBB1FA617B70710F0A61B96
:10524000B70B881F991F5A95A9F780959095BC01B7
:10525000CD010895EE0FFF1F0590F491E02D099404
:10526000EF920F931F93CF93DF93E80147FF02C0A4
:1052700034E101C034E0E42FFF27E7FDF095F7FFAC
:1052800003C0F195E195F109E32E022F2E2FAE0117
:105290000E941D2CCE01DF91CF911F910F91EF90B5
:1052A0000895CF93DF938230910510F482E090E06F
:1052B000E091D905F091DA0520E030E0A0E0B0E01F
:1052C000309739F14081518148175907B8F0481794
:1052D000590771F482819381109729F013969C935A
:1052E0008E9312972CC09093DA058093D90527C02E
:1052F0002115310531F04217530718F0A901DB01E0
:1053000001C0EF019A01BD01DF010280F381E02DB0
:10531000D7CF21153105F9F0281B390B2430310581
:1053200080F48A819B816115710521F0FB019383D3
:10533000828304C09093DA058093D905FE013296EA
:1053400044C0FE01E20FF31F819391932250310973
:10535000398328833AC02091D7053091D805232B73
:1053600041F420910201309103013093D80520933C
:10537000D70520910001309101012115310541F43B
:105380002DB73EB74091040150910501241B350B08
:10539000E091D705F091D805E217F307A0F42E1B92
:1053A0003F0B2817390778F0AC014E5F5F4F241789
:1053B000350748F04E0F5F1F5093D8054093D7052F
:1053C0008193919302C0E0E0F0E0CF01DF91CF91B3
:1053D0000895CF93DF93009709F487C0FC013297BB
:1053E00013821282C091D905D091DA05209781F4F9
:1053F00020813181280F391F8091D7059091D805E0
:105400008217930779F5F093D805E093D7056DC01F
:10541000DE0120E030E0AE17BF0750F412964D9148
:105420005C9113979D014115510509F1DA01F3CF04
:10543000B383A28340815181840F951F8A179B07F4
:1054400071F48D919C911197840F951F0296918311
:10545000808312968D919C9113979383828321155B
:10546000310529F4F093DA05E093D9053EC0D9015E
:105470001396FC93EE9312974D915D91A40FB51F77
:10548000EA17FB0779F480819181840F951F0296BA
:10549000D90111969C938E938281938113969C934C
:1054A0008E931297E0E0F0E08A819B81009719F0DB
:1054B000FE01EC01F9CFCE01029628813981820FDD
:1054C000931F2091D7053091D8052817390769F423
:1054D000309729F41092DA051092D90502C0138290
:1054E0001282D093D805C093D705DF91CF9108954C
:1054F000A0E0B0E0EEE7FAE20C94872EEC01CB01DD
:10550000209719F40E945129B8C0FE01E60FF71F39
:105510009E0122503109E217F30708F4ACC0D9010B
:105520000D911C91119706171707B8F0053011055A
:1055300008F49FC0A801445051094617570708F4C2
:1055400098C002501109061B170B019311936D931C
:105550007C93CF010E94E9298CC05B01A01AB10A9B
:105560004E01800E911EA091D905B091DA05612CF3
:10557000712C60E070E0109709F449C0A815B905D6
:10558000C9F5ED90FC901197670142E0C40ED11C63
:10559000CA14DB0478F147018A189B08640142E0D1
:1055A000C40ED11C1296BC9012971396AC91B5E024
:1055B000CB16D10440F0B282A38391828082D901BC
:1055C0008D939C9309C00E5F1F4F0E0D1F1DF90197
:1055D00011830083EB2DFA2F6115710531F0DB018A
:1055E0001396FC93EE93129744C0F093DA05E09380
:1055F000D9053FC06D917C9111976616770608F426
:105600003B01BD0112960D90BC91A02DB4CF6091CD
:10561000D7057091D80568157905E9F468167906FB
:10562000D0F440910001509101014115510541F420
:105630004DB75EB76091040170910501461B570B91
:10564000E417F507C0F4F093D805E093D705F90106
:10565000918380830EC00E9451297C01009759F0EC
:10566000A801BE010E94792BCE010E94E929C70141
:1056700004C0CE0102C080E090E0CDB7DEB7EEE01E
:105680000C94A32E1F93FC0199278827BC01E89452
:1056900011911032E9F3193010F01E30C8F31B32AB
:1056A00051F01D3249F4689406C00E94CD2B610F61
:1056B000711D811D911D119110531A30B0F33EF4EC
:1056C00090958095709561957F4F8F4F9F4F1F915B
:1056D0000895FB01DC0105900D920020E1F708958B
:1056E000FC0105900020E9F7809590958E0F9F1F93
:1056F0000895FB01DC0102C001900D924150504021
:10570000D8F70895FC018191861721F08823D9F7F5
:10571000992708953197CF010895FB01DC018D9100
:10572000019080190110D9F3990B0895FB01DC0158
:1057300001900D920020E1F70895FB01519155234E
:10574000A9F0BF01DC014D9145174111E1F759F472
:10575000CD010190002049F04D9140154111C9F350
:10576000FB014111EFCF81E090E0019708954532B0
:10577000510520F4423010F00C94C22BFB01108232
:10578000CB010895BB274A3031F4992322F4BDE2BE
:10579000909581959F4F0C94EE2B592F482F372FC2
:1057A000262F660F771F881F991F660F771F881F88
:1057B000991F620F731F841F951F660F771F881F25
:1057C000991F08954532510520F4423010F00C9491
:1057D000ED2BFB011082CB010895BB27FB01552760
:1057E000AA27880F991FAA1FA41710F0A41B83953E
:1057F0005051B9F7A05DAA3308F0A95DA1930097B5
:1058000079F7B111B1931192CB010C94732EF999E0
:10581000FECF92BD81BDF89A992780B50895262FB5
:10582000F999FECF1FBA92BD81BD20BD0FB6F89485
:10583000FA9AF99A0FBE019608956F927F929F92FD
:10584000AF92BF92CF92DF92EF92FF920F931F938E
:10585000CF93DF93CDB7DEB729970FB6F894DEBFAD
:105860000FBECDBF6A01B22E102F0C3320F4FF24DF
:10587000F394F00E02C04CE3F42E0F2D27E0AE019E
:105880004F5F5F4F0E949B2D7981272F2970213018
:1058900031F0E1FC06C0E0FC06C060E005C06DE24E
:1058A00003C06BE201C060E2AE2DA07173FF36C091
:1058B000662311F084E001C083E08B1510F4B81A60
:1058C00001C0B12CA1110BC0F6018B2D90E28823F1
:1058D00019F091938150FBCFCB0CD11CB12C6623D6
:1058E00031F0F601608396012F5F3F4F6901C601D9
:1058F0000396E2FE05C02EE4F601208331E404C0E5
:105900002EE6F601208331E631832283FC012B2D24
:1059100030E22223F1F131932150FBCF72FF40C0DE
:10592000662311F084E001C083E08B1510F4B81AEF
:1059300001C0B12CA1110BC0F6018B2D90E2882380
:1059400019F091938150FBCFCB0CD11CB12C662365
:1059500031F0F601608396012F5F3F4F6901C60168
:105960000396E2FE07C029E4F60120832EE421839A
:1059700026E406C029E6F60120832EE6218326E6EA
:105980002283FC012B2D30E2222319F03193215088
:10599000FBCFFC01EB0DF11D10828EEF9FEFB7C026
:1059A000B1E0611101C0B0E04B2F50E018161906AC
:1059B00024F49C012F5F3F4F02C021E030E0240F10
:1059C000351F112329F0412F50E04F5F5F4F02C078
:1059D00040E050E0420F531F2B2D30E04217530799
:1059E00014F4B41A01C0B12C2E2D287159F4F6010B
:1059F0002B2D30E2222319F031932150FBCFCB0C19
:105A0000D11CB12CBB2331F0F601608396012F5FCE
:105A10003F4F6901A1110BC0F6012B2D30E322236A
:105A200019F031932150FBCFCB0CD11CB12CF80EC7
:105A30000A81372F3071A32E74FF03C0013309F49C
:105A4000FA941F142CF42F2D293018F028E001C0EF
:105A500021E0682F392F97FF02C060E030E0462F29
:105A6000532F612C712C3EE2932EBC01621B7109F5
:105A70009B01DC01A41BB50BE1E0F0E0EC0FFD1F86
:105A8000AE0FBF1FE12EF12CF194E194F1084F3FCE
:105A9000FFEF5F0731F4F6019082B6016F5F7F4F31
:105AA0006B01841795074CF02417350734F4BD01BA
:105AB000660D771DFB01118101C010E341505109B2
:105AC000FFEF6F1A7F0AB6016F5F7F4F4E155F05BC
:105AD00024F0F60110836B01DACF4817590739F427
