:100000000C94FC020C94861F0C94B31F0C949D1D41
:100010000C949D1D0C949D1D0C94F8090C942403C4
:100020000C9424030C9424030C9424030C942403B4
:100030000C9424030C942E1F0C9424030C9424037E
:100040000C94E01F0C9424030C94EA220C941C23BF
:100050000C9424030C9424030C9424030C94240384
:100060000C9424030C94240343005465706C6F7447
:10007000613A004E4F54204A4F494E454421204397
:100080006865636B206E6574776F726B206F72208A
:10009000706172616D657465727321004E6F206BC3
:1000A00065797320656E7472792100627573792E9B
:1000B0002E2E004E6F2066726565206368616E6E3D
:1000C000656C2C207265747279696E672E2E2E0015
:1000D0004177616B652100545258204F4B005469A1
:1000E0006D6520746F6F20686967682100496E76BE
:1000F000616C69642074696D652100506172616D85
:100100006574657273207375636365737366756C6C
:100110007920736176656421006D61632073617677
:1001200065004144523A0044523A00566F6C746183
:1001300067653A005472616E736369657665723AF9
:100140000046572076657273696F6E3A004C4942DB
:100150002076657273696F6E3A004170706C6963E6
:100160006174696F6E204555493A0044657669634C
:100170006520616464726573733A004465766963EF
:1001800065204555493A002A2A2A2A2A5061726177
:100190006D65746572732073746F72656420696E27
:1001A00020466C6173683A2A2A2A2A2A0053656E0F
:1001B00064696E6720746F20706F727420005061E4
:1001C000796C6F61643A0053656E64696E67207480
:1001D0006F20706F727420005061796C6F61643AA7
:1001E000002073746F72656420746F20454550520F
:1001F0004F4D004E657720706F72743A00506F72E9
:1002000074206F7574206F662072616E67652100BF
:10021000506F77657220736176656421006D61634C
:1002200020736176650041445220736176656421D4
:10023000006D6163207361766500445220736176BE
:10024000656421006D61632073617665004D6F64A4
:10025000652073746F72656420746F204545505239
:100260004F4D00556E737570706F72746564206DBC
:100270006F646500446174613A00506F72743A00B3
:100280004E6F20646174612E005265706561742048
:100290006D6573736167653A00446F776E6C696E64
:1002A0006B207465737465642100466972737420F1
:1002B000636F6D6D756E69636174696F6E202E2E4C
:1002C0002E006D61632067657420646576657569CD
:1002D000002A2A2A2A2A2A2A2A2A2A2A2A2A2A2AA8
:1002E0002A2A2A2A2A2A2A2A2A2A2A2A2A2A2A2A6E
:1002F0002A2A2A2A2A2A2A2A2A0073797320676539
:1003000074207665720046572076657273696F6E49
:100310003A002A2A2A2A2A2A2A2A2A2A2A2A5365F3
:100320006E736F722072656164792A2A2A2A2A2ADA
:100330002A2A2A2A2A2A00372E53656E64207061E1
:10034000796C6F61643A090973656E64553A64614A
:10035000746128686578290D0A00362E536574206B
:10036000706F72743A0909706F72743A312D3235B8
:10037000350D0A00352E4A6F696E2047573A090934
:100380006D6163206A6F696E205B6162702C6F74AF
:1003900061615D0D0A00342E417070206B65793A01
:1003A00009096D61632073657420617070736B65FA
:1003B000790D0A00332E4E6574776F726B206B6572
:1003C000793A09096D616320736574206E776B73E8
:1003D0006B65790D0A00322E446576204555493A01
:1003E00009096D61632073657420646576657569BC
:1003F0000D0A00312E446576204164647265737382
:100400003A09096D616320736574206465766164DF
:1004100064720D0A002A2A2A2A2A2A2A2A2A2A2A21
:100420002A2A2A2A2A48454C502A2A2A2A2A2A2AAB
:100430002A2A2A2A2A2A2A2A0D0A00524E32343817
:1004400033206E6F74206465746563746564210085
:10045000524E3234383320636869702064657465A5
:100460006374656421007379732067657420766511
:1004700072002A2A2A2A2A2A2A2A2A2A2A2A4C6F57
:10048000526120524E32343833207365742A2A2A3E
:100490002A2A2A2A2A2A2A2A2A00000000080002D8
:1004A000010000030407000000000000000001023A
:1004B00004081020408001020408102001020408F2
:1004C00010200404040404040404020202020202D0
:1004D0000303030303030000000023002600290098
:1004E00000000000250028002B0000000000240070
:1004F00027002A0000407A10F35A00A0724E180913
:100500000010A5D4E80000E87648170000E40B547A
:10051000020000CA9A3B000000E1F5050000809649
:100520009800000040420F000000A086010000007B
:10053000102700000000E803000000006400000035
:1005400000000A00000000000100000000002C76FE
:10055000D888DC674F0823DFC1DFAE59E1B1B79619
:10056000E5E3E453C63AE651997696E8E6C2842676
:10057000EB898C9B62ED407C6FFCEFBC9C9F40F252
:10058000BAA56FA5F490055A2AF75C936B6CF967CE
:100590006DC11BFCE0E40D47FEF520E6B500D0ED93
:1005A000902E0300943577050080841E08000020FB
:1005B0004E0A000000C80C333333330F986E128399
:1005C0001141EF8D2114893BE65516CFFEE6DB186D
:1005D000D1844B381BF77C1D901DA4BBE424203232
:1005E00084725E228100C9F124ECA1E53D27350724
:1005F000C60B4C234B07CD0B11241FBECFEFD8E009
:10060000DEBFCDBF14E0A0E0B1E0E4E1F0E602C05F
:1006100005900D92A031B107D9F725E0A0E1B4E033
:1006200001C01D92A13EB207E1F715E0C4EFD5E08D
:1006300004C02297FE010E946F2ACE3ED107C9F75F
:100640000E9490230C94FD2F0C940000809168046C
:10065000882349F08091790490917A0401969093CF
:100660007A04809379040895CF93DF93EC01FB0122
:10067000248135810E94F627CE01DF91CF91089524
:100680008F929F92AF92BF92CF92DF92EF92FF92A2
:100690000F931F93CF93DF93CDB7DEB72C970FB691
:1006A000F894DEBF0FBECDBF88E10FB6F8948093FB
:1006B0006000109260000FBE11E0109367048BE1A0
:1006C00094E00E94BB1910936904E1E8F0E080E136
:1006D00080831092800085E080932F058FEF9FEF3D
:1006E0009093310580933005909387008093860026
:1006F00085E180831093680486E293E090932E0551
:1007000080932D0510936F0067E071E0CE01019694
:100710000E94BA25BE016F5F7F4F8BE194E00E947B
:10072000C30BCE0101960E944C2580E194E00E940B
:100730007F0800E114E0F80161857285882777FD64
:100740008095982F0E94152920E030E040E251E486
:100750000E94AB286B017C01F801678170858827B6
:1007600077FD8095982F0E94152920E030E040E227
:1007700051E40E94AB284B015C016AE670E08FE314
:1007800095E00E94DD2321E0B701A601CE0101968C
:100790000E948226BE016F5F7F4F8FE395E00E942B
:1007A0000224CE0101960E944C25E0913F05F09174
:1007B00040050190F081E02D60EB8FE395E0099515
:1007C00068E670E08FE395E00E941B2421E0B5010C
:1007D000A401CE0107960E9482266DE071E0CE0151
:1007E00001960E94BA25BE01695F7F4FCE01019636
:1007F0000E94582766E171E00E946B27BC018FE3DD
:1008000095E00E942D24CE0101960E944C25CE0138
:1008100007960E944C252C960FB6F894DEBF0FBEAB
:10082000CDBFDF91CF911F910F91FF90EF90DF909F
:10083000CF90BF90AF909F908F9008954F925F920E
:100840006F927F928F929F92AF92BF92CF92DF92E0
:10085000EF92FF920F931F93CF93DF93CDB7DEB745
:100860002C970FB6F894DEBF0FBECDBF8C0163E0AE
:1008700074E0CE0107960E94BA2563E074E0C801D7
:100880000E94BA2580E194E00E947F0860911704DD
:1008900070911804882777FD8095982F0E9415295C
:1008A00020E030E040E251E40E94AB282B013C0103
:1008B0006091190470911A04882777FD8095982F0C
:1008C0000E94152920E030E040E251E40E94AB286C
:1008D000AB01BC0121E0CE0101960E948226BE013F
:1008E0006F5F7F4FCE0107960E94F125CE010196E2
:1008F0000E944C2521E030E040E050E0BE01695FFD
:100900007F4FCE0101960E94F62768E171E0CE018B
:1009100001960E948527F82ECE0101960E944C2553
:10092000FF20D1F06AE171E0C8010E94112641E088
:1009300050E0BE01695F7F4FCE0101960E943403F3
:10094000BE016F5F7F4FCE0107960E94F125CE0159
:1009500001960E944C2505C06EEA72E0C8010E9413
:1009600011266AE273E0CE0101960E94BA25BE010B
:100970006F5F7F4FCE0107960E94F2275C01CE0188
:1009800001960E944C25BB24950140E050E0BE0139
:10099000695F7F4FCE0101960E94F627CE01019636
:1009A0000E943B286B017C01CE0101960E944C25E0
:1009B00080E1C816D1042CF46BE071E0C8010E94FC
:1009C000062740E1B601CE0101960E945626BE01DF
:1009D0006F5F7F4FC8010E94FF26CE0101960E94E3
:1009E0004C25A5014F5F5F4FBE01695F7F4FCE0170
:1009F00001960E943403CE0101960E943B282AE012
:100A0000269F7001279FF00C1124CE0101960E94B1
:100A10004C2580E1E816F1042CF46BE071E0C8018C
:100A20000E94062740E1B701CE0101960E9456269A
:100A3000BE016F5F7F4FC8010E94FF26CE01019665
:100A40000E944C2521E0B301A201CE0101960E9433
:100A50008226BE016F5F7F4FCE0107960E94F1256F
:100A6000CE0101960E944C256AE273E0CE01019608
:100A70000E94BA25BE016F5F7F4FCE0107960E948C
:100A8000F2275C01CE0101960E944C25BB24950102
:100A900040E050E0BE01695F7F4FCE0101960E94A9
:100AA000F627CE0101960E943B286B017C01CE0106
:100AB00001960E944C2580E1C816D1042CF46BE00D
:100AC00071E0C8010E94062740E1B601CE010196FF
:100AD0000E945626BE016F5F7F4FC8010E94FF260D
:100AE000CE0101960E944C25A5014F5F5F4FBE01CC
:100AF000695F7F4FCE0101960E943403CE010196BB
:100B00000E943B282AE0269F7001279FF00C1124A9
:100B1000CE0101960E944C2580E1E816F1042CF4E8
:100B20006BE071E0C8010E94062740E1B701CE01E9
:100B300001960E945626BE016F5F7F4FC8010E943A
:100B4000FF26CE0101960E944C25CE0107960E94F9
:100B50004C25C8012C960FB6F894DEBF0FBECDBF52
:100B6000DF91CF911F910F91FF90EF90DF90CF9089
:100B7000BF90AF909F908F907F906F905F904F90BD
:100B80000895FF920F931F93CF93DF93CDB7DEB7F6
:100B900063970FB6F894DEBF0FBECDBF8C0163E044
:100BA00074E00E94BA2563E074E0CE010D960E94C5
:100BB000BA256BE174E0CE0101960E941219BE01C4
:100BC0006F5F7F4FCE010D960E94F125CE010196F9
:100BD0000E944C2521E030E040E050E0BE01635F20
:100BE0007F4FCE0101960E94F6276EEA72E0CE0199
:100BF00001960E948527F82ECE0101960E944C2571
:100C0000FF2011F03FEF01C037EF42E050E0BE019E
:100C1000635F7F4FCE0101963B8B0E943403BE0180
:100C20006F5F7F4FC8010E94F125CE0101960E949F
:100C30004C256BE174E0CE0101960E945718BE016D
:100C40006F5F7F4FC8010E94FF26CE0101960E9470
:100C50004C258BE194E00E94D10B6DE171E08AE8B4
:100C600094E00E943F246BE174E0CE0101960E9463
:100C7000E40BBE016F5F7F4FCE010D960E94F12500
:100C8000CE0101960E944C2569E271E0CE010D96DD
:100C90000E9485273B89811101C03F776CE271E09A
:100CA0008AE894E03B8B0E943F246BE174E0CE0124
:100CB00001960E94E40BBE016F5F7F4FCE010D963F
:100CC0000E94F125CE0101960E944C25CE010D9681
:100CD0000E943B28262F2295207F2F683B892323C3
:100CE00040E1622FCE0107962B8B0E942926BE0180
:100CF000695F7F4FCE0101960E940826B801CE01A0
:100D000001960E945827BC01C8010E94F125CE011E
:100D100001960E944C25CE0107960E944C252B89F6
:100D2000203198F46BE071E0CE0101960E94BA2563
:100D3000B801CE0101960E945827BC01C8010E944B
:100D4000F125CE0101960E944C25CE0101960E940C
:100D50001E04BE016F5F7F4FCE010D960E94F125EC
:100D6000CE0101960E944C2542E050E0BE01635F37
:100D70007F4FCE0101960E943403BE016F5F7F4F0B
:100D8000C8010E94FF26CE0101960E944C2521E059
:100D900030E040E050E0BE01635F7F4FCE0101963E
:100DA0000E94F6276AE171E0CE0101960E94852734
:100DB000F82ECE0101960E944C2561E0F11001C091
:100DC00060E08CE06B8B0E947C216B89019709F0BD
:100DD00062608EE06B8B0E94C7206B898C3B9240D7
:100DE0000CF0646040E1CE0107960E9429266BE07A
:100DF00071E0CE0101960E94BA25BE01695F7F4F66
:100E0000CE0101960E945827BC01C8010E94FF260E
:100E1000CE0101960E944C25CE0107960E944C25DA
:100E200067E371E0CE0101960E94BA25B801CE01B8
:100E300001960E945827BC018FE395E00E942D2463
:100E4000CE0101960E944C25CE010D960E944C25A4
:100E5000C80163960FB6F894DEBF0FBECDBFDF9119
:100E6000CF911F910F91FF90089563E074E083E8A4
:100E700094E00E94BA2563E074E08DE794E00E945C
:100E8000BA2561E08BE194E00E94150A6AE080E1F6
:100E900094E00C945A088DE594E00E944C2587E577
:100EA00094E00E944C2581E594E00E944C258BE45F
:100EB00094E00E944C2585E494E00E944C258FE349
:100EC00094E00E944C2589E394E00E944C2583E342
:100ED00094E00E944C258DE294E00E944C2587E22C
:100EE00094E00E944C2581E294E00E944C258BE125
:100EF00094E00E944C258DE794E00E944C2583E805
:100F000094E00C944C251F93CF93DF9300D000D036
:100F100000D0CDB7DEB780917104882319F1CE01DE
:100F200001960E94C105BE016F5F7F4F83E894E088
:100F30000E94F125CE0101960E944C2580E180930C
:100F4000810063E874E0CE0101960E940826BE018C
:100F50006F5F7F4F8BE194E00E94DA10CE01019623
:100F60000E944C258091790490917A0405973CF178
:100F700010927A0410927904CE0101960E94C10564
:100F8000BE016F5F7F4F83E894E00E94F125CE01A0
:100F900001960E944C2581E08093710463E874E01F
:100FA000CE0101960E940826BE016F5F7F4F8BE144
:100FB00094E00E94DA10CE0101960E944C258FE346
:100FC00095E00E94A521181619060CF057C08FE372
:100FD00095E00E94BE2180937C04682F8FE395E00A
:100FE0000E94102460917C048DE794E00E941627F3
:100FF00080917C048A3009F041C010927A041092EA
:10100000790420918104309182042250310940E01A
:1010100050E06DE774E0CE0101960E94F627BE0114
:101020006F5F7F4F8DE794E00E94F125CE0101961E
:101030000E944C256DE774E0CE0101960E940826BF
:10104000BE016F5F7F4F8BE194E00E94A811182FC3
:10105000CE0101960E944C2511110AC010927A040B
:10106000109279046DE774E08AE894E00E942D24E0
:1010700063E074E08DE794E00E9411268AE894E032
:101080000E94461D181619065CF48AE894E00E9436
:10109000BA1C80937B04682F8FE395E00E94102494
:1010A00026960FB6F894DEBF0FBECDBFDF91CF916D
:1010B0001F910895CF93DF93EC0170E0FB01E2559F
:1010C000FB4FE491E883FB01EE53FB4FE491F0E02A
:1010D000EE0FFF1FEA52FB4F859194919A8389830B
:1010E0000E942A206B837C838D839E838DE19CEFFD
:1010F00098878F839A878987DF91CF9108957F9210
:101100008F929F92AF92BF92CF92DF92EF92FF9217
:101110000F931F93CF93DF93CDB7DEB7A9970FB689
:10112000F894DEBF0FBECDBF7C01FC017080018151
:1011300012810E942A206E01FAE2CF0ED11CFE011C
:1011400031961192EC15FD05E1F7F701838094804B
:10115000A580B6809B01AC01281939094A095B09B1
:1011600049015A0130ED831637E09306A104B1041A
:1011700008F4D8C06383748385839683F894F80158
:101180008181B72CB0948B2181837894EEE7AE2EC9
:1011900082E090E00E948120F8018081872129F47B
:1011A000AA94B1F781E090E0C2C0F894F80182817E
:1011B0008B21828381818729818378948CE494E0D8
:1011C0000E948120F894F80181818B218183789499
:1011D0007AE1B72E82E090E00E948120F8018081C0
:1011E000872129F4BA94B1F782E090E0A0C063E3CC
:1011F000B62E82E090E00E948120F8018081872154
:1012000029F0BA94B1F783E090E091C09E012F5F7E
:101210003F4F590154E2952E82E090E00E948120D8
:10122000F8018081872129F49A94B1F784E090E055
:101230007EC0912C939482E090E00E948120F8017E
:101240008081872131F0F3E39F12F4CF85E090E0B5
:101250006EC0F50191925F01EC15FD05D9F6FE0116
:1012600032968FE090E040E050E021E030E0619184
:101270006C3048F0B901082E02C0660F771F0A943F
:10128000E2F7462B572B019790F7FE0172968FE0FD
:1012900090E020E030E061E070E0A191AC3048F0F7
:1012A000DB01082E02C0AA0FBB1F0A94E2F72A2B0B
:1012B0003B2B019790F7FE01B29687E090E060E04B
:1012C000A1E0B0E071917C3038F08D01082E01C0B2
:1012D000000F0A94EAF7602B0197A0F7CA019F77E5
:1012E000F7019087878337FF08C0C9019F779195E1
:1012F000819591099287818703C0F7013287218701
:1013000070E0852F9927840F911D432F5527840F57
:10131000951F820F911D99276817790731F480E096
:1013200090E005C087E090E002C086E090E0A996DA
:101330000FB6F894DEBF0FBECDBFDF91CF911F91E6
:101340000F91FF90EF90DF90CF90BF90AF909F9064
:101350008F907F9008954115510529F4EAE7F0E058
:1013600080818F7780836A307105B1F063FF02C09E
:1013700088E201C088E06770682B88E190E00FB6D2
:10138000F894A895809360000FBE60936000E0E63B
:10139000F0E0808180648083232BA1F483B7817F78
:1013A000846083BFF89483B7816083BF85B780660C
:1013B00085BF8F7D85BF7894889583B78E7F83BFE7
:1013C00078940EC083B7817F846083BFF89483B71D
:1013D000816083BF7894889583B78E7F83BF78942C
:1013E000452B29F4EAE7F0E0808180688083089546
:1013F0001F920F920FB60F9211248F9388E10FB6B0
:10140000F89480936000109260000FBE8F910F904F
:101410000FBE0F901F901895089560E085E00C9422
:1014200046210C944A2D0C94522D1F93CF93DF9399
:10143000EC01162F63E074E00E94BA2563E074E0CB
:10144000CE0106960E94BA2563E074E0CE010C96A8
:101450000E94BA2563E074E0CE0142960E94BA254C
:1014600063E074E0CE0148960E94BA2560E471E022
:10147000CE014E960E94BA2563E074E0CE018496B8
:101480000E94BA2563E074E0CE018A960E94BA25D4
:1014900063E074E0CE01C0960E94BA2565E471E075
:1014A000CE01C6960E94BA2563E074E0CE01CC96C8
:1014B0000E94BA2563E074E0CE018E5B9F4F0E94CC
:1014C000BA25FE01EA5AFF4F1082359681E08083EB
:1014D000C35ADF4F1883DF91CF911F910895AF92C8
:1014E000BF92CF92DF92EF92FF920F931F93CF9311
:1014F000DF9300D000D000D0CDB7DEB76C018B01F8
:1015000060E085E00E94462122E030E040E050E0CB
:10151000B801CE0101960E94F62769E471E0CE0180
:1015200001960E948527F82ECE0101960E944C2537
:10153000FF20A1F061E089E00E94462168EC70E0A4
:1015400080E090E00E94592060E089E00E944621FE
:1015500069E972E08FE395E00E941B2422E030E00D
:1015600040E050E0B801CE0101960E94F6276CE4FD
:1015700071E0CE0101960E948527F82ECE010196DA
:101580000E944C25FF2009F49BC042E050E0B801C6
:10159000CE0101960E943403BE016F5F7F4FC801E8
:1015A0000E94F125CE0101960E944C25C8010E949F
:1015B0003B28B801CE0101960E9408268601025EF2
:1015C0001F4FBE016F5F7F4FC8010E94F125CE0102
:1015D00001960E944C25E12CF12C84E0A82EB12C20
:1015E000F60182A193A19501281B390BE216F3069F
:1015F000B8F46BE071E0CE0101960E94BA25B80103
:10160000CE0101960E945827BC01C8010E94F12515
:10161000CE0101960E944C252FEFE21AF20AE0CF8C
:101620006FE471E0CE0101960E94BA25B801CE01A7
:1016300001960E9458276CE772E00E946B27BC015C
:101640008FE395E00E942D24CE0101960E944C2547
:10165000C12CD12C76013FEFE31AF30AC7010E9497
:10166000110AB82EB601C8010E94A4274B2D50E0E4
:10167000FC012081332727FD30954217530739F4A9
:10168000F4E0EF16F10409F45EC06701E3CFE12C4A
:10169000F12CB701C8010E94A4272FEFE21AF20A29
:1016A000FC016081C7010E94130AF4E0EF16F10407
:1016B00081F76BE571E08FE395E00E943F2443C022
:1016C00022E030E040E050E0B801CE0101960E94F7
:1016D000F6276DE671E0CE0101960E948527F82E6F
:1016E000CE0101960E944C25FF2061F169E872E06D
:1016F0008FE395E00E94DD2342E050E0B801CE0187
:1017000001960E943403BE016F5F7F4FC8010E94A3
:10171000F125CE0101960E944C2560E771E0CE01D3
:1017200001960E94BA25B801CE0101960E94582761
:10173000BC018FE395E00E942D24CE0101960E940A
:101740004C2501C001C081E026960FB6F894DEBF9B
:101750000FBECDBFDF91CF911F910F91FF90EF9002
:10176000DF90CF90BF90AF90089560E084E00E943A
:10177000462164E670E080E090E00E94592061E03C
:1017800084E00C9446210C960C94F12520E048E06E
:1017900067E08AE894E00C94701E8AE894E00C9468
:1017A000171E8AE894E00E94461D181619065CF47C
:1017B00062E070E080E090E00E9459208AE894E0C6
:1017C0000E94BA1CEECF0895EF92FF920F931F93E1
:1017D000CF93DF9300D000D000D0CDB7DEB78C011F
:1017E0007B0163E074E00E94BA258AE894E00E94DD
:1017F000461D1816190634F060E070E0CB010E9417
:101800005920F3CF8CE5E80EF11C8AE894E00E94A1
:10181000461D1816190664F58AE894E00E94BA1C61
:10182000F7018083682FC8010E94162760E070E0EE
:10183000CB010E9459200E94551FF70180818A30F8
:1018400021F7F801248135812250310940E050E030
:10185000B801CE0101960E94F627BE016F5F7F4F4F
:10186000C8010E94F125CE0101960E944C25CDCFE2
:10187000C80126960FB6F894DEBF0FBECDBFDF912C
:10188000CF911F910F91FF90EF900895CF92DF922B
:10189000EF92FF920F931F93CF93DF93CDB7DEB7F5
:1018A0002C970FB6F894DEBF0FBECDBF8C017B0125
:1018B0006A0163E074E0CE0107960E94BA2566E7EC
:1018C00071E0CE0101960E94BA25B601CE010196C3
:1018D0000E945827BC018AE894E00E942D24CE0182
:1018E00001960E944C25B701CE0101960E94E40B9F
:1018F000BE016F5F7F4FCE0107960E94F125CE019A
:1019000001960E944C2560E871E0CE0107960E9486
:1019100085279701255B3F4F6901882371F0F90105
:1019200010826CE970E08FE395E00E941B246EE862
:1019300071E0C8010E94BA251CC065E971E08AE81F
:1019400094E00E944125882321F081E0F601808304
:1019500008C0F601108263E770E08FE395E00E9413
:101960001B24C7010E94D10B6FE472E0C8010E94E2
:10197000BA25CE0107960E944C25C8012C960FB6B9
:10198000F894DEBF0FBECDBFDF91CF911F910F91B5
:10199000FF90EF90DF90CF9008955F926F927F92CB
:1019A0008F929F92AF92BF92CF92DF92EF92FF926F
:1019B0000F931F93CF93DF93CDB7DEB762970FB628
:1019C000F894DEBF0FBECDBF7C018B0163E074E0F5
:1019D000CE010D960E94BA258FE090E00E94110A78
:1019E00098012A5C3F4F69018F3F91F465E471E0F3
:1019F000C9010E94112638013BE4630E711C580195
:101A000089E5A80EB11C4801ECE48E0E911C19C0AA
:101A10006CE971E0C9010E941126EDCFC8010E9456
:101A2000B50BB801CE0101960E94E40BBE016F5FB9
:101A30007F4FCE010D960E94F125CE0101960E94A6
:101A40004C2593E0592EF301808181113DC0F501B1
:101A500080819181019691838083B601CE010796A2
:101A60000E940826AE01495F5F4FB801CE01019682
:101A70000E94460CBE016F5F7F4FCE010D960E9403
:101A8000F125CE0101960E944C25CE0107960E94B9
:101A90004C256EE871E0CE010D960E9485278823C3
:101AA00031F06EE871E0C7010E94BA2515C05A9462
:101AB00051F6F4018081882309F4B0CF61EA71E026
:101AC000C7010E94BA2508C0C8010E94D10B6FE46B
:101AD00072E0C7010E94BA25CE010D960E944C25E6
:101AE000C70162960FB6F894DEBF0FBECDBFDF917F
:101AF000CF911F910F91FF90EF90DF90CF90BF900B
:101B0000AF909F908F907F906F905F9008954F92CD
:101B10005F926F927F928F929F92AF92BF92CF927D
:101B2000DF92EF92FF920F931F93CF93DF93CDB786
:101B3000DEB762970FB6F894DEBF0FBECDBF6C0163
:101B40007B014A015901380163E074E0CE010D9632
:101B50000E94BA258701005D1F4F63E074E0C80151
:101B60000E94112627018BE4480E511CF20180814E
:101B7000811129C0B701CE0101960E94CD0CBE0192
:101B80006F5F7F4FCE010D960E94F125CE01019629
:101B90000E944C256EE871E0CE010D960E948527CB
:101BA000882331F06EE871E0C6010E94BA2562C157
:101BB0006FE472E0CE010D960E948527882319F00C
:101BC00081E0F201808360EC71E0C4010E9485270E
:101BD0008823D9F062EC71E0CE0101960E94BA250B
:101BE000B501CE0101960E94582769E772E00E9474
:101BF0006B27B3010E945827BC018AE894E00E9439
:101C00002D24CE0101960E944C2560ED71E0C401A7
:101C10000E9485278823D9F062ED71E0CE010196FC
:101C20000E94BA25B501CE0101960E94582769E7A6
:101C300072E00E946B27B3010E945827BC018AE81A
:101C400094E00E942D24CE0101960E944C25B701FC
:101C5000CE0101960E94E40BBE016F5F7F4FCE0163
:101C60000D960E94F125CE0101960E944C256EED45
:101C700071E0CE0101960E94BA25BE01635F7F4FDD
:101C8000CE0101960E945827BC018FE395E00E9487
:101C90002D24CE0101960E944C2560EF71E0CE010B
:101CA0000D960E9485278823D9F0F2011082B70192
:101CB000CE0101960E94CD0CBE016F5F7F4FCE0119
:101CC0000D960E94F125CE0101960E944C256EE8EA
:101CD00071E0CE010D960E948527811163CF46C029
:101CE00062E072E0CE010D960E948527882379F08C
:101CF00063EB70E08FE395E00E941B24F2011082F9
:101D00006DE072E08AE894E00E943F2416C067E12B
:101D100072E0CE010D960E948527882369F16BEA57
:101D200070E08FE395E00E941B246DE072E08AE88A
:101D300094E00E943F24F2011082B701CE01019687
:101D40000E94E40BBE016F5F7F4FCE010D960E9493
:101D5000F125CE0101960E944C25B701CE010196D6
:101D60000E94CD0CCE0101960E944C256BEF71E0D4
:101D7000C6010E94BA257EC06CE172E0CE010D96CC
:101D80000E948527882331F06AE272E0C6010E9432
:101D9000BA2570C064E670E080E090E00E945920AF
:101DA000B701CE0101960E94E40BBE016F5F7F4F29
:101DB000CE010D960E94F125CE0101960E944C2580
:101DC00069E372E0CE0101960E94BA25BE01635F0D
:101DD0007F4FCE0101960E945827BC018FE395E00A
:101DE0000E942D24CE0101960E944C2568E472E0E9
:101DF000CE010D960E948527811137C047E050E043
:101E0000BE01635F7F4FCE0101960E943403BE0185
:101E10006F5F7F4FC8010E94F125CE0101960E949D
:101E20004C2560E2C8010E94D22799270196AC0197
:101E3000B801CE0107960E94340381E0F20180834D
:101E4000BE01695F7F4FCE0101960E940826BE0148
:101E50006F5F7F4FC7010E946F0ACE0101960E94FB
:101E60004C25CE0107960E944C256FE472E0C60116
:101E70000E94BA25CE010D960E944C25C60162969D
:101E80000FB6F894DEBF0FBECDBFDF91CF911F918B
:101E90000F91FF90EF90DF90CF90BF90AF909F9009
:101EA0008F907F906F905F904F9008958F929F9248
:101EB000AF92BF92CF92DF92EF92FF920F931F9358
:101EC000CF93DF93CDB7DEB72C970FB6F894DEBF74
:101ED0000FBECDBF8C014B0188E10FB6F894809303
:101EE0006000109260000FBEC8010E94D10B62E535
:101EF00072E08AE894E00E943F24B801CE01019686
:101F00000E94E40B580182E4A80EB11CBE016F5F71
:101F10007F4FC5010E94F125CE0101960E944C25FC
:101F200060E672E0CE0101960E94BA25B501CE01AD
:101F300001960E945827BC018FE395E00E942D2452
:101F4000CE0101960E944C25C4010E943B286B01E2
:101F50007C01B401C8014E960E94F125C701B6016B
:101F60000E94152920E030E64AE657E40E94A129A4
:101F700020E030E240E855E40E944628AB01BC0175
:101F800020E0CE0107960E9482266BE672E0CE0129
:101F900001960E94BA25B401CE0101960E945827ED
:101FA0006BE772E00E946B27BC018FE395E00E9413
:101FB0002D24CE0101960E944C2561E872E0CE01ED
:101FC00001960E94BA25BE01695F7F4FCE0101963E
:101FD0000E945827BC018AE894E00E942D24CE017B
:101FE00001960E944C2564E670E080E090E00E943B
:101FF000592060E08DE00E944621F801E35BFF4F2D
:102000001082399610823497108261E085E00E9438
:10201000462143E050E06CE07AE080E00E94561FE9
:1020200041E050E06DE07AE081E00E94561F88E1D7
:102030000FB6F89480936000109260000FBE20E00D
:1020400030E040E050E06AE070E089E894E00E940F
:10205000AB0980E00E94761F81E00E94761FF801A4
:10206000EA5AFF4FFF24F394F08285E00E947C211E
:10207000F801EE5AFF4F892B09F04FC0F082C801DA
:102080000E94B50B8AE894E00E94461D18161906B6
:10209000CCF76CE872E08AE894E00E94412588233E
:1020A000C1F367ED70E08FE395E00E941B24B80157
:1020B000CE0101960E94E40BCE0101960E944C25B0
:1020C00062E370E080E090E00E94592063E972E0F2
:1020D000CE0101960E94BA25B501CE0101960E945B
:1020E0005827BC018AE894E00E942D24CE01019675
:1020F0000E944C258AE894E00E94461D1816190695
:10210000CCF76FE472E08AE894E00E9441258823CE
:10211000C1F3F801E55BFF4F1082C8010E94D10BAB
:1021200061E08DE00E94462162EA72E08AE894E074
:102130000E943F2420E030E040E050E066E070E0A4
:1021400089E894E00E94AB098AE894E00E94461D69
:1021500018161906CCF7B801CE0101960E94E40BBF
:102160006FE472E0CE0101960E948527182FCE0100
:1021700001960E944C25112331F060ED70E08FE351
:1021800095E00E941B24CE0107960E944C252C96B8
:102190000FB6F894DEBF0FBECDBFDF91CF911F9178
:1021A0000F91FF90EF90DF90CF90BF90AF909F90F6
:1021B0008F900895CF92DF92EF92FF920F931F932B
:1021C000CF93DF93CDB7DEB7A4970FB6F894DEBFF9
:1021D0000FBECDBF7C018B0163E074E0CE014F9652
:1021E0000E94BA2563E074E0CE0149960E94BA25A8
:1021F000670186E5C80ED11CF6011082B801CE0138
:1022000049960E94F12561EB72E0CE0101960E9491
:10221000BA25BE01675E7F4FCE0101960E94582706
:10222000BC018FE395E00E942D24CE0101960E940F
:102230004C25BE01675E7F4FCE0107960E9408269F
:10224000B7016E5E7F4FCE010D960E94082660ECAE
:1022500071E0CE0143960E94BA258E01095F1F4F9F
:102260009E01235F3F4FAE014D5E5F4FB701CE0130
:1022700001960E94870DBE016F5F7F4FCE014F9682
:102280000E94F125CE0101960E944C25CE01439675
:102290000E944C25CE010D960E944C25C8010E943B
:1022A0004C256EEB72E0CE0101960E94BA25BE016C
:1022B000615E7F4FCE0101960E945827BC018FE3DB
:1022C00095E00E942D24CE0101960E944C256BEFD3
:1022D00071E0CE014F960E948527882331F081E07E
:1022E000F6018083359780831CC0F701E95AFF4FC0
:1022F00080819181019691838083C7010E94D10BD7
:10230000B701625E7F4FCE0101960E940826BE0192
:102310006F5F7F4FC7010E94560FCE0101960E944A
:102320004C25CE0149960E944C25CE014F960E9425
:102330004C25A4960FB6F894DEBF0FBECDBFDF913B
:10234000CF911F910F91FF90EF90DF90CF90089564
:102350009F92AF92BF92CF92DF92EF92FF920F9334
:102360001F93CF93DF93CDB7DEB7A4970FB6F89442
:10237000DEBF0FBECDBF7C018B012CE030E040E022
:1023800050E0CE0101960E94F62762EC72E0CE0189
:1023900001960E948527D82ECE0101960E944C25D9
:1023A000DD20B1F14CE050E0B801CE0101960E9471
:1023B0003403BE016F5F7F4FC8010E94F125CE013B
:1023C00001960E944C2569E271E0C8010E948527B0
:1023D000882351F081E0F701E65BFF4F80836FEFC8
:1023E00081E190E00E94130A6FEC72E0C8010E9444
:1023F0008527882309F4EFC4F701E65BFF4F81E0EE
:10240000808360E081E190E00E94130A81E03DC694
:1024100063ED72E0C8010E948527882309F461C03A
:1024200063E074E0CE0107960E94BA25B701605DB3
:102430007F4FCE0101960E940826BE016F5F7F4F3D
:10244000CE0107960E94F125CE0101960E944C25EF
:102450008B859C85029738F460E872E08FE395E005
:102460000E941B24B4C460E2CE0107960E94D227CA
:102470008C016AE772E08FE395E00E94DD2311276B
:10248000980140E050E0BE01695F7F4FCE010196A8
:102490000E94F627BE016F5F7F4F8FE395E00E9499
:1024A0002D24CE0101960E944C2564E772E08FE353
:1024B00095E00E94DD23A8014F5F5F4FBE01695F79
:1024C0007F4FCE0101960E943403BE016F5F7F4FA4
:1024D0008FE395E00E942D24CE0101960E944C25A9
:1024E00076C429E030E040E050E0B801CE0101962A
:1024F0000E94F6276CED72E0CE0101960E948527BE
:10250000D82ECE0101960E944C25DD2009F44DC045
:1025100049E050E0B801CE0101960E943403BE01AB
:102520006F5F7F4FC8010E94F125CE0101960E9486
:102530004C2565E471E0C8010E948527882369F075
:102540008FE090E00E94110A8F3F09F444C46FEFBE
:102550008FE090E00E94130A1CC06CE971E0C80192
:102560000E948527882369F08FE090E00E94110A7D
:10257000882309F430C460E08FE090E00E94130AE1
:1025800008C063E672E08FE395E00E941B2481E0BF
:102590007CC5F701E55BFF4F10826DE472E08FE3CD
:1025A00095E00E941B2481E070C523E030E040E00C
:1025B00050E0B801CE0101960E94F62763EF72E069
:1025C000CE0101960E948527D82ECE0101960E9449
:1025D0004C25DD2009F45CC043E050E0B801CE0199
:1025E00001960E943403BE016F5F7F4F8701065D35
:1025F0001F4FC8010E94F125CE0101960E944C2573
:1026000066EE72E0CE0101960E94BA25B801CE01B5
:1026100001960E945827BC018AE894E00E942D246C
:10262000CE0101960E944C25B701CE0101960E9471
:10263000E40B6FE472E0CE0101960E948527182F0B
:10264000CE0101960E944C25112309F4C4C364E411
:1026500072E08AE894E00E941B24B701CE01019643
:102660000E94E40B6FE472E0CE0101960E94852780
:10267000182FCE0101960E944C25112309F4ABC3FB
:102680006AE372E08FE395E00E941B2481E0FDC4C1
:1026900024E030E040E050E0B801CE0101960E9415
:1026A000F62762EF72E0CE0101960E948527D82EB0
:1026B000CE0101960E944C25DD2009F459C044E06A
:1026C00050E0B801CE0101960E943403BE016F5F55
:1026D0007F4FC8010E94F125CE0101960E944C2532
:1026E00067EF72E0CE0101960E94BA25B801CE01D3
:1026F00001960E945827BC018AE894E00E942D248C
:10270000CE0101960E944C25B701CE0101960E9490
:10271000E40B6FE472E0CE0101960E948527182F2A
:10272000CE0101960E944C25112309F454C361E3A4
:1027300072E08AE894E00E941B24B701CE01019662
:102740000E94E40B6FE472E0CE0101960E9485279F
:10275000182FCE0101960E944C25112309F43BC38A
:1027600066E272E08FE395E00E941B2481E08DC455
:1027700026E030E040E050E0B801CE0101960E9432
:10278000F62764E073E0CE0101960E948527D82EDB
:10279000CE0101960E944C25DD2009F45BC046E085
:1027A00050E0B801CE0101960E943403BE016F5F74
:1027B0007F4FC8010E94F125CE0101960E944C2551
:1027C0006BE073E0CE0101960E94BA25B7016C5D03
:1027D0007F4FCE0101960E945827BC018AE894E001
:1027E0000E942D24CE0101960E944C25B701CE01F6
:1027F00001960E94E40B6FE472E0CE0101960E9404
:102800008527182FCE0101960E944C25112309F42B
:10281000E2C26DE172E08AE894E00E941B24B701F5
:10282000CE0101960E94E40B6FE472E0CE010196A6
:102830000E948527182FCE0101960E944C25112356
:1028400009F4C9C260E172E08FE395E00E941B24A5
:1028500081E01BC425E030E040E050E0B801CE014B
:1028600001960E94F6276BE173E0CE0101960E946B
:102870008527D82ECE0101960E944C25DD2009F433
:1028800042C045E050E0B801CE0101960E943403F9
:10289000BE016F5F7F4FC8010E94F125CE010196F6
:1028A0000E944C2522E1E20EF11CB801C7010E94F2
:1028B000F125C7010E943B28673E710581059105FE
:1028C00044F06DEF71E08FE395E00E941B2480E0FF
:1028D000DCC3C7010E943B288AE090E00E94130AF3
:1028E00063EF71E08FE395E00E94DD23B8018FE391
:1028F00095E00E94022461EE71E08FE395E00E9472
:102900001B2481E0C2C326E030E040E050E0B80183
:10291000CE0101960E94F62761E273E0CE01019696
:102920000E948527D82ECE0101960E944C25DD20DD
:1029300009F483C063E074E0CE014F960E94BA258B
:1029400046E050E0B801CE0101960E943403BE017A
:102950006F5F7F4FC8010E94F125CE0101960E9452
:102960004C2568ED71E08FE395E00E94DD23B8010E
:102970008FE395E00E942D24B801C7010E94F12544
:1029800067EC71E08FE395E00E94DD2387010E5E26
:102990001F4FB8018FE395E00E94022468E273E0C4
:1029A0008FE395E00E943F24B701CE010D960E946F
:1029B0000826B801CE0143960E94082660EC71E01B
:1029C000CE0149960E94BA258E01035F1F4F9E01DA
:1029D0002D5E3F4FAE01475E5F4FB701CE010796B8
:1029E0000E94870D6CE273E0CE0101960E94BA2529
:1029F000BE01695F7F4FCE0101960E945827BC013E
:102A00008FE395E00E942D24CE0101960E944C2573
:102A1000CE0107960E944C25CE0149960E944C2576
:102A2000CE0143960E944C25C8010E944C25CE0140
:102A30004F960E944C2581E028C326E030E040E01C
:102A400050E0B801CE0101960E94F62767E373E0DB
:102A5000CE0101960E948527D82ECE0101960E94B4
:102A60004C25DD2009F48BC061E089E00E944621FD
:102A700063E074E0CE014F960E94BA2546E050E034
:102A8000B801CE0101960E943403BE016F5F7F4FF3
:102A9000C8010E94F125CE0101960E944C256EEBE3
:102AA00071E08FE395E00E94DD23B8018FE395E0AC
:102AB0000E942D24B801C7010E94F1256DEA71E042
:102AC0008FE395E00E94DD2387010E5E1F4FB80162
:102AD0008FE395E00E94022468E273E08FE395E0C3
:102AE0000E943F24B701CE010D960E940826B8012E
:102AF000CE0143960E94082660ED71E0CE01499612
:102B00000E94BA258E01035F1F4F9E012D5E3F4F2D
:102B1000AE01475E5F4FB701CE0107960E94870D59
:102B20006CE273E0CE0101960E94BA25BE01695F96
:102B30007F4FCE0101960E945827BC018FE395E09C
:102B40000E942D24CE0101960E944C25CE010796AD
:102B50000E944C25CE0149960E944C25CE014396F9
:102B60000E944C25C8010E944C2560E089E00E942B
:102B70004621CE014F960E944C2581E086C26EE32D
:102B800073E0C8010E948527882309F426C163E009
:102B900074E0CE0107960E94BA2567E871E08FE3E2
:102BA00095E00E941B246BE771E08FE395E00E94A3
:102BB000DD2363E473E08AE894E00E943F24B701D8
:102BC000CE0101960E94E40BBE016F5F7F4FCE01E4
:102BD00007960E94F125CE0101960E944C25BE0168
:102BE000695F7F4F8FE395E00E942D246BE671E0D3
:102BF0008FE395E00E94DD2362E573E08AE894E0CC
:102C00000E943F24B701CE0101960E94E40BBE0151
:102C10006F5F7F4FCE0107960E94F125CE0101968E
:102C20000E944C25BE01695F7F4F8FE395E00E94B3
:102C30002D246AE571E08FE395E00E94DD2362E6D2
:102C400073E08AE894E00E943F24B701CE01019628
:102C50000E94E40BBE016F5F7F4FCE0107960E947A
:102C6000F125CE0101960E944C25BE01695F7F4F80
:102C70008FE395E00E942D246DE471E08FE395E0F1
:102C80000E94DD2361E773E08FE395E00E943F241B
:102C900061E471E08FE395E00E94DD23B701645F9A
:102CA0007F4F8FE395E00E942D2464E371E08FE372
:102CB00095E00E94DD2365E773E08AE894E00E94D6
:102CC0003F24B701CE0101960E94E40BBE016F5F65
:102CD0007F4FCE0107960E94F125CE0101960E94FA
:102CE0004C25BE01695F7F4F8FE395E00E942D2444
:102CF0006BE271E08FE395E00E94DD2361E873E011
:102D00008AE894E00E943F24B701CE0101960E9418
:102D1000E40BBE016F5F7F4FCE0107960E94F12545
:102D2000CE0101960E944C25BE01695F7F4F8FE363
:102D300095E00E9402246DE873E08FE395E00E9425
:102D40003F2467E271E08FE395E00E94DD236CE2AF
:102D500071E08AE894E00E943F24B701CE01019619
:102D60000E94E40BBE016F5F7F4FCE0107960E9469
:102D7000F125CE0101960E944C25BE01695F7F4F6F
:102D80008FE395E00E942D2462E271E08FE395E0ED
:102D90000E94DD236DE171E08AE894E00E943F2407
:102DA000B701CE0101960E94E40BBE016F5F7F4F19
:102DB000CE0107960E94F125CE0101960E944C2576
:102DC000BE01695F7F4F8FE395E00E942D24CE0105
:102DD00007960E944C2581E058C160E973E0C80164
:102DE0000E948527882309F46BC063E074E0CE015C
:102DF00007960E94BA2569E171E08AE894E00E9492
:102E00001B248AE894E00E94461D18161906CCF788
:102E10003CE5E30EF11C8AE894E00E94461D18167A
:102E200019060CF046C08AE894E00E94BA1CF7012B
:102E30008083682FCE0107960E941627F7018081B4
:102E40008A3049F72B853C852250310940E050E01B
:102E5000BE01695F7F4FCE0101960E94F627BE0139
:102E60006F5F7F4FCE0107960E94F125CE0101963C
:102E70000E944C256EED71E0CE0101960E94BA25AC
:102E8000BE01695F7F4FCE0101960E945827BC01A9
:102E90008FE395E00E942D24CE0101960E944C25DF
:102EA0006FE472E0CE0107960E9485278111B3CFAF
:102EB0008ECF6BEF70E08FE395E00E941B2487CFED
:102EC00026E030E040E050E0B801CE0101960E94DB
:102ED000F62765E973E0CE0101960E948527D82E7A
:102EE000CE0101960E944C25DD20F9F046E050E02D
:102EF000B801CE0101960E943403BE016F5F7F4F7F
:102F0000C8010E94F125CE0101960E944C25F801CE
:102F100084819581892B31F1C8010E943B281616C6
:102F200017061806190634F11DC06CE973E0C801D4
:102F30000E948527882349F0B701685E7F4F8FE3A1
:102F400095E00E942D2481E0A0C061E172E0C801FB
:102F50000E948527882321F0C7010E94B50B3BCF33
:102F600080E093C06DEE70E08FE395E00E941B243B
:102F700081E08BC0C8010E943B2860317742810507
:102F8000910544F06EED70E08FE395E00E941B2404
:102F900081E07BC06701FEE1CF0ED11CB801C60104
:102FA0000E94F12500E010E024E0A22EB12CF701F0
:102FB00082A193A19501281B390B02171307B0F4C6
:102FC0006BE071E0CE0101960E94BA25B601CE01F8
:102FD00001960E945827BC01C6010E94F125CE012E
:102FE00001960E944C250F5F1F4FE1CF6FE471E007
:102FF000CE0101960E94BA25B601CE0101960E942B
:1030000058276CE772E00E946B27BC018FE395E0C4
:103010000E942D24CE0101960E944C25A12CB12C9A
:1030200085010F5F1F4FC8010E94110A982EB5013C
:10303000C6010E94A427492D50E0FC0120813327BE
:1030400027FD30954217530729F404301105C1F0CC
:103050005801E6CF00E010E0B801C6010E94A427A5
:103060000F5F1F4FFC016081C8010E94130A0430EA
:10307000110591F76BE571E08FE395E00E943F2425
:10308000F701EA5AFF4F81E08083A4960FB6F894C7
:10309000DEBF0FBECDBFDF91CF911F910F91FF908B
:1030A000EF90DF90CF90BF90AF909F900895AF9238
:1030B000BF92CF92DF92EF92FF920F931F93CF9325
:1030C000DF93CDB7DEB762970FB6F894DEBF0FBEC1
:1030D000CDBF8C017B0163E074E0CE010D960E94B0
:1030E000BA2563E074E0CE0107960E94BA2563E03A
:1030F00074E0C8010E94BA258AE894E00E94461D47
:10310000181619062CF48AE894E00E94BA1CF4CF31
:1031100061E873E08AE894E00E943F24B701CE01A1
:1031200001960E94E40BBE016F5F7F4FCE010D96AA
:103130000E94F125CE0101960E944C2522E030E04C
:1031400040E050E0BE01635F7F4FCE0101960E94D8
:10315000F627CE0101960E943B286B017C01CE012F
:1031600001960E944C2580E1C816D1042CF46BE036
:1031700071E0C8010E94062740E1B601CE01019628
:103180000E945626BE016F5F7F4FC8010E94FF2636
:10319000CE0101960E944C2542E050E0BE01635FE3
:1031A0007F4FCE0101960E943403CE0101960E940A
:1031B0003B286B017C01CE0101960E944C2580E1E9
:1031C000C816D1042CF46BE071E0C8010E940627F8
:1031D00040E1B601CE0101960E945626BE016F5F06
:1031E0007F4FC8010E94FF26CE0101960E944C2508
:1031F000CE0107960E944C25CE010D960E944C25CB
:10320000C80162960FB6F894DEBF0FBECDBFDF9146
:10321000CF911F910F91FF90EF90DF90CF90BF90D3
:10322000AF900895CF92DF92EF92FF920F931F938A
:10323000CF93DF93CDB7DEB72C970FB6F894DEBFF0
:103240000FBECDBF8C017B0163E074E0CE01079619
:103250000E94BA2563E074E0C8010E94BA258AE89A
:1032600094E00E94461D181619062CF48AE894E092
:103270000E94BA1CF4CF61EA73E08AE894E00E94ED
:103280003F24B701CE0101960E94E40BBE016F5F9F
:103290007F4FCE0107960E94F125CE0101960E9434
:1032A0004C2521E030E040E050E0BE01695F7F4FF7
:1032B000CE0101960E94F62768E171E0CE010196E9
:1032C0000E948527F82ECE0101960E944C25FF20F2
:1032D000D1F06AE171E0C8010E94062741E050E0A8
:1032E000BE01695F7F4FCE0101960E943403BE018B
:1032F0006F5F7F4FCE0107960E94F125CE010196A8
:103300000E944C2505C06EEA72E0C8010E940627A3
:10331000CE0107960E943B286B017C0180E1C81614
:10332000D1042CF46BE071E0C8010E94062740E153
:10333000B601CE0101960E945626BE016F5F7F4FF7
:10334000C8010E94FF26CE0101960E944C25CE01A5
:1033500007960E944C25C8012C960FB6F894DEBF44
:103360000FBECDBFDF91CF911F910F91FF90EF90D6
:10337000DF90CF9008958F929F92AF92BF92CF929D
:10338000DF92EF92FF920F931F93CF93DF93CDB70E
:10339000DEB76E970FB6F894DEBF0FBECDBF7C01CF
:1033A00060E082E00E940D2161E08DE00E940D212D
:1033B00061E089E00E940D2161E084E00E940D211E
:1033C00060E084E00E94462161E089E00E9446219D
:1033D00061E08DE00E94462160E971E080E090E0CC
:1033E0000E94592061E084E00E94462161E089E06A
:1033F0000E94462126E040E052EC61E070E08FE35D
:1034000095E00E94882240E051EE60E070E08AE89A
:1034100094E00E94A01E62E774E08FE395E00E94B2
:103420001B248AE894E00E94461D1816190684F4AD
:103430008AE894E00E94BA1C682F8FE395E00E940E
:10344000102465E070E080E090E00E945920E9CF10
:1034500066E674E08AE894E00E941B2468EC70E061
:1034600080E090E00E9459206CE872E08AE894E0E5
:103470000E944125882309F466C060E574E08FE36B
:1034800095E00E941B24F701E35AFF4F80818130B1
:1034900009F060C065E174E08701085E1F4FC80154
:1034A0000E94B22663EF73E0C8010E94292766EDEF
:1034B00073E0C8010E94292764EB73E0C8010E94F1
:1034C000292766E973E0C8010E94292764E773E0B1
:1034D000C8010E9429276AE573E0C8010E942927D4
:1034E00067E373E0C8010E942927B8018FE395E0E4
:1034F0000E94022462E173E08FE395E00E941B24A6
:1035000066E073E08FE395E00E941B246AEF72E0AF
:103510008AE894E00E941B2462E370E080E090E07F
:103520000E945920B701CE0101960E94E40BBE0112
:103530006F5F7F4F8FE395E00E942D24CE010196AF
:103540000E944C2507C06BE374E08FE395E00E9476
:103550001B24FFCF6CED75E080E090E00E945920C5
:1035600060E089E00E94462163E074E0C7010696AE
:103570000E941126B701CE0107960E9457186FEAE4
:1035800073E0CE0101960E94BA25BE01695F7F4FAC
:10359000CE0101960E945827BC018FE395E00E945E
:1035A0002D24CE0101960E944C25CE0107960E9443
:1035B0004C25B701CE0107960E9412196DEB73E0FE
:1035C000CE0101960E94BA25BE01695F7F4FCE01F0
:1035D00001960E945827BC018FE395E00E942D249C
:1035E000CE0101960E944C25CE0107960E944C25E3
:1035F00061ED72E08FE395E00E941B2457012BE4FC
:10360000A20EB11CF501108280E090E00E94110A28
:103610009701225E3F4F69018C3AD1F000E010E043
:10362000B801C6010E94A4270F5F1F4FFC016081F3
:10363000C8010E94130A0430110591F76CEA80E07A
:1036400090E00E94130A6FEF81E190E00E94130A5C
:1036500000E010E0B801C6010E94A4274C010F5FF2
:103660001F4FC8010E94110AF40180830430110524
:1036700089F767EC73E0CE0101960E94BA25B60186
:10368000CE0101960E945827BC018FE395E00E946D
:103690002D24CE0101960E944C256701F2E1CF0E48
:1036A000D11C63E074E0C6010E9411268AE090E01C
:1036B0000E94110A4AE0682FCE0101960E94292635
:1036C000BE016F5F7F4FC6010E94F125CE010196BA
:1036D0000E944C258AE090E00E94110A8F3F29F455
:1036E0006EE671E0C6010E94112663ED73E0CE0123
:1036F00001960E94BA25B601CE0101960E94582774
:10370000BC018FE395E00E942D24CE0101960E941A
:103710004C258FE090E00E94110A97012A5C3F4FF0
:103720008F3F31F465E471E0C9010E94112605C0A4
:103730006CE971E0C9010E94112681E190E00E94CC
:10374000110A8701065B1F4F8F3F21F481E0F801CA
:10375000808302C0F801108263E074E0CE014996D4
:103760000E94BA25F501108281E0F701E45BFF4F6A
:103770008083B701CE0101960E94CD0CBE016F5F20
:103780007F4FCE0149960E94F125CE0101960E94FD
:103790004C25BE01675E7F4F8FE395E00E942D248C
:1037A0006FE472E0CE0149960E948527882309F4D0
:1037B000BAC0C7010E94D10BF8018081811105C0F8
:1037C000F701E45BFF4F1082AEC062EC72E08AE862
:1037D00094E00E941B24B701CE0101960E94E40BE5
:1037E000BE016F5F7F4FCE0149960E94F125CE0149
:1037F00001960E944C2569ED73E0CE0101960E946E
:10380000BA25BE01675E7F4FCE0101960E94582700
:10381000BC018FE395E00E942D24CE0101960E9409
:103820004C256AEA72E08FE395E00E941B24BE01FA
:10383000675E7F4FCE0107960E940826B601CE0133
:103840000D960E9408265E01F3E1AF0EB11C60ECFC
:1038500071E0C5010E94BA258E01095F1F4F9E01CC
:10386000235F3F4FA501B701CE0101960E94870D4E
:10387000BE016F5F7F4FCE0149960E94F125CE01B8
:1038800001960E944C25C5010E944C25CE010D9643
:103890000E944C25C8010E944C256FE472E0CE01C5
:1038A00049960E94852781118BCF6EE871E0CE0189
:1038B00049960E948527811183CFBE01675E7F4FA5
:1038C000CE0107960E940826B601CE010D960E94F1
:1038D000082660EC71E0C5010E94BA258E01095FDF
:1038E0001F4F9E01235F3F4FA501B701CE010196F7
:1038F0000E94870D6FE472E0CE0101960E94852739
:10390000182FCE0101960E944C25C5010E944C251E
:10391000CE010D960E944C25CE0107960E944C25A3
:10392000112359F24DCF8FE395E00E94A52118167F
:1039300019062CF48FE395E00E94BE21F4CF8FE3AB
:1039400095E00E940122CE0149960E944C256E9678
:103950000FB6F894DEBF0FBECDBFDF91CF911F91A0
:103960000F91FF90EF90DF90CF90BF90AF909F901E
:103970008F90089520912B0530912C052817390739
:10398000B9F49091A9048091AA04981789F0E09164
:10399000A904F0E0E555FB4F80812091A90430E0B7
:1039A0002F5F3F4F2F7733272093A90490E008958E
:1039B0008FEF9FEF08951F93CF93DF93DC015C9609
:1039C0008D919C915D97009749F481E090E013966A
:1039D0009C938E93129780E090E03BC05196ED91BE
:1039E000FC91529750962C915097322F30951FB7DB
:1039F0005E964C915E9741FB772770F941FD60958B
:103A0000F8944081772311F0422B01C04323408377
:103A1000EC012197F1F748E0508160FF02C0522B82
:103A200001C053235083EC012197F1F76695415073
:103A300099F78081772311F0832301C0822B808343
:103A40001FBF5C968D919C915D970197F1F781E086
:103A500090E0DF91CF911F910895089520912B055B
:103A600030912C052817390771F49091A9048091A1
:103A7000AA04981741F0E091A904F0E0E555FB4F46
:103A8000808190E008958FEF9FEF089520912B059E
:103A900030912C052817390771F48091AA042091E0
:103AA000A90490E080589F4F821B910960E870E064
:103AB0000E94042A089580E090E00895E0912B058B
:103AC000F0912C05E817F90769F4A389B4899C9152
:103AD0008589809589238C9310922C0510922B0553
:103AE00081E0089580E00895CF93DF93EC018A8D03
:103AF0009B8D892BF1F080912B0590912C058C17D3
:103B00009D07B9F0009711F00E945E1D8E8D8E7F8B
:103B10008E8F1092AA041092A904D0932C05C09302
:103B20002B05EB89FC8980819D89892B808381E02D
:103B300001C080E0DF91CF9108951F920F920FB6E0
:103B40000F9211242F933F934F935F936F937F9323
:103B50008F939F93AF93BF93EF93FF93E0912B05C8
:103B6000F0912C05309709F451C0868DA685B78554
:103B7000958581FF04C08C91892329F447C08C91DD
:103B8000892309F043C0A389B4899C9185898095D4
:103B900089238C93868997890197F1F7208D318D40
:103BA000A685B785758558E040E0C9010197F1F712
:103BB000842F90E095958795482F6C91672309F0A5
:103BC0004068515091F7868D81FD40958091AA04FF
:103BD00090E001968F7799272091A904281749F042
:103BE000A091AA04B0E0A555BB4F4C938093AA04C2
:103BF00003C0868D8160868F828D938D0197F1F74A
:103C0000A389B4898C919589892B8C93FF91EF912D
:103C1000BF91AF919F918F917F916F915F914F91E4
:103C20003F912F910F900FBE0F901F90189525EE8A
:103C300033E0FC01318320830C945E1D1F93CF93EE
:103C4000DF93EC01162F6E8D6695617081E0682719
:103C5000812F0E94462161E0812F0E940D21812F3A
:103C600090E0FC01E255FB4FE491E88BFC01EE5340
:103C7000FB4FE491F0E0EE0FFF1FE052FB4F859108
:103C800094919A8B898BDF91CF911F9108951F9307
:103C9000CF93DF93EC01162F60E0812F0E940D215E
:103CA0008E8D81FD04C061E0812F0E9446211C871A
:103CB000812F90E0FC01E255FB4FE491ED87FC0180
:103CC000EE53FB4FE491F0E0EE0FFF1FEA52FB4F83
:103CD000859194919F878E87DF91CF911F91089551
:103CE000FF920F931F93CF93DF93EC01F62E522F89
:103CF0001B821A8208EE13E020E030E00C831D8363
:103D00002E833F8385EE93E0998388831F8A1E8AE2
:103D1000198E188E1B8E1A8E1D8E1C8E8E8D8E7F88
:103D200050FB81F98E8F642FCE010E941E1E6F2DD5
:103D3000CE01DF91CF911F910F91FF900C94471E00
:103D4000CF93DF93EC019A01AB011B8E1A8E198E73
:103D5000188E1F8A1E8A60E079E08DE390E00E9451
:103D60003A2AC9012430310520F0B90163507109A4
:103D700002C061E070E07D8F6C8FEC85E63108F069
:103D800068C0B901769567956431710518F0635183
:103D9000710902C061E070E07F8B6E8B069718F0AE
:103DA000C901059702C081E090E0998F888FC90111
:103DB000880F991F820F931F9695879596958795E3
:103DC0008D30910510F00C9702C081E090E09B8F40
:103DD0008A8F20916800E83050F091E0EE3008F4CE
:103DE00090E081E001C0880F9A95EAF701C084E075
:103DF000822B809368002C85283038F02E3040F0DC
:103E0000263148F48CE690E008C08DE690E005C0CD
:103E10008BE690E002C080E090E09C8B8B8B28309A
:103E200030F481E001C0880F2A95EAF70DC0822F97
:103E300090E02E3010F4089701C00E9791E001C079
:103E4000990F8A95EAF7892F8D8B8C8D9D8D01971F
:103E5000F1F7CE01DF91CF910C94741D1F920F9258
:103E60000FB60F9211242F933F934F935F936F934D
:103E70007F938F939F93AF93BF93EF93FF93E091C3
:103E80002D05F0912E050995FF91EF91BF91AF910E
:103E90009F918F917F916F915F914F913F912F9162
:103EA0000F900FBE0F901F90189508958230E8F480
:103EB000E82FF0E0EE0FFF1FEE5CFA4F7183608396
:103EC000813041F0809169008C7F842B8093690060
:103ED000E89A089580916900440F551F440F551FBB
:103EE000837F842B80936900E99A0895823068F477
:103EF000813011F0E89801C0E998E82FF0E0EE0F6A
:103F0000FF1FEE5CFA4F1182108208951F920F92EC
:103F10000FB60F9211242F933F934F935F936F939C
:103F20007F938F939F93AF93BF93EF93FF93809172
:103F3000320590913305892B29F0E0913205F091FB
:103F400033050995FF91EF91BF91AF919F918F91AB
:103F50007F916F915F914F913F912F910F900FBE85
:103F60000F901F9018951F920F920FB60F92112469
:103F70002F933F934F935F936F937F938F939F9371
:103F8000AF93BF93EF93FF938091340590913505E4
:103F9000892B29F0E0913405F09135050995FF91C1
:103FA000EF91BF91AF919F918F917F916F915F91B1
:103FB0004F913F912F910F900FBE0F901F9018952A
:103FC0001F920F920FB60F9211242F933F938F934E
:103FD0009F93AF93BF938091370590913805A0913F
:103FE0003905B0913A053091360523E0230F2D377E
:103FF00020F40196A11DB11D05C026E8230F0296ED
:10400000A11DB11D20933605809337059093380587
:10401000A0933905B0933A0580913B0590913C05FA
:10402000A0913D05B0913E050196A11DB11D809363
:104030003B0590933C05A0933D05B0933E05BF9191
:10404000AF919F918F913F912F910F900FBE0F9045
:104050001F9018952FB7F894609137057091380527
:104060008091390590913A052FBF08953FB7F89494
:1040700080913B0590913C05A0913D05B0913E0596
:1040800026B5A89B05C02F3F19F00196A11DB11DB3
:104090003FBF6627782F892F9A2F620F711D811DD0
:1040A000911D42E0660F771F881F991F4A95D1F72F
:1040B0000895CF92DF92EF92FF92CF93DF936B013F
:1040C0007C010E943620EB01C114D104E104F1040B
:1040D00089F00E94551F0E9436206C1B7D0B683EA4
:1040E000734090F381E0C81AD108E108F108C85183
:1040F000DC4FEACFDF91CF91FF90EF90DF90CF9030
:1041000008958230910538F0880F991F880F991F04
:1041100005970197F1F70895789484B5826084BD7E
:1041200084B5816084BD85B5826085BD85B58160BB
:1041300085BDEEE6F0E0808181608083E1E8F0E01B
:104140001082808182608083808181608083E0E84A
:10415000F0E0808181608083E1EBF0E08081846029
:104160008083E0EBF0E0808181608083EAE7F0E02B
:10417000808184608083808182608083808181608F
:1041800080838081806880831092C10008958E3082
:1041900008F08E5087702091060190E4299F9001CD
:1041A0001124822B80937C0080917A00806480931C
:1041B0007A0080917A0086FDFCCF80917800209172
:1041C000790090E0922B0895833081F028F48130BB
:1041D00099F08230A1F008958730A9F08830B9F0C5
:1041E0008430D1F4809180008F7D03C08091800065
:1041F0008F7780938000089584B58F7702C084B54F
:104200008F7D84BD08958091B0008F7703C0809129
:10421000B0008F7D8093B0000895CF93DF9390E03E
:10422000FC01E255FB4F2491FC01EE53FB4F8491BE
:10423000882349F190E0880F991FFC01E651FB4F5C
:10424000A591B49180529B4FFC01C591D4919FB729
:10425000611108C0F8948C91209582238C938881F9
:1042600082230AC0623051F4F8948C91322F309539
:1042700083238C938881822B888304C0F8948C914B
:10428000822B8C939FBFDF91CF9108950F931F9343
:10429000CF93DF931F92CDB7DEB7282F30E0F9011F
:1042A000E656FB4F8491F901E255FB4F1491F90159
:1042B000EE53FB4F04910023C9F0882321F069835A
:1042C0000E94E4206981E02FF0E0EE0FFF1FE05232
:1042D000FB4FA591B4919FB7F8948C91611103C0E5
:1042E0001095812301C0812B8C939FBF0F90DF918C
:1042F000CF911F910F910895CF93DF93282F30E036
:10430000F901E656FB4F8491F901E255FB4FD49138
:10431000F901EE53FB4FC491CC2391F081110E941F
:10432000E420EC2FF0E0EE0FFF1FEA52FB4FA591C7
:10433000B4912C912D2381E090E021F480E002C023
:1043400080E090E0DF91CF910895FC01818D228D76
:1043500090E0805C9F4F821B91098F73992708958D
:10436000FC01918D828D981731F0828DE80FF11D3F
:10437000858D90E008958FEF9FEF0895FC01918D5A
:10438000828D981761F0828DDF01A80FB11D5D96B7
:104390008C91928D9F5F9F73928F90E008958FEF25
:1043A0009FEF089582E493E2892B49F080E090E04A
:1043B000892B29F00E94422381110C94000008955A
:1043C000FC01848DDF01A80FB11DA35ABF4F2C91B2
:1043D000848D90E001968F739927848FA689B78981
:1043E0002C93A089B1898C9180648C93938D848D5A
:1043F000981306C00288F389E02D80818F7D808329
:104400000895CF93DF93EC01888D8823C9F0EA8962
:10441000FB89808185FD05C0A889B9898C9186FDBD
:104420000FC00FB607FCF5CF808185FFF2CFA889BA
:10443000B9898C9185FFEDCFCE010E94E021E7CFB5
:10444000DF91CF910895CF92DF92FF920F931F9348
:10445000CF93DF931F92CDB7DEB76C0181E0D60119
:1044600058968C9358975B969C915B975C968C9131
:104470005C97981307C05096ED91FC9151978081FD
:1044800085FD2EC0F601038D10E00F5F1F4F0F73E7
:104490001127F02EF601848DF81211C00FB607FC1B
:1044A000F9CFD6015096ED91FC915197808185FF0F
:1044B000F1CFC60169830E94E0216981EBCF838D32
:1044C000E80FF11DE35AFF4F6083D6015B960C9312
:1044D0005B975296ED91FC915397808180620CC05E
:1044E000D6015696ED91FC91579760835096ED91C9
:1044F000FC91519780818064808381E090E00F90EF
:10450000DF91CF911F910F91FF90DF90CF90089591
:10451000BF92CF92DF92EF92FF92CF93DF93EC01A5
:104520006A017B01B22EE889F98982E08083411516
:1045300081EE580761057105A1F060E079E08DE337
:1045400090E0A70196010E94182A215031094109E3
:1045500051095695479537952795211580E13807DC
:1045600098F0E889F989108260E874E88EE190E0BB
:10457000A70196010E94182A2150310941095109C9
:104580005695479537952795EC85FD853083EE85C3
:10459000FF852083188EEC89FD89B082EA89FB892A
:1045A000808180618083EA89FB8980818860808343
:1045B000EA89FB89808180688083EA89FB89808120
:1045C0008F7D8083DF91CF91FF90EF90DF90CF9030
:1045D000BF9008951F920F920FB60F9211242F9340
:1045E0008F939F93EF93FF93E0914F05F0915005C8
:1045F0008081E0915505F091560582FD12C09081B1
:10460000809158058F5F8F7320915905821751F063
:10461000E0915805F0E0E15CFA4F958F80935805E2
:1046200001C08081FF91EF919F918F912F910F9009
:104630000FBE0F901F9018951F920F920FB60F92FA
:1046400011242F933F934F935F936F937F938F9397
:104650009F93AF93BF93EF93FF938FE395E00E94F7
:10466000E021FF91EF91BF91AF919F918F917F9149
:104670006F915F914F913F912F910F900FBE0F90CF
:104680001F9018958FE395E00E94A52121E0892BCA
:1046900009F420E0822F08951092420510924105FE
:1046A00088EE93E0A0E0B0E080934305909344054A
:1046B000A0934505B093460585EF93E090934005A0
:1046C00080933F0585EC90E090934C0580934B05DB
:1046D00084EC90E090934E0580934D0580EC90E043
:1046E0009093500580934F0581EC90E09093520594
:1046F0008093510582EC90E090935405809353058C
:1047000086EC90E0909356058093550510925805DD
:104710001092590510925A0510925B05089508955C
:104720000E948C200E948F230E944003C2EDD1E2A0
:104730000E9483072097E1F30E94D221F9CFCF9204
:10474000DF92EF92FF920F931F93CF93DF936C0151
:104750007A01EB01E60EF71E00E010E0CE15DF0552
:1047600061F06991D601ED91FC910190F081E02D0D
:10477000C6010995080F191FF1CFC801DF91CF912C
:104780001F910F91FF90EF90DF90CF9008956115EA
:10479000710581F0DB010D900020E9F7AD0141507A
:1047A0005109461B570BDC01ED91FC910280F3810E
:1047B000E02D099480E090E00895EF92FF920F932E
:1047C0001F93CF93DF938C01FB01C0E0D0E0649195
:1047D0007F018FEFE81AF80A662361F0D801ED91A6
:1047E000FC910190F081E02DC8010995C80FD91FF7
:1047F000F701EDCFCE01DF91CF911F910F91FF9087
:10480000EF900895DC01ED91FC91DB0114964D9140
:104810005C9115976D917C910280F381E02D099454
:10482000DC01ED91FC910190F081E02D099461E0B3
:1048300074E00C94C7230F931F93CF93DF93EC0185
:104840000E94DD238C01CE010E941724800F911F4E
:10485000DF91CF911F910F9108950F931F93CF93E5
:10486000DF93EC010E9402248C01CE010E941724E8
:10487000800F911FDF91CF911F910F9108950F939A
:104880001F93CF93DF93EC010E94C7238C01CE01CD
:104890000E941724800F911FDF91CF911F910F91DC
:1048A00008950F931F93CF93DF93EC010E942A206A
:1048B000688779878A879B87E881F9810680F781F5
:1048C000E02DCE01099597FF15C00E942A2008858A
:1048D00019852A853B85601B710B820B930B0C811C
:1048E0001D812E813F81601771078207930720F396
:1048F0008FEF9FEFDF91CF911F910F9108954F920E
:104900005F926F927F928F929F92AF92BF92CF925F
:10491000DF92EF92FF920F931F93CF93DF934C019F
:10492000EB0186E0849F8001859F100D1124060F06
:10493000171FFB01E017F10708F582819381892B8E
:1049400021F13696F7CF4081518164817581DA017A
:10495000A60FB71F2C91332727FD30958217930799
:1049600011F56F5F7F4F75836483228133816217F6
:10497000730759F03696E017F10728F3C4010E9437
:10498000512497FD46C0FE01F6CFEC1BFD0BF595BB
:10499000E7952BEA3AEAE29FC001E39F900DF29F70
:1049A000900D112438C06115710521F3A480B580E4
:1049B00095012150310935832483DA01A20FB31FF9
:1049C000AC91BB27A7FDB0958A179B07F9F4211579
:1049D0003105C9F06A017B01E21AF30AE40EF51E03
:1049E000412C512CD6016D906D01D7017D907D0138
:1049F000671006C0BFEF4B1A5B0A4216530690F3CE
:104A00004216530699F6B582A482B4CF232B71F6D1
:104A1000B1CF8FEF9FEFDF91CF911F910F91FF905B
:104A2000EF90DF90CF90BF90AF909F908F907F904E
:104A30006F905F904F900895CF93DF9300D000D098
:104A400000D0CDB7DEB7FE01319626E0DF011D9222
:104A50002A95E9F77A8369835C834B8341E050E0D0
:104A6000BF010E947F2421E0892B09F020E0822FE2
:104A700026960FB6F894DEBF0FBECDBFDF91CF9163
:104A80000895FB0101900020E9F7AF014150510961
:104A9000461B570B0C941C25FC01808191810C94C2
:104AA0002C2BCF93DF93EC0188819981009711F033
:104AB0000E942C2B198218821D821C821B821A8252
:104AC000DF91CF9108950F931F93CF93DF93EC0164
:104AD0008B016F5F7F4F888199810E94BB2B00976C
:104AE00031F0998388831B830A8381E001C080E0D1
:104AF000DF91CF911F910F910895CF93DF93EC0138
:104B000088819981892B29F08A819B818617970753
:104B100060F4CE010E946325882341F08C819D8141
:104B2000892B19F4E881F981108281E0DF91CF911E
:104B30000895EF92FF920F931F93CF93DF93EC01B1
:104B40007B018A01BA010E947D25811104C0CE013A
:104B50000E94512507C01D830C83B701888199816C
:104B60000E94D92CCE01DF91CF911F910F91FF9020
:104B7000EF900895FC011182108213821282158237
:104B800014826115710559F0FB0101900020E9F7CD
:104B9000AF0141505109461B570B0C9499250895BC
:104BA000EF92FF920F931F93CF93DF93EC017B0162
:104BB0008A01BA010E947D25811104C0CE010E94A4
:104BC000512507C01D830C83B701888199810E94FC
:104BD000AC2CCE01DF91CF911F910F91FF90EF9000
:104BE0000895CF93DF93EC01FB018617970761F0DF
:104BF000608171816115710529F0448155810E94A0
:104C0000992502C00E945125CE01DF91CF910895D0
:104C1000FC011182108213821282158214820C947C
:104C2000F125CF93DF93EC016115710561F0FB0174
:104C300001900020E9F7AF0141505109461B570B85
:104C40000E94992502C00E945125CE01DF91CF918B
:104C500008950F931F93CF93DF93CDB7DEB72997B6
:104C60000FB6F894DEBF0FBECDBF8C01862FF801C2
:104C700011821082138212821582148250E0BE01CA
:104C80006F5F7F4F90E00E94252DBE016F5F7F4FC9
:104C9000C8010E94112629960FB6F894DEBF0FBEF8
:104CA000CDBFDF91CF911F910F9108950F931F9367
:104CB000CF93DF93CDB7DEB762970FB6F894DEBF20
:104CC0000FBECDBF8C01CB01F8011182108213827F
:104CD00012821582148250E0BE016F5F7F4F0E94E6
:104CE000FA2CBE016F5F7F4FC8010E9411266296A9
:104CF0000FB6F894DEBF0FBECDBFDF91CF911F91ED
:104D00000F910895EF92FF920F931F93CF93DF932C
:104D1000CDB7DEB7A1970FB6F894DEBF0FBECDBFFB
:104D20007C01CB01BA01F701118210821382128239
:104D30001582148242E0420F8E010F5F1F4F0E94C6
:104D4000732ABC01C7010E941126A1960FB6F894E0
:104D5000DEBF0FBECDBFDF91CF911F910F91FF90AE
:104D6000EF9008950F931F93CF93DF9300D0CDB7AB
:104D7000DEB78C016115710561F0CB0169837A831F
:104D80000E94B32CAC0169817A81C8010E94D025B0
:104D900002C00E945125C8010F900F90DF91CF9162
:104DA0001F910F910895EF92FF920F931F93CF934E
:104DB000DF93EC017B010C811D816115710511F4FC
:104DC00080E016C04115510591F0040F151FB80180
:104DD0000E947D258823A1F3288139818C819D81C2
:104DE000B701820F931F0E94D92C1D830C8381E091
:104DF000DF91CF911F910F91FF90EF900895FB01EC
:104E000044815581608171810C94D32661157105AF
:104E100059F0FB0101900020E9F7AF014150510921
:104E2000461B570B0C94D32680E00895CF93DF9355
:104E300000D0CDB7DEB769831A8241E050E0BE01F1
:104E40006F5F7F4F0E94D3260F900F90DF91CF911D
:104E50000895EF92FF920F931F93CF93DF93EC018E
:104E60007B016115710511F480E01BC0CB010E942C
:104E7000B32C0097A9F00C811D81080F191FB801F0
:104E8000CE010E947D25882379F3288139818C8188
:104E90009D81B701820F931F0E94AC2C1D830C8350
:104EA00081E0DF91CF911F910F91FF90EF900895D6
:104EB000CF93DF93EC01FB014481558160817181C7
:104EC0000E94D326811103C0CE010E945125CE013C
:104ED000DF91CF910895CF93DF93EC0161157105B8
:104EE00069F0FB0101900020E9F7AF014150510941
:104EF000461B570B0E94D326811103C0CE010E948E
:104F00005125CE01DF91CF910895FC012481358197
:104F1000232B31F421E061157105A1F0FB0108C0DC
:104F2000FC01808191816115710531F421E0FC0162
:104F30008081882339F005C00E94D02C21E0892B84
:104F400009F020E0822F0895FC0184819581681783
:104F5000790720F480819181009729F41092DC0573
:104F60008CED95E00895860F971F0895CF93DF93FA
:104F7000FC01848195814817590778F4C081D1815B
:104F8000772767FD7095CE01840F951F0E94C52C71
:104F9000009719F08C1B9D0B02C08FEF9FEFDF91E4
:104FA000CF91089540E050E00C94B627CF93DF9363
:104FB000FC01848195814817590778F4C081D1811B
:104FC000FB0160817181CE01840F951F0E94E02C4E
:104FD000009719F08C1B9D0B02C08FEF9FEFDF91A4
:104FE000CF91089540E050E00C94D627BF92CF9225
:104FF000DF92EF92FF920F931F93CF93DF936C0199
:105000007B01EA0189012417350720F48D2FE9017E
:10501000042F182F63E074E0C6010E94BA25D7015F
:1050200014968D919C911597C817D907C8F48017CD
:10503000910708F48C01D701ED91FC911197E00FD5
:10504000F11FB08010826D917C916C0F7D1FC601A5
:105050000E941126D701ED91FC91E00FF11FB08263
:10506000C601DF91CF911F910F91FF90EF90DF90DC
:10507000CF90BF900895FC0180819181009711F03D
:105080000C94852C60E070E0CB0108955058BB274C
:10509000AA270ED01CC10DD130F012D120F031F46E
:1050A0009F3F11F41EF402C10EF4E095E7FBF8C037
:1050B000E92F1ED180F3BA1762077307840795079B
:1050C00018F071F49EF536C10EF4E0950B2EBA2F50
:1050D000A02D0B01B90190010C01CA01A0011124FE
:1050E000FF27591B99F0593F50F4503E68F11A16AA
:1050F000F040A22F232F342F4427585FF3CF46953B
:1051000037952795A795F0405395C9F77EF41F165C
:10511000BA0B620B730B840BBAF09150A1F0FF0F26
:10512000BB1F661F771F881FC2F70EC0BA0F621F12
:10513000731F841F48F4879577956795B795F79502
:105140009E3F08F0B3CF9395880F08F09927EE0F94
:105150009795879508950CD0BAC0B2D040F0A9D0E9
:1051600030F021F45F3F19F09BC05111E4C09EC0A4
:10517000BFD098F39923C9F35523B1F3951B550B71
:10518000BB27AA2762177307840738F09F5F5F4F1A
:10519000220F331F441FAA1FA9F333D00E2E3AF05B
:1051A000E0E830D091505040E695001CCAF729D075
:1051B000FE2F27D0660F771F881FBB1F26173707C4
:1051C0004807AB07B0E809F0BB0B802DBF01FF27F4
:1051D00093585F4F2AF09E3F510568F061C0ABC005
:1051E0005F3FECF3983EDCF3869577956795B7952E
:1051F000F7959F5FC9F7880F911D9695879597F949
:105200000895E1E0660F771F881FBB1F62177307C1
:105210008407BA0720F0621B730B840BBA0BEE1FD6
:1052200088F7E0950895E89409C097FB3EF49095BF
:105230008095709561957F4F8F4F9F4F9923A9F06F
:10524000F92F96E9BB279395F695879577956795FE
:10525000B795F111F8CFFAF4BB0F11F460FF1BC042
:105260006F5F7F4F8F4F9F4F16C0882311F096E9D5
:1052700011C0772321F09EE8872F762F05C0662383
:1052800071F096E8862F70E060E02AF09A95660F3C
:10529000771F881FDAF7880F9695879597F90895F5
:1052A00097F99F6780E870E060E008959FEF80ECD9
:1052B000089500240A94161617061806090608957C
:1052C00000240A9412161306140605060895092EE2
:1052D0000394000C11F4882352F0BB0F40F4BF2B51
:1052E00011F460FF04C06F5F7F4F8F4F9F4F089591
:1052F00057FD9058440F551F59F05F3F71F0479587
:10530000880F97FB991F61F09F3F79F0879508956B
:10531000121613061406551FF2CF4695F1DF08C08A
:10532000161617061806991FF1CF869571056105A7
:1053300008940895E894BB2766277727CB0197F94F
:1053400008950BD0C4CFB5DF28F0BADF18F095234D
:1053500009F0A6CFABCF1124EECFCADFA0F3959F03
:10536000D1F3950F50E0551F629FF001729FBB274C
:10537000F00DB11D639FAA27F00DB11DAA1F649FF8
:105380006627B00DA11D661F829F2227B00DA11DAB
:10539000621F739FB00DA11D621F839FA00D611D31
:1053A000221F749F3327A00D611D231F849F600D52
:1053B000211D822F762F6A2F11249F5750408AF08B
:1053C000E1F088234AF0EE0FFF1FBB1F661F771F17
:1053D000881F91505040A9F79E3F510570F060CF53
:1053E000AACF5F3FECF3983EDCF3869577956795FF
:1053F000B795F795E7959F5FC1F7FE2B880F911D35
:105400009695879597F9089597FB072E16F40094C3
:1054100007D077FD09D00E94592A07FC05D03EF439
:10542000909581959F4F0895709561957F4F089550
:10543000A1E21A2EAA1BBB1BFD010DC0AA1FBB1F98
:10544000EE1FFF1FA217B307E407F50720F0A21B0A
:10545000B30BE40BF50B661F771F881F991F1A9477
:1054600069F760957095809590959B01AC01BD01A1
:10547000CF010895052E97FB1EF400940E94512A37
:1054800057FD07D00E94182A07FC03D04EF40C9455
:10549000512A50954095309521953F4F4F4F5F4F82
:1054A000089590958095709561957F4F8F4F9F4F90
:1054B0000895AA1BBB1B51E107C0AA1FBB1FA6175B
:1054C000B70710F0A61BB70B881F991F5A95A9F7AD
:1054D00080959095BC01CD010895EE0FFF1F0590BA
:1054E000F491E02D0994EF920F931F93CF93DF93E4
:1054F000E80147FF02C034E101C034E0E42FFF2798
:10550000E7FDF095F7FF03C0F195E195F109E32E72
:10551000022F2E2FAE010E94602DCE01DF91CF9180
:105520001F910F91EF900895CF93DF9382309105F3
:1055300010F482E090E0E091DF05F091E00520E0DA
:1055400030E0A0E0B0E0309739F140815181481758
:105550005907B8F04817590771F482819381109761
:1055600029F013969C938E9312972CC09093E0058C
:105570008093DF0527C02115310531F0421753070D
:1055800018F0A901DB0101C0EF019A01BD01DF01A3
:105590000280F381E02DD7CF21153105F9F0281BCA
:1055A000390B2430310580F48A819B8161157105A6
:1055B00021F0FB019383828304C09093E0058093E4
:1055C000DF05FE01329644C0FE01E20FF31F819316
:1055D000919322503109398328833AC02091DD0507
:1055E0003091DE05232B41F420910201309103011B
:1055F0003093DE052093DD052091000130910101FB
:105600002115310541F42DB73EB740910401509169
:105610000501241B350BE091DD05F091DE05E21755
:10562000F307A0F42E1B3F0B2817390778F0AC01C5
:105630004E5F5F4F2417350748F04E0F5F1F5093A2
:10564000DE054093DD058193919302C0E0E0F0E038
:10565000CF01DF91CF910895CF93DF93009709F4A5
:1056600087C0FC01329713821282C091DF05D0916E
:10567000E005209781F420813181280F391F809126
:10568000DD059091DE058217930779F5F093DE052D
:10569000E093DD056DC0DE0120E030E0AE17BF070E
:1056A00050F412964D915C9113979D01411551054F
:1056B00009F1DA01F3CFB383A28340815181840FD2
:1056C000951F8A179B0771F48D919C911197840FF8
:1056D000951F02969183808312968D919C911397CA
:1056E000938382832115310529F4F093E005E0933B
:1056F000DF053EC0D9011396FC93EE9312974D91AE
:105700005D91A40FB51FEA17FB0779F480819181A1
:10571000840F951F0296D90111969C938E938281D6
:10572000938113969C938E931297E0E0F0E08A8128
:105730009B81009719F0FE01EC01F9CFCE01029692
:1057400028813981820F931F2091DD053091DE057C
:105750002817390769F4309729F41092E005109260
:10576000DF0502C013821282D093DE05C093DD05EF
:10577000DF91CF910895A0E0B0E0E1ECFBE20C9462
:10578000CA2FEC01CB01209719F40E94942AB8C0CB
:10579000FE01E60FF71F9E0122503109E217F307C1
:1057A00008F4ACC0D9010D911C9111970617170789
:1057B000B8F00530110508F49FC0A8014450510904
:1057C0004617570708F498C002501109061B170B1B
:1057D000019311936D937C93CF010E942C2B8CC06D
:1057E0005B01A01AB10A4E01800E911EA091DF0547
:1057F000B091E005612C712C60E070E0109709F425
:1058000049C0A815B905C9F5ED90FC90119767013D
:1058100042E0C40ED11CCA14DB0478F147018A1897
:105820009B08640142E0C40ED11C1296BC901297F2
:105830001396AC91B5E0CB16D10440F0B282A383AD
:1058400091828082D9018D939C9309C00E5F1F4F76
:105850000E0D1F1DF90111830083EB2DFA2F611529
:10586000710531F0DB011396FC93EE93129744C05F
:10587000F093E005E093DF053FC06D917C911197B7
:105880006616770608F43B01BD0112960D90BC9197
:10589000A02DB4CF6091DD057091DE056815790506
:1058A000E9F468167906D0F44091000150910101A5
:1058B0004115510541F44DB75EB7609104017091F7
:1058C0000501461B570BE417F507C0F4F093DE05FE
:1058D000E093DD05F901918380830EC00E94942A34
:1058E0007C01009759F0A801BE010E94BC2CCE019A
:1058F0000E942C2BC70104C0CE0102C080E090E0C2
:10590000CDB7DEB7EEE00C94E62F1F93FC0199278C
:105910008827BC01E89411911032E9F3193010F096
:105920001E30C8F31B3251F01D3249F4689406C092
:105930000E94102D610F711D811D911D1191105339
:105940001A30B0F33EF490958095709561957F4F35
:105950008F4F9F4F1F910895FB01DC0105900D9221
:105960000020E1F70895FC0105900020E9F78095FB
:1059700090958E0F9F1F0895FB01DC0102C00190DE
:105980000D9241505040D8F70895FC01819186173F
:1059900021F08823D9F7992708953197CF010895E9
:1059A000FB01DC018D91019080190110D9F3990B55
:1059B0000895FB01DC0101900D920020E1F70895AC
:1059C000FB0151915523A9F0BF01DC014D91451711
:1059D0004111E1F759F4CD010190002049F04D91BA
:1059E00040154111C9F3FB014111EFCF81E090E077
:1059F000019708954532510520F4423010F00C947F
:105A0000052DFB011082CB010895BB274A3031F4EC
:105A1000992322F4BDE2909581959F4F0C94312DEE
:105A2000592F482F372F262F660F771F881F991F52
:105A3000660F771F881F991F620F731F841F951FA2
:105A4000660F771F881F991F08954532510520F46E
:105A5000423010F00C94302DFB011082CB010895E0
:105A6000BB27FB015527AA27880F991FAA1FA41738
:105A700010F0A41B83955051B9F7A05DAA3308F02C
:105A8000A95DA193009779F7B111B1931192CB0160
:105A90000C94B62FF999FECF92BD81BDF89A992743
:105AA00080B50895262FF999FECF1FBA92BD81BD0A
:105AB00020BD0FB6F894FA9AF99A0FBE0196089590
:105AC0006F927F929F92AF92BF92CF92DF92EF92AE
:105AD000FF920F931F93CF93DF93CDB7DEB7299734
