:100000000C9429030C94281B0C94551B0C943F1939
:100010000C943F190C943F190C94A7070C945103AE
:100020000C9451030C9451030C9451030C94510300
:100030000C9451030C94D01A0C9451030C9451035A
:100040000C94821B0C9451030C943B1E0C946D1E5B
:100050000C9451030C9451030C9451030C945103D0
:100060000C9451030C945103436F756E7465723A8E
:100070000054657374207061796C6F61643A005349
:10008000756363657366756C79206A6F696E656404
:100090002100526573746172646564206279206A1C
:1000A0006F696E2070726F6365647572650052656A
:1000B0006A6F696E696E672E2E2E004A6F696E2018
:1000C0006D6F64653A004E4F54204A4F494E454487
:1000D0002120436865636B206E6574776F726B20B7
:1000E0006F7220706172616D657465727321004E6C
:1000F0006F206B65797320656E747279210062756B
:1001000073792E2E2E004E6F20667265652063680F
:10011000616E6E656C2C207265747279696E672EE3
:100120002E2E0052656A6F696E20436F756E74657E
:10013000723A0052756E3A004177616B6521005446
:10014000696D6520746F6F20686967682100496E6A
:1001500076616C69642074696D652100506172611B
:100160006D6574657273207375636365737366750B
:100170006C7920736176656421006D616320736121
:100180007665004144523A0044523A00566F6C740E
:100190006167653A005472616E7363696576657272
:1001A0003A0046572076657273696F6E3A004C4983
:1001B000422076657273696F6E3A004170706C69A7
:1001C000636174696F6E204555493A0044657669EC
:1001D000636520616464726573733A00446576698F
:1001E0006365204555493A002A2A2A2A2A50617215
:1001F000616D65746572732073746F7265642069D4
:100200006E20466C6173683A2A2A2A2A2A005365AE
:100210006E64696E6720746F20706F727420005076
:1002200061796C6F61643A0053656E64696E672032
:10023000746F20706F727420005061796C6F61640C
:100240003A002073746F72656420746F20454550C6
:10025000524F4D004E657720706F72743A00506FA8
:100260007274206F7574206F662072616E676521ED
:1002700000506F77657220736176656421006D614F
:100280006320736176650041445220736176656432
:1002900021006D61632073617665004452207361B3
:1002A00076656421006D61632073617665004D6F32
:1002B00064652073746F72656420746F20454550C7
:1002C000524F4D00556E737570706F727465642077
:1002D0006D6F646500446174613A00506F72743AE6
:1002E000004E6F20646174612E0046697273742041
:1002F000636F6D6D756E69636174696F6E202E2E0C
:100300002E006D616320676574206465766575698C
:10031000005A617069732064656661756C7475203C
:10032000646F20454550524F4D002A2A2A2A2A2A16
:100330002A2A2A2A2A2A2A2A2A2A2A2A2A2A2A2A1D
:100340002A2A2A2A2A2A2A2A2A2A2A2A2A2A2A2A0D
:100350002A2A0073797320676574207665720046D7
:10036000572076657273696F6E3A002A2A2A2A2A04
:100370002A2A2A2A2A2A2A53656E736F72207265E6
:100380006164792A2A2A2A2A2A2A2A2A2A2A2A0037
:10039000372E53656E64207061796C6F61643A0921
:1003A0000973656E64553A646174612868657829DB
:1003B0000D0A00362E53657420706F72743A090965
:1003C000706F72743A312D3235350D0A00352E4A70
:1003D0006F696E2047573A09096D6163206A6F693A
:1003E0006E205B6162702C6F7461615D0D0A003478
:1003F0002E417070206B65793A09096D6163207335
:10040000657420617070736B65790D0A00332E4E30
:100410006574776F726B206B65793A09096D61635A
:1004200020736574206E776B736B65790D0A0032EB
:100430002E446576204555493A09096D616320735C
:100440006574206465766575690D0A00312E446512
:100450007620416464726573733A09096D616320A3
:1004600073657420646576616464720D0A002A2ADB
:100470002A2A2A2A2A2A2A2A2A2A2A2A2A2A4845A3
:100480004C502A2A2A2A2A2A2A2A2A2A2A2A2A2A84
:100490002A0D0A00524E32343833206E6F742064B5
:1004A000657465637465642100524E3234383320BC
:1004B00063686970206465746563746564210073A2
:1004C00079732067657420766572002A2A2A2A2AA1
:1004D0002A2A2A2A2A2A2A4C6F526120524E323462
:1004E0003833207365742A2A2A2A2A2A2A2A2A2A91
:1004F0002A2A00000000080002010000030407008F
:1005000000000000000000010204081020408001EB
:10051000020408102001020408102004040404044A
:1005200004040402020202020203030303030300A1
:1005300000000023002600290000000000250028FC
:10054000002B0000000000240027002A0000407A51
:1005500010F35A00A0724E18090010A5D4E800004C
:10056000E87648170000E40B54020000CA9A3B00EA
:100570000000E1F505000080969800000040420F61
:10058000000000A08601000000102700000000E825
:1005900003000000006400000000000A00000000EA
:1005A000000100000000002C76D888DC674F08238B
:1005B000DFC1DFAE59E1B1B796E5E3E453C63AE6F1
:1005C00051997696E8E6C28426EB898C9B62ED40D1
:1005D0007C6FFCEFBC9C9F40F2BAA56FA5F4900520
:1005E0005A2AF75C936B6CF9676DC11BFCE0E40D54
:1005F00047FEF520E6B500D0ED902E030094357748
:10060000050080841E080000204E0A000000C80C6F
:10061000333333330F986E12831141EF8D211489D8
:100620003BE65516CFFEE6DB18D1844B381BF77C32
:100630001D901DA4BBE424203284725E228100C977
:10064000F124ECA1E53D2700610330089D1E7903EC
:10065000370811241FBECFEFD8E0DEBFCDBF13E0B7
:10066000A0E0B1E0EEECF5E502C005900D92A43CEF
:10067000B107D9F725E0A4ECB3E001C01D92AA3A76
:10068000B207E1F716E0CEE4D6E004C02297FE01FF
:100690000E946625C834D107C9F70E94E11E0C9458
:1006A000DA2A0C94000080910A04882349F0809192
:1006B00023049091240401969093240480932304AE
:1006C000089520E04BE066E083E394E00E94121A74
:1006D00066EB73E08DE294E00E940D2166EB73E01F
:1006E00087E294E00E940D2161E084EC93E00C9499
:1006F000CC0780E094E00E949F208AEF93E00E9464
:100700009F2084EF93E00E949F208EEE93E00E9452
:100710009F2088EE93E00E949F2082EE93E00E944B
:100720009F208CED93E00E949F2086ED93E00E9435
:100730009F2080ED93E00E949F208AEC93E00E942E
:100740009F2084EC93E00E949F2087E294E00E9427
:100750009F208DE294E00E949F2083E394E00C941C
:10076000B9190F931F93CF93DF93CDB7DEB72C97B3
:100770000FB6F894DEBF0FBECDBF66EB73E0CE01BF
:1007800007960E940D2183E394E00E9416196AE007
:1007900070E080E090E00E94FB1B68E472E083E37D
:1007A00094E00E94611F64E170E080E090E00E94AC
:1007B000FB1B83E394E00E94E818181619060CF05E
:1007C00052C083E394E00E945C1880932604682F53
:1007D000CE0107960E949522809126048A3049F71F
:1007E0002B853C852250310940E050E0BE01695F15
:1007F0007F4FCE0101960E945523BE016F5F7F4F50
:10080000CE0107960E944421CE0101960E949F20AE
:100810006AE3CE0107960E9451232B853C859927D8
:100820000196AC01BE01695F7F4FCE0101960E9427
:100830005523BE016F5F7F4FCE0107960E94442172
:10084000CE0101960E949F20CE0107960E949A2316
:10085000709322046093210466EB73E0CE01079647
:100860000E946421A6CF83E394E00E94CF1883E521
:1008700094E00E9416190091210410912204CE01E7
:1008800007960E949F20C8012C960FB6F894DEBFF1
:100890000FBECDBFDF91CF911F910F910895CF92E1
:1008A000DF92EF92FF920F931F93CF93DF93CDB719
:1008B000DEB763970FB6F894DEBF0FBECDBF8C01D5
:1008C00066EB73E00E940D2166EB73E0CE010D969E
:1008D0000E940D210E94B10364EC73E0CE010196E9
:1008E0000E94C614BE016F5F7F4FCE010D960E941D
:1008F0004421CE0101960E949F2021E030E040E09B
:1009000050E0BE01635F7F4FCE0101960E945523E8
:1009100068E472E0CE0101960E940423F82ECE0115
:1009200001960E949F20FF2019F0FF24FA9402C034
:1009300097EFF92E29893A8942E050E0BE01635FC2
:100940007F4FCE0101960E945523BE016F5F7F4FFE
:10095000C8010E944421CE0101960E949F2064ECB0
:1009600073E0CE0101960E940B14BE016F5F7F4FB2
:10097000C8010E947E22CE0101960E949F2084EC35
:1009800093E00E943B0866E071E083E594E00E94FA
:10099000921F64EC73E0CE0101960E944E08BE01E6
:1009A0006F5F7F4FCE010D960E944421CE010196CC
:1009B0000E949F2062E171E0CE010D960E94042307
:1009C000811103C02F2D2F77F22E65E171E083E5B1
:1009D00094E00E94921F64EC73E0CE0101960E94A5
:1009E0004E08BE016F5F7F4FCE010D960E944421DD
:1009F000CE0101960E949F20CE010D960E949A235F
:100A0000262F2295207F2F682F2140E1622FCE01D3
:100A100007962B8B0E947C21BE01695F7F4FCE0120
:100A200001960E945B21B801CE0101960E94D72257
:100A3000BC01C8010E944421CE0101960E949F2062
:100A4000CE0107960E949F202B89203198F469E4FB
:100A500072E0CE0101960E940D21B801CE010196EF
:100A60000E94D722BC01C8010E944421CE010196F8
:100A70000E949F2080912104909122048031910551
:100A800030F467E472E0C8010E94852212C08F3FF3
:100A9000910509F030F468E472E0C8010E948522F3
:100AA00008C08115904128F469E472E0C8010E94F1
:100AB0008522609121047091220440E1CE010196CB
:100AC0000E94D521BE016F5F7F4FC8010E947E2228
:100AD000CE0101960E949F208BE1E82E84E0F82E43
:100AE0006701F701808191818031910530F467E4DD
:100AF00072E0C8010E94852212C08F3F910509F063
:100B000030F468E472E0C8010E94852208C08115B3
:100B1000904128F469E472E0C8010E94852222E035
:100B2000E20EF11CF6016081718140E1CE01019677
:100B30000E94D521BE016F5F7F4FC8010E947E22B7
:100B4000CE0101960E949F20F1E2EF16F4E0FF062D
:100B500039F680911D0490911E0490932004809397
:100B60001F0480911B0490911C0490931E04809399
:100B70001D04809121049091220490931C04809381
:100B80001B041092220410922104CE010D960E94A3
:100B90009F20C80163960FB6F894DEBF0FBECDBF8D
:100BA000DF91CF911F910F91FF90EF90DF90CF9049
:100BB0000895CF93DF9300D000D000D0CDB7DEB73B
:100BC00084EC93E00E946F1540E855E260E070E02D
:100BD00083E394E00E94421A83E594E00E94161990
:100BE00021E020930B04E1E8F0E080E180831092A3
:100BF000800085E08093F8048FEF9FEF9093FA04D4
:100C00008093F904909387008093860085E1808328
:100C100020930A0483E593E09093F7048093F6040D
:100C200020936F0060E271E0CE0101960E940D21D9
:100C3000BE016F5F7F4F84EC93E00E942D08CE01D0
:100C400001960E949F200E94B10361E770E088E056
:100C500095E00E942E1FCE0101960E944F04BE0116
:100C60006F5F7F4F88E095E00E94801FCE01019664
:100C70000E949F2026960FB6F894DEBF0FBECDBF10
:100C8000DF91CF910895CF93DF9300D000D000D0B3
:100C9000CDB7DEB766E271E00E9404238823D9F065
:100CA00068E670E088E095E00E942E1F0E94B10384
:100CB0004AE0BC01CE0101960E94D521BE016F5FC2
:100CC0007F4F88E095E00E94801FCE0101960E9430
:100CD0009F2081E001C080E026960FB6F894DEBF29
:100CE0000FBECDBFDF91CF9108951F93CF93DF93B8
:100CF00000D000D000D0CDB7DEB780911304882398
:100D000001F1CE0101960E944F04BE016F5F7F4F3B
:100D10008DE294E00E944421CE0101960E949F2022
:100D20006DE274E0CE0101960E945B21BE016F5F0F
:100D30007F4F84EC93E00E94DC0CCE0101960E9470
:100D40009F2080912304909124040D973CF11092F0
:100D5000240410922304CE0101960E944F04BE0188
:100D60006F5F7F4F8DE294E00E944421CE01019697
:100D70000E949F2081E0809313046DE274E0CE0115
:100D800001960E945B21BE016F5F7F4F84EC93E070
:100D90000E94DC0CCE0101960E949F2088E095E025
:100DA0000E94F61C181619060CF068C088E095E041
:100DB0000E940F1D80932604682F88E095E00E9412
:100DC000631F6091260487E294E00E94952280913F
:100DD00026048A3009F052C0109224041092230491
:100DE00020912B0430912C042250310940E050E036
:100DF00067E274E0CE0101960E945523BE016F5F49
:100E00007F4F87E294E00E944421CE0101960E9428
:100E10009F2067E274E0CE0101960E945B21BE0133
:100E20006F5F7F4F84EC93E00E94DF0D182FCE019F
:100E300001960E949F2011111BC067E274E0CE0151
:100E400001960E945B21CE0101960E944306182F55
:100E5000CE0101960E949F2011110AC01092240415
:100E60001092230467E274E083E594E00E94801FFF
:100E700066EB73E087E294E00E94642183E594E0EE
:100E80000E94E818181619065CF483E594E00E94A5
:100E90005C1880932504682F88E095E00E94631F0A
:100EA00026960FB6F894DEBF0FBECDBFDF91CF916F
:100EB0001F9108954115510529F4EAE7F0E080817A
:100EC0008F7780836A307105B1F063FF02C088E2DA
:100ED00001C088E06770682B88E190E00FB6F89455
:100EE000A895809360000FBE60936000E0E6F0E09C
:100EF000808180648083232BA1F483B7817F846009
:100F000083BFF89483B7816083BF85B7806685BF50
:100F10008F7D85BF7894889583B78E7F83BF7894C3
:100F20000EC083B7817F846083BFF89483B78160EC
:100F300083BF7894889583B78E7F83BF7894452B41
:100F400029F4EAE7F0E080818068808308951F92A9
:100F50000F920FB60F9211248F9388E10FB6F89479
:100F600080936000109260000FBE8F910F900FBEB3
:100F70000F901F90189508950C9427280C942F28F3
:100F8000CF93DF93EC01FB01248135810E9455232F
:100F9000CE01DF91CF9108951F93CF93DF93EC01A2
:100FA000162F66EB73E00E940D2166EB73E0CE0115
:100FB00006960E940D2166EB73E0CE010C960E940E
:100FC0000D2166EB73E0CE0142960E940D2166EB87
:100FD00073E0CE0148960E940D216EE271E0CE01D1
:100FE0004E960E940D2166EB73E0CE0184960E941E
:100FF0000D2166EB73E0CE018A960E940D2166EB0F
:1010000073E0CE01C0960E940D2163E371E0CE0132
:10101000C6960E940D2166EB73E0CE01CC960E942D
:101020000D21FE01E15BFF4F1082359681E0808348
:10103000CA5ADF4F1883DF91CF911F91089560E066
:1010400084E00E94C01C64E670E080E090E00E94B2
:10105000FB1B61E084E00C94C01C0C960C944421B2
:1010600020E048E067E083E594E00C94121A83E501
:1010700094E00C94B91983E594E00E94E8181816DE
:1010800019065CF462E070E080E090E00E94FB1BD7
:1010900083E594E00E945C18EECF0895EF92FF92F2
:1010A0000F931F93CF93DF9300D000D000D0CDB724
:1010B000DEB78C017B0166EB73E00E940D2183E5B6
:1010C00094E00E94E8181816190634F060E070E009
:1010D000CB010E94FB1BF3CF85E5E80EF11C83E5F5
:1010E00094E00E94E8181816190664F583E594E068
:1010F0000E945C18F7018083682FC8010E94952226
:1011000060E070E0CB010E94FB1B0E94F71AF70120
:1011100080818A3021F7F8012481358122503109FC
:1011200040E050E0B801CE0101960E945523BE0177
:101130006F5F7F4FC8010E944421CE0101960E943B
:101140009F20CDCFC80126960FB6F894DEBF0FBE04
:10115000CDBFDF91CF911F910F91FF90EF90089538
:10116000CF92DF92EF92FF920F931F93CF93DF9373
:10117000CDB7DEB72C970FB6F894DEBF0FBECDBF4C
:101180007C018B016A0166EB73E0CE0107960E9439
:101190000D2167E371E0CE0101960E940D21B60199
:1011A000CE0101960E94D722BC0183E594E00E9403
:1011B000801FCE0101960E949F20B801CE010196AA
:1011C0000E944E08BE016F5F7F4FCE0107960E94BE
:1011D0004421CE0101960E949F2061E471E0CE017E
:1011E00007960E94042398012C5B3F4F69018823D6
:1011F00071F0F90110826FEE70E088E095E00E94D6
:101200006E1F6FE471E0C7010E940D212CC0B80170
:10121000CE0101960E944E08BE016F5F7F4FCE0146
:1012200007960E944421CE0101960E949F2066E508
:1012300071E0CE0107960E940423882321F081E00B
:10124000F601808308C0F601108266EC70E088E049
:1012500095E00E946E1FC8010E943B0862E172E0A7
:10126000C7010E940D21CE0107960E949F20C70151
:101270002C960FB6F894DEBF0FBECDBFDF91CF9195
:101280001F910F91FF90EF90DF90CF9008955F92A4
:101290006F927F928F929F92AF92BF92CF92DF9286
:1012A000EF92FF920F931F93CF93DF93CDB7DEB7EB
:1012B00062970FB6F894DEBF0FBECDBF7C018B01E5
:1012C00066EB73E0CE010D960E940D218FE090E059
:1012D0000E94BC0798012A5C3F4F69018F3F31F49F
:1012E00063E371E0C9010E94642105C06FE571E00C
:1012F000C9010E9464216BEB70E088E095E00E94D8
:101300002E1FB60188E095E00E94801F380134E46A
:10131000630E711C580182E5A80EB11C4801E5E47A
:101320008E0E911C83E0582EF301808181115CC0E8
:101330006EEA70E088E095E00E946E1FF501808102
:101340009181019691838083B601CE0107960E9418
:101350005B21AE01495F5F4FB801CE0101960E944B
:10136000B008BE016F5F7F4FCE010D960E944421F1
:10137000CE0101960E949F20CE0107960E949F20D9
:101380006FE471E0CE010D960E940423882331F0B2
:101390006FE471E0C7010E940D2134C05A9421F618
:1013A000F4018081882331F064E671E0C7010E9476
:1013B0000D2128C0C8010E941F08B801CE01019666
:1013C0000E944E08BE016F5F7F4FCE010D960E94B6
:1013D0004421CE0101960E949F2062E970E088E0DE
:1013E00095E00E946E1F9ECF6FE770E088E095E069
:1013F0000E946E1FC8010E943B0862E172E0C701B3
:101400000E940D21CE010D960E949F20C701629679
:101410000FB6F894DEBF0FBECDBFDF91CF911F9105
:101420000F91FF90EF90DF90CF90BF90AF909F9083
:101430008F907F906F905F9008954F925F926F9220
:101440007F928F929F92AF92BF92CF92DF92EF9254
:10145000FF920F931F93CF93DF93CDB7DEB72C97F7
:101460000FB6F894DEBF0FBECDBF6C017B014A0101
:101470005901380166EB73E0CE0107960E940D21F9
:101480008701005D1F4F66EB73E0C8010E94642175
:10149000270184E4480E511CF2018081811129C08A
:1014A000B701CE0101960E944709BE016F5F7F4FD1
:1014B000CE0107960E944421CE0101960E949F20F2
:1014C0006FE471E0CE0107960E940423882331F077
:1014D0006FE471E0C6010E940D216EC162E172E00D
:1014E000CE0107960E940423882319F081E0F201BF
:1014F000808363E871E0C4010E9404238823D9F04B
:1015000065E871E0CE0101960E940D21B501CE0182
:1015100001960E94D72269E272E00E94EA22B3019A
:101520000E94D722BC0183E594E00E94801FCE0177
:1015300001960E949F2063E971E0C4010E94042388
:101540008823D9F065E971E0CE0101960E940D2152
:10155000B501CE0101960E94D72269E272E00E9495
:10156000EA22B3010E94D722BC0183E594E00E94E5
:10157000801FCE0101960E949F20B701CE010196E7
:101580000E944E08BE016F5F7F4FCE0107960E94FA
:101590004421CE0101960E949F2061EA71E0CE01B4
:1015A00001960E940D21BE01695F7F4FCE01019619
:1015B0000E94D722BC0188E095E00E94801FCE01E6
:1015C00001960E949F2063EB71E0CE0107960E9476
:1015D00004238823D9F0F2011082B701CE010196CD
:1015E0000E944709BE016F5F7F4FCE0107960E94A0
:1015F0004421CE0101960E949F206FE471E0CE014C
:1016000007960E940423811163CF46C065EC71E008
:10161000CE0107960E940423882379F066E071E0EA
:1016200088E095E00E946E1FF201108260ED71E08B
:1016300083E594E00E94921F16C06AED71E0CE012E
:1016400007960E940423882369F16EEF70E088E01A
:1016500095E00E946E1F60ED71E083E594E00E94CA
:10166000921FF2011082B701CE0101960E944E082E
:10167000BE016F5F7F4FCE0107960E944421CE01CD
:1016800001960E949F20B701CE0101960E94470952
:10169000CE0101960E949F206EEB71E0C6010E9470
:1016A0000D218AC06FED71E0CE0107960E940423E0
:1016B000882331F06DEE71E0C6010E940D217CC0DF
:1016C00064E670E080E090E00E94FB1BB701CE0171
:1016D00001960E944E08BE016F5F7F4FCE010796B4
:1016E0000E944421CE0101960E949F206CEF71E080
:1016F000CE0101960E940D21BE01695F7F4FCE0190
:1017000001960E94D722BC0188E095E00E94801FCC
:10171000CE0101960E949F206BE072E0CE010796F9
:101720000E940423811133C047E050E0BE01695F8D
:101730007F4FCE0101960E94C007BE016F5F7F4FB1
:10174000C8010E944421CE0101960E949F2060E2C0
:10175000C8010E94512399270196AC01B801CE011E
:1017600001960E94C00765E172E0CE0101960E94D9
:101770000423811112C068E172E0CE0101960E943B
:10178000042381110AC0CE0101960E949F2062E1CC
:1017900072E0C6010E940D210FC061E089E00E9445
:1017A000C01C68EC70E080E090E00E94FB1B60E0F1
:1017B00089E00E94C01CE7CFCE0107960E949F20BF
:1017C000C6012C960FB6F894DEBF0FBECDBFDF91D9
:1017D000CF911F910F91FF90EF90DF90CF90BF902E
:1017E000AF909F908F907F906F905F904F900895F3
:1017F000AF92BF92CF92DF92EF92FF920F931F931F
:10180000CF93DF93CDB7DEB72C970FB6F894DEBF3A
:101810000FBECDBF8C015B0188E10FB6F8948093B9
:101820006000109260000FBECB010E949A236B01F2
:101830007C01B501C8014E960E944421C701B60142
:101840000E940C2420E030E64AE657E40E949824E7
:1018500020E030E443E855E40E94A523AB01BC013D
:1018600020E0CE0107960E9401226BE172E0CE01DA
:1018700001960E940D21B501CE0101960E94D7224A
:101880006BE272E00E94EA22BC0188E095E00E94CF
:10189000801FCE0101960E949F2061E372E0CE017D
:1018A00001960E940D21BE01695F7F4FCE01019616
:1018B0000E94D722BC0183E594E00E94801FCE01E4
:1018C00001960E949F2064E670E080E090E00E9414
:1018D000FB1B60E08DE00E94C01CF801EA5BFF4F3B
:1018E00010823996108243E050E06BEB77E080E0A5
:1018F0000E94F81A88E10FB6F89480936000109265
:1019000060000FBE20E030E040E050E06AE070E0B0
:1019100082E594E00E945A0780E00E94181BF801BB
:10192000E15BFF4F81E0808361E08DE00E94C01C9D
:101930006CE372E083E594E00E94921F20E030E0C7
:1019400040E050E066E070E082E594E00E945A07D3
:1019500083E594E00E94E81818161906CCF7B80140
:10196000CE0101960E944E0862E172E0CE0101961E
:101970000E940423182FCE0101960E949F2011235C
:1019800031F068E371E088E095E00E946E1FCE01BF
:1019900007960E949F202C960FB6F894DEBF0FBECC
:1019A000CDBFDF91CF911F910F91FF90EF90DF900E
:1019B000CF90BF90AF900895CF92DF92EF92FF92B9
:1019C0000F931F93CF93DF93CDB7DEB7A4970FB6D6
:1019D000F894DEBF0FBECDBF7C018B0166EB73E0D8
:1019E000CE014F960E940D2166EB73E0CE01499621
:1019F0000E940D2167018FE4C80ED11CF6011082F0
:101A0000B801CE0149960E9444216BE472E0CE01F8
:101A100001960E940D21BE01675E7F4FCE010196A7
:101A20000E94D722BC0188E095E00E94801FCE0171
:101A300001960E949F20BE01675E7F4FCE010796F0
:101A40000E945B21B7016E5E7F4FCE010D960E9412
:101A50005B2163E871E0CE0143960E940D218E0167
:101A6000095F1F4F9E01235F3F4FAE014D5E5F4FE9
:101A7000B701CE0101960E941D0ABE016F5F7F4F24
:101A8000CE014F960E944421CE0101960E949F20D4
:101A9000CE0143960E949F20CE010D960E949F206A
:101AA000C8010E949F2068E572E0CE0101960E9465
:101AB0000D21BE01615E7F4FCE0101960E94D722AB
:101AC000BC0188E095E00E94801FCE0101960E9433
:101AD0009F206EEB71E0CE014F960E940423882375
:101AE00031F081E0F60180833497808351C0870113
:101AF000005B1F4FF8018081918101969183808363
:101B000063E371E088E095E00E942E1FF801608198
:101B100071814AE0CE0101960E94A921BE016F5F4A
:101B20007F4F88E095E00E94801FCE0101960E94C1
:101B30009F2063E271E088E095E00E942E1FF7018C
:101B4000EE5AFF4F608171814AE0CE0101960E94FA
:101B5000A921BE016F5F7F4F88E095E00E94801F42
:101B6000CE0101960E949F20C7010E943B08B70149
:101B7000625E7F4FCE0101960E945B21BE016F5FC6
:101B80007F4FC7010E94F80BCE0101960E949F2053
:101B9000CE0149960E949F20CE014F960E949F2021
:101BA000A4960FB6F894DEBF0FBECDBFDF91CF91E4
:101BB0001F910F91FF90EF90DF90CF9008959F922B
:101BC000AF92BF92CF92DF92EF92FF920F931F934B
:101BD000CF93DF93CDB7DEB7A4970FB6F894DEBFEF
:101BE0000FBECDBF7C018B016CE572E0C8010E9485
:101BF0000423882309F461C066EB73E0CE010796E5
:101C00000E940D21B701605D7F4FCE0101960E94B9
:101C10005B21BE016F5F7F4FCE0107960E9444217A
:101C2000CE0101960E949F208B859C85029738F4F7
:101C300061EE72E088E095E00E946E1F7CC460E275
:101C4000CE0107960E9451238C016BED72E088E073
:101C500095E00E942E1F1127980140E050E0BE0140
:101C6000695F7F4FCE0101960E945523BE016F5FD1
:101C70007F4F88E095E00E94801FCE0101960E9470
:101C80009F2065ED72E088E095E00E942E1FA8017C
:101C90004F5F5F4FBE01695F7F4FCE0101960E948B
:101CA000C007BE016F5F7F4F88E095E00E94801FF4
:101CB000CE0101960E949F203EC429E030E040E022
:101CC00050E0B801CE0101960E94552365E672E00E
:101CD000CE0101960E940423D82ECE0101960E94C7
:101CE0009F20DD2009F44DC049E050E0B801CE014D
:101CF00001960E94C007BE016F5F7F4FC8010E941E
:101D00004421CE0101960E949F2063E371E0C80147
:101D10000E940423882369F08FE090E00E94BC07B2
:101D20008F3F09F4DEC26FEF8FE090E00E94BE07A4
:101D30001CC06FE571E0C8010E940423882369F08C
:101D40008FE090E00E94BC07882309F4CAC260E0DB
:101D50008FE090E00E94BE0708C064EC72E088E06B
:101D600095E00E946E1F81E044C5F701EC5BFF4FD8
:101D700010826EEA72E088E095E00E946E1F81E0BA
:101D800038C523E030E040E050E0B801CE010196D4
:101D90000E9455236CE772E0CE0101960E94042355
:101DA000D82ECE0101960E949F20DD2009F45CC050
:101DB00043E050E0B801CE0101960E94C007BE0189
:101DC0006F5F7F4F8701065D1F4FC8010E9444214E
:101DD000CE0101960E949F206FE672E0CE0101962F
:101DE0000E940D21B801CE0101960E94D722BC01AC
:101DF00083E594E00E94801FCE0101960E949F20FF
:101E0000B701CE0101960E944E0862E172E0CE0158
:101E100001960E940423182FCE0101960E949F2054
:101E2000112309F45EC265EA72E083E594E00E9442
:101E30006E1FB701CE0101960E944E0862E172E06A
:101E4000CE0101960E940423182FCE0101960E9414
:101E50009F20112309F445C26BE972E088E095E008
:101E60000E946E1F81E0C5C424E030E040E050E0F5
:101E7000B801CE0101960E9455236BE772E0CE01B6
:101E800001960E940423D82ECE0101960E949F2025
:101E9000DD2009F459C044E050E0B801CE010196BC
:101EA0000E94C007BE016F5F7F4FC8010E9444219E
:101EB000CE0101960E949F2060E872E0CE0101965B
:101EC0000E940D21B801CE0101960E94D722BC01CB
:101ED00083E594E00E94801FCE0101960E949F201E
:101EE000B701CE0101960E944E0862E172E0CE0178
:101EF00001960E940423182FCE0101960E949F2074
:101F0000112309F4EEC162E972E083E594E00E94D6
:101F10006E1FB701CE0101960E944E0862E172E089
:101F2000CE0101960E940423182FCE0101960E9433
:101F30009F20112309F4D5C167E872E088E095E09D
:101F40000E946E1F81E055C426E030E040E050E082
:101F5000B801CE0101960E9455236DE872E0CE01D2
:101F600001960E940423D82ECE0101960E949F2044
:101F7000DD2009F45BC046E050E0B801CE010196D7
:101F80000E94C007BE016F5F7F4FC8010E944421BD
:101F9000CE0101960E949F2064E972E0CE01019675
:101FA0000E940D21B7016C5D7F4FCE0101960E940A
:101FB000D722BC0183E594E00E94801FCE010196E8
:101FC0000E949F20B701CE0101960E944E0862E157
:101FD00072E0CE0101960E940423182FCE010196D3
:101FE0000E949F20112309F47CC16EE772E083E513
:101FF00094E00E946E1FB701CE0101960E944E0828
:1020000062E172E0CE0101960E940423182FCE01F6
:1020100001960E949F20112309F463C161E772E0D9
:1020200088E095E00E946E1F81E0E3C325E030E088
:1020300040E050E0B801CE0101960E94552364EAC9
:1020400072E0CE0101960E940423D82ECE010196A3
:102050000E949F20DD2009F442C045E050E0B80115
:10206000CE0101960E94C007BE016F5F7F4FC8017D
:102070000E944421CE0101960E949F2022E1E20E9F
:10208000F11CB801C7010E944421C7010E949A2394
:10209000673E71058105910544F06EE572E088E0C8
:1020A00095E00E946E1F80E0A4C3C7010E949A239E
:1020B0008AE090E00E94BE0764E572E088E095E067
:1020C0000E942E1FB80188E095E00E94531F62E431
:1020D00072E088E095E00E946E1F81E08AC326E0EE
:1020E00030E040E050E0B801CE0101960E94552357
:1020F0006AEA72E0CE0101960E940423D82ECE0136
:1021000001960E949F20DD2009F44BC061E089E028
:102110000E94C01C66EB73E0CE014F960E940D2119
:1021200046E050E0B801CE0101960E94C007BE0112
:102130006F5F7F4FC8010E944421CE0101960E942B
:102140009F2069E372E088E095E00E942E1FB801AD
:1021500088E095E00E94801FB801C7010E944421D9
:1021600068E272E088E095E00E942E1F87010E5E13
:102170001F4FB80188E095E00E94531F61EB72E0A9
:1021800088E095E00E94921FB701CE010D960E9453
:102190005B21B801CE0143960E945B2163E871E0A8
:1021A00061C026E030E040E050E0B801CE01019689
:1021B0000E94552360EC72E0CE0101960E94042338
:1021C000D82ECE0101960E949F20DD2009F48BC0FD
:1021D00061E089E00E94C01C66EB73E0CE014F967F
:1021E0000E940D2146E050E0B801CE0101960E9408
:1021F000C007BE016F5F7F4FC8010E944421CE011E
:1022000001960E949F206FE172E088E095E00E94B5
:102210002E1FB80188E095E00E94801FB801C70119
:102220000E9444216EE072E088E095E00E942E1F3B
:1022300087010E5E1F4FB80188E095E00E94531F92
:1022400061EB72E088E095E00E94921FB701CE0139
:102250000D960E945B21B801CE0143960E945B213E
:1022600063E971E0CE0149960E940D218E01035F62
:102270001F4F9E012D5E3F4FAE01475E5F4FB7017E
:10228000CE0107960E941D0A65EB72E0CE01019611
:102290000E940D21BE01695F7F4FCE0101960E9411
:1022A000D722BC0188E095E00E94801FCE010196F4
:1022B0000E949F20CE0107960E949F20CE01499642
:1022C0000E949F20CE0143960E949F20C8010E9439
:1022D0009F2060E089E00E94C01CCE014F960E94C2
:1022E0009F2081E086C267EC72E0C8010E9404234F
:1022F000882309F426C166EB73E0CE0107960E949D
:102300000D2168EE71E088E095E00E946E1F6CED93
:1023100071E088E095E00E942E1F6CEC72E083E58E
:1023200094E00E94921FB701CE0101960E944E08D0
:10233000BE016F5F7F4FCE0107960E944421CE0100
:1023400001960E949F20BE01695F7F4F88E095E063
:102350000E94801F6CEC71E088E095E00E942E1FC7
:102360006BED72E083E594E00E94921FB701CE010D
:1023700001960E944E08BE016F5F7F4FCE01079607
:102380000E944421CE0101960E949F20BE01695FF8
:102390007F4F88E095E00E94801F6BEB71E088E042
:1023A00095E00E942E1F6BEE72E083E594E00E94A0
:1023B000921FB701CE0101960E944E08BE016F5FC9
:1023C0007F4FCE0107960E944421CE0101960E94C4
:1023D0009F20BE01695F7F4F88E095E00E94801FCB
:1023E0006EEA71E088E095E00E942E1F6AEF72E0CD
:1023F00088E095E00E94921F62EA71E088E095E033
:102400000E942E1FB701645F7F4F88E095E00E9415
:10241000801F65E971E088E095E00E942E1F6EEF55
:1024200072E083E594E00E94921FB701CE0101960D
:102430000E944E08BE016F5F7F4FCE0107960E943B
:102440004421CE0101960E949F20BE01695F7F4F0B
:1024500088E095E00E94801F6CE871E088E095E0DC
:102460000E942E1F6AE073E083E594E00E94921FB1
:10247000B701CE0101960E944E08BE016F5F7F4FEB
:10248000CE0107960E944421CE0101960E949F2012
:10249000BE01695F7F4F88E095E00E94531F66E1AF
:1024A00073E088E095E00E94921F68E871E088E0A0
:1024B00095E00E942E1F65E171E083E594E00E94A3
:1024C000921FB701CE0101960E944E08BE016F5FB8
:1024D0007F4FCE0107960E944421CE0101960E94B3
:1024E0009F20BE01695F7F4F88E095E00E94801FBA
:1024F00063E871E088E095E00E942E1F66E071E0DD
:1025000083E594E00E94921FB701CE0101960E94DC
:102510004E08BE016F5F7F4FCE0107960E94442197
:10252000CE0101960E949F20BE01695F7F4F88E027
:1025300095E00E94801FCE0107960E949F2081E0B7
:1025400058C169E173E0C8010E940423882309F49B
:102550006BC066EB73E0CE0107960E940D216AE71F
:1025600071E083E594E00E946E1F83E594E00E9491
:10257000E81818161906CCF735E5E30EF11C83E5CB
:1025800094E00E94E818181619060CF046C083E57E
:1025900094E00E945C18F7018083682FCE010796B3
:1025A0000E949522F70180818A3049F72B853C856E
:1025B0002250310940E050E0BE01695F7F4FCE01FB
:1025C00001960E945523BE016F5F7F4FCE01079693
:1025D0000E944421CE0101960E949F2061EA71E091
:1025E000CE0101960E940D21BE01695F7F4FCE0191
:1025F00001960E94D722BC0188E095E00E94801FCE
:10260000CE0101960E949F2062E172E0CE01079602
:102610000E9404238111B3CF8ECF6CE571E088E076
:1026200095E00E946E1F87CF26E030E040E050E04A
:10263000B801CE0101960E9455236EE173E0CE01F0
:1026400001960E940423D82ECE0101960E949F205D
:10265000DD20F9F046E050E0B801CE0101960E947D
:10266000C007BE016F5F7F4FC8010E944421CE01A9
:1026700001960E949F20F80184819581892B31F178
:10268000C8010E949A23161617061806190634F177
:102690001DC063E473E0C8010E940423882349F04D
:1026A000B701685E7F4F88E095E00E94801F81E05F
:1026B000A0C064ED71E0C8010E940423882321F0CA
:1026C000C7010E941F080DCE80E093C06EE471E048
:1026D00088E095E00E946E1F81E08BC0C8010E94D7
:1026E0009A23603177428105910544F06FE371E0F0
:1026F00088E095E00E946E1F81E07BC06701FEE1EB
:10270000CF0ED11CB801C6010E94442100E010E0A8
:1027100094E0A92EB12CF70182A193A19501281B69
:10272000390B02171307B0F469E472E0CE01019689
:102730000E940D21B601CE0101960E94D722BC0154
:10274000C6010E944421CE0101960E949F200F5F86
:102750001F4FE1CF65E273E0CE0101960E940D218B
:10276000B601CE0101960E94D7226CE272E00E946F
:10277000EA22BC0188E095E00E94801FCE0101960C
:102780000E949F20A12CB12C85010F5F1F4FC80113
:102790000E94BC07982EB501C6010E942323492D33
:1027A00050E0FC012081332727FD30954217530765
:1027B00029F404301105C1F05801E6CF00E010E023
:1027C000B801C6010E9423230F5F1F4FFC016081E7
:1027D000C8010E94BE070430110591F761E373E060
:1027E00088E095E00E94921FF701E15BFF4F81E0D6
:1027F0008083A4960FB6F894DEBF0FBECDBFDF91E5
:10280000CF911F910F91FF90EF90DF90CF90BF90ED
:10281000AF909F900895AF92BF92CF92DF92EF92C8
:10282000FF920F931F93CF93DF93CDB7DEB76297DD
:102830000FB6F894DEBF0FBECDBF8C017B0166EBF7
:1028400073E0CE010D960E940D2166EB73E0CE0180
:1028500007960E940D2166EB73E0C8010E940D21CE
:1028600083E594E00E94E818181619062CF483E515
:1028700094E00E945C18F4CF6AE073E083E594E092
:102880000E94921FB701CE0101960E944E08BE0120
:102890006F5F7F4FCE010D960E944421CE010196BD
:1028A0000E949F2022E030E040E050E0BE01635FE4
:1028B0007F4FCE0101960E945523CE0101960E94C2
:1028C0009A236B017C01CE0101960E949F2080E13A
:1028D000C816D1042CF469E472E0C8010E94852274
:1028E00040E1B601CE0101960E94A921BE016F5FB1
:1028F0007F4FC8010E947E22CE0101960E949F2038
:1029000042E050E0BE01635F7F4FCE0101960E941E
:10291000C007CE0101960E949A236B017C01CE0173
:1029200001960E949F2080E1C816D1042CF469E42E
:1029300072E0C8010E94852240E1B601CE010196F5
:102940000E94A921BE016F5F7F4FC8010E947E22B5
:10295000CE0101960E949F20CE0107960E949F20E3
:10296000CE010D960E949F20C80162960FB6F89482
:10297000DEBF0FBECDBFDF91CF911F910F91FF90B2
:10298000EF90DF90CF90BF90AF900895CF92DF92FD
:10299000EF92FF920F931F93CF93DF93CDB7DEB7E4
:1029A0002C970FB6F894DEBF0FBECDBF8C017B0114
:1029B00066EB73E0CE0107960E940D2166EB73E093
:1029C000C8010E940D2183E594E00E94E8181816C2
:1029D00019062CF483E594E00E945C18F4CF68E4B7
:1029E00073E083E594E00E94921FB701CE01019647
:1029F0000E944E08BE016F5F7F4FCE0107960E9476
:102A00004421CE0101960E949F2021E030E040E069
:102A100050E0BE01695F7F4FCE0101960E945523B1
:102A200066E573E0CE0101960E940423F82ECE01E4
:102A300001960E949F20FF20D1F068E573E0C80155
:102A40000E94852241E050E0BE01695F7F4FCE01C8
:102A500001960E94C007BE016F5F7F4FCE010796AF
:102A60000E944421CE0101960E949F2005C068E487
:102A700072E0C8010E948522CE0107960E949A2327
:102A80006B017C0180E1C816D1042CF469E472E08A
:102A9000C8010E94852240E1B601CE0101960E9444
:102AA000A921BE016F5F7F4FC8010E947E22CE0127
:102AB00001960E949F20CE0107960E949F20C80188
:102AC0002C960FB6F894DEBF0FBECDBFDF91CF912D
:102AD0001F910F91FF90EF90DF90CF9008958F920C
:102AE0009F92AF92BF92CF92DF92EF92FF920F939D
:102AF0001F93CF93DF93CDB7DEB76E970FB6F894E1
:102B0000DEBF0FBECDBF7C0160E082E00E94871C6B
:102B100061E08DE00E94871C61E089E00E94871CD3
:102B200061E084E00E94871C60E084E00E94C01C99
:102B300061E089E00E94C01C61E08DE00E94C01C41
:102B400060E971E080E090E00E94FB1B61E084E0BE
:102B50000E94C01C61E089E00E94C01C26E040E0A9
:102B600052EC61E070E088E095E00E94D91D40E001
:102B700051EE60E070E083E594E00E94421A6BEC55
:102B800074E088E095E00E946E1F83E594E00E9467
:102B9000E8181816190684F483E594E00E945C187E
:102BA000682F88E095E00E94631F65E070E080E098
:102BB00090E00E94FB1BE9CF6FEB74E083E594E0AB
:102BC0000E946E1F68EC70E080E090E00E94FB1BAA
:102BD0006BE573E083E594E00E949420882309F478
:102BE00066C069EA74E088E095E00E946E1FF70114
:102BF000EA5AFF4F8081813009F060C06EE674E0D0
:102C00008701085E1F4FC8010E9431226CE474E006
:102C1000C8010E94A8226FE274E0C8010E94A822A5
:102C20006DE074E0C8010E94A8226FEE73E0C80155
:102C30000E94A8226DEC73E0C8010E94A82263EBF9
:102C400073E0C8010E94A82260E973E0C8010E94F5
:102C5000A822B80188E095E00E94531F6BE673E05C
:102C600088E095E00E946E1F6FE573E088E095E0D4
:102C70000E946E1F63E573E083E594E00E946E1F7F
:102C800062E370E080E090E00E94FB1BB701CE01A0
:102C900001960E944E08BE016F5F7F4F88E095E06D
:102CA0000E94801FCE0101960E949F2007C064E908
:102CB00074E088E095E00E946E1FFFCF6CED75E038
:102CC00080E090E00E94FB1B60E089E00E94C01C55
:102CD00066EB73E0C70106960E946421B701CE013E
:102CE00007960E940B1462E673E0CE0101960E94E3
:102CF0000D21BE01695F7F4FCE0101960E94D72250
:102D0000BC0188E095E00E94801FCE0101960E94E0
:102D10009F20CE0107960E949F20B701CE01079603
:102D20000E94C61460E773E0CE0101960E940D2157
:102D3000BE01695F7F4FCE0101960E94D722BC0180
:102D400088E095E00E94801FCE0101960E949F209E
:102D5000CE0107960E949F206AE273E088E095E02A
:102D60000E946E1F570124E4A20EB11CF5011082CF
:102D700080E090E00E94BC079701225E3F4F69010E
:102D80008C3AD9F061E173E088E095E00E946E1F13
:102D900000E010E0B801C6010E9423230F5F1F4F1F
:102DA000FC016081C8010E94BE070430110591F743
:102DB0006CEA80E090E00E94BE0700E010E0B801FD
:102DC000C6010E9423234C010F5F1F4FC8010E94C0
:102DD000BC07F40180830430110589F76AE773E0CA
:102DE000CE0101960E940D21B601CE0101960E94EE
:102DF000D722BC0188E095E00E94801FCE01019699
:102E00000E949F206701F2E1CF0ED11C66EB73E0B8
:102E1000C6010E9464218AE090E00E94BC074AE05B
:102E2000682FCE0101960E947C21BE016F5F7F4F0B
:102E3000C6010E944421CE0101960E949F208AE093
:102E400090E00E94BC078F3F29F46CEF72E0C6014E
:102E50000E94642166E873E0CE0101960E940D2174
:102E6000B601CE0101960E94D722BC0188E095E010
:102E70000E94801FCE0101960E949F208FE090E06B
:102E80000E94BC0797012A5C3F4F8F3F31F463E3F8
:102E900071E0C9010E94642105C06FE571E0C901BC
:102EA0000E94642166EB73E0CE0149960E940D21D9
:102EB000F501108281E0F701EB5BFF4F8083B701E2
:102EC000CE0101960E944709BE016F5F7F4FCE0180
:102ED00049960E944421CE0101960E949F20BE0186
:102EE000675E7F4F88E095E00E94801F62E172E09C
:102EF000CE0149960E940423882309F4B6C0C70175
:102F00000E943B0862E073E083E594E00E946E1F3C
:102F1000B701CE0101960E944E08BE016F5F7F4F40
:102F2000CE0149960E944421CE0101960E949F2025
:102F30006CE873E0CE0101960E940D21BE01675E30
:102F40007F4FCE0101960E94D722BC0188E095E018
:102F50000E94801FCE0101960E949F206AEE72E0BF
:102F600088E095E00E946E1FBE01675E7F4FCE0134
:102F700007960E945B21B601CE010D960E945B214F
:102F80005E01F3E1AF0EB11C63E871E0C5010E9480
:102F90000D218E01095F1F4F9E01235F3F4FA50149
:102FA000B701CE0101960E941D0ABE016F5F7F4FDF
:102FB000CE0149960E944421CE0101960E949F2095
:102FC000C5010E949F20CE010D960E949F20C8013E
:102FD0000E949F2062E172E0CE0149960E94042384
:102FE000882329F0F701EB5BFF4F10823EC06FE4AE
:102FF00071E0CE0149960E9404238111F3CFBE01F6
:10300000675E7F4FCE0107960E945B21B601CE011D
:103010000D960E945B2163E871E0C5010E940D21BD
:103020008E01095F1F4F9E01235F3F4FA501B7012E
:10303000CE0101960E941D0A62E172E0CE01019666
:103040000E940423182FCE0101960E949F20C501E3
:103050000E949F20CE010D960E949F20CE010796D0
:103060000E949F20112359F2BDCF88E095E00E9475
:10307000F61C181619062CF488E095E00E940F1D26
:10308000F4CF88E095E00E94521DCE0149960E943F
:103090009F206E960FB6F894DEBF0FBECDBFDF91B6
:1030A000CF911F910F91FF90EF90DF90CF90BF9045
:1030B000AF909F908F9008952091F4043091F50483
:1030C00028173907B9F49091720480917304981706
:1030D00089F0E0917204F0E0EC58FB4F8081209180
:1030E000720430E02F5F3F4F2F7733272093720415
:1030F00090E008958FEF9FEF08951F93CF93DF9394
:10310000DC015C968D919C915D97009749F481E07C
:1031100090E013969C938E93129780E090E03BC0D2
:103120005196ED91FC91529750962C915097322FD9
:1031300030951FB75E964C915E9741FB772770F9EB
:1031400041FD6095F8944081772311F0422B01C036
:1031500043234083EC012197F1F748E0508160FF61
:1031600002C0522B01C053235083EC012197F1F789
:103170006695415099F78081772311F0832301C030
:10318000822B80831FBF5C968D919C915D970197E8
:10319000F1F781E090E0DF91CF911F9108950895BC
:1031A0002091F4043091F5042817390771F49091B7
:1031B000720480917304981741F0E0917204F0E07A
:1031C000EC58FB4F808190E008958FEF9FEF0895BA
:1031D0002091F4043091F5042817390771F4809197
:1031E00073042091720490E080589F4F821B9109D4
:1031F00060E870E00E94FB24089580E090E008956C
:10320000E091F404F091F504E817F90769F4A38953
:10321000B4899C918589809589238C931092F504BB
:103220001092F40481E0089580E00895CF93DF9335
:10323000EC018A8D9B8D892BF1F08091F4049091A3
:10324000F5048C179D07B9F0009711F00E94001942
:103250008E8D8E7F8E8F1092730410927204D09395
:10326000F504C093F404EB89FC8980819D89892B46
:10327000808381E001C080E0DF91CF9108951F92AB
:103280000F920FB60F9211242F933F934F935F939A
:103290006F937F938F939F93AF93BF93EF93FF931E
:1032A000E091F404F091F504309709F451C0868D53
:1032B000A685B785958581FF04C08C91892329F463
:1032C00047C08C91892309F043C0A389B4899C919C
:1032D0008589809589238C93868997890197F1F751
:1032E000208D318DA685B785758558E040E0C901F0
:1032F0000197F1F7842F90E095958795482F6C9171
:10330000672309F04068515091F7868D81FD409503
:103310008091730490E001968F7799272091720431
:10332000281749F0A0917304B0E0AC58BB4F4C9300
:103330008093730403C0868D8160868F828D938D08
:103340000197F1F7A389B4898C919589892B8C9386
:10335000FF91EF91BF91AF919F918F917F916F916D
:103360005F914F913F912F910F900FBE0F901F9043
:10337000189528E933E0FC01318320830C9400196F
:103380001F93CF93DF93EC01162F6E8D66956170BE
:1033900081E06827812F0E94C01C61E0812F0E947C
:1033A000871C812F90E0FC01E95FFA4FE491E88BE4
:1033B000FC01E55EFA4FE491F0E0EE0FFF1FE75CE1
:1033C000FA4F859194919A8B898BDF91CF911F91C0
:1033D00008951F93CF93DF93EC01162F60E0812FA8
:1033E0000E94871C8E8D81FD04C061E0812F0E94A8
:1033F000C01C1C87812F90E0FC01E95FFA4FE4912B
:10340000ED87FC01E55EFA4FE491F0E0EE0FFF1F5F
:10341000E15DFA4F859194919F878E87DF91CF91DF
:103420001F910895FF920F931F93CF93DF93EC01A9
:10343000F62E522F1B821A8208EE13E020E030E0B5
:103440000C831D832E833F8388E993E099838883CF
:103450001F8A1E8A198E188E1B8E1A8E1D8E1C8E28
:103460008E8D8E7F50FB81F98E8F642FCE010E944E
:10347000C0196F2DCE01DF91CF911F910F91FF9059
:103480000C94E919CF93DF93EC019A01AB011B8EE9
:103490001A8E198E188E1F8A1E8A60E079E08DE3DD
:1034A00090E00E943125C9012430310520F0B90196
:1034B0006350710902C061E070E07D8F6C8FEC8514
:1034C000E63108F068C0B9017695679564317105F9
:1034D00018F06351710902C061E070E07F8B6E8B60
:1034E000069718F0C901059702C081E090E0998F16
:1034F000888FC901880F991F820F931F9695879512
:10350000969587958D30910510F00C9702C081E05B
:1035100090E09B8F8A8F20916800E83050F091E016
:10352000EE3008F490E081E001C0880F9A95EAF748
:1035300001C084E0822B809368002C85283038F00D
:103540002E3040F0263148F48CE690E008C08DE63D
:1035500090E005C08BE690E002C080E090E09C8B9C
:103560008B8B283030F481E001C0880F2A95EAF770
:103570000DC0822F90E02E3010F4089701C00E97F6
:1035800091E001C0990F8A95EAF7892F8D8B8C8D78
:103590009D8D0197F1F7CE01DF91CF910C94161913
:1035A0001F920F920FB60F9211242F933F934F93B8
:1035B0005F936F937F938F939F93AF93BF93EF939B
:1035C000FF93E091F604F091F7040995FF91EF91D4
:1035D000BF91AF919F918F917F916F915F914F912B
:1035E0003F912F910F900FBE0F901F901895089547
:1035F0008230E8F4E82FF0E0EE0FFF1FE550FB4FBC
:1036000071836083813041F0809169008C7F842BCD
:1036100080936900E89A089580916900440F551FCE
:10362000440F551F837F842B80936900E99A089586
:10363000823068F4813011F0E89801C0E998E82FF1
:10364000F0E0EE0FFF1FE550FB4F1182108208954E
:103650001F920F920FB60F9211242F933F934F9307
:103660005F936F937F938F939F93AF93BF93EF93EA
:10367000FF938091FB049091FC04892B29F0E09149
:10368000FB04F091FC040995FF91EF91BF91AF917C
:103690009F918F917F916F915F914F913F912F916A
:1036A0000F900FBE0F901F9018951F920F920FB69C
:1036B0000F9211242F933F934F935F936F937F93B8
:1036C0008F939F93AF93BF93EF93FF938091FD04EC
:1036D0009091FE04892B29F0E091FD04F091FE0405
:1036E0000995FF91EF91BF91AF919F918F917F913C
:1036F0006F915F914F913F912F910F900FBE0F905F
:103700001F9018951F920F920FB60F9211242F93AE
:103710003F938F939F93AF93BF93809100059091B8
:103720000105A0910205B09103053091FF0423E04B
:10373000230F2D3720F40196A11DB11D05C026E8E9
:10374000230F0296A11DB11D2093FF048093000555
:1037500090930105A0930205B093030580910405A1
:1037600090910505A0910605B09107050196A11D50
:10377000B11D8093040590930505A0930605B093B1
:103780000705BF91AF919F918F913F912F910F901E
:103790000FBE0F901F9018952FB7F89460910005F9
:1037A0007091010580910205909103052FBF089546
:1037B0003FB7F8948091040590910505A091060506
:1037C000B091070526B5A89B05C02F3F19F00196BB
:1037D000A11DB11D3FBF6627782F892F9A2F620F39
:1037E000711D811D911D42E0660F771F881F991F73
:1037F0004A95D1F70895CF92DF92EF92FF92CF933F
:10380000DF936B017C010E94D81BEB01C114D10432
:10381000E104F10489F00E94F71A0E94D81B6C1B86
:103820007D0B683E734090F381E0C81AD108E1082F
:10383000F108C851DC4FEACFDF91CF91FF90EF90B4
:10384000DF90CF900895789484B5826084BD84B56C
:10385000816084BD85B5826085BD85B5816085BD8B
:10386000EEE6F0E0808181608083E1E8F0E01082A4
:10387000808182608083808181608083E0E8F0E0E5
:10388000808181608083E1EBF0E0808184608083CF
:10389000E0EBF0E0808181608083EAE7F0E0808106
:1038A0008460808380818260808380818160808366
:1038B0008081806880831092C1000895833081F0F8
:1038C00028F4813099F08230A1F008958730A9F072
:1038D0008830B9F08430D1F4809180008F7D03C0AE
:1038E000809180008F7780938000089584B58F77D2
:1038F00002C084B58F7D84BD08958091B0008F771C
:1039000003C08091B0008F7D8093B0000895CF9365
:10391000DF9390E0FC01E95FFA4F2491FC01E55E42
:10392000FA4F8491882349F190E0880F991FFC0198
:10393000ED5BFA4FA591B491875C9A4FFC01C5915C
:10394000D4919FB7611108C0F8948C91209582237F
:103950008C93888182230AC0623051F4F8948C9150
:10396000322F309583238C938881822B888304C0E7
:10397000F8948C91822B8C939FBFDF91CF91089507
:103980000F931F93CF93DF931F92CDB7DEB7282FEE
:1039900030E0F901ED50FB4F8491F901E95FFA4FF6
:1039A0001491F901E55EFA4F04910023C9F08823D0
:1039B00021F069830E945E1C6981E02FF0E0EE0F28
:1039C000FF1FE75CFA4FA591B4919FB7F8948C91D3
:1039D000611103C01095812301C0812B8C939FBF7F
:1039E0000F90DF91CF911F910F910895FC01818D70
:1039F000228D90E0805C9F4F821B91098F739927E5
:103A00000895FC01918D828D981731F0828DE80F19
:103A1000F11D858D90E008958FEF9FEF0895FC01D3
:103A2000918D828D981761F0828DDF01A80FB11DF5
:103A30005D968C91928D9F5F9F73928F90E0089519
:103A40008FEF9FEF089583E99EE1892B49F080E095
:103A500090E0892B29F00E94931E81110C940000A4
:103A60000895FC01848DDF01A80FB11DA35ABF4F3B
:103A70002C91848D90E001968F739927848FA6896D
:103A8000B7892C93A089B1898C9180648C93938D94
:103A9000848D981306C00288F389E02D80818F7D84
:103AA00080830895CF93DF93EC01888D8823C9F03C
:103AB000EA89FB89808185FD05C0A889B9898C9137
:103AC00086FD0FC00FB607FCF5CF808185FFF2CFD2
:103AD000A889B9898C9185FFEDCFCE010E94311D57
:103AE000E7CFDF91CF910895CF92DF92FF920F93AE
:103AF0001F93CF93DF931F92CDB7DEB76C0181E0A8
:103B0000D60158968C9358975B969C915B975C96E0
:103B10008C915C97981307C05096ED91FC9151974A
:103B2000808185FD2EC0F601038D10E00F5F1F4FD1
:103B30000F731127F02EF601848DF81211C00FB605
:103B400007FCF9CFD6015096ED91FC9151978081F9
:103B500085FFF1CFC60169830E94311D6981EBCFDA
:103B6000838DE80FF11DE35AFF4F6083D6015B960A
:103B70000C935B975296ED91FC91539780818062F4
:103B80000CC0D6015696ED91FC91579760835096E4
:103B9000ED91FC91519780818064808381E090E079
:103BA0000F90DF91CF911F910F91FF90DF90CF90F9
:103BB0000895BF92CF92DF92EF92FF92CF93DF935F
:103BC000EC016A017B01B22EE889F98982E08083E9
:103BD000411581EE580761057105A1F060E079E0BB
:103BE0008DE390E0A70196010E940F252150310935
:103BF000410951095695479537952795211580E13B
:103C0000380798F0E889F989108260E874E88EE155
:103C100090E0A70196010E940F252150310941092A
:103C200051095695479537952795EC85FD85308345
:103C3000EE85FF852083188EEC89FD89B082EA89A4
:103C4000FB89808180618083EA89FB89808188602B
:103C50008083EA89FB89808180688083EA89FB8987
:103C600080818F7D8083DF91CF91FF90EF90DF90F7
:103C7000CF90BF9008951F920F920FB60F9211240C
:103C80002F938F939F93EF93FF93E0911805F091FB
:103C900019058081E0911E05F0911F0582FD12C07B
:103CA0009081809121058F5F8F732091220582176B
:103CB00051F0E0912105F0E0E85FFA4F958F809395
:103CC000210501C08081FF91EF919F918F912F91EC
:103CD0000F900FBE0F901F9018951F920F920FB666
:103CE0000F9211242F933F934F935F936F937F9382
:103CF0008F939F93AF93BF93EF93FF9388E095E0EB
:103D00000E94311DFF91EF91BF91AF919F918F91D3
:103D10007F916F915F914F913F912F910F900FBEC7
:103D20000F901F90189588E095E00E94F61C21E006
:103D3000892B09F420E0822F089510920B05109230
:103D40000A0588EE93E0A0E0B0E080930C05909324
:103D50000D05A0930E05B0930F0588EA93E09093AC
:103D600009058093080585EC90E0909315058093F4
:103D7000140584EC90E0909317058093160580EC71
:103D800090E0909319058093180581EC90E0909352
:103D90001B0580931A0582EC90E090931D0580939B
:103DA0001C0586EC90E090931F0580931E051092F1
:103DB00021051092220510922305109224050895E2
:103DC00008950E94231C0E94E01E0E94D905C3E2B0
:103DD000DDE10E9475062097E1F30E94231DF9CFD3
:103DE000CF92DF92EF92FF920F931F93CF93DF93C7
:103DF0006C017A01EB01E60EF71E00E010E0CE1533
:103E0000DF0561F06991D601ED91FC910190F0819F
:103E1000E02DC6010995080F191FF1CFC801DF91E8
:103E2000CF911F910F91FF90EF90DF90CF90089569
:103E30006115710581F0DB010D900020E9F7AD01FE
:103E400041505109461B570BDC01ED91FC9102805A
:103E5000F381E02D099480E090E00895EF92FF92C5
:103E60000F931F93CF93DF938C01FB01C0E0D0E051
:103E700064917F018FEFE81AF80A662361F0D80198
:103E8000ED91FC910190F081E02DC8010995C80FDA
:103E9000D91FF701EDCFCE01DF91CF911F910F9187
:103EA000FF90EF900895DC01ED91FC91DB011496F9
:103EB0004D915C9115976D917C910280F381E02D7D
:103EC00009940C94181FDC01ED91FC910190F08194
:103ED000E02D099464EB73E00C94181F0F931F936B
:103EE000CF93DF93EC010E942E1F8C01CE010E9424
:103EF0006A1F800F911FDF91CF911F910F9108953D
:103F00000F931F93CF93DF93EC010E94531F8C01FB
:103F1000CE010E946A1F800F911FDF91CF911F91E8
:103F20000F9108950F931F93CF93DF93EC010E949D
:103F3000181F8C01CE010E946A1F800F911FDF9114
:103F4000CF911F910F9108950F931F93CF93DF93FC
:103F5000EC010E94CC1B688779878A879B87E88160
:103F6000F9810680F781E02DCE01099597FF15C0F4
:103F70000E94CC1B088519852A853B85601B710B27
:103F8000820B930B0C811D812E813F81601771077D
:103F90008207930720F38FEF9FEFDF91CF911F915F
:103FA0000F9108954F925F926F927F928F929F929E
:103FB000AF92BF92CF92DF92EF92FF920F931F9337
:103FC000CF93DF934C01EB0186E0849F8001859FB6
:103FD000100D1124060F171FFB01E017F10708F55C
:103FE00082819381892B21F13696F7CF40815181CF
:103FF00064817581DA01A60FB71F2C91332727FD45
:1040000030958217930711F56F5F7F4F7583648337
:10401000228133816217730759F03696E017F10752
:1040200028F3C4010E94A41F97FD46C0FE01F6CFED
:10403000EC1BFD0BF595E7952BEA3AEAE29FC001F0
:10404000E39F900DF29F900D112438C0611571050A
:1040500021F3A480B5809501215031093583248353
:10406000DA01A20FB31FAC91BB27A7FDB0958A1749
:104070009B07F9F421153105C9F06A017B01E21AA9
:10408000F30AE40EF51E412C512CD6016D906D0102
:10409000D7017D907D01671006C0BFEF4B1A5B0A08
:1040A0004216530690F34216530699F6B582A4823F
:1040B000B4CF232B71F6B1CF8FEF9FEFDF91CF916C
:1040C0001F910F91FF90EF90DF90CF90BF90AF9036
:1040D0009F908F907F906F905F904F900895CF93B7
:1040E000DF9300D000D000D0CDB7DEB7FE0131960F
:1040F00026E0DF011D922A95E9F77A8369835C83C4
:104100004B8341E050E0BF010E94D21F21E0892B88
:1041100009F020E0822F26960FB6F894DEBF0FBE7E
:10412000CDBFDF91CF910895FB0101900020E9F709
:10413000AF0141505109461B570B0C946F20FC01F5
:10414000808191810C942326CF93DF93EC018881A9
:104150009981009711F00E942326198218821D82EE
:104160001C821B821A82DF91CF9108950F931F93B7
:10417000CF93DF93EC018B016F5F7F4F8881998133
:104180000E94B226009731F0998388831B830A83AB
:1041900081E001C080E0DF91CF911F910F910895E0
:1041A000CF93DF93EC0188819981892B29F08A8153
:1041B0009B818617970760F4CE010E94B620882362
:1041C00041F08C819D81892B19F4E881F98110825D
:1041D00081E0DF91CF910895EF92FF920F931F93AB
:1041E000CF93DF93EC017B018A01BA010E94D020BA
:1041F000811104C0CE010E94A42007C01D830C833E
:10420000B701888199810E94D027CE01DF91CF919B
:104210001F910F91FF90EF900895FC011182108281
:1042200013821282158214826115710559F0FB0107
:1042300001900020E9F7AF0141505109461B570B8F
:104240000C94EC200895EF92FF920F931F93CF935D
:10425000DF93EC017B018A01BA010E94D020811119
:1042600004C0CE010E94A42007C01D830C83B701A7
:10427000888199810E94A327CE01DF91CF911F9160
:104280000F91FF90EF900895CF93DF93EC01FB0126
:104290008617970761F0608171816115710529F0BA
:1042A000448155810E94EC2002C00E94A420CE01CE
:1042B000DF91CF910895FC01118210821382128246
:1042C000158214820C944421CF93DF93EC01611585
:1042D000710561F0FB0101900020E9F7AF01415049
:1042E0005109461B570B0E94EC2002C00E94A420DB
:1042F000CE01DF91CF9108950F931F93CF93DF935A
:10430000CDB7DEB729970FB6F894DEBF0FBECDBF8D
:104310008C01862FF801118210821382128215827D
:10432000148250E0BE016F5F7F4F90E00E94022830
:10433000BE016F5F7F4FC8010E94642129960FB6AE
:10434000F894DEBF0FBECDBFDF91CF911F910F91CB
:1043500008950F931F93CF93DF93CDB7DEB7629786
:104360000FB6F894DEBF0FBECDBF8C01CB01F801B4
:1043700011821082138212821582148250E0BE01D3
:104380006F5F7F4F0E94D727BE016F5F7F4FC801CD
:104390000E94642162960FB6F894DEBF0FBECDBFB7
:1043A000DF91CF911F910F9108950F931F93CF939A
:1043B000DF93CDB7DEB761970FB6F894DEBF0FBEBF
:1043C000CDBF8C01CB01F8011182108213821282C1
:1043D0001582148250E0BE016F5F7F4F0E94022859
:1043E000BE016F5F7F4FC8010E94642161960FB6C6
:1043F000F894DEBF0FBECDBFDF91CF911F910F911B
:104400000895EF92FF920F931F93CF93DF93CDB751
:10441000DEB7A1970FB6F894DEBF0FBECDBF7C010B
:10442000CB01BA01F7011182108213821282158228
:10443000148242E0420F8E010F5F1F4F0E946A25D7
:10444000BC01C7010E946421A1960FB6F894DEBF9B
:104450000FBECDBFDF91CF911F910F91FF90EF90D5
:1044600008950F931F93CF93DF9300D0CDB7DEB79E
:104470008C016115710561F0CB0169837A830E941B
:10448000AA27AC0169817A81C8010E94232102C058
:104490000E94A420C8010F900F90DF91CF911F912F
:1044A0000F910895EF92FF920F931F93CF93DF9395
:1044B000EC017B010C811D816115710511F480E017
:1044C00016C04115510591F0040F151FB8010E9447
:1044D000D0208823A1F3288139818C819D81B70167
:1044E000820F931F0E94D0271D830C8381E0DF91F0
:1044F000CF911F910F91FF90EF900895FB014481A0
:104500005581608171810C9452226115710559F0B9
:10451000FB0101900020E9F7AF0141505109461B12
:10452000570B0C94522280E00895CF93DF9300D074
:10453000CDB7DEB769831A8241E050E0BE016F5FFC
:104540007F4F0E9452220F900F90DF91CF910895DC
:10455000EF92FF920F931F93CF93DF93EC017B01B8
:104560006115710511F480E01BC0CB010E94AA27E0
:104570000097A9F00C811D81080F191FB801CE0109
:104580000E94D020882379F3288139818C819D81F4
:10459000B701820F931F0E94A3271D830C8381E024
:1045A000DF91CF911F910F91FF90EF900895CF93DE
:1045B000DF93EC01FB0144815581608171810E9490
:1045C0005222811103C0CE010E94A420CE01DF91AE
:1045D000CF910895CF93DF93EC016115710569F0D8
:1045E000FB0101900020E9F7AF0141505109461B42
:1045F000570B0E945222811103C0CE010E94A420B9
:10460000CE01DF91CF910895FC0124813581232BC8
:1046100031F421E061157105A1F0FB0108C0FC0136
:10462000808191816115710531F421E0FC01808167
:10463000882339F005C00E94C72721E0892B09F0A3
:1046400020E0822F0895FC01848195816817790705
:1046500020F480819181009729F41092A50585EAC4
:1046600095E00895860F971F0895CF93DF93FC017F
:10467000848195814817590778F4C081D1817727C3
:1046800067FD7095CE01840F951F0E94BC2700978F
:1046900019F08C1B9D0B02C08FEF9FEFDF91CF9124
:1046A000089540E050E00C943523BF92CF92DF9202
:1046B000EF92FF920F931F93CF93DF936C017B01D7
:1046C000EA0189012417350720F48D2FE901042F11
:1046D000182F66EB73E0C6010E940D21D7011496D6
:1046E0008D919C911597C817D907C8F48017910729
:1046F00008F48C01D701ED91FC911197E00FF11FA7
:10470000B08010826D917C916C0F7D1FC6010E945C
:104710006421D701ED91FC91E00FF11FB082C60139
:10472000DF91CF911F910F91FF90EF90DF90CF908D
:10473000BF900895FC0180819181009711F00C9445
:104740007C2760E070E0CB0108955058BB27AA2772
:104750000ED0B4C0A5D030F0AAD020F031F49F3FE5
:1047600011F41EF49AC00EF4E095E7FB90C0E92F17
:10477000B6D080F3BA17620773078407950718F05D
:1047800071F49EF5CEC00EF4E0950B2EBA2FA02D3D
:104790000B01B90190010C01CA01A0011124FF27EE
:1047A000591B99F0593F50F4503E68F11A16F040E9
:1047B000A22F232F342F4427585FF3CF46953795E8
:1047C0002795A795F0405395C9F77EF41F16BA0BAD
:1047D000620B730B840BBAF09150A1F0FF0FBB1F5B
:1047E000661F771F881FC2F70EC0BA0F621F731FA4
:1047F000841F48F4879577956795B795F7959E3F01
:1048000008F0B3CF9395880F08F09927EE0F97958E
:1048100087950895E89409C097FB3EF4909580959C
:10482000709561957F4F8F4F9F4F9923A9F0F92F76
:1048300096E9BB279395F695879577956795B795F4
:10484000F111F8CFFAF4BB0F11F460FF1BC06F5FDA
:104850007F4F8F4F9F4F16C0882311F096E911C0EC
:10486000772321F09EE8872F762F05C0662371F00D
:1048700096E8862F70E060E02AF09A95660F771F21
:10488000881FDAF7880F9695879597F9089597F915
:104890009F6780E870E060E008959FEF80EC0895E6
:1048A00000240A941616170618060906089500240F
:1048B0000A9412161306140605060895092E039489
:1048C000000C11F4882352F0BB0F40F4BF2B11F4FD
:1048D00060FF04C06F5F7F4F8F4F9F4F089557FD5C
:1048E0009058440F551F59F05F3F71F04795880F5E
:1048F00097FB991F61F09F3F79F0879508951216F5
:1049000013061406551FF2CF4695F1DF08C01616A0
:1049100017061806991FF1CF869571056105089451
:104920000895E894BB2766277727CB0197F9089568
:104930000BD0C4CFB5DF28F0BADF18F0952309F00B
:10494000A6CFABCF1124EECFCADFA0F3959FD1F352
:10495000950F50E0551F629FF001729FBB27F00D2D
:10496000B11D639FAA27F00DB11DAA1F649F662782
:10497000B00DA11D661F829F2227B00DA11D621FD1
:10498000739FB00DA11D621F839FA00D611D221F8B
:10499000749F3327A00D611D231F849F600D211D6F
:1049A000822F762F6A2F11249F5750408AF0E1F012
:1049B00088234AF0EE0FFF1FBB1F661F771F881F5B
:1049C00091505040A9F79E3F510570F060CFAACF9B
:1049D0005F3FECF3983EDCF3869577956795B79546
:1049E000F795E7959F5FC1F7FE2B880F911D969570
:1049F000879597F9089597FB072E16F4009407D032
:104A000077FD09D00E94502507FC05D03EF4909513
:104A100081959F4F0895709561957F4F0895A1E20C
:104A20001A2EAA1BBB1BFD010DC0AA1FBB1FEE1F28
:104A3000FF1FA217B307E407F50720F0A21BB30B73
:104A4000E40BF50B661F771F881F991F1A9469F7EF
:104A500060957095809590959B01AC01BD01CF014B
:104A60000895052E97FB1EF400940E94482557FDDB
:104A700007D00E940F2507FC03D04EF40C94482564
:104A800050954095309521953F4F4F4F5F4F08957A
:104A900090958095709561957F4F8F4F9F4F0895AA
:104AA000AA1BBB1B51E107C0AA1FBB1FA617B70754
:104AB00010F0A61BB70B881F991F5A95A9F7809570
:104AC0009095BC01CD010895EE0FFF1F0590F49164
:104AD000E02D0994EF920F931F93CF93DF93E8019A
:104AE00047FF02C034E101C034E0E42FFF27E7FDB7
:104AF000F095F7FF03C0F195E195F109E32E022F40
:104B00002E2FAE010E943D28CE01DF91CF911F9143
:104B10000F91EF900895CF93DF938230910510F4B9
:104B200082E090E0E091A805F091A90520E030E056
:104B3000A0E0B0E0309739F1408151814817590722
:104B4000B8F04817590771F482819381109729F0C2
:104B500013969C938E9312972CC09093A9058093E3
:104B6000A80527C02115310531F04217530718F069
:104B7000A901DB0101C0EF019A01BD01DF01028043
:104B8000F381E02DD7CF21153105F9F0281B390B22
:104B90002430310580F48A819B816115710521F0F3
:104BA000FB019383828304C09093A9058093A80599
:104BB000FE01329644C0FE01E20FF31F81939193F0
:104BC00022503109398328833AC02091A6053091BB
:104BD000A705232B41F4209102013091030130936A
:104BE000A7052093A6052091000130910101211510
:104BF000310541F42DB73EB74091040150910501B4
:104C0000241B350BE091A605F091A705E217F307E9
:104C1000A0F42E1B3F0B2817390778F0AC014E5F2C
:104C20005F4F2417350748F04E0F5F1F5093A705BD
:104C30004093A6058193919302C0E0E0F0E0CF019C
:104C4000DF91CF910895CF93DF93009709F487C048
:104C5000FC01329713821282C091A805D091A90558
:104C6000209781F420813181280F391F8091A6057A
:104C70009091A7058217930779F5F093A705E09324
:104C8000A6056DC0DE0120E030E0AE17BF0750F48E
:104C900012964D915C9113979D014115510509F1B3
:104CA000DA01F3CFB383A28340815181840F951F32
:104CB0008A179B0771F48D919C911197840F951F12
:104CC00002969183808312968D919C911397938382
:104CD00082832115310529F4F093A905E093A805F5
:104CE0003EC0D9011396FC93EE9312974D915D91BE
:104CF000A40FB51FEA17FB0779F480819181840F17
:104D0000951F0296D90111969C938E93828193816F
:104D100013969C938E931297E0E0F0E08A819B813A
:104D2000009719F0FE01EC01F9CFCE01029628811F
:104D30003981820F931F2091A6053091A70528176E
:104D4000390769F4309729F41092A9051092A80543
:104D500002C013821282D093A705C093A605DF91EB
:104D6000CF910895A0E0B0E0E8EBF6E20C94A72A1A
:104D7000EC01CB01209719F40E948B25B8C0FE01ED
:104D8000E60FF71F9E0122503109E217F30708F4DE
:104D9000ACC0D9010D911C91119706171707B8F0F7
:104DA0000530110508F49FC0A80144505109461769
:104DB000570708F498C002501109061B170B0193FE
:104DC00011936D937C93CF010E9423268CC05B01CD
:104DD000A01AB10A4E01800E911EA091A805B091B3
:104DE000A905612C712C60E070E0109709F449C0AE
:104DF000A815B905C9F5ED90FC901197670142E03F
:104E0000C40ED11CCA14DB0478F147018A189B0830
:104E1000640142E0C40ED11C1296BC901297139606
:104E2000AC91B5E0CB16D10440F0B282A38391825D
:104E30008082D9018D939C9309C00E5F1F4F0E0D88
:104E40001F1DF90111830083EB2DFA2F61157105E8
:104E500031F0DB011396FC93EE93129744C0F0936C
:104E6000A905E093A8053FC06D917C911197661646
:104E7000770608F43B01BD0112960D90BC91A02D60
:104E8000B4CF6091A6057091A70568157905E9F47E
:104E900068167906D0F44091000150910101411546
:104EA000510541F44DB75EB7609104017091050161
:104EB000461B570BE417F507C0F4F093A705E093E2
:104EC000A605F901918380830EC00E948B257C0189
:104ED000009759F0A801BE010E94B327CE010E949D
:104EE0002326C70104C0CE0102C080E090E0CDB708
:104EF000DEB7EEE00C94C32A1F93FC0199278827A4
:104F0000BC01E89411911032E9F3193010F01E3011
:104F1000C8F31B3251F01D3249F4689406C00E9458
:104F2000ED27610F711D811D911D119110531A30D4
:104F3000B0F33EF490958095709561957F4F8F4FBB
:104F40009F4F1F910895FB01DC0105900D920020F9
:104F5000E1F70895FC0105900020E9F78095909510
:104F60008E0F9F1F0895FB01DC0102C001900D927E
:104F700041505040D8F70895FC018191861721F0E7
:104F80008823D9F7992708953197CF010895FB0118
:104F9000DC018D91019080190110D9F3990B0895CE
:104FA000FB01DC0101900D920020E1F708954532EC
:104FB000510520F4423010F00C94E227FB011082DE
:104FC000CB010895BB274A3031F4992322F4BDE286
:104FD000909581959F4F0C940E28592F482F372F6D
:104FE000262F660F771F881F991F660F771F881F50
:104FF000991F620F731F841F951F660F771F881FED
:10500000991F08954532510520F4423010F00C9458
:105010000D28FB011082CB010895BB27FB0155270A
:10502000AA27880F991FAA1FA41710F0A41B839505
:105030005051B9F7A05DAA3308F0A95DA19300977C
:1050400079F7B111B1931192CB010C94932AF9998C
:10505000FECF92BD81BDF89A992780B50895262F7D
:10506000F999FECF1FBA92BD81BD20BD0FB6F8944D
:10507000FA9AF99A0FBE019608956F927F929F92C5
:10508000AF92BF92CF92DF92EF92FF920F931F9356
:10509000CF93DF93CDB7DEB729970FB6F894DEBF75
:1050A0000FBECDBF6A01B22E102F0C3320F4FF24A7
:1050B000F394F00E02C04CE3F42E0F2D27E0AE0166
:1050C0004F5F5F4F0E94BB297981272F29702130C4
:1050D00031F0E1FC06C0E0FC06C060E005C06DE216
:1050E00003C06BE201C060E2AE2DA07173FF36C059
:1050F000662311F084E001C083E08B1510F4B81A28
:1051000001C0B12CA1110BC0F6018B2D90E28823B8
:1051100019F091938150FBCFCB0CD11CB12C66239D
:1051200031F0F601608396012F5F3F4F6901C601A0
:105130000396E2FE05C02EE4F601208331E404C0AC
:105140002EE6F601208331E631832283FC012B2DEC
:1051500030E22223F1F131932150FBCF72FF40C0A6
:10516000662311F084E001C083E08B1510F4B81AB7
:1051700001C0B12CA1110BC0F6018B2D90E2882348
:1051800019F091938150FBCFCB0CD11CB12C66232D
:1051900031F0F601608396012F5F3F4F6901C60130
:1051A0000396E2FE07C029E4F60120832EE4218362
:1051B00026E406C029E6F60120832EE6218326E6B2
:1051C0002283FC012B2D30E2222319F03193215050
:1051D000FBCFFC01EB0DF11D10828EEF9FEFB7C0EE
:1051E000B1E0611101C0B0E04B2F50E01816190674
:1051F00024F49C012F5F3F4F02C021E030E0240FD8
:10520000351F112329F0412F50E04F5F5F4F02C03F
:1052100040E050E0420F531F2B2D30E04217530760
:1052200014F4B41A01C0B12C2E2D287159F4F601D2
:105230002B2D30E2222319F031932150FBCFCB0CE0
:10524000D11CB12CBB2331F0F601608396012F5F96
:105250003F4F6901A1110BC0F6012B2D30E3222332
:1052600019F031932150FBCFCB0CD11CB12CF80E8F
:105270000A81372F3071A32E74FF03C0013309F464
:10528000FA941F142CF42F2D293018F028E001C0B7
:1052900021E0682F392F97FF02C060E030E0462FF1
:1052A000532F612C712C3EE2932EBC01621B7109BD
:1052B0009B01DC01A41BB50BE1E0F0E0EC0FFD1F4E
:1052C000AE0FBF1FE12EF12CF194E194F1084F3F96
:1052D000FFEF5F0731F4F6019082B6016F5F7F4FF9
:1052E0006B01841795074CF02417350734F4BD0182
:1052F000660D771DFB01118101C010E3415051097A
:10530000FFEF6F1A7F0AB6016F5F7F4F4E155F0583
:1053100024F0F60110836B01DACF4817590739F4EE
:10532000063320F4053319F4A11001C011E3F6018E
:105330001083FB018B2D90E2882319F0919381500B
:10534000FBCFFB01EB0DF11D108280E090E0299670
:105350000FB6F894DEBF0FBECDBFDF91CF911F9186
:105360000F91FF90EF90DF90CF90BF90AF909F9004
:105370007F906F900895283008F027E03327DA01F6
:10538000990F311D87FD916000966105710539F413
:1053900032602E5F3D9330E32A95E1F708959F3FF9
:1053A00030F080387105610509F03C5F3C5F3D934A
:1053B000913008F08068911DDF93CF931F930F9376
:1053C000FF92EF92192F987F9695E92F96959695D3
:1053D000E90FFF27E955FA4F99273327EE24FF24D9
:1053E000A701E70105900894079428F4360FE71EFB
:1053F000F81E491F511D660F771F881F991F0694BD
:10540000A1F70590079428F4E70EF81E491F561FD0
:10541000C11D770F881F991F661F0694A1F705907D
:10542000079428F4F80E491F561FC71FD11D880F77
:10543000991F661F771F0694A1F70590079420F423
:10544000490F561FC71FD81F990F661F771F881F48
:105450000694A9F784911095177041F0D695C795D9
:1054600057954795F794E7941A95C1F7EDE4F5E061
:1054700068941590159135916591959105907FE20D
:105480007395E118F10A430B560BC90BD009C0F70D
:10549000E10CF11E431F561FC91FD01D7EF470334F
:1054A00011F48A95E6CFE894015030F0080F0AF421
:1054B0000027021708F4202F2395022F7A3328F0B3
:1054C00079E37D932A95E9F710C07D932A9589F6B3
:1054D000069497956795379517951794E118F10AF3
:1054E000430B560BC90BD00998F023957E91739509
:1054F0007A3308F070E37C932013B8F77E917061E3
:105500007D9330F0839571E37D9370E32A95E1F705
:105510001124EF90FF900F911F91CF91DF91992768
:1055200087FD90950895DC01FC01672F7191772329
:10553000E1F7329704C07C916D9370836291AE174E
:10554000BF07C8F308952F923F924F925F926F92D8
:105550007F928F929F92AF92BF92CF92DF92EF9203
:10556000FF920F931F93CF93DF93CDB7DEB7CA1B84
:10557000DB0B0FB6F894DEBF0FBECDBF09942A88AF
:10558000398848885F846E847D848C849B84AA8457
:10559000B984C884DF80EE80FD800C811B81AA81E4
:1055A000B981CE0FD11D0FB6F894DEBF0FBECDBFAF
:1055B000ED01089516E0CEE4D6E004C0FE010E949D
:0E55C00066252296C235D107C9F7F894FFCFB1
:1055CE000000AA0580006D61632067657420616428
:1055DE0072006F6E006D61632067657420647200E7
:1055EE00312E312E3100636F756E7465720030305E
:1055FE00363000616270006D6163206A6F696E20E3
:10560E00006B6579735F6E6F745F696E6974006E9F
:10561E006F6B657973006163636570746564006FA9
:10562E007461610057726F6E672064617461206FE0
:10563E00722057414E20756E617661696C61626CA5
:10564E0065210055006D616320747820756E636E60
:10565E0066200043006D616320747820636E6620BF
:10566E0000436F6D6D616E6420726573706F6E7343
:10567E00653A006E6F745F6A6F696E65640072657D
:10568E0070656174006E6F5F667265655F6368005A
:10569E00737973207265736574006275737900692E
:1056AE006E76616C69645F706172616D00496E76D1
:1056BE00616C696420706172616D21004C696E6B62
:1056CE0020726573706F6E73653A006D61635F74FF
:1056DE00785F6F6B00414200616200524E20736C26
:1056EE006565702074696D653A2000206D696E2EB7
:1056FE000073797320736C65657020007379732065
:10570E00736C65657020323030300053656E64699D
:10571E006720627974653A0054783A00646F776E48
:10572E006C696E6B006A6F696E6D6F64653A006DC1
:10573E0061632073657420647220006164723A00A4
:10574E006D616320736574206164722000706F77E1
:10575E0065723A006D6163207365742070777269AB
:10576E0064782000706F72743A0073656E64553AF7
:10577E00002E2E2E005458207374617475733A00E7
:10578E0073656E64433A0073686F77006D616320D2
:10579E0067657420646576657569006D6163206761
:1057AE0065742064657661646472006D6163206760
:1057BE0065742061707065756900302E32007379E2
:1057CE007320676574207665720073797320676540
:1057DE007420766464006D56007361766500736C98
:1057EE006565703A00536C6565702074696D653A35
:1057FE000053746F72656420746F20454550524F8C
:10580E004D210068656C7000726164696F20676578
:10581E007420736E72002D00464600524E3234389C
:10582E003300566F6C7461676520627974653A0057
:10583E00534E5220627974653A00536C6565702040
:10584E0054696D653A00506F72743A00444556457E
:10585E0055493A00000000007D18F01EE8185C184B
:10586E00D018CF1800000000741DF01EF61C0F1D7E
:10587E00011D521D0D0A006E616E00696E66006F8D
:04588E00766600003A
:00000001FF
