:100000000C9473020C94F01A0C941D1B0C94071999
:100010000C9407190C9407190C9422090C949B0258
:100020000C949B020C949B020C949B020C949B02DC
:100030000C949B020C94981A0C949B020C949B02B7
:100040000C944A1B0C949B020C94371E0C94691E52
:100050000C949B020C949B020C949B020C949B02AC
:100060000C949B020C949B0243005465706C6F745B
:10007000613A0053756363657366756C79206A6FC6
:10008000696E6564210052657374617264656420F1
:100090006279206A6F696E2070726F636564757231
:1000A000650052656A6F696E696E672E2E2E004E6E
:1000B0004F54204A4F494E45442120436865636BA5
:1000C000206E6574776F726B206F72207061726141
:1000D0006D657465727321004E6F206B65797320B6
:1000E000656E7472792100627573792E2E2E004E22
:1000F0006F2066726565206368616E6E656C2C208A
:100100007265747279696E672E2E2E004177616B6D
:1001100065210054696D6520746F6F206869676898
:100120002100496E76616C69642074696D652100F7
:10013000506172616D657465727320737563636578
:10014000737366756C7920736176656421006D61E7
:1001500063207361766500566F6C746167653A0061
:100160005472616E736369657665723A0046572012
:1001700076657273696F6E3A004C494220766572FB
:1001800073696F6E3A004170706C69636174696F76
:100190006E204555493A004465766963652061647F
:1001A00064726573733A00446576696365204555EA
:1001B000493A002A2A2A2A2A506172616D657465BB
:1001C00072732073746F72656420696E20466C616F
:1001D00073683A2A2A2A2A2A0053656E64696E6770
:1001E00020746F20706F727420005061796C6F61A1
:1001F000643A0053656E64696E6720746F20706F97
:10020000727420005061796C6F61643A00207374DD
:100210006F72656420746F20454550524F4D004EFB
:10022000657720706F72743A00506F7274206F752A
:1002300074206F662072616E67652100506F77656C
:100240007220736176656421006D6163207361764D
:10025000650041445220736176656421006D6163DD
:1002600020736176650044522073617665642100D5
:100270006D61632073617665004D6F6465207374F2
:100280006F72656420746F20454550524F4D005584
:100290006E737570706F72746564206D6F64650045
:1002A000446174613A00506F72743A004E6F20647A
:1002B0006174612E00466972737420636F6D6D7591
:1002C0006E69636174696F6E202E2E2E006D6163FE
:1002D0002067657420646576657569004A6F696E8C
:1002E000206D6F64653A005A6170697320646566B9
:1002F00061756C747520646F20454550524F4D00F8
:10030000524E32343833206E6F74206465746563E6
:1003100074656421002A2A2A2A2A2A2A2A2A2A2AB1
:100320002A2A2A2A2A2A2A2A2A2A2A2A2A2A2A2A2D
:100330002A2A2A2A2A2A2A2A2A2A2A2A2A00524EFB
:10034000323438332063686970206465746563747F
:100350006564210073797320676574207665720087
:100360002A2A2A2A2A2A2A2A2A2A2A2A4C6F526127
:1003700020524E32343833207365742A2A2A2A2AAE
:100380002A2A2A2A2A2A2A0000000008000201003C
:100390000003040700000000000000000102040840
:1003A00010204080010204081020010204081020DF
:1003B000040404040404040402020202020203030B
:1003C00003030303000000002300260029000000AF
:1003D0000000250028002B0000000000240027005A
:1003E0002A0000407A10F35A00A0724E180900103B
:1003F000A5D4E80000E87648170000E40B5402009A
:1004000000CA9A3B000000E1F505000080969800C4
:10041000000040420F000000A086010000001027ED
:1004200000000000E803000000006400000000007D
:100430000A00000000000100000000002C76D888AF
:10044000DC674F0823DFC1DFAE59E1B1B796E5E3C2
:10045000E453C63AE651997696E8E6C28426EB89DB
:100460008C9B62ED407C6FFCEFBC9C9F40F2BAA578
:100470006FA5F490055A2AF75C936B6CF9676DC110
:100480001BFCE0E40D47FEF520E6B500D0ED902E14
:100490000300943577050080841E080000204E0A72
:1004A000000000C80C333333330F986E12831141B0
:1004B000EF8D2114893BE65516CFFEE6DB18D1847B
:1004C0004B381BF77C1D901DA4BBE42420328472A2
:1004D0005E228100C9F124ECA1E53D27A206930923
:1004E000991EB8069A0911241FBECFEFD8E0DEBFCF
:1004F000CDBF13E0A0E0B1E0E2EEF4E502C005906C
:100500000D92A83CB107D9F725E0A8ECB3E001C0F3
:100510001D92A038B207E1F714E0C2EED4E004C0A7
:100520002297FE010E94E624CC3DD107C9F70E9424
:10053000DD1E0C94642A0C94000080910C04882326
:1005400049F0809118049091190401969093190430
:1005500080931804089583E094E00E9499208DEF21
:1005600093E00E94992087EF93E00E94992081EF09
:1005700093E00E9499208BEE93E00E94992085EEF3
:1005800093E00E9499208FED93E00E94992089EDDD
:1005900093E00E94992083ED93E00E9499208CE1E2
:1005A00094E00E94992082E294E00C949920CF93E9
:1005B000DF93EC01FB01248135810E94D222CE0120
:1005C000DF91CF9108958F929F92AF92BF92CF9279
:1005D000DF92EF92FF920F931F93CF93DF93CDB7EC
:1005E000DEB72C970FB6F894DEBF0FBECDBF83EDFC
:1005F00093E00E948E15E1E8F0E080E180831092A4
:10060000800085E08093CE048FEF9FEF9093D0041D
:100610008093CF04909387008093860085E1808348
:1006200021E020930C0420930D0410920E048DE918
:1006300092E09093CD048093CC0420936F0066E009
:1006400071E0CE0101960E940721BE016F5F7F4FCE
:1006500083ED93E00E949009CE0101960E949920BB
:1006600061E08DE00E945A1C61E08DE00E94931CC5
:1006700088EC93E00E94B30708EC13E0F801618571
:100680007285882777FD8095982F0E948C2320E023
:1006900030E040E251E40E9422236B017C01F8012A
:1006A00067817085882777FD8095982F0E948C231D
:1006B00020E030E040E251E40E9422234B015C0143
:1006C0006AE670E08EED94E00E942A1F21E0B701F7
:1006D000A601CE0101960E94AE21BE016F5F7F4F41
:1006E0008EED94E00E944F1FCE0101960E9499204A
:1006F000E091DE04F091DF040190F081E02D60EBE9
:100700008EED94E0099568E670E08EED94E00E942D
:10071000681F21E0B501A401CE0107960E94AE2119
:100720006CE071E0CE0101960E940721BE01695F75
:100730007F4FCE0101960E94342265E171E00E9454
:100740004722BC018EED94E00E947A1FCE010196F3
:100750000E949920CE0107960E9499202C960FB6F0
:10076000F894DEBF0FBECDBFDF91CF911F910F91E7
:10077000FF90EF90DF90CF90BF90AF909F908F90C1
:1007800008954F925F926F927F928F929F92AF9255
:10079000BF92CF92DF92EF92FF920F931F93CF936E
:1007A000DF93CDB7DEB72C970FB6F894DEBF0FBE40
:1007B000CDBF8C016BEB73E0CE0107960E94072141
:1007C0006BEB73E0C8010E94072188EC93E00E9464
:1007D000B3076091CF037091D003882777FD809590
:1007E000982F0E948C2320E030E040E251E40E94E8
:1007F00022232B013C016091D1037091D203882701
:1008000077FD8095982F0E948C2320E030E040E215
:1008100051E40E942223AB01BC0121E0CE010196EC
:100820000E94AE21BE016F5F7F4FCE0107960E94EE
:100830001D21CE0101960E94992021E030E040E088
:1008400050E0BE01695F7F4FCE0101960E94D22227
:1008500067E171E0CE0101960E946122F82ECE017F
:1008600001960E949920FF20D1F069E171E0C80152
:100870000E943D2141E050E0BE01695F7F4FCE0103
:1008800001960E94D702BE016F5F7F4FCE0107968F
:100890000E941D21CE0101960E94992005C068E4A6
:1008A00072E0C8010E943D216DEB72E0CE0101961D
:1008B0000E940721BE016F5F7F4FCE0107960E9405
:1008C000CE225C01CE0101960E949920BB249501A5
:1008D00040E050E0BE01695F7F4FCE0101960E946B
:1008E000D222CE0101960E9417236B017C01CE011A
:1008F00001960E94992080E1C816D1042CF469E485
:1009000072E0C8010E94112240E1B601CE010196B9
:100910000E948221BE016F5F7F4FC8010E940A22A0
:10092000CE0101960E949920A5014F5F5F4FBE0145
:10093000695F7F4FCE0101960E94D702CE010196DA
:100940000E9417232AE0269F7001279FF00C112494
:10095000CE0101960E94992080E1E816F1042CF462
:1009600069E472E0C8010E94112240E1B701CE01A2
:1009700001960E948221BE016F5F7F4FC8010E94D5
:100980000A22CE0101960E94992021E0B301A20122
:10099000CE0101960E94AE21BE016F5F7F4FCE0156
:1009A00007960E941D21CE0101960E9499206DEBB1
:1009B00072E0CE0101960E940721BE016F5F7F4F5A
:1009C000CE0107960E94CE225C01CE0101960E94C4
:1009D0009920BB24950140E050E0BE01695F7F4F44
:1009E000CE0101960E94D222CE0101960E941723C9
:1009F0006B017C01CE0101960E94992080E1C8160E
:100A0000D1042CF469E472E0C8010E94112240E193
:100A1000B601CE0101960E948221BE016F5F7F4F19
:100A2000C8010E940A22CE0101960E949920A501C8
:100A30004F5F5F4FBE01695F7F4FCE0101960E94FD
:100A4000D702CE0101960E9417232AE0269F70014B
:100A5000279FF00C1124CE0101960E94992080E17D
:100A6000E816F1042CF469E472E0C8010E94112236
:100A700040E1B701CE0101960E948221BE016F5F65
:100A80007F4FC8010E940A22CE0101960E94992040
:100A9000CE0107960E949920C8012C960FB6F894B3
:100AA000DEBF0FBECDBFDF91CF911F910F91FF90A1
:100AB000EF90DF90CF90BF90AF909F908F907F90FE
:100AC0006F905F904F900895FF920F931F93CF9375
:100AD000DF93CDB7DEB763970FB6F894DEBF0FBED6
:100AE000CDBF8C016BEB73E00E9407216BEB73E0D1
:100AF000CE010D960E94072163ED73E0CE010196B1
:100B00000E94E514BE016F5F7F4FCE010D960E94DB
:100B10001D21CE0101960E94992021E030E040E0A5
:100B200050E0BE01635F7F4FCE0101960E94D2224A
:100B300068E472E0CE0101960E946122F82ECE0197
:100B400001960E949920FF2011F03FEF01C037EF7E
:100B500042E050E0BE01635F7F4FCE0101963B8BC8
:100B60000E94D702BE016F5F7F4FC8010E941D2106
:100B7000CE0101960E94992063ED73E0CE010196AB
:100B80000E942A14BE016F5F7F4FC8010E940A2293
:100B9000CE0101960E94992083ED93E00E949E0968
:100BA0006CE171E089E294E00E948C1F63ED73E0D8
:100BB000CE0101960E94B109BE016F5F7F4FCE0149
:100BC0000D960E941D21CE0101960E94992068E297
:100BD00071E0CE010D960E9461223B89811101C016
:100BE0003F776BE271E089E294E03B8B0E948C1FBF
:100BF00063ED73E0CE0101960E94B109BE016F5F03
:100C00007F4FCE010D960E941D21CE0101960E94BC
:100C10009920CE010D960E941723262F2295207F22
:100C20002D683B89232340E1622FCE0107962B8B51
:100C30000E945521BE01695F7F4FCE0101960E943F
:100C40003421B801CE0101960E943422BC01C801B2
:100C50000E941D21CE0101960E949920CE01079687
:100C60000E9499202B89203198F469E472E0CE012A
:100C700001960E940721B801CE0101960E943422FC
:100C8000BC01C8010E941D21CE0101960E9499203D
:100C9000CE0101960E94C103BE016F5F7F4FCE015E
:100CA0000D960E941D21CE0101960E94992042E0DE
:100CB00050E0BE01635F7F4FCE0101960E94D702D4
:100CC000BE016F5F7F4FC8010E940A22CE010196CC
:100CD0000E94992021E030E040E050E0BE01635FD7
:100CE0007F4FCE0101960E94D22269E171E0CE01D0
:100CF00001960E946122F82ECE0101960E94992051
:100D0000FF2019F066E371E002C068E472E0CE01F2
:100D10000D960E943D21BE01635F7F4FC8010E9476
:100D20000A22CE010D960E949920C80163960FB643
:100D3000F894DEBF0FBECDBFDF91CF911F910F9111
:100D4000FF9008956BEB73E082E294E00E9407212C
:100D50006BEB73E08CE194E00E94072161E083ED8E
:100D600093E00E943C096AE088EC93E00C948E07C3
:100D70000C94AB021F93CF93DF9300D000D000D030
:100D8000CDB7DEB780911204882301F1CE01019620
:100D90000E946405BE016F5F7F4F82E294E00E9473
:100DA0001D21CE0101960E94992062E274E0CE01DD
:100DB00001960E943421BE016F5F7F4F83ED93E067
:100DC0000E94970DCE0101960E94992080911804EF
:100DD000909119040D973CF1109219041092180487
:100DE000CE0101960E946405BE016F5F7F4F82E2D3
:100DF00094E00E941D21CE0101960E94992081E07D
:100E00008093120462E274E0CE0101960E943421C4
:100E1000BE016F5F7F4F83ED93E00E94970DCE017F
:100E200001960E9499208EED94E00E94F21C181603
:100E300019060CF057C08EED94E00E940B1D8093B4
:100E40001B04682F8EED94E00E945D1F60911B04CF
:100E50008CE194E00E94212280911B048A3009F0E9
:100E600041C010921904109218042091200430916E
:100E700021042250310940E050E06CE174E0CE01E1
:100E800001960E94D222BE016F5F7F4F8CE194E0F9
:100E90000E941D21CE0101960E9499206CE174E010
:100EA000CE0101960E943421BE016F5F7F4F83ED1A
:100EB00093E00E947E0E182FCE0101960E94992089
:100EC00011110AC010921904109218046CE174E018
:100ED00089E294E00E947A1F6BEB73E08CE194E06E
:100EE0000E943D2189E294E00E94A118181619067B
:100EF0005CF489E294E00E94141880931A04682F2D
:100F00008EED94E00E945D1F26960FB6F894DEBF2A
:100F10000FBECDBFDF91CF911F910895CF93DF9387
:100F2000EC0170E0FB01E456FC4FE491E883FB0127
:100F3000E055FC4FE491F0E0EE0FFF1FEC53FC4F47
:100F4000859194919A8389830E94941B6B837C83FF
:100F50008D839E838DE19CEF98878F839A87898705
:100F6000DF91CF9108957F928F929F92AF92BF921F
:100F7000CF92DF92EF92FF920F931F93CF93DF9365
:100F8000CDB7DEB7A9970FB6F894DEBF0FBECDBFC1
:100F90007C01FC017080018112810E94941B6E0112
:100FA000FAE2CF0ED11CFE0131961192EC15FD052F
:100FB000E1F7F70183809480A580B6809B01AC01A6
:100FC000281939094A095B0949015A0130ED83168C
:100FD00037E09306A104B10408F4D8C06383748396
:100FE00085839683F894F8018181B72CB0948B2186
:100FF00081837894EEE7AE2E82E090E00E94EB1BB6
:10100000F8018081872129F4AA94B1F781E090E06A
:10101000C2C0F894F80182818B2182838181872963
:10102000818378948CE494E00E94EB1BF894F8019F
:1010300081818B21818378947AE1B72E82E090E0E0
:101040000E94EB1BF8018081872129F4BA94B1F743
:1010500082E090E0A0C063E3B62E82E090E00E94C0
:10106000EB1BF8018081872129F0BA94B1F783E066
:1010700090E091C09E012F5F3F4F590154E2952EA1
:1010800082E090E00E94EB1BF8018081872129F427
:101090009A94B1F784E090E07EC0912C939482E022
:1010A00090E00E94EB1BF8018081872131F0F3E38F
:1010B0009F12F4CF85E090E06EC0F50191925F0140
:1010C000EC15FD05D9F6FE0132968FE090E040E088
:1010D00050E021E030E061916C3048F0B901082E19
:1010E00002C0660F771F0A94E2F7462B572B019731
:1010F00090F7FE0172968FE090E020E030E061E032
:1011000070E0A191AC3048F0DB01082E02C0AA0FBC
:10111000BB1F0A94E2F72A2B3B2B019790F7FE01A5
:10112000B29687E090E060E0A1E0B0E071917C30A1
:1011300038F08D01082E01C0000F0A94EAF7602BE9
:101140000197A0F7CA019F77F7019087878337FF40
:1011500008C0C9019F7791958195910992878187F0
:1011600003C0F7013287218770E0852F9927840F0C
:10117000911D432F5527840F951F820F911D99278D
:101180006817790731F480E090E005C087E090E0CF
:1011900002C086E090E0A9960FB6F894DEBF0FBEBD
:1011A000CDBFDF91CF911F910F91FF90EF90DF9016
:1011B000CF90BF90AF909F908F907F9008954115F2
:1011C000510529F480917A008F7780937A006A30F4
:1011D0007105B1F063FF02C088E201C088E067706A
:1011E000682B88E190E00FB6F894A8958093600092
:1011F0000FBE609360008091600080648093600007
:1012000083B7817F846083BF232B51F4F89483B725
:10121000816083BF85B7806685BF8F7D85BF04C031
:10122000F89483B7816083BF7894889583B78E7F65
:1012300083BF7894452B29F480917A00806880934D
:101240007A0008951F920F920FB60F9211248F9378
:1012500088E10FB6F89480936000109260000FBE92
:101260008F910F900FBE0F901F90189508950895BD
:101270000C94B1270C94B9271F93CF93DF93EC0103
:10128000162F6BEB73E00E9407216BEB73E0CE012E
:1012900006960E9407216BEB73E0CE010C960E942C
:1012A00007216BEB73E0CE0142960E94072169E3B0
:1012B00071E0CE0148960E9407216BEB73E0CE01EE
:1012C0004E960E9407216BEB73E0CE0184960E943C
:1012D00007216BEB73E0CE018A960E9407216EE333
:1012E00071E0CE01C0960E9407211FAEFE01EE5BA9
:1012F000FF4F81E08083CC5BDF4F1883DF91CF917C
:101300001F91089560E084E00E94931C64E670E001
:1013100080E090E00E94C31B61E084E00C94931C89
:1013200006960C941D2120E048E067E089E294E0F5
:101330000C94DA1989E294E00C94811989E294E022
:101340000E94A118181619065CF462E070E080E0B3
:1013500090E00E94C31B89E294E00E941418EECF33
:101360000895EF92FF920F931F93CF93DF9300D0D6
:1013700000D000D0CDB7DEB78C017B016BEB73E002
:101380000E94072189E294E00E94A118181619060C
:1013900034F060E070E0CB010E94C31BF3CF83E424
:1013A000E80EF11C89E294E00E94A11818161906B3
:1013B00064F589E294E00E941418F7018083682F95
:1013C000C8010E94212260E070E0CB010E94C31B93
:1013D0000E94BF1AF70180818A3021F7F801248129
:1013E00035812250310940E050E0B801CE0101962C
:1013F0000E94D222BE016F5F7F4FC8010E941D2153
:10140000CE0101960E949920CDCFC80126960FB635
:10141000F894DEBF0FBECDBFDF91CF911F910F912A
:10142000FF90EF900895CF92DF92EF92FF920F938B
:101430001F93CF93DF93CDB7DEB72C970FB6F894F9
:10144000DEBF0FBECDBF7C018B016A016BEB73E089
:10145000CE0107960E94072162E471E0CE01019659
:101460000E940721B601CE0101960E943422BC01E0
:1014700089E294E00E947A1FCE0101960E94992091
:10148000B801CE0101960E94B109BE016F5F7F4F86
:10149000CE0107960E941D21CE0101960E9499203F
:1014A0006CE471E0CE0107960E946122882359F016
:1014B000F80117AA68ED70E08EED94E00E94681FB5
:1014C0006AE571E029C0B801CE0101960E94B10918
:1014D000BE016F5F7F4FCE0107960E941D21CE0196
:1014E00001960E94992061E671E0CE0107960E9464
:1014F0006122882321F081E0F80187AB08C0F80160
:1015000017AA6FEA70E08EED94E00E94681FC80190
:101510000E949E0968E172E0C7010E940721CE0186
:1015200007960E949920C7012C960FB6F894DEBF4B
:101530000FBECDBFDF91CF911F910F91FF90EF9024
:10154000DF90CF900895BF92CF92DF92EF92FF92FB
:101550000F931F93CF93DF93CDB7DEB762970FB68C
:10156000F894DEBF0FBECDBF7C018B016BEB73E047
:10157000CE010D960E940721680180E3C80ED11CA0
:1015800083E0B82EF80187A9811150C062EA70E0AB
:101590008EED94E00E94681FB601CE0107960E946E
:1015A0003421AE01495F5F4FB801CE0101960E9420
:1015B000130ABE016F5F7F4FCE010D960E941D2161
:1015C000CE0101960E949920CE0107960E94992093
:1015D0006AE571E0CE010D960E946122882319F020
:1015E0006AE571E02EC0BA9469F6F80180AD8823EF
:1015F00019F06AE671E025C0C8010E948209B801AD
:10160000CE0101960E94B109BE016F5F7F4FCE01EE
:101610000D960E941D21CE0101960E94992066E838
:1016200070E08EED94E00E94681FAACF63E770E03F
:101630008EED94E00E94681FC8010E949E0968E137
:1016400072E0C7010E940721CE010D960E949920E9
:10165000C70162960FB6F894DEBF0FBECDBFDF9113
:10166000CF911F910F91FF90EF90DF90CF90BF909F
:1016700008956F927F928F929F92AF92BF92CF9276
:10168000DF92EF92FF920F931F93CF93DF93CDB72B
:10169000DEB72C970FB6F894DEBF0FBECDBF6C013E
:1016A0007B014A0159016BEB73E0CE0107960E9462
:1016B000072137018AE2680E711C6BEB73E0C301EE
:1016C0000E943D2169E871E0C4010E9461228823E3
:1016D000D9F06BE871E0CE0101960E940721B501B7
:1016E000CE0101960E94342269E272E00E944722F4
:1016F000B8010E943422BC0189E294E00E947A1F62
:10170000CE0101960E94992069E971E0C4010E940E
:1017100061228823D9F06BE971E0CE0101960E9425
:101720000721B501CE0101960E94342269E272E0E0
:101730000E944722B8010E943422BC0189E294E051
:101740000E947A1FCE0101960E949920B701CE0116
:1017500001960E94B109BE016F5F7F4FCE010796CF
:101760000E941D21CE0101960E94992067EA71E036
:10177000CE0101960E940721BE01695F7F4FCE0115
:1017800001960E943422BC018EED94E00E947A1FE3
:10179000CE0101960E94992069EB71E0CE01079677
:1017A0000E9461228823F1F0F70117AAB701CE0148
:1017B00001960E94A30ABE016F5F7F4FCE0107967C
:1017C0000E941D21CE0101960E9499206AE571E0D8
:1017D000CE0107960E946122882309F449C06AE578
:1017E00071E09DC06BEC71E0CE0107960E94612212
:1017F000882379F06FEE70E08EED94E00E94681F10
:10180000F70117AA66ED71E089E294E00E948C1F4F
:1018100016C060EE71E0CE0107960E946122882317
:1018200051F167EE70E08EED94E00E94681F66ED66
:1018300071E089E294E00E948C1FF70117AAB701BA
:10184000CE0101960E94B109BE016F5F7F4FCE01AC
:1018500007960E941D21CE0101960E949920B70192
:10186000CE0101960E94A30ACE0101960E94992002
:1018700064EC71E054C065EE71E0CE0107960E9401
:101880006122882319F063EF71E049C064E670E0DB
:1018900080E090E00E94C31BB701CE0101960E9438
:1018A000B109BE016F5F7F4FCE0107960E941D21D7
:1018B000CE0101960E94992062E072E0CE0101966D
:1018C0000E940721BE01695F7F4FCE0101960E94F1
:1018D0003422BC018EED94E00E947A1FCE01019665
:1018E0000E94992061E172E0CE0107960E94612278
:1018F000811113C047E050E0BE01695F7F4FCE0108
:1019000001960E94D702BE016F5F7F4FC3010E9404
:101910001D21CE0101960E94992068E172E0C60166
:101920000E940721CE0107960E949920C6012C969D
:101930000FB6F894DEBF0FBECDBFDF91CF911F91E0
:101940000F91FF90EF90DF90CF90BF90AF909F905E
:101950008F907F906F900895AF92BF92CF92DF9259
:10196000EF92FF920F931F93CF93DF93CDB7DEB724
:101970002C970FB6F894DEBF0FBECDBF8C015B0174
:10198000CB010E9417236B017C01F80185AD8823F0
:1019900009F44EC0B501C80148960E941D21C70137
:1019A000B6010E948C2320E030E64AE657E40E940C
:1019B0001824AB01BC0120E0CE0107960E94AE21A5
:1019C0006BE172E0CE0101960E940721B501CE01C4
:1019D00001960E9434226BE272E00E944722BC0111
:1019E0008EED94E00E947A1FCE0101960E9499200C
:1019F00061E372E0CE0101960E940721BE01695F9A
:101A00007F4FCE0101960E943422BC0189E294E00E
:101A10000E947A1FCE0101960E94992064E670E030
:101A200080E090E00E94C31BCE0107960E9499209F
:101A300060E08DE00E94931CF80111AE17AE43E008
:101A400050E066E379E080E00E94C01AF80183ADBF
:101A5000882339F046A950E067E379E081E00E94ED
:101A6000C01A20E030E040E050E06AE070E088E238
:101A700094E00E94DF0880E00E94E01AF80183AD44
:101A8000882319F081E00E94E01A83E00E94C91CBB
:101A900021E0892B09F420E0F80124AF81E087AF31
:101AA00082AD882399F161E08DE00E94931C6CE384
:101AB00072E089E294E00E948C1F20E030E040E078
:101AC00050E066E070E088E294E00E94DF0889E27E
:101AD00094E00E94A11818161906CCF7B801CE019F
:101AE00001960E94B10968E172E0CE0101960E9460
:101AF0006122182FCE0101960E949920112331F006
:101B00006CE071E08EED94E00E94681F2C960FB699
:101B1000F894DEBF0FBECDBFDF91CF911F910F9123
:101B2000FF90EF90DF90CF90BF90AF900895EF922D
:101B3000FF920F931F93CF93DF93CDB7DEB7A49798
:101B40000FB6F894DEBF0FBECDBF7C018B016BEBEF
:101B500073E0CE014F960E9407216BEB73E0CE013C
:101B600049960E940721F70117AEB801CE014996A8
:101B70000E941D216BE472E0CE0101960E940721B4
:101B8000BE01675E7F4FCE0101960E943422BC01E8
:101B90008EED94E00E947A1FCE0101960E9499205A
:101BA000BE01675E7F4FCE0107960E943421B701C8
:101BB000645F7F4FCE010D960E94342169E871E089
:101BC000CE0143960E9407218E01095F1F4F9E019F
:101BD000235F3F4FAE014D5E5F4FB701CE010196CF
:101BE0000E94390BBE016F5F7F4FCE014F960E945E
:101BF0001D21CE0101960E949920CE0143960E949C
:101C00009920CE010D960E949920C8010E9499202A
:101C100068E572E0CE0101960E940721BE01615E77
:101C20007F4FCE0101960E943422BC018EED94E0DC
:101C30000E947A1FCE0101960E94992064EC71E007
:101C4000CE014F960E946122882321F081E0F701A6
:101C500087AF3FC0F701E05CFF4F608171816F5F2C
:101C60007F4F718360834AE0CE0107960E948221F4
:101C70006CE572E0CE0101960E940721BE01695F0A
:101C80007F4FCE0101960E943422BC018EED94E07C
:101C90000E947A1FCE0101960E949920CE010796DC
:101CA0000E949920C7010E949E0981E0F70185AF3B
:101CB000B701685E7F4FCE0101960E943421BE01BC
:101CC0006F5F7F4FC7010E94AC0CCE0101960E944E
:101CD0009920CE0149960E949920CE014F960E94EC
:101CE0009920A4960FB6F894DEBF0FBECDBFDF914A
:101CF000CF911F910F91FF90EF9008959F92AF9217
:101D0000BF92CF92DF92EF92FF920F931F93CF93E8
:101D1000DF93CDB7DEB7AA970FB6F894DEBF0FBE3C
:101D2000CDBF7C018B016BEB73E0CE0185960E94E9
:101D3000072161E672E0C8010E946122882309F44C
:101D40005DC06BEB73E0CE0107960E940721B701DF
:101D5000665D7F4FCE0101960E943421BE016F5F08
:101D60007F4FCE0107960E941D21CE0101960E9451
:101D700099208B859C85029718F46CEA72E06CC4FC
:101D800060E2CE0107960E94AE228C0166EA72E004
:101D90008EED94E00E942A1F1127980140E050E048
:101DA000BE01695F7F4FCE0101960E94D222BE0123
:101DB0006F5F7F4F8EED94E00E947A1FCE010196F7
:101DC0000E94992060EA72E08EED94E00E942A1F42
:101DD000A8014F5F5F4FBE01695F7F4FCE01019643
:101DE0000E94D702BE016F5F7F4F8EED94E00E948C
:101DF0007A1FCE0101960E94992032C429E030E07A
:101E000040E050E0B801CE0101960E94D2226AE67D
:101E100072E0CE0101960E946122D82ECE01019679
:101E20000E949920DD20D1F149E050E0B801CE01B7
:101E300001960E94D702BE016F5F7F4FC8010E94CA
:101E40001D21CE0101960E9499206EE371E0C80128
:101E50000E946122882349F08FE090E00E943809B7
:101E60008F3F09F459C46FEF0FC064E772E0C801F7
:101E70000E946122882379F08FE090E00E94380967
:101E8000882309F449C460E08FE090E00E943A0999
:101E900069E772E03DC46FE872E03AC423E030E0E5
:101EA00040E050E0B801CE0101960E94D22266E8DF
:101EB00072E0CE0101960E946122D82ECE010196D9
:101EC0000E949920DD2009F457C043E050E0B8019A
:101ED000CE0101960E94D702BE016F5F7F4F87013E
:101EE0000C5D1F4FC8010E941D21CE0101960E946A
:101EF000992069E772E0CE0101960E940721B8019E
:101F0000CE0101960E943422BC0189E294E00E9435
:101F10007A1FCE0101960E949920B701CE01019649
:101F20000E94B10968E172E0CE0101960E9461222F
:101F3000182FCE0101960E949920112309F4ECC3B9
:101F400060E772E089E294E00E94681FB701CE0169
:101F500001960E94B10968E172E0CE0101960E94EB
:101F60006122182FCE0101960E949920112309F4B5
:101F7000D3C366E672E0CCC324E030E040E050E03A
:101F8000B801CE0101960E94D22265E872E0CE012E
:101F900001960E946122D82ECE0101960E949920BE
:101FA000DD2009F454C044E050E0B801CE010196B0
:101FB0000E94D702BE016F5F7F4FC8010E941D21A2
:101FC000CE0101960E9499206AE872E0CE01019646
:101FD0000E940721B801CE0101960E943422BC0163
:101FE00089E294E00E947A1FCE0101960E94992016
:101FF000B701CE0101960E94B10968E172E0CE01FD
:1020000001960E946122182FCE0101960E9499200C
:10201000112309F481C36DE572E089E294E00E9426
:10202000681FB701CE0101960E94B10968E172E014
:10203000CE0101960E946122182FCE0101960E94C6
:102040009920112309F468C362E572E061C326E0B8
:1020500030E040E050E0B801CE0101960E94D2226B
:1020600067E972E0CE0101960E946122D82ECE016E
:1020700001960E949920DD2009F456C046E050E008
:10208000B801CE0101960E94D702BE016F5F7F4F5B
:10209000C8010E941D21CE0101960E9499206EE97F
:1020A00072E0CE0101960E940721B701625E7F4F68
:1020B000CE0101960E943422BC0189E294E00E9484
:1020C0007A1FCE0101960E949920B701CE01019698
:1020D0000E94B10968E172E0CE0101960E9461227E
:1020E000182FCE0101960E949920112309F414C3E0
:1020F00069E472E089E294E00E94681FB701CE01B2
:1021000001960E94B10968E172E0CE0101960E9439
:102110006122182FCE0101960E949920112309F403
:10212000FBC26CE372E0F4C225E030E040E050E036
:10213000B801CE0101960E94D2226EEA72E0CE0171
:1021400001960E946122D82ECE0101960E9499200C
:10215000DD20E1F145E050E0B801CE0101960E949A
:10216000D702BE016F5F7F4FC8010E941D21CE01C3
:1021700001960E9499202CE0E20EF11CB801C701E3
:102180000E941D21C7010E941723673E710581052A
:1021900091053CF069E272E08EED94E00E94681FC8
:1021A000B3C2C7010E9417238AE090E00E943A0957
:1021B0006FE172E08EED94E00E942A1FB8018EED6F
:1021C00094E00E944F1F6DE072E0A2C226E030E072
:1021D00040E050E0B801CE0101960E94D22264EBAB
:1021E00072E0CE0101960E946122D82ECE010196A6
:1021F0000E949920DD2009F448C061E089E00E9436
:10220000931C6BEB73E0CE014F960E94072146E0D2
:1022100050E0B801CE0101960E94D702BE016F5F67
:102220007F4FC8010E941D21CE0101960E94992076
:1022300064E072E08EED94E00E942A1FB8018EEDFA
:1022400094E00E947A1F63EF71E08EED94E00E94AB
:102250002A1F67013CE0C30ED11CB6018EED94E04D
:102260000E944F1F6BEB72E08EED94E00E948C1F7A
:10227000B801CE010D960E943421B601CE014396DD
:102280000E94342169E871E05EC026E030E040E061
:1022900050E0B801CE0101960E94D2226AEC72E0B1
:1022A000CE0101960E946122D82ECE0101960E9495
:1022B0009920DD2009F485C061E089E00E94931C2B
:1022C0006BEB73E0CE014F960E94072146E050E091
:1022D000B801CE0101960E94D702BE016F5F7F4F09
:1022E000C8010E941D21CE0101960E9499206AEE2C
:1022F00071E08EED94E00E942A1FB8018EED94E00B
:102300000E947A1F69ED71E08EED94E00E942A1F11
:1023100067018CE0C80ED11CB6018EED94E00E94DE
:102320004F1F6BEB72E08EED94E00E948C1FB801A2
:10233000CE010D960E943421B601CE0143960E9433
:10234000342169E971E0CE0149960E9407218E018E
:10235000035F1F4F9E012D5E3F4FAE01475E5F4FF3
:10236000B701CE0107960E94390B6FEB72E0CE01E8
:1023700001960E940721BE01695F7F4FCE01019641
:102380000E943422BC018EED94E00E947A1FCE019F
:1023900001960E949920CE0107960E949920CE01B5
:1023A00049960E949920CE0143960E949920C80127
:1023B0000E94992060E089E00E94931CCE014F9614
:1023C00051C161ED72E0C8010E946122882309F4C5
:1023D000D5C063EB71E08EED94E00E94681F67EA60
:1023E00071E08EED94E00E942A1F66ED72E089E2B2
:1023F00094E00E948C1FB701CE0101960E94B109A2
:10240000BE016F5F7F4FCE0185960E941D21CE01D8
:1024100001960E949920BE016B5D7F4F8EED94E086
:102420000E947A1F67E971E08EED94E00E942A1FF6
:1024300065EE72E089E294E00E948C1FB701CE0144
:1024400001960E94B109BE016F5F7F4FCE01859654
:102450000E941D21CE0101960E949920BE016B5D54
:102460007F4F8EED94E00E947A1F66E871E08EED5A
:1024700094E00E942A1F65EF72E089E294E00E94D6
:102480008C1FB701CE0101960E94B109BE016F5F9A
:102490007F4FCE0185960E941D21CE0101960E949C
:1024A0009920BE016B5D7F4F8EED94E00E947A1FF4
:1024B00069E771E08EED94E00E942A1F64E073E00A
:1024C0008EED94E00E948C1F6DE671E08EED94E03D
:1024D0000E942A1FB7016A5F7F4F8EED94E00E9431
:1024E0007A1F60E671E08EED94E00E942A1F68E09A
:1024F00073E089E294E00E948C1FB701CE0101963F
:102500000E94B109BE016F5F7F4FCE0185960E9488
:102510001D21CE0101960E949920BE016B5D7F4F67
:102520008EED94E00E947A1F67E571E08EED94E0F5
:102530000E942A1F64E173E089E294E00E948C1FEC
:10254000B701CE0101960E94B109BE016F5F7F4FB6
:10255000CE0185960E941D21CE0101960E949920F0
:10256000BE016B5D7F4F8EED94E00E944F1F60E2D5
:1025700073E08EED94E00E948C1FCEC063E273E0A6
:10258000C8010E946122882309F46FC06BEB73E0DD
:10259000CE0107960E9407216EE471E089E294E083
:1025A0000E94681F89E294E00E94A118181619067B
:1025B000CCF7E3E4EE0EF11C89E294E00E94A1184E
:1025C000181619060CF046C089E294E00E9414180F
:1025D000F7018083682FCE0107960E942122F70120
:1025E00080818A3049F72B853C852250310940E0B3
:1025F00050E0BE01695F7F4FCE0101960E94D2225A
:10260000BE016F5F7F4FCE0107960E941D21CE0154
:1026100001960E94992067EA71E0CE0101960E941E
:102620000721BE01695F7F4FCE0101960E943422CF
:10263000BC018EED94E00E947A1FCE0101960E94AB
:10264000992068E172E0CE0107960E946122811113
:10265000B3CF06C060E371E08EED94E00E94681F86
:10266000CE0107960E94992057C026E030E040E056
:1026700050E0B801CE0101960E94D22268E273E0D8
:10268000CE0101960E946122D82ECE0101960E94B1
:102690009920DD20F9F046E050E0B801CE01019626
:1026A0000E94D702BE016F5F7F4FC8010E941D21AB
:1026B000CE0101960E949920F80184819581892B91
:1026C00029F1C8010E9417231616170618061906C5
:1026D0002CF11CC06DE473E0C8010E9461228823C4
:1026E00041F0B7016E5E7F4F8EED94E00E947A1F3D
:1026F00013C06AED71E0C8010E946122882321F0B5
:10270000C7010E94820908C010E08DC062E271E03A
:102710008EED94E00E94681F11E085C0C8010E9400
:10272000172360317742810591051CF063E171E068
:10273000EFCF6701F8E1CF0ED11CB801C6010E94AE
:102740001D2100E010E094E0A92EB12CF701848D4A
:10275000958D9501281B390B02171307B0F469E416
:1027600072E0CE0101960E940721B601CE010196CA
:102770000E943422BC01C6010E941D21CE01019697
:102780000E9499200F5F1F4FE1CF6FE273E0CE01EF
:1027900001960E940721B601CE0101960E943422C3
:1027A0006CE272E00E944722BC018EED94E00E9430
:1027B0007A1FCE0101960E949920A12CB12C85018F
:1027C0000F5F1F4FC8010E943809982EB501C6013E
:1027D0000E948022492D50E0FC012081332727FDF3
:1027E00030954217530729F404301105C1F0580100
:1027F000E6CF00E010E0B801C6010E9480220F5F22
:102800001F4FFC016081C8010E943A090430110584
:1028100091F76BE373E08EED94E00E948C1F81E0F2
:10282000F70187AF79CFCE0185960E949920812F3D
:10283000AA960FB6F894DEBF0FBECDBFDF91CF9141
:102840001F910F91FF90EF90DF90CF90BF90AF90CE
:102850009F900895AF92BF92CF92DF92EF92FF9236
:102860000F931F93CF93DF93CDB7DEB762970FB669
:10287000F894DEBF0FBECDBF8C017B016BEB73E024
:10288000CE010D960E9407216BEB73E0CE010796F7
:102890000E9407216BEB73E0C8010E94072189E2C7
:1028A00094E00E94A118181619062CF489E294E00D
:1028B0000E941418F4CF64E173E089E294E00E946E
:1028C0008C1FB701CE0101960E94B109BE016F5F56
:1028D0007F4FCE010D960E941D21CE0101960E94D0
:1028E000992022E030E040E050E0BE01635F7F4F7E
:1028F000CE0101960E94D222CE0101960E9417239A
:102900006B017C01CE0101960E94992080E1C816DE
:10291000D1042CF469E472E0C8010E94112240E164
:10292000B601CE0101960E948221BE016F5F7F4FEA
:10293000C8010E940A22CE0101960E94992042E01D
:1029400050E0BE01635F7F4FCE0101960E94D70227
:10295000CE0101960E9417236B017C01CE010196E6
:102960000E94992080E1C816D1042CF469E472E039
:10297000C8010E94112240E1B601CE0101960E94D9
:102980008221BE016F5F7F4FC8010E940A22CE01E3
:1029900001960E949920CE0107960E949920CE01AF
:1029A0000D960E949920C80162960FB6F894DEBF7A
:1029B0000FBECDBFDF91CF911F910F91FF90EF9090
:1029C000DF90CF90BF90AF900895CF92DF92EF92BB
:1029D000FF920F931F93CF93DF93CDB7DEB72C9762
:1029E0000FB6F894DEBF0FBECDBF8C017B016BEB41
:1029F00073E0CE0107960E9407216BEB73E0C801DC
:102A00000E94072189E294E00E94A1181816190675
:102A10002CF489E294E00E941418F4CF62E573E08C
:102A200089E294E00E948C1FB701CE0101960E94BA
:102A3000B109BE016F5F7F4FCE0107960E941D2135
:102A4000CE0101960E94992021E030E040E050E064
:102A5000BE01695F7F4FCE0101960E94D22267E1DD
:102A600071E0CE0101960E946122F82ECE010196FE
:102A70000E949920FF20D1F069E171E0C8010E9415
:102A8000112241E050E0BE01695F7F4FCE01019607
:102A90000E94D702BE016F5F7F4FCE0107960E9452
:102AA0001D21CE0101960E94992005C068E472E0C4
:102AB000C8010E941122CE0107960E9417236B01C4
:102AC0007C0180E1C816D1042CF469E472E0C801ED
:102AD0000E94112240E1B601CE0101960E9482219E
:102AE000BE016F5F7F4FC8010E940A22CE0101968E
:102AF0000E949920CE0107960E949920C8012C9629
:102B00000FB6F894DEBF0FBECDBFDF91CF911F91FE
:102B10000F91FF90EF90DF90CF900895AF92BF920A
:102B2000CF92DF92EF92FF920F931F93CF93DF9399
:102B3000CDB7DEB76E970FB6F894DEBF0FBECDBF30
:102B40007C0160E082E00E945A1C61E08DE00E94FE
:102B50005A1C61E089E00E945A1C61E084E00E94F6
:102B60005A1C60E084E00E94931C61E089E00E94AE
:102B7000931C61E08DE00E94931C60E971E080E0AD
:102B800090E00E94C31B61E084E00E94931C61E01E
:102B900089E00E94931C26E040E052EC61E070E086
:102BA0008EED94E00E94D51D40E051EE60E070E0B3
:102BB00089E294E00E940A1A60E673E08EED94E0E8
:102BC0000E94681F89E294E00E94A1181816190655
:102BD0005CF489E294E00E94141865E070E080E003
:102BE00090E00E94C31BEECF64E573E089E294E0BD
:102BF0000E94681F68EC70E080E090E00E94C31BB8
:102C000060E673E089E294E00E948E20882309F454
:102C10006DC06EE373E08EED94E00E94681F6CED72
:102C200075E080E090E00E94C31B60E089E00E94B4
:102C3000931C6BEB73E0C7010E943D21B701CE01ED
:102C400007960E942A1467E673E0CE0101960E945F
:102C50000721BE01695F7F4FCE0101960E94342299
:102C6000BC018EED94E00E947A1FCE0101960E9475
:102C70009920CE0107960E949920B701CE010796B0
:102C80000E94E51465E773E0CE0101960E940721DA
:102C9000BE01695F7F4FCE0101960E943422BC01C4
:102CA0008EED94E00E947A1FCE0101960E94992039
:102CB000CE0107960E94992065E173E08EED94E0C5
:102CC0000E94681FF70117AA80E090E00E9438096F
:102CD0008701085E1F4F8C3A29F167EE72E08EED96
:102CE00094E00E94681FC12CD12C07C060E073E003
:102CF0008EED94E00E94681FFFCFB601C8010E94CC
:102D00008022FFEFCF1ADF0AFC016081C6010E941A
:102D10003A09F4E0CF16D10481F76CEA80E090E044
:102D20000E943A09C12CD12CB601C8010E94802210
:102D30005C012FEFC21AD20AC6010E943809F501C0
:102D40008083F4E0CF16D10479F76FE773E0CE010A
:102D500001960E940721B801CE0101960E943422FB
:102D6000BC018EED94E00E947A1FCE0101960E9474
:102D7000992067012CE0C20ED11C6BEB73E0C601F9
:102D80000E943D218AE090E00E9438094AE0682FC5
:102D9000CE0101960E945521BE016F5F7F4FC60193
:102DA0000E941D21CE0101960E9499208AE090E0A8
:102DB0000E9438098F3F29F466E073E0C6010E9443
:102DC00061226BE873E0CE0101960E940721B601F3
:102DD000CE0101960E943422BC018EED94E00E9447
:102DE0007A1FCE0101960E9499208FE090E00E9408
:102DF00038098701005D1F4F8F3F19F46EE371E0C2
:102E000002C064E772E0C8010E943D216CED72E0EF
:102E10008EED94E00E942A1FB8018EED94E00E948E
:102E20007A1F6BEB73E0CE0149960E940721F701F0
:102E300017AA81E080AFB701CE0101960E94A30AD4
:102E4000BE016F5F7F4FCE0149960E941D21CE01CA
:102E500001960E949920BE01675E7F4F8EED94E03F
:102E60000E947A1F68E172E0CE0149960E946122B9
:102E7000882309F4B4C0C7010E949E096DEC72E07A
:102E800089E294E00E94681FB701CE0101960E947A
:102E9000B109BE016F5F7F4FCE0149960E941D218F
:102EA000CE0101960E94992061E973E0CE0101965E
:102EB0000E940721BE01675E7F4FCE0101960E94EE
:102EC0003422BC018EED94E00E947A1FCE0101965F
:102ED0000E94992065EB72E08EED94E00E94681FDD
:102EE000BE01675E7F4FCE0107960E943421B60176
:102EF000CE010D960E9434215E01F3E1AF0EB11CAC
:102F000069E871E0C5010E9407218E01095F1F4F2A
:102F10009E01235F3F4FA501B701CE0101960E949C
:102F2000390BBE016F5F7F4FCE0149960E941D2174
:102F3000CE0101960E949920C5010E949920CE01E0
:102F40000D960E949920C8010E94992068E172E0C4
:102F5000CE0149960E946122882319F0F70110AE34
:102F60003EC06AE571E0CE0149960E94612281115E
:102F7000F5CFBE01675E7F4FCE0107960E943421D8
:102F8000B601CE010D960E94342169E871E0C501B9
:102F90000E9407218E01095F1F4F9E01235F3F4F53
:102FA000A501B701CE0101960E94390B68E172E0DC
:102FB000CE0101960E946122182FCE0101960E9437
:102FC0009920C5010E949920CE010D960E9499205A
:102FD000CE0107960E949920112359F2BFCF8EEDA2
:102FE00094E00E94F21C181619062CF48EED94E061
:102FF0000E940B1DF4CF8EED94E00E944E1DCE0179
:1030000049960E9499206E960FB6F894DEBF0FBEC7
:10301000CDBFDF91CF911F910F91FF90EF90DF9087
:10302000CF90BF90AF9008952091CA043091CB0407
:1030300028173907B9F490914804809149049817EA
:1030400089F0E0914804F0E0E65BFB4F808120913D
:10305000480430E02F5F3F4F2F77332720934804F9
:1030600090E008958FEF9FEF08951F93CF93DF9324
:10307000DC015C968D919C915D97009749F481E00D
:1030800090E013969C938E93129780E090E03BC063
:103090005196ED91FC91529750962C915097322F6A
:1030A00030951FB75E964C915E9741FB772770F97C
:1030B00041FD6095F8944081772311F0422B01C0C7
:1030C00043234083EC012197F1F748E0508160FFF2
:1030D00002C0522B01C053235083EC012197F1F71A
:1030E0006695415099F78081772311F0832301C0C1
:1030F000822B80831FBF5C968D919C915D97019779
:10310000F1F781E090E0DF91CF911F910895209138
:10311000CA043091CB042817390781F490914804F0
:1031200080914904981751F0E0914804F0E0E65B83
:10313000FB4F8081992787FD909508958FEF9FEF32
:1031400008952091CA043091CB042817390771F4EF
:10315000809149042091480490E080589F4F821B41
:10316000910960E870E00E947B24089580E090E07F
:1031700008952091CA043091CB042817390739F4F7
:103180008FB7F89410924904109248048FBF0895A5
:10319000E091CA04F091CB04E817F90769F4A38918
:1031A000B4899C918589809589238C931092CB0456
:1031B0001092CA0481E0089580E00895CF93DF93D0
:1031C000EC018A8D9B8D892BF1F08091CA0490913E
:1031D000CB048C179D07B9F0009711F00E94C81816
:1031E0008E8D8E7F8E8F1092490410924804D0935A
:1031F000CB04C093CA04EB89FC8980819D89892B0B
:10320000808381E001C080E0DF91CF9108951F921B
:103210000F920FB60F9211242F933F934F935F930A
:103220006F937F938F939F93AF93BF93EF93FF938E
:10323000E091CA04F091CB04309709F451C0868D17
:10324000A685B785958581FF04C08C91892329F4D3
:1032500047C08C91892309F043C0A389B4899C910C
:103260008589809589238C93868997890197F1F7C1
:10327000208D318DA685B785758558E040E0C90160
:103280000197F1F7842F90E095958795482F6C91E1
:10329000672309F04068515091F7868D81FD409574
:1032A0008091490490E001968F77992720914804F6
:1032B000281749F0A0914904B0E0A65BBB4F4C939E
:1032C0008093490403C0868D8160868F828D938DA3
:1032D0000197F1F7A389B4898C919589892B8C93F7
:1032E000FF91EF91BF91AF919F918F917F916F91DE
:1032F0005F914F913F912F910F900FBE0F901F90B4
:1033000018952DE933E0FC01318320830C94C81813
:103310001F93CF93DF93EC01162F6E8D669561702E
:1033200081E06827812F0E94931C61E0812F0E9419
:103330005A1C812F90E0FC01E456FC4FE491E88B8D
:10334000FC01E055FC4FE491F0E0EE0FFF1FE2536B
:10335000FC4F859194919A8B898BDF91CF911F912E
:1033600008951F93CF93DF93EC01162F60E0812F18
:103370000E945A1C8E8D81FD04C061E0812F0E9445
:10338000931C1C87812F90E0FC01E456FC4FE491D4
:10339000ED87FC01E055FC4FE491F0E0EE0FFF1FDC
:1033A000EC53FC4F859194919F878E87DF91CF914D
:1033B0001F910895FF920F931F93CF93DF93EC011A
:1033C000F62E522F1B821A8208EE13E020E030E026
:1033D0000C831D832E833F838DE993E0998388833B
:1033E0001F8A1E8A198E188E1B8E1A8E1D8E1C8E99
:1033F0008E8D8E7F50FB81F98E8F642FCE010E94BF
:1034000088196F2DCE01DF91CF911F910F91FF9001
:103410000C94B119CF93DF93EC019A01AB011B8E91
:103420001A8E198E188E1F8A1E8A60E079E08DE34D
:1034300090E00E94B124C9012430310520F0B90187
:103440006350710902C061E070E07D8F6C8FEC8584
:10345000E63108F068C0B901769567956431710569
:1034600018F06351710902C061E070E07F8B6E8BD0
:10347000069718F0C901059702C081E090E0998F86
:10348000888FC901880F991F820F931F9695879582
:10349000969587958D30910510F00C9702C081E0CC
:1034A00090E09B8F8A8F20916800E83050F091E087
:1034B000EE3008F490E081E001C0880F9A95EAF7B9
:1034C00001C084E0822B809368002C85283038F07E
:1034D0002E3040F0263148F48CE690E008C08DE6AE
:1034E00090E005C08BE690E002C080E090E09C8B0D
:1034F0008B8B283030F481E001C0880F2A95EAF7E1
:103500000DC0822F90E02E3010F4089701C00E9766
:1035100091E001C0990F8A95EAF7892F8D8B8C8DE8
:103520009D8D0197F1F7CE01DF91CF910C94DE18BC
:103530001F920F920FB60F9211242F933F934F9328
:103540005F936F937F938F939F93AF93BF93EF930B
:10355000FF93E091CC04F091CD040995FF91EF9198
:10356000BF91AF919F918F917F916F915F914F919B
:103570003F912F910F900FBE0F901F9018950895B7
:103580008230E8F4E82FF0E0EE0FFF1FEF52FB4F20
:1035900071836083813041F0809169008C7F842B3E
:1035A00080936900E89A089580916900440F551F3F
:1035B000440F551F837F842B80936900E99A0895F7
:1035C000823068F4813011F0E89801C0E998E82F62
:1035D000F0E0EE0FFF1FEF52FB4F118210820895B3
:1035E0001F920F920FB60F9211242F933F934F9378
:1035F0005F936F937F938F939F93AF93BF93EF935B
:10360000FF938091D1049091D204892B29F0E0910D
:10361000D104F091D2040995FF91EF91BF91AF9140
:103620009F918F917F916F915F914F913F912F91DA
:103630000F900FBE0F901F9018951F920F920FB60C
:103640000F9211242F933F934F935F936F937F9328
:103650008F939F93AF93BF93EF93FF938091D30486
:103660009091D404892B29F0E091D304F091D404F3
:103670000995FF91EF91BF91AF919F918F917F91AC
:103680006F915F914F913F912F910F900FBE0F90CF
:103690001F9018951F920F920FB60F9211242F931F
:1036A0003F938F939F93AF93BF938091D604909154
:1036B000D704A091D804B091D9043091D50423E067
:1036C000230F2D3720F40196A11DB11D05C026E85A
:1036D000230F0296A11DB11D2093D5048093D6041B
:1036E0009093D704A093D804B093D9048091DA04BE
:1036F0009091DB04A091DC04B091DD040196A11D42
:10370000B11D8093DA049093DB04A093DC04B093A2
:10371000DD04BF91AF919F918F913F912F910F90B9
:103720000FBE0F901F9018952FB7F8946091D60494
:103730007091D7048091D8049091D9042FBF089537
:103740003FB7F8948091DA049091DB04A091DC04F7
:10375000B091DD0426B5A89B05C02F3F19F0019656
:10376000A11DB11D3FBF6627782F892F9A2F620FA9
:10377000711D811D911D42E0660F771F881F991FE3
:103780004A95D1F70895CF92DF92EF92FF92CF93AF
:10379000DF936B017C010E94A01BEB01C114D104DB
:1037A000E104F10489F00E94BF1A0E94A01B6C1B67
:1037B0007D0B683E734090F381E0C81AD108E108A0
:1037C000F108C851DC4FEACFDF91CF91FF90EF9025
:1037D000DF90CF9008958230910538F0880F991FBF
:1037E000880F991F05970197F1F70895789484B58C
:1037F000826084BD84B5816084BD85B5826085BDED
:1038000085B5816085BDEEE6F0E0808181608083D2
:10381000E1E8F0E0108280818260808380818160B5
:103820008083E0E8F0E0808181608083E1EBF0E07C
:10383000808184608083E0EBF0E080818160808320
:10384000EAE7F0E080818460808380818260808309
:103850008081816080838081806880831092C10034
:103860000895833081F028F4813099F08230A1F0FE
:1038700008958730A9F08830B9F08430D1F4809170
:1038800080008F7D03C0809180008F7780938000BF
:10389000089584B58F7702C084B58F7D84BD089567
:1038A0008091B0008F7703C08091B0008F7D8093AE
:1038B000B0000895CF93DF9390E0FC01E456FC4FF5
:1038C0002491FC01E055FC4F8491882349F190E05C
:1038D000880F991FFC01E852FC4FA591B4918253C7
:1038E0009C4FFC01C591D4919FB7611108C0F89419
:1038F0008C91209582238C93888182230AC0623028
:1039000051F4F8948C91322F309583238C938881D5
:10391000822B888304C0F8948C91822B8C939FBF58
:10392000DF91CF9108950F931F93CF93DF931F9251
:10393000CDB7DEB7282F30E0F901E857FC4F84916E
:10394000F901E456FC4F1491F901E055FC4F049144
:103950000023C9F0882321F069830E94311C69810A
:10396000E02FF0E0EE0FFF1FE253FC4FA591B49162
:103970009FB7F8948C91611103C01095812301C009
:10398000812B8C939FBF0F90DF91CF911F910F914F
:103990000895CF93DF93282F30E0F901E857FC4FCB
:1039A0008491F901E456FC4FD491F901E055FC4FA4
:1039B000C491CC2391F081110E94311CEC2FF0E0D6
:1039C000EE0FFF1FEC53FC4FA591B4912C912D23CA
:1039D00081E090E021F480E002C080E090E0DF919F
:1039E000CF910895FC01818D228D90E0805C9F4FE6
:1039F000821B91098F7399270895FC01918D828D07
:103A0000981731F0828DE80FF11D858D90E00895B3
:103A10008FEF9FEF0895FC01918D828D981761F0D3
:103A2000828DDF01A80FB11D5D968C91928D9F5FF5
:103A30009F73928F90E008958FEF9FEF08958FE826
:103A40009EE1892B49F080E090E0892B29F00E94CB
:103A50008F1E81110C9400000895FC01848DDF01FC
:103A6000A80FB11DA35ABF4F2C91848D90E00196F1
:103A70008F739927848FA689B7892C93A089B189E0
:103A80008C9180648C93938D848D981306C00288EA
:103A9000F389E02D80818F7D80830895CF93DF931C
:103AA000EC01888D8823C9F0EA89FB89808185FD36
:103AB00005C0A889B9898C9186FD0FC00FB607FC97
:103AC000F5CF808185FFF2CFA889B9898C9185FFD8
:103AD000EDCFCE010E942D1DE7CFDF91CF9108954C
:103AE000CF92DF92FF920F931F93CF93DF931F929A
:103AF000CDB7DEB76C0181E0D60158968C9358970C
:103B00005B969C915B975C968C915C97981307C031
:103B10005096ED91FC915197808185FD2EC0F60164
:103B2000038D10E00F5F1F4F0F731127F02EF6016A
:103B3000848DF81211C00FB607FCF9CFD60150964C
:103B4000ED91FC915197808185FFF1CFC60169838A
:103B50000E942D1D6981EBCF838DE80FF11DE35A83
:103B6000FF4F6083D6015B960C935B975296ED9165
:103B7000FC915397808180620CC0D6015696ED91DE
:103B8000FC91579760835096ED91FC9151978081FD
:103B90008064808381E090E00F90DF91CF911F914E
:103BA0000F91FF90DF90CF900895BF92CF92DF9258
:103BB000EF92FF92CF93DF93EC016A017B01B22E6B
:103BC000E889F98982E08083411581EE5807610513
:103BD0007105A1F060E079E08DE390E0A701960126
:103BE0000E948F242150310941095109569547956A
:103BF00037952795211580E1380798F0E889F989EC
:103C0000108260E874E88EE190E0A70196010E94BE
:103C10008F2421503109410951095695479537950F
:103C20002795EC85FD853083EE85FF852083188EF2
:103C3000EC89FD89B082EA89FB898081806180837B
:103C4000EA89FB89808188608083EA89FB89808199
:103C500080688083EA89FB8980818F7D8083DF9102
:103C6000CF91FF90EF90DF90CF90BF9008951F927B
:103C70000F920FB60F9211242F938F939F93EF9370
:103C8000FF93E091EE04F091EF048081E091F40461
:103C9000F091F50482FD12C090818091F7048F5F4E
:103CA0008F732091F804821751F0E091F704F0E04F
:103CB000E252FB4F958F8093F70401C08081FF9102
:103CC000EF919F918F912F910F900FBE0F901F90AA
:103CD00018951F920F920FB60F9211242F933F93B6
:103CE0004F935F936F937F938F939F93AF93BF9304
:103CF000EF93FF938EED94E00E942D1DFF91EF91C5
:103D0000BF91AF919F918F917F916F915F914F91F3
:103D10003F912F910F900FBE0F901F9018958EED31
:103D200094E00E94F21C21E0892B09F420E0822F0C
:103D300008951092E1041092E00488EE93E0A0E070
:103D4000B0E08093E2049093E304A093E404B09382
:103D5000E5048DEA93E09093DF048093DE0485EC24
:103D600090E09093EB048093EA0484EC90E09093CD
:103D7000ED048093EC0480EC90E09093EF0480934A
:103D8000EE0481EC90E09093F1048093F00482ECD7
:103D900090E09093F3048093F20486EC90E090938B
:103DA000F5048093F4041092F7041092F804109232
:103DB000F9041092FA04089508950E94F61B0E94D7
:103DC000DC1E0E94E302CFE1DDE10E94BA062097EB
:103DD000E1F30E941F1DF9CFCF92DF92EF92FF9285
:103DE0000F931F93CF93DF936C017A01EB01E60EE3
:103DF000F71E00E010E0CE15DF0561F06991D601F5
:103E0000ED91FC910190F081E02DC6010995080F1C
:103E1000191FF1CFC801DF91CF911F910F91FF9032
:103E2000EF90DF90CF9008956115710581F0DB016F
:103E30000D900020E9F7AD0141505109461B570B89
:103E4000DC01ED91FC910280F381E02D099480E08A
:103E500090E00895EF92FF920F931F93CF93DF931B
:103E60008C01FB01C0E0D0E064917F018FEFE81A84
:103E7000F80A662361F0D801ED91FC910190F08180
:103E8000E02DC8010995C80FD91FF701EDCFCE016C
:103E9000DF91CF911F910F91FF90EF900895DC017A
:103EA000ED91FC91DB0114964D915C9115976D910C
:103EB0007C910280F381E02D0994DC01ED91FC916D
:103EC0000190F081E02D099469EB73E00C94141FCC
:103ED0000F931F93CF93DF93EC010E942A1F8C0155
:103EE000CE010E94641F800F911FDF91CF911F911F
:103EF0000F9108950F931F93CF93DF93EC010E94CE
:103F00004F1F8C01CE010E94641F800F911FDF9113
:103F1000CF911F910F9108950F931F93CF93DF932C
:103F2000EC010E94141F8C01CE010E94641F800FBF
:103F3000911FDF91CF911F910F9108950F931F93C0
:103F4000CF93DF93EC010E94941B688779878A875F
:103F50009B87E881F9810680F781E02DCE010995E4
:103F600097FF15C00E94941B088519852A853B85FB
:103F7000601B710B820B930B0C811D812E813F8185
:103F8000601771078207930720F38FEF9FEFDF9190
:103F9000CF911F910F9108954F925F926F927F92F0
:103FA0008F929F92AF92BF92CF92DF92EF92FF9249
:103FB0000F931F93CF93DF934C01EB0186E0849F17
:103FC0008001859F100D1124060F171FFB01E017BC
:103FD000F10708F582819381892B21F13696F7CF7D
:103FE0004081518164817581DA01A60FB71F2C9140
:103FF000332727FD30958217930711F56F5F7F4FA9
:1040000075836483228133816217730759F0369672
:10401000E017F10728F3C4010E949E1F97FD46C0D8
:10402000FE01F6CFEC1BFD0BF595E7952BEA3AEA7E
:10403000E29FC001E39F900DF29F900D112438C0C4
:104040006115710521F3A480B580950121503109D6
:1040500035832483DA01A20FB31FAC91BB27A7FDE0
:10406000B0958A179B07F9F421153105C9F06A014B
:104070007B01E21AF30AE40EF51E412C512CD60105
:104080006D906D01D7017D907D01671006C0BFEF77
:104090004B1A5B0A4216530690F34216530699F6E2
:1040A000B582A482B4CF232B71F6B1CF8FEF9FEFEF
:1040B000DF91CF911F910F91FF90EF90DF90CF9004
:1040C000BF90AF909F908F907F906F905F904F9038
:1040D0000895CF93DF9300D000D000D0CDB7DEB7E6
:1040E000FE01319626E0DF011D922A95E9F77A83D9
:1040F00069835C834B8341E050E0BF010E94CC1F89
:1041000021E0892B09F020E0822F26960FB6F89443
:10411000DEBF0FBECDBFDF91CF910895FB010190AF
:104120000020E9F7AF0141505109461B570B0C9491
:104130006920FC01808191810C94A325CF93DF93AA
:10414000EC0188819981009711F00E94A3251982C2
:1041500018821D821C821B821A82DF91CF910895E2
:104160000F931F93CF93DF93EC018B016F5F7F4F12
:10417000888199810E943226009731F09983888343
:104180001B830A8381E001C080E0DF91CF911F9102
:104190000F910895CF93DF93EC0188819981892B4A
:1041A00029F08A819B818617970760F4CE010E94CF
:1041B000B020882341F08C819D81892B19F4E881FE
:1041C000F981108281E0DF91CF910895EF92FF9203
:1041D0000F931F93CF93DF93EC017B018A01BA0108
:1041E0000E94CA20811104C0CE010E949E2007C0F7
:1041F0001D830C83B701888199810E944027CE01DD
:10420000DF91CF911F910F91FF90EF900895FC01E6
:104210001182108213821282158214826115710537
:1042200059F0FB0101900020E9F7AF01415051091D
:10423000461B570B0C94E6200895CF93DF93EC01B7
:10424000FB018617970761F0608171816115710527
:1042500029F0448155810E94E62002C00E949E20E0
:10426000CE01DF91CF910895FC011182108213825B
:104270001282158214820C941D21CF93DF93EC01DE
:104280006115710561F0FB0101900020E9F7AF01B4
:1042900041505109461B570B0E94E62002C00E9464
:1042A0009E20CE01DF91CF9108950F931F93CF935E
:1042B000DF93CDB7DEB729970FB6F894DEBF0FBEF8
:1042C000CDBF8C01862FF8011182108213821282D9
:1042D0001582148250E0BE016F5F7F4F90E00E9414
:1042E0008C27BE016F5F7F4FC8010E943D21299638
:1042F0000FB6F894DEBF0FBECDBFDF91CF911F91F7
:104300000F9108950F931F93CF93DF93CDB7DEB72F
:1043100062970FB6F894DEBF0FBECDBF8C01CB0104
:10432000F80111821082138212821582148250E0E9
:10433000BE016F5F7F4F0E946127BE016F5F7F4F9D
:10434000C8010E943D2162960FB6F894DEBF0FBEF1
:10435000CDBFDF91CF911F910F910895EF92FF9202
:104360000F931F93CF93DF93CDB7DEB7A1970FB60F
:10437000F894DEBF0FBECDBF7C01CB01BA01F701BF
:1043800011821082138212821582148242E0420F3F
:104390008E010F5F1F4F0E94EA24BC01C7010E94DB
:1043A0003D21A1960FB6F894DEBF0FBECDBFDF91C1
:1043B000CF911F910F91FF90EF900895EF92FF9290
:1043C0000F931F93CF93DF93EC017B010C811D8131
:1043D0006115710511F480E016C04115510591F089
:1043E000040F151FB8010E94CA208823A1F3288159
:1043F00039818C819D81B701820F931F0E944027D4
:104400001D830C8381E0DF91CF911F910F91FF906D
:10441000EF900895FB0144815581608171810C9476
:10442000DE216115710559F0FB0101900020E9F7CB
:10443000AF0141505109461B570B0C94DE2180E01F
:104440000895CF93DF9300D0CDB7DEB769831A828A
:1044500041E050E0BE016F5F7F4F0E94DE210F9070
:104460000F90DF91CF910895CF93DF93EC01FB0183
:1044700044815581608171810E94DE21811103C0D8
:10448000CE010E949E20CE01DF91CF910895CF935F
:10449000DF93EC016115710569F0FB0101900020CB
:1044A000E9F7AF0141505109461B570B0E94DE212D
:1044B000811103C0CE010E949E20CE01DF91CF91D9
:1044C0000895FC0124813581232B31F421E061150D
:1044D0007105A1F0FB0108C0FC018081918161158B
:1044E000710531F421E0FC018081882339F005C099
:1044F0000E94372721E0892B09F020E0822F0895C0
:10450000FC01848195816817790720F4808191816D
:10451000009729F410927B058BE795E00895860FAC
:10452000971F0895CF93DF93FC01848195814817ED
:10453000590778F4C081D181772767FD7095CE0146
:10454000840F951F0E942C27009719F08C1B9D0B40
:1045500002C08FEF9FEFDF91CF91089540E050E0D0
:104560000C949222CF93DF93FC01848195814817AC
:10457000590778F4C081D181FB0160817181CE013E
:10458000840F951F0E944727009719F08C1B9D0BE5
:1045900002C08FEF9FEFDF91CF91089540E050E090
:1045A0000C94B222BF92CF92DF92EF92FF920F93C0
:1045B0001F93CF93DF936C017B01EA0189012417DC
:1045C000350720F48D2FE901042F182F6BEB73E0D2
:1045D000C6010E940721D70114968D919C911597D1
:1045E000C817D907C8F48017910708F48C01D701C0
:1045F000ED91FC911197E00FF11FB08010826D9149
:104600007C916C0F7D1FC6010E943D21D701ED9169
:10461000FC91E00FF11FB082C601DF91CF911F9195
:104620000F91FF90EF90DF90CF90BF900895FC0125
:1046300080819181009711F00C94FC2660E070E07D
:10464000CB0108950CD0BAC0B2D040F0A9D030F060
:1046500021F45F3F19F09BC05111E4C09EC0BFD050
:1046600098F39923C9F35523B1F3951B550BBB2739
:10467000AA2762177307840738F09F5F5F4F220FE6
:10468000331F441FAA1FA9F333D00E2E3AF0E0E8DF
:1046900030D091505040E695001CCAF729D0FE2F2B
:1046A00027D0660F771F881FBB1F261737074807BD
:1046B000AB07B0E809F0BB0B802DBF01FF27935873
:1046C0005F4F2AF09E3F510568F061C0ABC05F3F6D
:1046D000ECF3983EDCF3869577956795B795F7955B
:1046E0009F5FC9F7880F911D9695879597F9089553
:1046F000E1E0660F771F881FBB1F621773078407EF
:10470000BA0720F0621B730B840BBA0BEE1F88F7FD
:10471000E0950895E89409C097FB3EF49095809544
:10472000709561957F4F8F4F9F4F9923A9F0F92F77
:1047300096E9BB279395F695879577956795B795F5
:10474000F111F8CFFAF4BB0F11F460FF1BC06F5FDB
:104750007F4F8F4F9F4F16C0882311F096E911C0ED
:10476000772321F09EE8872F762F05C0662371F00E
:1047700096E8862F70E060E02AF09A95660F771F22
:10478000881FDAF7880F9695879597F9089597F916
:104790009F6780E870E060E008959FEF80EC0895E7
:1047A00000240A9416161706180609060895002410
:1047B0000A9412161306140605060895092E03948A
:1047C000000C11F4882352F0BB0F40F4BF2B11F4FE
:1047D00060FF04C06F5F7F4F8F4F9F4F089557FD5D
:1047E0009058440F551F59F05F3F71F04795880F5F
:1047F00097FB991F61F09F3F79F0879508951216F6
:1048000013061406551FF2CF4695F1DF08C01616A1
:1048100017061806991FF1CF869571056105089452
:104820000895E894BB2766277727CB0197F9089569
:104830000BD0C4CFB5DF28F0BADF18F0952309F00C
:10484000A6CFABCF1124EECFCADFA0F3959FD1F353
:10485000950F50E0551F629FF001729FBB27F00D2E
:10486000B11D639FAA27F00DB11DAA1F649F662783
:10487000B00DA11D661F829F2227B00DA11D621FD2
:10488000739FB00DA11D621F839FA00D611D221F8C
:10489000749F3327A00D611D231F849F600D211D70
:1048A000822F762F6A2F11249F5750408AF0E1F013
:1048B00088234AF0EE0FFF1FBB1F661F771F881F5C
:1048C00091505040A9F79E3F510570F060CFAACF9C
:1048D0005F3FECF3983EDCF3869577956795B79547
:1048E000F795E7959F5FC1F7FE2B880F911D969571
:1048F000879597F9089597FB072E16F4009407D033
:1049000077FD09D00E94D02407FC05D03EF4909595
:1049100081959F4F0895709561957F4F0895A1E20D
:104920001A2EAA1BBB1BFD010DC0AA1FBB1FEE1F29
:10493000FF1FA217B307E407F50720F0A21BB30B74
:10494000E40BF50B661F771F881F991F1A9469F7F0
:1049500060957095809590959B01AC01BD01CF014C
:104960000895052E97FB1EF400940E94C82457FD5D
:1049700007D00E948F2407FC03D04EF40C94C82467
:1049800050954095309521953F4F4F4F5F4F08957B
:1049900090958095709561957F4F8F4F9F4F0895AB
:1049A000AA1BBB1B51E107C0AA1FBB1FA617B70755
:1049B00010F0A61BB70B881F991F5A95A9F7809571
:1049C0009095BC01CD010895EE0FFF1F0590F49165
:1049D000E02D0994EF920F931F93CF93DF93E8019B
:1049E00047FF02C034E101C034E0E42FFF27E7FDB8
:1049F000F095F7FF03C0F195E195F109E32E022F41
:104A00002E2FAE010E94C727CE01DF91CF911F91BB
:104A10000F91EF900895CF93DF938230910510F4BA
:104A200082E090E0E0917E05F0917F0520E030E0AB
:104A3000A0E0B0E0309739F1408151814817590723
:104A4000B8F04817590771F482819381109729F0C3
:104A500013969C938E9312972CC090937F0580930E
:104A60007E0527C02115310531F04217530718F094
:104A7000A901DB0101C0EF019A01BD01DF01028044
:104A8000F381E02DD7CF21153105F9F0281B390B23
:104A90002430310580F48A819B816115710521F0F4
:104AA000FB019383828304C090937F0580937E05EE
:104AB000FE01329644C0FE01E20FF31F81939193F1
:104AC00022503109398328833AC020917C053091E6
:104AD0007D05232B41F42091020130910301309395
:104AE0007D0520937C052091000130910101211565
:104AF000310541F42DB73EB74091040150910501B5
:104B0000241B350BE0917C05F0917D05E217F3073E
:104B1000A0F42E1B3F0B2817390778F0AC014E5F2D
:104B20005F4F2417350748F04E0F5F1F50937D05E8
:104B300040937C058193919302C0E0E0F0E0CF01C7
:104B4000DF91CF910895CF93DF93009709F487C049
:104B5000FC01329713821282C0917E05D0917F05AD
:104B6000209781F420813181280F391F80917C05A5
:104B700090917D058217930779F5F0937D05E09379
:104B80007C056DC0DE0120E030E0AE17BF0750F4B9
:104B900012964D915C9113979D014115510509F1B4
:104BA000DA01F3CFB383A28340815181840F951F33
:104BB0008A179B0771F48D919C911197840F951F13
:104BC00002969183808312968D919C911397938383
:104BD00082832115310529F4F0937F05E0937E054A
:104BE0003EC0D9011396FC93EE9312974D915D91BF
:104BF000A40FB51FEA17FB0779F480819181840F18
:104C0000951F0296D90111969C938E938281938170
:104C100013969C938E931297E0E0F0E08A819B813B
:104C2000009719F0FE01EC01F9CFCE010296288120
:104C30003981820F931F20917C0530917D052817C3
:104C4000390769F4309729F410927F0510927E0598
:104C500002C013821282D0937D05C0937C05DF9140
:104C6000CF910895A0E0B0E0E8E3F6E20C94312A99
:104C7000EC01CB01209719F40E940B25B8C0FE016E
:104C8000E60FF71F9E0122503109E217F30708F4DF
:104C9000ACC0D9010D911C91119706171707B8F0F8
:104CA0000530110508F49FC0A8014450510946176A
:104CB000570708F498C002501109061B170B0193FF
:104CC00011936D937C93CF010E94A3258CC05B014F
:104CD000A01AB10A4E01800E911EA0917E05B091DE
:104CE0007F05612C712C60E070E0109709F449C0D9
:104CF000A815B905C9F5ED90FC901197670142E040
:104D0000C40ED11CCA14DB0478F147018A189B0831
:104D1000640142E0C40ED11C1296BC901297139607
:104D2000AC91B5E0CB16D10440F0B282A38391825E
:104D30008082D9018D939C9309C00E5F1F4F0E0D89
:104D40001F1DF90111830083EB2DFA2F61157105E9
:104D500031F0DB011396FC93EE93129744C0F0936D
:104D60007F05E0937E053FC06D917C91119766169B
:104D7000770608F43B01BD0112960D90BC91A02D61
:104D8000B4CF60917C0570917D0568157905E9F4D3
:104D900068167906D0F44091000150910101411547
:104DA000510541F44DB75EB7609104017091050162
:104DB000461B570BE417F507C0F4F0937D05E0930D
:104DC0007C05F901918380830EC00E940B257C0134
:104DD000009759F0A801BE010E942327CE010E942E
:104DE000A325C70104C0CE0102C080E090E0CDB78A
:104DF000DEB7EEE00C944D2A1F93FC01992788271B
:104E0000BC01E89411911032E9F3193010F01E3012
:104E1000C8F31B3251F01D3249F4689406C00E9459
:104E20007727610F711D811D911D119110531A304B
:104E3000B0F33EF490958095709561957F4F8F4FBC
:104E40009F4F1F910895FB01DC0102C001900D925C
:104E500041505040D8F70895FC018191861721F008
:104E60008823D9F7992708953197CF010895FB0139
:104E7000DC018D91019080190110D9F3990B0895EF
:104E8000FB01DC0101900D920020E1F70895FB0188
:104E900051915523A9F0BF01DC014D9145174111F6
:104EA000E1F759F4CD010190002049F04D914015F2
:104EB0004111C9F3FB014111EFCF81E090E001976F
:104EC00008954532510520F4423010F00C946C27BF
:104ED000FB011082CB010895BB274A3031F499239E
:104EE00022F4BDE2909581959F4F0C949827592FFD
:104EF000482F372F262F660F771F881F991F660FA1
:104F0000771F881F991F620F731F841F951F660FDD
:104F1000771F881F991F08954532510520F44230AC
:104F200010F00C949727FB011082CB010895BB274A
:104F3000FB015527AA27880F991FAA1FA41710F055
:104F4000A41B83955051B9F7A05DAA3308F0A95D61
:104F5000A193009779F7B111B1931192CB010C9401
:104F60001D2AF999FECF92BD81BDF89A992780B587
:104F70000895262FF999FECF1FBA92BD81BD20BD9D
:104F80000FB6F894FA9AF99A0FBE019608956F92A7
:104F90007F929F92AF92BF92CF92DF92EF92FF9259
:104FA0000F931F93CF93DF93CDB7DEB729970FB63B
:104FB000F894DEBF0FBECDBF6A01B22E102F0C33A6
:104FC00020F4FF24F394F00E02C04CE3F42E0F2DD6
:104FD00027E0AE014F5F5F4F0E9445297981272F5F
:104FE0002970213031F0E1FC06C0E0FC06C060E031
:104FF00005C06DE203C06BE201C060E2AE2DA0719E
:1050000073FF36C0662311F084E001C083E08B1586
:1050100010F4B81A01C0B12CA1110BC0F6018B2DF0
:1050200090E2882319F091938150FBCFCB0CD11CD7
:10503000B12C662331F0F601608396012F5F3F4F5C
:105040006901C6010396E2FE05C02EE4F601208345
:1050500031E404C02EE6F601208331E63183228359
:10506000FC012B2D30E22223F1F131932150FBCFB3
:1050700072FF40C0662311F084E001C083E08B150D
:1050800010F4B81A01C0B12CA1110BC0F6018B2D80
:1050900090E2882319F091938150FBCFCB0CD11C67
:1050A000B12C662331F0F601608396012F5F3F4FEC
:1050B0006901C6010396E2FE07C029E4F6012083D8
:1050C0002EE4218326E406C029E6F60120832EE69D
:1050D000218326E62283FC012B2D30E2222319F0C6
:1050E00031932150FBCFFC01EB0DF11D10828EEFAF
:1050F0009FEFB7C0B1E0611101C0B0E04B2F50E0AD
:105100001816190624F49C012F5F3F4F02C021E0BE
:1051100030E0240F351F112329F0412F50E04F5F5D
:105120005F4F02C040E050E0420F531F2B2D30E094
:105130004217530714F4B41A01C0B12C2E2D287154
:1051400059F4F6012B2D30E2222319F0319321502E
:10515000FBCFCB0CD11CB12CBB2331F0F60160830B
:1051600096012F5F3F4F6901A1110BC0F6012B2D56
:1051700030E3222319F031932150FBCFCB0CD11C0B
:10518000B12CF80E0A81372F3071A32E74FF03C0A3
:10519000013309F4FA941F142CF42F2D293018F040
:1051A00028E001C021E0682F392F97FF02C060E09E
:1051B00030E0462F532F612C712C3EE2932EBC0120
:1051C000621B71099B01DC01A41BB50BE1E0F0E05F
:1051D000EC0FFD1FAE0FBF1FE12EF12CF194E194F7
:1051E000F1084F3FFFEF5F0731F4F6019082B601FF
:1051F0006F5F7F4F6B01841795074CF024173507BD
:1052000034F4BD01660D771DFB01118101C010E36F
:1052100041505109FFEF6F1A7F0AB6016F5F7F4F50
:105220004E155F0524F0F60110836B01DACF4817A5
:10523000590739F4063320F4053319F4A11001C0DD
:1052400011E3F6011083FB018B2D90E2882319F006
:1052500091938150FBCFFB01EB0DF11D108280E09B
:1052600090E029960FB6F894DEBF0FBECDBFDF9158
:10527000CF911F910F91FF90EF90DF90CF90BF9053
:10528000AF909F907F906F900895283008F027E0AE
:105290003327DA01990F311D87FD91600096610572
:1052A000710539F432602E5F3D9330E32A95E1F7C2
:1052B00008959F3F30F080387105610509F03C5F2B
:1052C0003C5F3D93913008F08068911DDF93CF9350
:1052D0001F930F93FF92EF92192F987F9695E92FC6
:1052E00096959695E90FFF27E45CFB4F99273327A6
:1052F000EE24FF24A701E70105900894079428F401
:10530000360FE71EF81E491F511D660F771F881FB5
:10531000991F0694A1F70590079428F4E70EF81E4C
:10532000491F561FC11D770F881F991F661F0694BE
:10533000A1F70590079428F4F80E491F561FC71FC0
:10534000D11D880F991F661F771F0694A1F705903E
:10535000079420F4490F561FC71FD81F990F661FC7
:10536000771F881F0694A9F784911095177041F054
:10537000D695C79557954795F794E7941A95C1F731
:10538000E2EEF3E068941590159135916591959151
:1053900005907FE27395E118F10A430B560BC90B98
:1053A000D009C0F7E10CF11E431F561FC91FD01DC5
:1053B0007EF4703311F48A95E6CFE894015030F012
:1053C000080F0AF40027021708F4202F2395022F54
:1053D0007A3328F079E37D932A95E9F710C07D931D
:1053E0002A9589F60694979567953795179517949A
:1053F000E118F10A430B560BC90BD00998F023951D
:105400007E9173957A3308F070E37C932013B8F79C
:105410007E9170617D9330F0839571E37D9370E3AD
:105420002A95E1F71124EF90FF900F911F91CF91F2
:10543000DF91992787FD90950895DC01FC01672F86
:1054400071917723E1F7329704C07C916D9370835B
:105450006291AE17BF07C8F308952F923F924F9203
:105460005F926F927F928F929F92AF92BF92CF92F4
:10547000DF92EF92FF920F931F93CF93DF93CDB7FD
:10548000DEB7CA1BDB0B0FB6F894DEBF0FBECDBF75
:1054900009942A88398848885F846E847D848C8446
:1054A0009B84AA84B984C884DF80EE80FD800C814F
:1054B0001B81AA81B981CE0FD11D0FB6F894DEBF32
:1054C0000FBECDBFED01089514E0C2EED4E004C0DC
:1054D000FE010E94E6242296C63ED107C9F7F89441
:0254E000FFCFFC
:1054E200000080058000302E322E3200566C686B30
:1054F2006F73743A0025002D004646006D616320EB
:1055020067657420616472006F6E006D616320676D
:1055120065742064720030310030303630006162D0
:1055220070006D6163206A6F696E20006B6579732C
:105532005F6E6F745F696E6974006E6F6B6579730D
:105542000061636365707465640057726F6E6720F3
:1055520064617461206F722057414E20756E6176CE
:1055620061696C61626C65210055006D6163207434
:105572007820756E636E66200043006D616320744F
:105582007820636E662000436F6D6D616E642072D9
:105592006573706F6E73653A006E6F745F6A6F69E0
:1055A2006E656400726570656174006E6F5F66722D
:1055B20065655F6368007379732072657365740053
:1055C2006275737900696E76616C69645F7061728D
:1055D200616D00496E76616C696420706172616D03
:1055E20021004C696E6B20726573706F6E73653A41
:1055F200006D61635F74785F6F6B00524E20736C55
:105602006565702074696D653A2000206D696E2EA3
:105612000073797320736C65657020007379732051
:10562200736C65657020323030300053656E64698A
:105632006720627974653A0054783A0052756E3A7E
:1056420000646F776E6C696E6B006A6F696E6D6F66
:1056520064653A006F746161006D61632073657403
:1056620020647220006164723A006D616320736588
:1056720074206164722000706F7765723A006D6108
:105682006320736574207077726964782000706F8C
:1056920072743A0073656E64553A002E2E2E0054D1
:1056A20058207374617475733A0073656E64433A7B
:1056B2000073686F77006D616320676574206465AD
:1056C20076657569006D616320676574206465762F
:1056D20061646472006D616320676574206170703B
:1056E20065756900302E3200737973206765742006
:1056F200766572007379732067657420766464003E
:105702006D56007361766500736C6565703A00537F
:105712006C6565702074696D653A0053746F7265CB
:105722006420746F20454550524F4D210068656CCE
:105732007000726164696F2067657420736E720015
:10574200524E3234383300566F6C74616765206292
:105752007974653A00534E5220627974653A005367
:105762006C6565702054696D653A00506F72743AC9
:10577200004445564555493A00000000003518ECF2
:105782001EA11814188718B91800000000701DEC2B
:105792001EF21C0B1DFD1C4E1D0D0A006E616E00DB
:0857A200696E66006F76660077
:00000001FF
