:100000000C9423030C945C1D0C94891D0C94731B9D
:100010000C94731B0C94731B0C94E7090C944B0306
:100020000C944B030C944B030C944B030C944B0318
:100030000C944B030C94041D0C944B030C944B0335
:100040000C94B61D0C944B030C947A200C94AC20A9
:100050000C944B030C944B030C944B030C944B03E8
:100060000C944B030C944B0343005465706C6F74F9
:10007000613A0053756363657366756C79206A6FC6
:10008000696E6564210052657374617264656420F1
:100090006279206A6F696E2070726F636564757231
:1000A000650052656A6F696E696E672E2E2E004A72
:1000B0006F696E206D6F64653A004E4F54204A4F51
:1000C000494E45442120436865636B206E65747713
:1000D0006F726B206F7220706172616D65746572F2
:1000E0007321004E6F206B65797320656E74727991
:1000F0002100627573792E2E2E004E6F2066726578
:1001000065206368616E6E656C2C2072657472790F
:10011000696E672E2E2E0052656A6F696E20436FDE
:10012000756E7465723A0052756E3A004177616B74
:1001300065210054696D6520746F6F206869676878
:100140002100496E76616C69642074696D652100D7
:10015000506172616D657465727320737563636558
:10016000737366756C7920736176656421006D61C7
:10017000632073617665004144523A0044523A006C
:10018000566F6C746167653A005472616E7363698F
:10019000657665723A0046572076657273696F6EB0
:1001A0003A004C49422076657273696F6E3A00419D
:1001B00070706C69636174696F6E204555493A00CF
:1001C00044657669636520616464726573733A009F
:1001D000446576696365204555493A002A2A2A2AEA
:1001E0002A506172616D65746572732073746F72E9
:1001F000656420696E20466C6173683A2A2A2A2A4F
:100200002A0053656E64696E6720746F20706F7288
:100210007420005061796C6F61643A0053656E64BC
:10022000696E6720746F20706F727420005061795E
:100230006C6F61643A002073746F72656420746F30
:1002400020454550524F4D004E657720706F7274B7
:100250003A00506F7274206F7574206F662072615F
:100260006E67652100506F776572207361766564F3
:1002700021006D61632073617665004144522073F3
:100280006176656421006D61632073617665004469
:100290005220736176656421006D6163207361761D
:1002A00065004D6F64652073746F72656420746FB0
:1002B00020454550524F4D00556E737570706F72EA
:1002C000746564206D6F646500446174613A005028
:1002D0006F72743A004E6F20646174612E0046693B
:1002E00072737420636F6D6D756E69636174696F8D
:1002F0006E202E2E2E006D6163206765742064656C
:1003000076657569005A6170697320646566617508
:100310006C747520646F20454550524F4D002A2A59
:100320002A2A2A2A2A2A2A2A2A2A2A2A2A2A2A2A2D
:100330002A2A2A2A2A2A2A2A2A2A2A2A2A2A2A2A1D
:100340002A2A2A2A2A2A007379732067657420765C
:1003500065720046572076657273696F6E3A002A9F
:100360002A2A2A2A2A2A2A2A2A2A2A53656E736FB7
:10037000722072656164792A2A2A2A2A2A2A2A2A5C
:100380002A2A2A00372E53656E64207061796C6FBB
:1003900061643A090973656E64553A646174612851
:1003A000686578290D0A00362E53657420706F72C7
:1003B000743A0909706F72743A312D3235350D0A6D
:1003C00000352E4A6F696E2047573A09096D6163FF
:1003D000206A6F696E205B6162702C6F7461615D71
:1003E0000D0A00342E417070206B65793A09096D51
:1003F00061632073657420617070736B65790D0A99
:1004000000332E4E6574776F726B206B65793A09F5
:10041000096D616320736574206E776B736B65790A
:100420000D0A00322E446576204555493A09096D7A
:10043000616320736574206465766575690D0A00D3
:10044000312E44657620416464726573733A0909FC
:100450006D61632073657420646576616464720DF8
:100460000A002A2A2A2A2A2A2A2A2A2A2A2A2A2A36
:100470002A2A48454C502A2A2A2A2A2A2A2A2A2A5B
:100480002A2A2A2A2A0D0A00524E32343833206E84
:100490006F742064657465637465642100524E3224
:1004A00034383320636869702064657465637465EB
:1004B0006421007379732067657420766572002A61
:1004C0002A2A2A2A2A2A2A2A2A2A2A4C6F526120D0
:1004D000524E32343833207365742A2A2A2A2A2A43
:1004E0002A2A2A2A2A2A0000000008000201000005
:1004F00003040700000000000000000102040810CF
:100500002040800102040810200102040810200489
:1005100004040404040404020202020202030303AA
:100520000303030000000023002600290000000050
:1005300000250028002B0000000000240027002ACE
:100540000000407A10F35A00A0724E18090010A55E
:10055000D4E80000E87648170000E40B54020000DD
:10056000CA9A3B000000E1F5050000809698000063
:100570000040420F000000A086010000001027008C
:10058000000000E803000000006400000000000A12
:1005900000000000000100000000002C76D888DC7C
:1005A000674F0823DFC1DFAE59E1B1B796E5E3E459
:1005B00053C63AE651997696E8E6C28426EB898CD2
:1005C0009B62ED407C6FFCEFBC9C9F40F2BAA56F34
:1005D000A5F490055A2AF75C936B6CF9676DC11B03
:1005E000FCE0E40D47FEF520E6B500D0ED902E03CB
:1005F00000943577050080841E080000204E0A0014
:100600000000C80C333333330F986E12831141EF5F
:100610008D2114893BE65516CFFEE6DB18D1844BBD
:10062000381BF77C1D901DA4BBE424203284725E2D
:10063000228100C9F124ECA1E53D27002807640AC6
:10064000DC203E076B0A11241FBECFEFD8E0DEBFCF
:10065000CDBF13E0A0E0B1E0E4E3FBE502C005900C
:100660000D92AA3CB107D9F725E0AAECB3E001C08E
:100670001D92A439B207E1F716E0C2E4D6E004C047
:100680002297FE010E94FF27CC33D107C9F70E94B1
:1006900020210C948D2D0C94000080911B04882344
:1006A00049F080912C0490912D04019690932D0493
:1006B00080932C040895CF93DF93EC01FB012481F8
:1006C00035810E948625CE01DF91CF9108958F92CA
:1006D0009F92AF92BF92CF92DF92EF92FF920F93D1
:1006E0001F93CF93DF93CDB7DEB72C970FB6F89457
:1006F000DEBF0FBECDBF88E10FB6F89480936000D7
:10070000109260000FBE85ED93E00E94A31721E0D8
:1007100020931C04E1E8F0E080E1808310928000E7
:1007200085E08093E2048FEF9FEF9093E404809341
:10073000E304909387008093860085E18083209373
:100740001B048DE493E09093E1048093E0042093F4
:100750006F0066E071E0CE0101960E944A23BE015F
:100760006F5F7F4F85ED93E00E94610ACE01019695
:100770000E94DC228AEC93E00E946E080AEC13E0EF
:10078000F80161857285882777FD8095982F0E94F2
:10079000A52620E030E040E251E40E943B266B01B8
:1007A0007C01F80167817085882777FD8095982FF7
:1007B0000E94A52620E030E040E251E40E943B2662
:1007C0004B015C016AE670E082EF94E00E946D21CB
:1007D00021E0B701A601CE0101960E941224BE01BC
:1007E0006F5F7F4F82EF94E00E949221CE010196CD
:1007F0000E94DC22E091F204F091F3040190F08178
:10080000E02D60EB82EF94E0099568E670E082EFFE
:1008100094E00E94AB2121E0B501A401CE0107962E
:100820000E9412246CE071E0CE0101960E944A23DE
:10083000BE01695F7F4FCE0101960E94E82465E109
:1008400071E00E94FB24BC0182EF94E00E94BD2174
:10085000CE0101960E94DC22CE0107960E94DC2286
:100860002C960FB6F894DEBF0FBECDBFDF91CF91AF
:100870001F910F91FF90EF90DF90CF90BF90AF90BE
:100880009F908F9008954F925F926F927F928F9278
:100890009F92AF92BF92CF92DF92EF92FF920F930F
:1008A0001F93CF93DF93CDB7DEB72C970FB6F89495
:1008B000DEBF0FBECDBF8C016CEB73E0CE0107969F
:1008C0000E944A236CEB73E0C8010E944A238AEC21
:1008D00093E00E946E086091D1037091D203882743
:1008E00077FD8095982F0E94A52620E030E040E219
:1008F00051E40E943B262B013C016091D30370918F
:10090000D403882777FD8095982F0E94A52620E0A4
:1009100030E040E251E40E943B26AB01BC0121E003
:10092000CE0101960E941224BE016F5F7F4FCE015F
:1009300007960E948123CE0101960E94DC2221E0CD
:1009400030E040E050E0BE01695F7F4FCE0101968C
:100950000E94862567E171E0CE0101960E9415256F
:10096000F82ECE0101960E94DC22FF20D1F069E131
:1009700071E0C8010E94A12341E050E0BE01695F1F
:100980007F4FCE0101960E945B03BE016F5F7F4FD8
:10099000CE0107960E948123CE0101960E94DC229F
:1009A00005C063E572E0C8010E94A1236EEB72E00E
:1009B000CE0101960E944A23BE016F5F7F4FCE0198
:1009C00007960E9482255C01CE0101960E94DC22DE
:1009D000BB24950140E050E0BE01695F7F4FCE012E
:1009E00001960E948625CE0101960E94CB256B01BF
:1009F0007C01CE0101960E94DC2280E1C816D10460
:100A00002CF46AE071E0C8010E94962440E1B6012E
:100A1000CE0101960E94E623BE016F5F7F4FC801A1
:100A20000E948F24CE0101960E94DC22A5014F5F17
:100A30005F4FBE01695F7F4FCE0101960E945B034D
:100A4000CE0101960E94CB252AE0269F7001279FA8
:100A5000F00C1124CE0101960E94DC2280E1E81600
:100A6000F1042CF46AE071E0C8010E94962440E190
:100A7000B701CE0101960E94E623BE016F5F7F4F52
:100A8000C8010E948F24CE0101960E94DC2221E041
:100A9000B301A201CE0101960E941224BE016F5F34
:100AA0007F4FCE0107960E948123CE0101960E94BE
:100AB000DC226EEB72E0CE0101960E944A23BE0159
:100AC0006F5F7F4FCE0107960E9482255C01CE01A9
:100AD00001960E94DC22BB24950140E050E0BE015B
:100AE000695F7F4FCE0101960E948625CE01019657
:100AF0000E94CB256B017C01CE0101960E94DC2275
:100B000080E1C816D1042CF46AE071E0C8010E94AB
:100B1000962440E1B601CE0101960E94E623BE0173
:100B20006F5F7F4FC8010E948F24CE0101960E9403
:100B3000DC22A5014F5F5F4FBE01695F7F4FCE0191
:100B400001960E945B03CE0101960E94CB252AE00C
:100B5000269F7001279FF00C1124CE0101960E9460
:100B6000DC2280E1E816F1042CF46AE071E0C801AF
:100B70000E94962440E1B701CE0101960E94E6232F
:100B8000BE016F5F7F4FC8010E948F24CE01019686
:100B90000E94DC22CE0107960E94DC22C8012C961E
:100BA0000FB6F894DEBF0FBECDBFDF91CF911F917E
:100BB0000F91FF90EF90DF90CF90BF90AF909F90FC
:100BC0008F907F906F905F904F900895FF920F935A
:100BD0001F93CF93DF93CDB7DEB763970FB6F8942B
:100BE000DEBF0FBECDBF8C016CEB73E00E944A23C9
:100BF0006CEB73E0CE010D960E944A2365ED73E025
:100C0000CE0101960E94FA16BE016F5F7F4FCE01A2
:100C10000D960E948123CE0101960E94DC2221E0E4
:100C200030E040E050E0BE01635F7F4FCE010196AF
:100C30000E94862563E572E0CE0101960E9415258B
:100C4000F82ECE0101960E94DC22FF2011F03FEF2A
:100C500001C037EF42E050E0BE01635F7F4FCE013D
:100C600001963B8B0E945B03BE016F5F7F4FC80103
:100C70000E948123CE0101960E94DC2265ED73E083
:100C8000CE0101960E943F16BE016F5F7F4FC801E3
:100C90000E948F24CE0101960E94DC2285ED93E014
:100CA0000E946F0A6CE171E08DE394E00E94CF2115
:100CB00065ED73E0CE0101960E94820ABE016F5F6E
:100CC0007F4FCE010D960E948123CE0101960E9496
:100CD000DC2268E271E0CE010D960E9415253B8969
:100CE000811101C03F776BE271E08DE394E03B8BB3
:100CF0000E94CF2165ED73E0CE0101960E94820A29
:100D0000BE016F5F7F4FCE010D960E948123CE0101
:100D100001960E94DC22CE010D960E94CB25262F43
:100D20002295207F2F683B89232340E1622FCE014B
:100D300007962B8B0E94B923BE01695F7F4FCE01BE
:100D400001960E949823B801CE0101960E94E824E2
:100D5000BC01C8010E948123CE0101960E94DC22C1
:100D6000CE0107960E94DC222B89203198F46AE09C
:100D700071E0CE0101960E944A23B801CE0101968E
:100D80000E94E824BC01C8010E948123CE01019683
:100D90000E94DC22CE0101960E944304BE016F5FD7
:100DA0007F4FCE010D960E948123CE0101960E94B5
:100DB000DC2242E050E0BE01635F7F4FCE0101962E
:100DC0000E945B03BE016F5F7F4FC8010E948F24AA
:100DD000CE0101960E94DC2221E030E040E050E0AC
:100DE000BE01635F7F4FCE0101960E94862569E1B7
:100DF00071E0CE0101960E941525F82ECE010196D4
:100E00000E94DC22FF2039F066E371E0CE010D96EE
:100E10000E94A12306C063E572E0CE010D960E94F8
:100E2000A123BE01635F7F4FC8010E948F24CE01C2
:100E30000D960E94DC22C80163960FB6F894DEBFBF
:100E40000FBECDBFDF91CF911F910F91FF900895FD
:100E50006CEB73E086E394E00E944A236CEB73E052
:100E600080E394E00E944A2361E085ED93E00E94D4
:100E7000000A6AE08AEC93E00C94490881E194E06E
:100E80000E94DC228BE094E00E94DC2285E094E06A
:100E90000E94DC228FEF93E00E94DC2289EF93E036
:100EA0000E94DC2283EF93E00E94DC228DEE93E02F
:100EB0000E94DC2287EE93E00E94DC2281EE93E028
:100EC0000E94DC228BED93E00E94DC2285ED93E012
:100ED0000E94DC2280E394E00E94DC2286E394E01E
:100EE0000C94DC221F93CF93DF9300D000D000D06E
:100EF000CDB7DEB780912404882319F1CE01019685
:100F00000E94E605BE016F5F7F4F86E394E00E947A
:100F10008123CE0101960E94DC2280E18093810032
:100F200066E374E0CE0101960E949823BE016F5FD4
:100F30007F4F85ED93E00E94100FCE0101960E9435
:100F4000DC2280912C0490912D0405973CF11092A5
:100F50002D0410922C04CE0101960E94E605BE01DC
:100F60006F5F7F4F86E394E00E948123CE0101965C
:100F70000E94DC2281E08093240466E374E0CE01C9
:100F800001960E949823BE016F5F7F4F85ED93E02D
:100F90000E94100FCE0101960E94DC2282EF94E0A5
:100FA0000E94351F181619060CF057C082EF94E006
:100FB0000E944E1F80932F04682F82EF94E00E94BE
:100FC000A02160912F0480E394E00E94A6248091E8
:100FD0002F048A3009F041C010922D0410922C0485
:100FE00020913404309135042250310940E050E022
:100FF00060E374E0CE0101960E948625BE016F5F1A
:101000007F4F80E394E00E948123CE0101960E94ED
:10101000DC2260E374E0CE0101960E949823BE01B9
:101020006F5F7F4F85ED93E00E941310182FCE0164
:1010300001960E94DC2211110AC010922D04109218
:101040002C0460E374E08DE394E00E94BD216CEB1E
:1010500073E080E394E00E94A1238DE394E00E947A
:101060001C1B181619065CF48DE394E00E94901A7C
:1010700080932E04682F82EF94E00E94A021269690
:101080000FB6F894DEBF0FBECDBFDF91CF911F9199
:101090000895CF93DF93EC0170E0FB01E550FB4F27
:1010A000E491E883FB01E15FFA4FE491F0E0EE0F99
:1010B000FF1FED5DFA4F859194919A8389830E9479
:1010C000001E6B837C838D839E838DE19CEF9887CC
:1010D0008F839A878987DF91CF9108957F928F922E
:1010E0009F92AF92BF92CF92DF92EF92FF920F93B7
:1010F0001F93CF93DF93CDB7DEB7A9970FB6F894C0
:10110000DEBF0FBECDBF7C01FC017080018112816A
:101110000E94001E6E01FAE2CF0ED11CFE01319634
:101120001192EC15FD05E1F7F70183809480A5800D
:10113000B6809B01AC01281939094A095B094901AC
:101140005A0130ED831637E09306A104B10408F488
:10115000D8C06383748385839683F894F801818172
:10116000B72CB0948B2181837894EEE7AE2E82E089
:1011700090E00E94571EF8018081872129F4AA94EB
:10118000B1F781E090E0C2C0F894F80182818B2130
:10119000828381818729818378948CE494E00E9402
:1011A000571EF894F80181818B21818378947AE12C
:1011B000B72E82E090E00E94571EF80180818721BF
:1011C00029F4BA94B1F782E090E0A0C063E3B62EB0
:1011D00082E090E00E94571EF8018081872129F06B
:1011E000BA94B1F783E090E091C09E012F5F3F4F2A
:1011F000590154E2952E82E090E00E94571EF801BA
:101200008081872129F49A94B1F784E090E07EC030
:10121000912C939482E090E00E94571EF801808107
:10122000872131F0F3E39F12F4CF85E090E06EC0A8
:10123000F50191925F01EC15FD05D9F6FE0132969C
:101240008FE090E040E050E021E030E061916C30D0
:1012500048F0B901082E02C0660F771F0A94E2F722
:10126000462B572B019790F7FE0172968FE090E086
:1012700020E030E061E070E0A191AC3048F0DB01AB
:10128000082E02C0AA0FBB1F0A94E2F72A2B3B2BA1
:10129000019790F7FE01B29687E090E060E0A1E050
:1012A000B0E071917C3038F08D01082E01C0000F44
:1012B0000A94EAF7602B0197A0F7CA019F77F7011C
:1012C0009087878337FF08C0C9019F7791958195E3
:1012D00091099287818703C0F7013287218770E0E7
:1012E000852F9927840F911D432F5527840F951F14
:1012F000820F911D99276817790731F480E090E0FB
:1013000005C087E090E002C086E090E0A9960FB6A5
:10131000F894DEBF0FBECDBFDF91CF911F910F912B
:10132000FF90EF90DF90CF90BF90AF909F908F9005
:101330007F9008954115510529F4EAE7F0E0808196
:101340008F7780836A307105B1F063FF02C088E255
:1013500001C088E06770682B88E190E00FB6F894D0
:10136000A895809360000FBE60936000E0E6F0E017
:10137000808180648083232BA1F483B7817F846084
:1013800083BFF89483B7816083BF85B7806685BFCC
:101390008F7D85BF7894889583B78E7F83BF78943F
:1013A0000EC083B7817F846083BFF89483B7816068
:1013B00083BF7894889583B78E7F83BF7894452BBD
:1013C00029F4EAE7F0E080818068808308951F9225
:1013D0000F920FB60F9211248F9388E10FB6F894F5
:1013E00080936000109260000FBE8F910F900FBE2F
:1013F0000F901F90189508950C94DA2A0C94E22A05
:101400001F93CF93DF93EC01162F6CEB73E00E94D8
:101410004A236CEB73E0CE0106960E944A236CEBE4
:1014200073E0CE010C960E944A236CEB73E0CE0170
:1014300042960E944A236CEB73E0CE0148960E94CC
:101440004A2369E371E0CE014E960E944A236CEB79
:1014500073E0CE0184960E944A236CEB73E0CE01C8
:101460008A960E944A236CEB73E0CE01C0960E94DC
:101470004A236EE371E0CE01C6960E944A236CEBCC
:1014800073E0CE01CC960E944A23FE01E15BFF4F40
:101490001082359681E08083CA5ADF4F1883DF912E
:1014A000CF911F91089560E084E00E94FF1E64E6E2
:1014B00070E080E090E00E942F1E61E084E00C94D8
:1014C000FF1E0C960C94812320E048E067E08DE33A
:1014D00094E00C94461C8DE394E00C94ED1B8DE39A
:1014E00094E00E941C1B181619065CF462E070E080
:1014F00080E090E00E942F1E8DE394E00E94901AFD
:10150000EECF0895EF92FF920F931F93CF93DF9347
:1015100000D000D000D0CDB7DEB78C017B016CEBE2
:1015200073E00E944A238DE394E00E941C1B18166E
:10153000190634F060E070E0CB010E942F1EF3CF5B
:1015400085E5E80EF11C8DE394E00E941C1B181643
:10155000190664F58DE394E00E94901AF7018083E8
:10156000682FC8010E94A62460E070E0CB010E94B1
:101570002F1E0E942B1DF70180818A3021F7F80170
:10158000248135812250310940E050E0B801CE017C
:1015900001960E948625BE016F5F7F4FC8010E94A1
:1015A0008123CE0101960E94DC22CDCFC801269670
:1015B0000FB6F894DEBF0FBECDBFDF91CF911F9164
:1015C0000F91FF90EF900895CF92DF92EF92FF92EC
:1015D0000F931F93CF93DF93CDB7DEB72C970FB642
:1015E000F894DEBF0FBECDBF7C018B016A016CEBAE
:1015F00073E0CE0107960E944A2362E471E0CE01B7
:1016000001960E944A23B601CE0101960E94E82469
:10161000BC018DE394E00E94BD21CE0101960E94A1
:10162000DC22B801CE0101960E94820ABE016F5FE2
:101630007F4FCE0107960E948123CE0101960E9422
:10164000DC226CE471E0CE0107960E94152598011A
:101650002C5B3F4F6901882371F0F901108263EE22
:1016600070E082EF94E00E94AB216AE571E0C7016F
:101670000E944A232CC0B801CE0101960E94820A22
:10168000BE016F5F7F4FCE0107960E948123CE017E
:1016900001960E94DC2261E671E0CE0107960E946D
:1016A0001525882321F081E0F601808308C0F6012A
:1016B00010826AEB70E082EF94E00E94AB21C801D7
:1016C0000E946F0A6DE172E0C7010E944A23CE01B9
:1016D00007960E94DC22C7012C960FB6F894DEBF55
:1016E0000FBECDBFDF91CF911F910F91FF90EF9073
:1016F000DF90CF9008955F926F927F928F929F922A
:10170000AF92BF92CF92DF92EF92FF920F931F930F
:10171000CF93DF93CDB7DEB762970FB6F894DEBFF5
:101720000FBECDBF7C018B016CEB73E0CE010D963B
:101730000E944A238FE090E00E94FC0998012A5CF5
:101740003F4F69018F3F31F46EE371E0C9010E94A0
:10175000A12305C06AE671E0C9010E94A1236FEAD6
:1017600070E082EF94E00E946D21B60182EF94E078
:101770000E94BD21380134E4630E711C580182E5DA
:10178000A80EB11C4801E5E48E0E911C83E0582E92
:10179000F301808181115CC062EA70E082EF94E025
:1017A0000E94AB21F5018081918101969183808314
:1017B000B601CE0107960E949823AE01495F5F4FA4
:1017C000B801CE0101960E94E40ABE016F5F7F4F0F
:1017D000CE010D960E948123CE0101960E94DC224B
:1017E000CE0107960E94DC226AE571E0CE010D96DB
:1017F0000E941525882331F06AE571E0C7010E9437
:101800004A2334C05A9421F6F4018081882331F0B0
:101810006FE671E0C7010E944A2328C0C8010E94F8
:10182000530AB801CE0101960E94820ABE016F5F81
:101830007F4FCE010D960E948123CE0101960E941A
:10184000DC2266E870E082EF94E00E94AB219ECF3C
:1018500063E770E082EF94E00E94AB21C8010E9430
:101860006F0A6DE172E0C7010E944A23CE010D9616
:101870000E94DC22C70162960FB6F894DEBF0FBE4D
:10188000CDBFDF91CF911F910F91FF90EF90DF902F
:10189000CF90BF90AF909F908F907F906F905F9010
:1018A00008954F925F926F927F928F929F92AF9224
:1018B000BF92CF92DF92EF92FF920F931F93CF933D
:1018C000DF93CDB7DEB72C970FB6F894DEBF0FBE0F
:1018D000CDBF6C017B014A01590138016CEB73E00B
:1018E000CE0107960E944A238701005D1F4F6CEBD3
:1018F00073E0C8010E94A123270184E4480E511C13
:10190000F2018081811129C0B701CE0101960E94A8
:101910007B0BBE016F5F7F4FCE0107960E94812334
:10192000CE0101960E94DC226AE571E0CE010796A5
:101930000E941525882331F06AE571E0C6010E94F6
:101940004A236EC16DE172E0CE0107960E94152513
:10195000882319F081E0F20180836EE871E0C40110
:101960000E9415258823D9F060E971E0CE01019627
:101970000E944A23B501CE0101960E94E82464E347
:1019800072E00E94FB24B3010E94E824BC018DE3B5
:1019900094E00E94BD21CE0101960E94DC226EE9F6
:1019A00071E0C4010E9415258823D9F060EA71E036
:1019B000CE0101960E944A23B501CE0101960E94F4
:1019C000E82464E372E00E94FB24B3010E94E8244F
:1019D000BC018DE394E00E94BD21CE0101960E94DE
:1019E000DC22B701CE0101960E94820ABE016F5F20
:1019F0007F4FCE0107960E948123CE0101960E945F
:101A0000DC226CEA71E0CE0101960E944A23BE01FD
:101A1000695F7F4FCE0101960E94E824BC0182EFEE
:101A200094E00E94BD21CE0101960E94DC226EEB63
:101A300071E0CE0107960E9415258823D9F0F201A6
:101A40001082B701CE0101960E947B0BBE016F5F31
:101A50007F4FCE0107960E948123CE0101960E94FE
:101A6000DC226AE571E0CE0107960E9415258111FE
:101A700063CF46C060ED71E0CE0107960E94152548
:101A8000882379F06AEF70E082EF94E00E94AB2146
:101A9000F20110826BED71E08DE394E00E94CF21A2
:101AA00016C065EE71E0CE0107960E9415258823C9
:101AB00069F162EF70E082EF94E00E94AB216BED80
:101AC00071E08DE394E00E94CF21F2011082B70112
:101AD000CE0101960E94820ABE016F5F7F4FCE0148
:101AE00007960E948123CE0101960E94DC22B70155
:101AF000CE0101960E947B0BCE0101960E94DC2252
:101B000069EC71E0C6010E944A238AC06AEE71E066
:101B1000CE0107960E941525882331F068EF71E009
:101B2000C6010E944A237CC064E670E080E090E039
:101B30000E942F1EB701CE0101960E94820ABE01AB
:101B40006F5F7F4FCE0107960E948123CE010196E1
:101B50000E94DC2267E072E0CE0101960E944A23D7
:101B6000BE01695F7F4FCE0101960E94E824BC014F
:101B700082EF94E00E94BD21CE0101960E94DC22FA
:101B800066E172E0CE0107960E941525811133C0EF
:101B900047E050E0BE01695F7F4FCE0101960E9491
:101BA0005B03BE016F5F7F4FC8010E948123CE019E
:101BB00001960E94DC2260E2C8010E9462259927FA
:101BC0000196AC01B801CE0101960E945B0360E270
:101BD00072E0CE0101960E941525811112C063E2C8
:101BE00072E0CE0101960E94152581110AC0CE0136
:101BF00001960E94DC226DE172E0C6010E944A2338
:101C00000FC061E089E00E94FF1E68EC70E080E098
:101C100090E00E942F1E60E089E00E94FF1EE7CF47
:101C2000CE0107960E94DC22C6012C960FB6F894CE
:101C3000DEBF0FBECDBFDF91CF911F910F91FF90FF
:101C4000EF90DF90CF90BF90AF909F908F907F905C
:101C50006F905F904F900895AF92BF92CF92DF92B6
:101C6000EF92FF920F931F93CF93DF93CDB7DEB721
:101C70002C970FB6F894DEBF0FBECDBF8C015B0171
:101C800088E10FB6F89480936000109260000FBE58
:101C9000CB010E94CB256B017C01B501C8014E969A
:101CA0000E948123C701B6010E94A52620E030E6EC
:101CB0004AE657E40E94312720E030E443E855E447
:101CC0000E94D625AB01BC0120E0CE0107960E9400
:101CD000122466E272E0CE0101960E944A23B50109
:101CE000CE0101960E94E82466E372E00E94FB2484
:101CF000BC0182EF94E00E94BD21CE0101960E94BA
:101D0000DC226CE372E0CE0101960E944A23BE0100
:101D1000695F7F4FCE0101960E94E824BC018DE3EC
:101D200094E00E94BD21CE0101960E94DC2264E66F
:101D300070E080E090E00E942F1E60E08DE00E9445
:101D4000FF1EF801EA5BFF4F10823996108243E0D4
:101D500050E06BEF79E080E00E942C1D88E10FB627
:101D6000F89480936000109260000FBE20E030E095
:101D700040E050E06AE070E08CE394E00E949A0951
:101D800080E00E944C1DF801E15BFF4F81E0808301
:101D900061E08DE00E94FF1E67E472E08DE394E055
:101DA0000E94CF2120E030E040E050E066E070E0AB
:101DB0008CE394E00E949A098DE394E00E941C1B3E
:101DC00018161906CCF7B801CE0101960E94820AB6
:101DD0006DE172E0CE0101960E941525182FCE010B
:101DE00001960E94DC22112331F06CE271E082EF57
:101DF00094E00E94AB21CE0107960E94DC222C9633
:101E00000FB6F894DEBF0FBECDBFDF91CF911F910B
:101E10000F91FF90EF90DF90CF90BF90AF9008951B
:101E2000CF92DF92EF92FF920F931F93CF93DF93A6
:101E3000CDB7DEB7A4970FB6F894DEBF0FBECDBF07
:101E40007C018B016CEB73E0CE014F960E944A231C
:101E50006CEB73E0CE0149960E944A2367018FE440
:101E6000C80ED11CF6011082B801CE0149960E941D
:101E7000812366E572E0CE0101960E944A23BE01ED
:101E8000675E7F4FCE0101960E94E824BC0182EF7D
:101E900094E00E94BD21CE0101960E94DC22BE0189
:101EA000675E7F4FCE0107960E949823B7016E5E52
:101EB0007F4FCE010D960E9498236EE871E0CE010F
:101EC00043960E944A238E01095F1F4F9E01235FA4
:101ED0003F4FAE014D5E5F4FB701CE0101960E94AC
:101EE000510CBE016F5F7F4FCE014F960E94812340
:101EF000CE0101960E94DC22CE0143960E94DC2294
:101F0000CE010D960E94DC22C8010E94DC2263E60D
:101F100072E0CE0101960E944A23BE01615E7F4FAE
:101F2000CE0101960E94E824BC0182EF94E00E9459
:101F3000BD21CE0101960E94DC2269EC71E0CE0148
:101F40004F960E941525882331F081E0F6018083A9
:101F50003497808351C08701005B1F4FF801808157
:101F6000918101969183808367E271E082EF94E032
:101F70000E946D21F801608171814AE0CE010196D5
:101F80000E94E623BE016F5F7F4F82EF94E00E94C4
:101F9000BD21CE0101960E94DC2267E171E082EF53
:101FA00094E00E946D21F701EE5AFF4F608171812C
:101FB0004AE0CE0101960E94E623BE016F5F7F4F8B
:101FC00082EF94E00E94BD21CE0101960E94DC22A6
:101FD000C7010E946F0AB701625E7F4FCE01019672
:101FE0000E949823BE016F5F7F4FC7010E942C0E95
:101FF000CE0101960E94DC22CE0149960E94DC228D
:10200000CE014F960E94DC22A4960FB6F894DEBF54
:102010000FBECDBFDF91CF911F910F91FF90EF9039
:10202000DF90CF9008959F92AF92BF92CF92DF92B0
:10203000EF92FF920F931F93CF93DF93CDB7DEB74D
:10204000A4970FB6F894DEBF0FBECDBF7C018B0105
:1020500067E672E0C8010E941525882309F461C073
:102060006CEB73E0CE0107960E944A23B701605DD6
:102070007F4FCE0101960E949823BE016F5F7F4F74
:10208000CE0107960E948123CE0101960E94DC2298
:102090008B859C85029738F465ED72E082EF94E0C1
:1020A0000E94AB217CC460E2CE0107960E946225AB
:1020B0008C016FEC72E082EF94E00E946D21112799
:1020C000980140E050E0BE01695F7F4FCE0101966C
:1020D0000E948625BE016F5F7F4F82EF94E00E94D1
:1020E000BD21CE0101960E94DC2269EC72E082EFF4
:1020F00094E00E946D21A8014F5F5F4FBE01695FB0
:102100007F4FCE0101960E945B03BE016F5F7F4F40
:1021100082EF94E00E94BD21CE0101960E94DC2254
:102120003EC429E030E040E050E0B801CE01019625
:102130000E94862560E772E0CE0101960E94152577
:10214000D82ECE0101960E94DC22DD2009F44DC07C
:1021500049E050E0B801CE0101960E945B03BE0148
:102160006F5F7F4FC8010E948123CE0101960E94BC
:10217000DC226EE371E0C8010E941525882369F016
:102180008FE090E00E94FC098F3F09F4DEC26FEF00
:102190008FE090E00E94FE091CC06AE671E0C80171
:1021A0000E941525882369F08FE090E00E94FC09C9
:1021B000882309F4CAC260E08FE090E00E94FE0923
:1021C00008C068EB72E082EF94E00E94AB2181E0EE
:1021D00044C5F701EC5BFF4F108262EA72E082EFC8
:1021E00094E00E94AB2181E038C523E030E040E07C
:1021F00050E0B801CE0101960E94862567E872E0A2
:10220000CE0101960E941525D82ECE0101960E947E
:10221000DC22DD2009F45CC043E050E0B801CE01CF
:1022200001960E945B03BE016F5F7F4F8701065DD1
:102230001F4FC8010E948123CE0101960E94DC221B
:102240006AE772E0CE0101960E944A23B801CE01EE
:1022500001960E94E824BC018DE394E00E94BD2118
:10226000CE0101960E94DC22B701CE0101960E94A8
:10227000820A6DE172E0CE0101960E941525182FA9
:10228000CE0101960E94DC22112309F45EC269E9A5
:1022900072E08DE394E00E94AB21B701CE0101967C
:1022A0000E94820A6DE172E0CE0101960E9415251E
:1022B000182FCE0101960E94DC22112309F445C299
:1022C0006FE872E082EF94E00E94AB2181E0C5C428
:1022D00024E030E040E050E0B801CE0101960E94D9
:1022E000862566E872E0CE0101960E941525D82E5B
:1022F000CE0101960E94DC22DD2009F459C044E0A1
:1023000050E0B801CE0101960E945B03BE016F5FF1
:102310007F4FC8010E948123CE0101960E94DC22DA
:102320006BE872E0CE0101960E944A23B801CE010B
:1023300001960E94E824BC018DE394E00E94BD2137
:10234000CE0101960E94DC22B701CE0101960E94C7
:10235000820A6DE172E0CE0101960E941525182FC8
:10236000CE0101960E94DC22112309F4EEC166E839
:1023700072E08DE394E00E94AB21B701CE0101969B
:102380000E94820A6DE172E0CE0101960E9415253D
:10239000182FCE0101960E94DC22112309F4D5C129
:1023A0006BE772E082EF94E00E94AB2181E055C4BC
:1023B00026E030E040E050E0B801CE0101960E94F6
:1023C000862568E972E0CE0101960E941525D82E77
:1023D000CE0101960E94DC22DD2009F45BC046E0BC
:1023E00050E0B801CE0101960E945B03BE016F5F11
:1023F0007F4FC8010E948123CE0101960E94DC22FA
:102400006FE972E0CE0101960E944A23B7016C5D2C
:102410007F4FCE0101960E94E824BC018DE394E039
:102420000E94BD21CE0101960E94DC22B701CE019F
:1024300001960E94820A6DE172E0CE0101960E942F
:102440001525182FCE0101960E94DC22112309F4D4
:102450007CC162E772E08DE394E00E94AB21B7019A
:10246000CE0101960E94820A6DE172E0CE010196D2
:102470000E941525182FCE0101960E94DC221123FF
:1024800009F463C165E672E082EF94E00E94AB213B
:1024900081E0E3C325E030E040E050E0B801CE0148
:1024A00001960E9486256FEA72E0CE0101960E9495
:1024B0001525D82ECE0101960E94DC22DD2009F4DC
:1024C00042C045E050E0B801CE0101960E945B0396
:1024D000BE016F5F7F4FC8010E948123CE0101962C
:1024E0000E94DC2222E1E20EF11CB801C7010E9429
:1024F0008123C7010E94CB25673E710581059105A7
:1025000044F062E572E082EF94E00E94AB2180E04B
:10251000A4C3C7010E94CB258AE090E00E94FE0977
:1025200068E472E082EF94E00E946D21B80182EFCE
:1025300094E00E94922166E372E082EF94E00E94B0
:10254000AB2181E08AC326E030E040E050E0B801F2
:10255000CE0101960E94862565EB72E0CE010196C0
:102560000E941525D82ECE0101960E94DC22DD2086
:1025700009F44BC061E089E00E94FF1E6CEB73E040
:10258000CE014F960E944A2346E050E0B801CE01AA
:1025900001960E945B03BE016F5F7F4FC8010E94DE
:1025A0008123CE0101960E94DC226DE272E082EF6F
:1025B00094E00E946D21B80182EF94E00E94BD2159
:1025C000B801C7010E9481236CE172E082EF94E0C0
:1025D0000E946D2187010E5E1F4FB80182EF94E0CB
:1025E0000E9492216CEB72E082EF94E00E94CF2176
:1025F000B701CE010D960E949823B801CE014396F3
:102600000E9498236EE871E061C026E030E040E06F
:1026100050E0B801CE0101960E9486256BEC72E075
:10262000CE0101960E941525D82ECE0101960E945A
:10263000DC22DD2009F48BC061E089E00E94FF1EEE
:102640006CEB73E0CE014F960E944A2346E050E0C7
:10265000B801CE0101960E945B03BE016F5F7F4F00
:10266000C8010E948123CE0101960E94DC2263E111
:1026700072E082EF94E00E946D21B80182EF94E055
:102680000E94BD21B801C7010E94812362E072E06F
:1026900082EF94E00E946D2187010E5E1F4FB8010A
:1026A00082EF94E00E9492216CEB72E082EF94E062
:1026B0000E94CF21B701CE010D960E949823B80148
:1026C000CE0143960E9498236EE971E0CE014996AF
:1026D0000E944A238E01035F1F4F9E012D5E3F4FD4
:1026E000AE01475E5F4FB701CE0107960E94510CC5
:1026F00060EC72E0CE0101960E944A23BE01695F40
:102700007F4FCE0101960E94E824BC0182EF94E045
:102710000E94BD21CE0101960E94DC22CE010796C7
:102720000E94DC22CE0149960E94DC22CE01439613
:102730000E94DC22C8010E94DC2260E089E00E9445
:10274000FF1ECE014F960E94DC2281E086C262ED20
:1027500072E0C8010E941525882309F426C16CEB9C
:1027600073E0CE0107960E944A236CED71E082EF80
:1027700094E00E94AB2160ED71E082EF94E00E9452
:102780006D2167ED72E08DE394E00E94CF21B701E7
:10279000CE0101960E94820ABE016F5F7F4FCE017B
:1027A00007960E948123CE0101960E94DC22BE0181
:1027B000695F7F4F82EF94E00E94BD2160EC71E081
:1027C00082EF94E00E946D2166EE72E08DE394E06A
:1027D0000E94CF21B701CE0101960E94820ABE015C
:1027E0006F5F7F4FCE0107960E948123CE01019635
:1027F0000E94DC22BE01695F7F4F82EF94E00E945D
:10280000BD216FEA71E082EF94E00E946D2166EFD6
:1028100072E08DE394E00E94CF21B701CE010196D2
:102820000E94820ABE016F5F7F4FCE0107960E9411
:102830008123CE0101960E94DC22BE01695F7F4F99
:1028400082EF94E00E94BD2162EA71E082EF94E0A1
:102850000E946D2165E073E082EF94E00E94CF2139
:1028600066E971E082EF94E00E946D21B701645F38
:102870007F4F82EF94E00E94BD2169E871E082EF12
:1028800094E00E946D2169E073E08DE394E00E9482
:10289000CF21B701CE0101960E94820ABE016F5F6F
:1028A0007F4FCE0107960E948123CE0101960E94A0
:1028B000DC22BE01695F7F4F82EF94E00E94BD2160
:1028C00060E871E082EF94E00E946D2165E173E0C1
:1028D0008DE394E00E94CF21B701CE0101960E94C2
:1028E000820ABE016F5F7F4FCE0107960E9481234F
:1028F000CE0101960E94DC22BE01695F7F4F82EF0C
:1029000094E00E94922161E273E082EF94E00E94E1
:10291000CF216CE771E082EF94E00E946D216BE2C1
:1029200071E08DE394E00E94CF21B701CE010196C2
:102930000E94820ABE016F5F7F4FCE0107960E9400
:102940008123CE0101960E94DC22BE01695F7F4F88
:1029500082EF94E00E94BD2167E771E082EF94E08E
:102960000E946D216CE171E08DE394E00E94CF2123
:10297000B701CE0101960E94820ABE016F5F7F4FB0
:10298000CE0107960E948123CE0101960E94DC228F
:10299000BE01695F7F4F82EF94E00E94BD21CE01AE
:1029A00007960E94DC2281E058C164E273E0C8010E
:1029B0000E941525882309F46BC06CEB73E0CE01EF
:1029C00007960E944A236EE671E08DE394E00E9430
:1029D000AB218DE394E00E941C1B18161906CCF75E
:1029E00035E5E30EF11C8DE394E00E941C1B1816E4
:1029F00019060CF046C08DE394E00E94901AF7018E
:102A00008083682FCE0107960E94A624F70180815B
:102A10008A3049F72B853C852250310940E050E04F
:102A2000BE01695F7F4FCE0101960E948625BE01DF
:102A30006F5F7F4FCE0107960E948123CE010196E2
:102A40000E94DC226CEA71E0CE0101960E944A23CA
:102A5000BE01695F7F4FCE0101960E94E824BC0150
:102A600082EF94E00E94BD21CE0101960E94DC22FB
:102A70006DE172E0CE0107960E9415258111B3CF5A
:102A80008ECF60E571E082EF94E00E94AB2187CFAA
:102A900026E030E040E050E0B801CE0101960E940F
:102AA000862569E273E0CE0101960E941525D82E95
:102AB000CE0101960E94DC22DD20F9F046E050E0D4
:102AC000B801CE0101960E945B03BE016F5F7F4F8C
:102AD000C8010E948123CE0101960E94DC22F801E8
:102AE00084819581892B31F1C8010E94CB2516166E
:102AF00017061806190634F11DC06EE473E0C8010C
:102B00000E941525882349F0B701685E7F4F82EF48
:102B100094E00E94BD2181E0A0C06FED71E0C8018A
:102B20000E941525882321F0C7010E94530A0DCE6B
:102B300080E093C062E471E082EF94E00E94AB21F8
:102B400081E08BC0C8010E94CB25603177428105AE
:102B5000910544F063E371E082EF94E00E94AB21C1
:102B600081E07BC06701FEE1CF0ED11CB801C60138
:102B70000E94812300E010E094E0A92EB12CF7011F
:102B800082A193A19501281B390B02171307B0F4FA
:102B90006AE071E0CE0101960E944A23B601CE019F
:102BA00001960E94E824BC01C6010E948123CE0147
:102BB00001960E94DC220F5F1F4FE1CF60E373E0BC
:102BC000CE0101960E944A23B601CE0101960E94D1
:102BD000E82467E372E00E94FB24BC0182EF94E0EA
:102BE0000E94BD21CE0101960E94DC22A12CB12CB5
:102BF00085010F5F1F4FC8010E94FC09982EB50187
:102C0000C6010E943425492D50E0FC012081332764
:102C100027FD30954217530729F404301105C1F000
:102C20005801E6CF00E010E0B801C6010E9434254B
:102C30000F5F1F4FFC016081C8010E94FE09043034
:102C4000110591F76CE373E082EF94E00E94CF21CD
:102C5000F701E15BFF4F81E08083A4960FB6F89403
:102C6000DEBF0FBECDBFDF91CF911F910F91FF90BF
:102C7000EF90DF90CF90BF90AF909F900895AF926C
:102C8000BF92CF92DF92EF92FF920F931F93CF9359
:102C9000DF93CDB7DEB762970FB6F894DEBF0FBEF5
:102CA000CDBF8C017B016CEB73E0CE010D960E94D1
:102CB0004A236CEB73E0CE0107960E944A236CEB2B
:102CC00073E0C8010E944A238DE394E00E941C1B1C
:102CD000181619062CF48DE394E00E94901AF4CF94
:102CE00065E173E08DE394E00E94CF21B701CE014E
:102CF00001960E94820ABE016F5F7F4FCE010D9642
:102D00000E948123CE0101960E94DC2222E030E065
:102D100040E050E0BE01635F7F4FCE0101960E940C
:102D20008625CE0101960E94CB256B017C01CE0148
:102D300001960E94DC2280E1C816D1042CF46AE0DE
:102D400071E0C8010E94962440E1B601CE010196CF
:102D50000E94E623BE016F5F7F4FC8010E948F244F
:102D6000CE0101960E94DC2242E050E0BE01635F8A
:102D70007F4FCE0101960E945B03CE0101960E9417
:102D8000CB256B017C01CE0101960E94DC2280E103
:102D9000C816D1042CF46AE071E0C8010E949624A0
:102DA00040E1B601CE0101960E94E623BE016F5FAD
:102DB0007F4FC8010E948F24CE0101960E94DC2221
:102DC000CE0107960E94DC22CE010D960E94DC22E5
:102DD000C80162960FB6F894DEBF0FBECDBFDF917B
:102DE000CF911F910F91FF90EF90DF90CF90BF9008
:102DF000AF900895CF92DF92EF92FF920F931F93BF
:102E0000CF93DF93CDB7DEB72C970FB6F894DEBF24
:102E10000FBECDBF8C017B016CEB73E0CE0107963A
:102E20000E944A236CEB73E0C8010E944A238DE3A1
:102E300094E00E941C1B181619062CF48DE394E0F4
:102E40000E94901AF4CF63E573E08DE394E00E9452
:102E5000CF21B701CE0101960E94820ABE016F5FA9
:102E60007F4FCE0107960E948123CE0101960E94DA
:102E7000DC2221E030E040E050E0BE01695F7F4F9E
:102E8000CE0101960E94862567E171E0CE01019690
:102E90000E941525F82ECE0101960E94DC22FF200B
:102EA000D1F069E171E0C8010E94962441E050E050
:102EB000BE01695F7F4FCE0101960E945B03BE0198
:102EC0006F5F7F4FCE0107960E948123CE0101964E
:102ED0000E94DC2205C063E572E0C8010E949624CE
:102EE000CE0107960E94CB256B017C0180E1C816BC
:102EF000D1042CF46AE071E0C8010E94962440E1FC
:102F0000B601CE0101960E94E623BE016F5F7F4F9E
:102F1000C8010E948F24CE0101960E94DC22CE01BE
:102F200007960E94DC22C8012C960FB6F894DEBFEB
:102F30000FBECDBFDF91CF911F910F91FF90EF900A
:102F4000DF90CF9008958F929F92AF92BF92CF92D1
:102F5000DF92EF92FF920F931F93CF93DF93CDB742
:102F6000DEB76E970FB6F894DEBF0FBECDBF7C0103
:102F700060E082E00E94C61E61E08DE00E94C61EF5
:102F800061E089E00E94C61E61E084E00E94C61EE6
:102F900060E084E00E94FF1E61E089E00E94FF1E65
:102FA00061E08DE00E94FF1E60E971E080E090E04A
:102FB0000E942F1E61E084E00E94FF1E61E089E014
:102FC0000E94FF1E26E040E052EC61E070E082EFDC
:102FD00094E00E94182040E051EE60E070E08DE344
:102FE00094E00E94761C6FEB74E082EF94E00E9404
:102FF000AB218DE394E00E941C1B1816190684F483
:103000008DE394E00E94901A682F82EF94E00E9472
:10301000A02165E070E080E090E00E942F1EE9CFE3
:1030200063EB74E08DE394E00E94AB2168EC70E008
:1030300080E090E00E942F1E61E673E08DE394E053
:103040000E94D122882309F466C06DE974E082EF02
:1030500094E00E94AB21F701EA5AFF4F8081813052
:1030600009F060C062E674E08701085E1F4FC80186
:103070000E94422460E474E0C8010E94B92463E223
:1030800074E0C8010E94B92461E074E0C8010E94A4
:10309000B92463EE73E0C8010E94B92461EC73E0C7
:1030A000C8010E94B92467EA73E0C8010E94B924EC
:1030B00064E873E0C8010E94B924B80182EF94E08B
:1030C0000E9492216FE573E082EF94E00E94AB21B1
:1030D00063E573E082EF94E00E94AB2167E473E064
:1030E0008DE394E00E94AB2162E370E080E090E029
:1030F0000E942F1EB701CE0101960E94820ABE01D6
:103100006F5F7F4F82EF94E00E94BD21CE01019658
:103110000E94DC2207C068E874E082EF94E00E941D
:10312000AB21FFCF6CED75E080E090E00E942F1E98
:1031300060E089E00E94FF1E6CEB73E0C701069619
:103140000E94A123B701CE0107960E943F1668E6B0
:1031500073E0CE0101960E944A23BE01695F7F4F52
:10316000CE0101960E94E824BC0182EF94E00E9407
:10317000BD21CE0101960E94DC22CE0107960E945D
:10318000DC22B701CE0107960E94FA1666E773E0CB
:10319000CE0101960E944A23BE01695F7F4FCE0196
:1031A00001960E94E824BC0182EF94E00E94BD21B8
:1031B000CE0101960E94DC22CE0107960E94DC22FD
:1031C0006EE173E082EF94E00E94AB21570124E4AA
:1031D000A20EB11CF501108280E090E00E94FC0973
:1031E0009701225E3F4F69018C3AD9F065E073E0A8
:1031F00082EF94E00E94AB2100E010E0B801C6012C
:103200000E9434250F5F1F4FFC016081C8010E949E
:10321000FE090430110591F76CEA80E090E00E940D
:10322000FE0900E010E0B801C6010E9434254C01FF
:103230000F5F1F4FC8010E94FC09F4018083043016
:10324000110589F760E873E0CE0101960E944A23D8
:10325000B601CE0101960E94E824BC0182EF94E001
:103260000E94BD21CE0101960E94DC226701F2E19D
:10327000CF0ED11C6CEB73E0C6010E94A1238AE043
:1032800090E00E94FC094AE0682FCE0101960E945E
:10329000B923BE016F5F7F4FC6010E948123CE011B
:1032A00001960E94DC228AE090E00E94FC098F3F98
:1032B00029F467E073E0C6010E94A1236CE873E083
:1032C000CE0101960E944A23B601CE0101960E94CA
:1032D000E824BC0182EF94E00E94BD21CE0101965A
:1032E0000E94DC228FE090E00E94FC0997012A5C9A
:1032F0003F4F8F3F31F46EE371E0C9010E94A1237B
:1033000005C06AE671E0C9010E94A1236CEB73E07D
:10331000CE0149960E944A23F501108281E0F7010F
:10332000EB5BFF4F8083B701CE0101960E947B0BC0
:10333000BE016F5F7F4FCE0149960E948123CE016F
:1033400001960E94DC22BE01675E7F4F82EF94E00F
:103350000E94BD216DE172E0CE0149960E941525C3
:10336000882309F4B6C0C7010E946F0A66EF72E0B5
:103370008DE394E00E94AB21B701CE0101960E943B
:10338000820ABE016F5F7F4FCE0149960E94812362
:10339000CE0101960E94DC2262E973E0CE01019623
:1033A0000E944A23BE01675E7F4FCE0101960E94B4
:1033B000E824BC0182EF94E00E94BD21CE01019679
:1033C0000E94DC226EED72E082EF94E00E94AB215D
:1033D000BE01675E7F4FCE0107960E949823B6011B
:1033E000CE010D960E9498235E01F3E1AF0EB11C51
:1033F0006EE871E0C5010E944A238E01095F1F4FEC
:103400009E01235F3F4FA501B701CE0101960E94A7
:10341000510CBE016F5F7F4FCE0149960E94812300
:10342000CE0101960E94DC22C5010E94DC22CE0161
:103430000D960E94DC22C8010E94DC226DE172E040
:10344000CE0149960E941525882329F0F701EB5BF0
:10345000FF4F10823EC06AE571E0CE0149960E949E
:1034600015258111F3CFBE01675E7F4FCE01079610
:103470000E949823B601CE010D960E9498236EE813
:1034800071E0C5010E944A238E01095F1F4F9E0112
:10349000235F3F4FA501B701CE0101960E94510C59
:1034A0006DE172E0CE0101960E941525182FCE0124
:1034B00001960E94DC22C5010E94DC22CE010D96FD
:1034C0000E94DC22CE0107960E94DC22112359F2D1
:1034D000BDCF82EF94E00E94351F181619062CF418
:1034E00082EF94E00E944E1FF4CF82EF94E00E949E
:1034F000911FCE0149960E94DC226E960FB6F89479
:10350000DEBF0FBECDBFDF91CF911F910F91FF9016
:10351000EF90DF90CF90BF90AF909F908F900895E5
:103520002091DE043091DF0428173907B9F4909117
:103530005C0480915D04981789F0E0915C04F0E0F0
:10354000E25AFB4F808120915C0430E02F5F3F4FB7
:103550002F77332720935C0490E008958FEF9FEF3F
:1035600008951F93CF93DF93DC015C968D919C911E
:103570005D97009749F481E090E013969C938E93B9
:10358000129780E090E03BC05196ED91FC915297EC
:1035900050962C915097322F30951FB75E964C91D4
:1035A0005E9741FB772770F941FD6095F894408163
:1035B000772311F0422B01C043234083EC01219774
:1035C000F1F748E0508160FF02C0522B01C0532345
:1035D0005083EC012197F1F76695415099F780816E
:1035E000772311F0832301C0822B80831FBF5C9659
:1035F0008D919C915D970197F1F781E090E0DF91CB
:10360000CF911F91089508952091DE043091DF0439
:103610002817390771F490915C0480915D04981724
:1036200041F0E0915C04F0E0E25AFB4F808190E0D1
:1036300008958FEF9FEF08952091DE043091DF040D
:103640002817390771F480915D0420915C0490E0A3
:1036500080589F4F821B910960E870E00E94942778
:10366000089580E090E00895E091DE04F091DF0499
:10367000E817F90769F4A389B4899C918589809535
:1036800089238C931092DF041092DE0481E0089568
:1036900080E00895CF93DF93EC018A8D9B8D892B79
:1036A000F1F08091DE049091DF048C179D07B9F052
:1036B000009711F00E94341B8E8D8E7F8E8F10929A
:1036C0005D0410925C04D093DF04C093DE04EB89A8
:1036D000FC8980819D89892B808381E001C080E005
:1036E000DF91CF9108951F920F920FB60F92112480
:1036F0002F933F934F935F936F937F938F939F93FA
:10370000AF93BF93EF93FF93E091DE04F091DF045A
:10371000309709F451C0868DA685B785958581FFC0
:1037200004C08C91892329F447C08C91892309F026
:1037300043C0A389B4899C918589809589238C9302
:10374000868997890197F1F7208D318DA685B785F8
:10375000758558E040E0C9010197F1F7842F90E0AA
:1037600095958795482F6C91672309F040685150D3
:1037700091F7868D81FD409580915D0490E00196E2
:103780008F77992720915C04281749F0A0915D0458
:10379000B0E0A25ABB4F4C9380935D0403C0868D6A
:1037A0008160868F828D938D0197F1F7A389B4890B
:1037B0008C919589892B8C93FF91EF91BF91AF915B
:1037C0009F918F917F916F915F914F913F912F9139
:1037D0000F900FBE0F901F9018952EE933E0FC015B
:1037E000318320830C94341B1F93CF93DF93EC0120
:1037F000162F6E8D6695617081E06827812F0E947B
:10380000FF1E61E0812F0E94C61E812F90E0FC0107
:10381000E550FB4FE491E88BFC01E15FFA4FE49146
:10382000F0E0EE0FFF1FE35DFA4F859194919A8BC4
:10383000898BDF91CF911F9108951F93CF93DF93D1
:10384000EC01162F60E0812F0E94C61E8E8D81FD37
:1038500004C061E0812F0E94FF1E1C87812F90E031
:10386000FC01E550FB4FE491ED87FC01E15FFA4F6D
:10387000E491F0E0EE0FFF1FED5DFA4F859194911A
:103880009F878E87DF91CF911F910895FF920F93AD
:103890001F93CF93DF93EC01F62E522F1B821A82D7
:1038A00008EE13E020E030E00C831D832E833F837D
:1038B0008EE993E0998388831F8A1E8A198E188E59
:1038C0001B8E1A8E1D8E1C8E8E8D8E7F50FB81F965
:1038D0008E8F642FCE010E94F41B6F2DCE01DF91DD
:1038E000CF911F910F91FF900C941D1CCF93DF93EC
:1038F000EC019A01AB011B8E1A8E198E188E1F8A4D
:103900001E8A60E079E08DE390E00E94CA27C90139
:103910002430310520F0B9016350710902C061E023
:1039200070E07D8F6C8FEC85E63108F068C0B901DE
:10393000769567956431710518F06351710902C07D
:1039400061E070E07F8B6E8B069718F0C9010597D8
:1039500002C081E090E0998F888FC901880F991F7C
:10396000820F931F96958795969587958D30910533
:1039700010F00C9702C081E090E09B8F8A8F20911D
:103980006800E83050F091E0EE3008F490E081E01B
:1039900001C0880F9A95EAF701C084E0822B8093DA
:1039A00068002C85283038F02E3040F0263148F45D
:1039B0008CE690E008C08DE690E005C08BE690E0D4
:1039C00002C080E090E09C8B8B8B283030F481E04B
:1039D00001C0880F2A95EAF70DC0822F90E02E30A3
:1039E00010F4089701C00E9791E001C0990F8A95D5
:1039F000EAF7892F8D8B8C8D9D8D0197F1F7CE0184
:103A0000DF91CF910C944A1B1F920F920FB60F9229
:103A100011242F933F934F935F936F937F938F93D3
:103A20009F93AF93BF93EF93FF93E091E004F091E6
:103A3000E1040995FF91EF91BF91AF919F918F9113
:103A40007F916F915F914F913F912F910F900FBE9A
:103A50000F901F90189508958230E8F4E82FF0E059
:103A6000EE0FFF1FEB51FB4F71836083813041F0FC
:103A7000809169008C7F842B80936900E89A089577
:103A800080916900440F551F440F551F837F842B7D
:103A900080936900E99A0895823068F4813011F0CA
:103AA000E89801C0E998E82FF0E0EE0FFF1FEB5116
:103AB000FB4F1182108208951F920F920FB60F9242
:103AC00011242F933F934F935F936F937F938F9323
:103AD0009F93AF93BF93EF93FF938091E5049091F1
:103AE000E604892B29F0E091E504F091E6040995BC
:103AF000FF91EF91BF91AF919F918F917F916F91C6
:103B00005F914F913F912F910F900FBE0F901F909B
:103B100018951F920F920FB60F9211242F933F9377
:103B20004F935F936F937F938F939F93AF93BF93C5
:103B3000EF93FF938091E7049091E804892B29F09B
:103B4000E091E704F091E8040995FF91EF91BF91AE
:103B5000AF919F918F917F916F915F914F913F9125
:103B60002F910F900FBE0F901F9018951F920F92DC
:103B70000FB60F9211242F933F938F939F93AF9380
:103B8000BF938091EA049091EB04A091EC04B09172
:103B9000ED043091E90423E0230F2D3720F4019642
:103BA000A11DB11D05C026E8230F0296A11DB11D60
:103BB0002093E9048093EA049093EB04A093EC042F
:103BC000B093ED048091EE049091EF04A091F00485
:103BD000B091F1040196A11DB11D8093EE04909364
:103BE000EF04A093F004B093F104BF91AF919F91C3
:103BF0008F913F912F910F900FBE0F901F901895AE
:103C00002FB7F8946091EA047091EB048091EC0472
:103C10009091ED042FBF08953FB7F8948091EE0482
:103C20009091EF04A091F004B091F10426B5A89B07
:103C300005C02F3F19F00196A11DB11D3FBF66279A
:103C4000782F892F9A2F620F711D811D911D42E0DF
:103C5000660F771F881F991F4A95D1F70895CF9255
:103C6000DF92EF92FF92CF93DF936B017C010E9472
:103C70000C1EEB01C114D104E104F10489F00E948F
:103C80002B1D0E940C1E6C1B7D0B683E734090F335
:103C900081E0C81AD108E108F108C851DC4FEACF29
:103CA000DF91CF91FF90EF90DF90CF900895823019
:103CB000910538F0880F991F880F991F0597019774
:103CC000F1F70895789484B5826084BD84B58160ED
:103CD00084BD85B5826085BD85B5816085BDEEE614
:103CE000F0E0808181608083E1E8F0E010828081F3
:103CF00082608083808181608083E0E8F0E0808161
:103D000081608083E1EBF0E0808184608083E0EB80
:103D1000F0E0808181608083EAE7F0E08081846068
:103D200080838081826080838081816080838081C4
:103D3000806880831092C1000895833081F028F458
:103D4000813099F08230A1F008958730A9F0883051
:103D5000B9F08430D1F4809180008F7D03C08091D0
:103D600080008F7780938000089584B58F7702C09C
:103D700084B58F7D84BD08958091B0008F7703C096
:103D80008091B0008F7D8093B0000895CF93DF9332
:103D900090E0FC01E550FB4F2491FC01E15FFA4FFC
:103DA0008491882349F190E0880F991FFC01E95C18
:103DB000FA4FA591B491835D9A4FFC01C591D491BE
:103DC0009FB7611108C0F8948C91209582238C9341
:103DD000888182230AC0623051F4F8948C91322F8A
:103DE000309583238C938881822B888304C0F89438
:103DF0008C91822B8C939FBFDF91CF9108950F936D
:103E00001F93CF93DF931F92CDB7DEB7282F30E0FB
:103E1000F901E951FB4F8491F901E550FB4F1491F1
:103E2000F901E15FFA4F04910023C9F0882321F0E2
:103E300069830E949D1E6981E02FF0E0EE0FFF1F55
:103E4000E35DFA4FA591B4919FB7F8948C916111FD
:103E500003C01095812301C0812B8C939FBF0F90CD
:103E6000DF91CF911F910F910895FC01818D228DDB
:103E700090E0805C9F4F821B91098F739927089572
:103E8000FC01918D828D981731F0828DE80FF11D24
:103E9000858D90E008958FEF9FEF0895FC01918D3F
:103EA000828D981761F0828DDF01A80FB11D5D969C
:103EB0008C91928D9F5F9F73928F90E008958FEF0A
:103EC0009FEF089582ED90E2892B49F080E090E029
:103ED000892B29F00E94D22081110C9400000895B2
:103EE000FC01848DDF01A80FB11DA35ABF4F2C9197
:103EF000848D90E001968F739927848FA689B78966
:103F00002C93A089B1898C9180648C93938D848D3E
:103F1000981306C00288F389E02D80818F7D80830D
:103F20000895CF93DF93EC01888D8823C9F0EA8947
:103F3000FB89808185FD05C0A889B9898C9186FDA2
:103F40000FC00FB607FCF5CF808185FFF2CFA8899F
:103F5000B9898C9185FFEDCFCE010E94701FE7CF0C
:103F6000DF91CF910895CF92DF92FF920F931F932D
:103F7000CF93DF931F92CDB7DEB76C0181E0D601FE
:103F800058968C9358975B969C915B975C968C9116
:103F90005C97981307C05096ED91FC9151978081E2
:103FA00085FD2EC0F601038D10E00F5F1F4F0F73CC
:103FB0001127F02EF601848DF81211C00FB607FC00
:103FC000F9CFD6015096ED91FC915197808185FFF4
:103FD000F1CFC60169830E94701F6981EBCF838D89
:103FE000E80FF11DE35AFF4F6083D6015B960C93F7
:103FF0005B975296ED91FC915397808180620CC043
:10400000D6015696ED91FC91579760835096ED91AD
:10401000FC91519780818064808381E090E00F90D3
:10402000DF91CF911F910F91FF90DF90CF90089576
:10403000BF92CF92DF92EF92FF92CF93DF93EC018A
:104040006A017B01B22EE889F98982E080834115FB
:1040500081EE580761057105A1F060E079E08DE31C
:1040600090E0A70196010E94A8272150310941093B
:1040700051095695479537952795211580E13807C1
:1040800098F0E889F989108260E874E88EE190E0A0
:10409000A70196010E94A827215031094109510921
:1040A0005695479537952795EC85FD853083EE85A8
:1040B000FF852083188EEC89FD89B082EA89FB890F
:1040C000808180618083EA89FB8980818860808328
:1040D000EA89FB89808180688083EA89FB89808105
:1040E0008F7D8083DF91CF91FF90EF90DF90CF9015
:1040F000BF9008951F920F920FB60F9211242F9325
:104100008F939F93EF93FF93E0910205F091030546
:104110008081E0910805F091090582FD12C090812F
:1041200080910B058F5F8F7320910C05821751F0E2
:10413000E0910B05F0E0EE50FB4F958F80930B055F
:1041400001C08081FF91EF919F918F912F910F90EE
:104150000FBE0F901F9018951F920F920FB60F92DF
:1041600011242F933F934F935F936F937F938F937C
:104170009F93AF93BF93EF93FF9382EF94E00E94DE
:10418000701FFF91EF91BF91AF919F918F917F91A0
:104190006F915F914F913F912F910F900FBE0F90B4
:1041A0001F90189582EF94E00E94351F21E0892B23
:1041B00009F420E0822F08951092F5041092F4047F
:1041C00088EE93E0A0E0B0E08093F6049093F704CB
:1041D000A093F804B093F9048EEA93E09093F3046B
:1041E0008093F20485EC90E09093FF048093FE04AA
:1041F00084EC90E0909301058093000580EC90E0C2
:10420000909303058093020581EC90E0909305055F
:104210008093040582EC90E0909307058093060557
:1042200086EC90E0909309058093080510920B05A9
:1042300010920C0510920D0510920E050895089528
:104240000E94621E0E941F210E946703C2E6DFE1F6
:104250000E9472072097E1F30E94621FF9CFCF926C
:10426000DF92EF92FF920F931F93CF93DF936C0136
:104270007A01EB01E60EF71E00E010E0CE15DF0537
:1042800061F06991D601ED91FC910190F081E02DF2
:10429000C6010995080F191FF1CFC801DF91CF9111
:1042A0001F910F91FF90EF90DF90CF9008956115CF
:1042B000710581F0DB010D900020E9F7AD0141505F
:1042C0005109461B570BDC01ED91FC910280F381F3
:1042D000E02D099480E090E00895EF92FF920F9313
:1042E0001F93CF93DF938C01FB01C0E0D0E064917A
:1042F0007F018FEFE81AF80A662361F0D801ED918B
:10430000FC910190F081E02DC8010995C80FD91FDB
:10431000F701EDCFCE01DF91CF911F910F91FF906B
:10432000EF900895DC01ED91FC91DB0114964D9125
:104330005C9115976D917C910280F381E02D099439
:10434000DC01ED91FC910190F081E02D09946AEB84
:1043500073E00C9457210F931F93CF93DF93EC01DD
:104360000E946D218C01CE010E94A721800F911F18
:10437000DF91CF911F910F9108950F931F93CF93CA
:10438000DF93EC010E9492218C01CE010E94A721B3
:10439000800F911FDF91CF911F910F9108950F937F
:1043A0001F93CF93DF93EC010E9457218C01CE0124
:1043B0000E94A721800F911FDF91CF911F910F9134
:1043C00008950F931F93CF93DF93EC010E94001E7B
:1043D000688779878A879B87E881F9810680F781DA
:1043E000E02DCE01099597FF15C00E94001E08859B
:1043F00019852A853B85601B710B820B930B0C8101
:104400001D812E813F81601771078207930720F37A
:104410008FEF9FEFDF91CF911F910F9108954F92F2
:104420005F926F927F928F929F92AF92BF92CF9244
:10443000DF92EF92FF920F931F93CF93DF934C0184
:10444000EB0186E0849F8001859F100D1124060FEB
:10445000171FFB01E017F10708F582819381892B73
:1044600021F13696F7CF4081518164817581DA015F
:10447000A60FB71F2C91332727FD3095821793077E
:1044800011F56F5F7F4F75836483228133816217DB
:10449000730759F03696E017F10728F3C4010E941C
:1044A000E12197FD46C0FE01F6CFEC1BFD0BF59513
:1044B000E7952BEA3AEAE29FC001E39F900DF29F55
:1044C000900D112438C06115710521F3A480B580C9
:1044D00095012150310935832483DA01A20FB31FDE
:1044E000AC91BB27A7FDB0958A179B07F9F421155E
:1044F0003105C9F06A017B01E21AF30AE40EF51EE8
:10450000412C512CD6016D906D01D7017D907D011C
:10451000671006C0BFEF4B1A5B0A4216530690F3B2
:104520004216530699F6B582A482B4CF232B71F6B6
:10453000B1CF8FEF9FEFDF91CF911F910F91FF9040
:10454000EF90DF90CF90BF90AF909F908F907F9033
:104550006F905F904F900895CF93DF9300D000D07D
:1045600000D0CDB7DEB7FE01319626E0DF011D9207
:104570002A95E9F77A8369835C834B8341E050E0B5
:10458000BF010E940F2221E0892B09F020E0822F39
:1045900026960FB6F894DEBF0FBECDBFDF91CF9148
:1045A0000895FB0101900020E9F7AF014150510946
:1045B000461B570B0C94AC22FC01808191810C941A
:1045C000BC28CF93DF93EC0188819981009711F08B
:1045D0000E94BC28198218821D821C821B821A82AA
:1045E000DF91CF9108950F931F93CF93DF93EC0149
:1045F0008B016F5F7F4F888199810E944B290097C3
:1046000031F0998388831B830A8381E001C080E0B5
:10461000DF91CF911F910F910895CF93DF93EC011C
:1046200088819981892B29F08A819B818617970738
:1046300060F4CE010E94F322882341F08C819D8199
:10464000892B19F4E881F981108281E0DF91CF9103
:104650000895EF92FF920F931F93CF93DF93EC0196
:104660007B018A01BA010E940D23811104C0CE0191
:104670000E94E12207C01D830C83B70188819981C4
:104680000E94692ACE01DF91CF911F910F91FF9077
:10469000EF900895FC01118210821382128215821C
:1046A00014826115710559F0FB0101900020E9F7B2
:1046B000AF0141505109461B570B0C942923089513
:1046C000EF92FF920F931F93CF93DF93EC017B0147
:1046D0008A01BA010E940D23811104C0CE010E94FB
:1046E000E12207C01D830C83B701888199810E9454
:1046F0003C2ACE01DF91CF911F910F91FF90EF9057
:104700000895CF93DF93EC01FB018617970761F0C3
:10471000608171816115710529F0448155810E9484
:10472000292302C00E94E122CE01DF91CF9108959A
:10473000FC011182108213821282158214820C9461
:104740008123CF93DF93EC016115710561F0FB01CB
:1047500001900020E9F7AF0141505109461B570B6A
:104760000E94292302C00E94E122CE01DF91CF9155
:1047700008950F931F93CF93DF93CDB7DEB729979B
:104780000FB6F894DEBF0FBECDBF8C01862FF801A7
:1047900011821082138212821582148250E0BE01AF
:1047A0006F5F7F4F90E00E94B52ABE016F5F7F4F21
:1047B000C8010E94A12329960FB6F894DEBF0FBE50
:1047C000CDBFDF91CF911F910F9108950F931F934C
:1047D000CF93DF93CDB7DEB762970FB6F894DEBF05
:1047E0000FBECDBF8C01CB01F80111821082138264
:1047F00012821582148250E0BE016F5F7F4F0E94CB
:104800008A2ABE016F5F7F4FC8010E94A123629672
:104810000FB6F894DEBF0FBECDBFDF91CF911F91D1
:104820000F910895EF92FF920F931F93CF93DF9311
:10483000CDB7DEB7A1970FB6F894DEBF0FBECDBFE0
:104840007C01CB01BA01F70111821082138212821E
:104850001582148242E0420F8E010F5F1F4F0E94AB
:104860000328BC01C7010E94A123A1960FB6F894AA
:10487000DEBF0FBECDBFDF91CF911F910F91FF9093
:10488000EF9008950F931F93CF93DF9300D0CDB790
:10489000DEB78C016115710561F0CB0169837A8304
:1048A0000E94432AAC0169817A81C8010E94602379
:1048B00002C00E94E122C8010F900F90DF91CF91BA
:1048C0001F910F910895EF92FF920F931F93CF9333
:1048D000DF93EC017B010C811D816115710511F4E1
:1048E00080E016C04115510591F0040F151FB80165
:1048F0000E940D238823A1F3288139818C819D8119
:10490000B701820F931F0E94692A1D830C8381E0E7
:10491000DF91CF911F910F91FF90EF900895FB01D0
:1049200044815581608171810C9463246115710506
:1049300059F0FB0101900020E9F7AF014150510906
:10494000461B570B0C94632480E00895CF93DF93AC
:1049500000D0CDB7DEB769831A8241E050E0BE01D6
:104960006F5F7F4F0E9463240F900F90DF91CF9174
:104970000895EF92FF920F931F93CF93DF93EC0173
:104980007B016115710511F480E01BC0CB010E9411
:10499000432A0097A9F00C811D81080F191FB80147
:1049A000CE010E940D23882379F3288139818C81DF
:1049B0009D81B701820F931F0E943C2A1D830C83A7
:1049C00081E0DF91CF911F910F91FF90EF900895BB
:1049D000CF93DF93EC01FB014481558160817181AC
:1049E0000E946324811103C0CE010E94E122CE0106
:1049F000DF91CF910895CF93DF93EC01611571059D
:104A000069F0FB0101900020E9F7AF014150510925
:104A1000461B570B0E946324811103C0CE010E94E4
:104A2000E122CE01DF91CF910895FC0124813581EF
:104A3000232B31F421E061157105A1F0FB0108C0C1
:104A4000FC01808191816115710531F421E0FC0147
:104A50008081882339F005C00E94602A21E0892BDB
:104A600009F020E0822F0895FC0184819581681768
:104A7000790720F480819181009729F410928F05A5
:104A80008FE895E00895860F971F0895CF93DF93E1
:104A9000FC01848195814817590778F4C081D18140
:104AA000772767FD7095CE01840F951F0E94552AC8
:104AB000009719F08C1B9D0B02C08FEF9FEFDF91C9
:104AC000CF91089540E050E00C944625CF93DF93BA
:104AD000FC01848195814817590778F4C081D18100
:104AE000FB0160817181CE01840F951F0E94702AA5
:104AF000009719F08C1B9D0B02C08FEF9FEFDF9189
:104B0000CF91089540E050E00C946625BF92CF927B
:104B1000DF92EF92FF920F931F93CF93DF936C017D
:104B20007B01EA0189012417350720F48D2FE90163
:104B3000042F182F6CEB73E0C6010E944A23D701A3
:104B400014968D919C911597C817D907C8F48017B2
:104B5000910708F48C01D701ED91FC911197E00FBA
:104B6000F11FB08010826D917C916C0F7D1FC6018A
:104B70000E94A123D701ED91FC91E00FF11FB082BB
:104B8000C601DF91CF911F910F91FF90EF90DF90C1
:104B9000CF90BF900895FC0180819181009711F022
:104BA0000C94152A60E070E0CB0108955058BB27A3
:104BB000AA270ED01CC10DD130F012D120F031F453
:104BC0009F3F11F41EF402C10EF4E095E7FBF8C01C
:104BD000E92F1ED180F3BA17620773078407950780
:104BE00018F071F49EF536C10EF4E0950B2EBA2F35
:104BF000A02D0B01B90190010C01CA01A0011124E3
:104C0000FF27591B99F0593F50F4503E68F11A168E
:104C1000F040A22F232F342F4427585FF3CF46951F
:104C200037952795A795F0405395C9F77EF41F1641
:104C3000BA0B620B730B840BBAF09150A1F0FF0F0B
:104C4000BB1F661F771F881FC2F70EC0BA0F621FF7
:104C5000731F841F48F4879577956795B795F795E7
:104C60009E3F08F0B3CF9395880F08F09927EE0F79
:104C70009795879508950CD0BAC0B2D040F0A9D0CE
:104C800030F021F45F3F19F09BC05111E4C09EC089
:104C9000BFD098F39923C9F35523B1F3951B550B56
:104CA000BB27AA2762177307840738F09F5F5F4FFF
:104CB000220F331F441FAA1FA9F333D00E2E3AF040
:104CC000E0E830D091505040E695001CCAF729D05A
:104CD000FE2F27D0660F771F881FBB1F26173707A9
:104CE0004807AB07B0E809F0BB0B802DBF01FF27D9
:104CF00093585F4F2AF09E3F510568F061C0ABC0EA
:104D00005F3FECF3983EDCF3869577956795B79512
:104D1000F7959F5FC9F7880F911D9695879597F92D
:104D20000895E1E0660F771F881FBB1F62177307A6
:104D30008407BA0720F0621B730B840BBA0BEE1FBB
:104D400088F7E0950895E89409C097FB3EF49095A4
:104D50008095709561957F4F8F4F9F4F9923A9F054
:104D6000F92F96E9BB279395F695879577956795E3
:104D7000B795F111F8CFFAF4BB0F11F460FF1BC027
:104D80006F5F7F4F8F4F9F4F16C0882311F096E9BA
:104D900011C0772321F09EE8872F762F05C0662368
:104DA00071F096E8862F70E060E02AF09A95660F21
:104DB000771F881FDAF7880F9695879597F90895DA
:104DC00097F99F6780E870E060E008959FEF80ECBE
:104DD000089500240A941616170618060906089561
:104DE00000240A9412161306140605060895092EC7
:104DF0000394000C11F4882352F0BB0F40F4BF2B36
:104E000011F460FF04C06F5F7F4F8F4F9F4F089575
:104E100057FD9058440F551F59F05F3F71F047956B
:104E2000880F97FB991F61F09F3F79F08795089550
:104E3000121613061406551FF2CF4695F1DF08C06F
:104E4000161617061806991FF1CF8695710561058C
:104E500008940895E894BB2766277727CB0197F934
:104E600008950BD0C4CFB5DF28F0BADF18F0952332
:104E700009F0A6CFABCF1124EECFCADFA0F3959FE8
:104E8000D1F3950F50E0551F629FF001729FBB2731
:104E9000F00DB11D639FAA27F00DB11DAA1F649FDD
:104EA0006627B00DA11D661F829F2227B00DA11D90
:104EB000621F739FB00DA11D621F839FA00D611D16
:104EC000221F749F3327A00D611D231F849F600D37
:104ED000211D822F762F6A2F11249F5750408AF070
:104EE000E1F088234AF0EE0FFF1FBB1F661F771FFC
:104EF000881F91505040A9F79E3F510570F060CF38
:104F0000AACF5F3FECF3983EDCF3869577956795E3
:104F1000B795F795E7959F5FC1F7FE2B880F911D19
:104F20009695879597F9089597FB072E16F40094A8
:104F300007D077FD09D00E94E92707FC05D03EF491
:104F4000909581959F4F0895709561957F4F089535
:104F5000A1E21A2EAA1BBB1BFD010DC0AA1FBB1F7D
:104F6000EE1FFF1FA217B307E407F50720F0A21BEF
:104F7000B30BE40BF50B661F771F881F991F1A945C
:104F800069F760957095809590959B01AC01BD0186
:104F9000CF010895052E97FB1EF400940E94E1278F
:104FA00057FD07D00E94A82707FC03D04EF40C94AD
:104FB000E12750954095309521953F4F4F4F5F4FDA
:104FC000089590958095709561957F4F8F4F9F4F75
:104FD0000895AA1BBB1B51E107C0AA1FBB1FA61740
:104FE000B70710F0A61BB70B881F991F5A95A9F792
:104FF00080959095BC01CD010895EE0FFF1F05909F
:10500000F491E02D0994EF920F931F93CF93DF93C8
:10501000E80147FF02C034E101C034E0E42FFF277C
:10502000E7FDF095F7FF03C0F195E195F109E32E57
:10503000022F2E2FAE010E94F02ACE01DF91CF91D8
:105040001F910F91EF900895CF93DF9382309105D8
:1050500010F482E090E0E0919205F091930520E059
:1050600030E0A0E0B0E0309739F14081518148173D
:105070005907B8F04817590771F482819381109746
:1050800029F013969C938E9312972CC090939305BE
:105090008093920527C02115310531F0421753073F
:1050A00018F0A901DB0101C0EF019A01BD01DF0188
:1050B0000280F381E02DD7CF21153105F9F0281BAF
:1050C000390B2430310580F48A819B81611571058B
:1050D00021F0FB019383828304C090939305809316
:1050E0009205FE01329644C0FE01E20FF31F819348
:1050F000919322503109398328833AC02091900539
:1051000030919105232B41F420910201309103014C
:105110003093910520939005209100013091010179
:105120002115310541F42DB73EB74091040150914E
:105130000501241B350BE0919005F0919105E217D4
:10514000F307A0F42E1B3F0B2817390778F0AC01AA
:105150004E5F5F4F2417350748F04E0F5F1F509387
:105160009105409390058193919302C0E0E0F0E0B7
:10517000CF01DF91CF910895CF93DF93009709F48A
:1051800087C0FC01329713821282C0919205D091A0
:105190009305209781F420813181280F391F809158
:1051A0009005909191058217930779F5F0939105F9
:1051B000E09390056DC0DE0120E030E0AE17BF0740
:1051C00050F412964D915C9113979D014115510534
:1051D00009F1DA01F3CFB383A28340815181840FB7
:1051E000951F8A179B0771F48D919C911197840FDD
:1051F000951F02969183808312968D919C911397AF
:10520000938382832115310529F4F0939305E0936C
:1052100092053EC0D9011396FC93EE9312974D91DF
:105220005D91A40FB51FEA17FB0779F48081918186
:10523000840F951F0296D90111969C938E938281BB
:10524000938113969C938E931297E0E0F0E08A810D
:105250009B81009719F0FE01EC01F9CFCE01029677
:1052600028813981820F931F2091900530919105FB
:105270002817390769F4309729F410929305109292
:10528000920502C013821282D0939105C0939005BB
:10529000DF91CF910895A0E0B0E0E1E5F9E20C9450
:1052A0005A2DEC01CB01209719F40E942428B8C094
:1052B000FE01E60FF71F9E0122503109E217F307A6
:1052C00008F4ACC0D9010D911C911197061717076E
:1052D000B8F00530110508F49FC0A80144505109E9
:1052E0004617570708F498C002501109061B170B00
:1052F000019311936D937C93CF010E94BC288CC0C5
:105300005B01A01AB10A4E01800E911EA091920578
:10531000B0919305612C712C60E070E0109709F456
:1053200049C0A815B905C9F5ED90FC901197670122
:1053300042E0C40ED11CCA14DB0478F147018A187C
:105340009B08640142E0C40ED11C1296BC901297D7
:105350001396AC91B5E0CB16D10440F0B282A38392
:1053600091828082D9018D939C9309C00E5F1F4F5B
:105370000E0D1F1DF90111830083EB2DFA2F61150E
:10538000710531F0DB011396FC93EE93129744C044
:10539000F0939305E09392053FC06D917C91119736
:1053A0006616770608F43B01BD0112960D90BC917C
:1053B000A02DB4CF60919005709191056815790585
:1053C000E9F468167906D0F440910001509101018A
:1053D0004115510541F44DB75EB7609104017091DC
:1053E0000501461B570BE417F507C0F4F093910530
:1053F000E0939005F901918380830EC00E942428D8
:105400007C01009759F0A801BE010E944C2ACE01F0
:105410000E94BC28C70104C0CE0102C080E090E019
:10542000CDB7DEB7EEE00C94762D1F93FC019927E3
:105430008827BC01E89411911032E9F3193010F07B
:105440001E30C8F31B3251F01D3249F4689406C077
:105450000E94A02A610F711D811D911D1191105391
:105460001A30B0F33EF490958095709561957F4F1A
:105470008F4F9F4F1F910895FB01DC0105900D9206
:105480000020E1F70895FC0105900020E9F78095E0
:1054900090958E0F9F1F0895FB01DC0102C00190C3
:1054A0000D9241505040D8F70895FC018191861724
:1054B00021F08823D9F7992708953197CF010895CE
:1054C000FB01DC018D91019080190110D9F3990B3A
:1054D0000895FB01DC0101900D920020E1F7089591
:1054E000FB0151915523A9F0BF01DC014D914517F6
:1054F0004111E1F759F4CD010190002049F04D919F
:1055000040154111C9F3FB014111EFCF81E090E05B
:10551000019708954532510520F4423010F00C9463
:10552000952AFB011082CB010895BB274A3031F444
:10553000992322F4BDE2909581959F4F0C94C12A46
:10554000592F482F372F262F660F771F881F991F37
:10555000660F771F881F991F620F731F841F951F87
:10556000660F771F881F991F08954532510520F453
:10557000423010F00C94C02AFB011082CB01089538
:10558000BB27FB015527AA27880F991FAA1FA4171D
:1055900010F0A41B83955051B9F7A05DAA3308F011
:1055A000A95DA193009779F7B111B1931192CB0145
:1055B0000C94462DF999FECF92BD81BDF89A99279A
:1055C00080B50895262FF999FECF1FBA92BD81BDEF
:1055D00020BD0FB6F894FA9AF99A0FBE0196089575
:1055E0006F927F929F92AF92BF92CF92DF92EF9293
:1055F000FF920F931F93CF93DF93CDB7DEB7299719
:105600000FB6F894DEBF0FBECDBF6A01B22E102FC9
:105610000C3320F4FF24F394F00E02C04CE3F42E7C
:105620000F2D27E0AE014F5F5F4F0E946E2C7981F6
:10563000272F2970213031F0E1FC06C0E0FC06C0C4
:1056400060E005C06DE203C06BE201C060E2AE2D18
:10565000A07173FF36C0662311F084E001C083E0BF
:105660008B1510F4B81A01C0B12CA1110BC0F601B2
:105670008B2D90E2882319F091938150FBCFCB0CB6
:10568000D11CB12C662331F0F601608396012F5FA7
:105690003F4F6901C6010396E2FE05C02EE4F60104
:1056A000208331E404C02EE6F601208331E6318305
:1056B0002283FC012B2D30E22223F1F13193215082
:1056C000FBCF72FF40C0662311F084E001C083E08D
:1056D0008B1510F4B81A01C0B12CA1110BC0F60142
:1056E0008B2D90E2882319F091938150FBCFCB0C46
:1056F000D11CB12C662331F0F601608396012F5F37
:105700003F4F6901C6010396E2FE07C029E4F60196
:1057100020832EE4218326E406C029E6F6012083B7
:105720002EE6218326E62283FC012B2D30E2222364
:1057300019F031932150FBCFFC01EB0DF11D1082CC
:105740008EEF9FEFB7C0B1E0611101C0B0E04B2F09
:1057500050E01816190624F49C012F5F3F4F02C039
:1057600021E030E0240F351F112329F0412F50E0B4
:105770004F5F5F4F02C040E050E0420F531F2B2DA0
:1057800030E04217530714F4B41A01C0B12C2E2D87
:10579000287159F4F6012B2D30E2222319F03193B0
:1057A0002150FBCFCB0CD11CB12CBB2331F0F60127
:1057B000608396012F5F3F4F6901A1110BC0F60175
:1057C0002B2D30E3222319F031932150FBCFCB0C4A
:1057D000D11CB12CF80E0A81372F3071A32E74FF23
:1057E00003C0013309F4FA941F142CF42F2D29302F
:1057F00018F028E001C021E0682F392F97FF02C080
:1058000060E030E0462F532F612C712C3EE2932E46
:10581000BC01621B71099B01DC01A41BB50BE1E01B
:10582000F0E0EC0FFD1FAE0FBF1FE12EF12CF19445
:10583000E194F1084F3FFFEF5F0731F4F6019082EA
:10584000B6016F5F7F4F6B01841795074CF02417EB
:10585000350734F4BD01660D771DFB01118101C0D0
:1058600010E341505109FFEF6F1A7F0AB6016F5FD5
:105870007F4F4E155F0524F0F60110836B01DACFE0
:105880004817590739F4063320F4053319F4A110E9
:1058900001C011E3F6011083FB018B2D90E28823F8
:1058A00019F091938150FBCFFB01EB0DF11D10829C
:1058B00080E090E029960FB6F894DEBF0FBECDBF12
:1058C000DF91CF911F910F91FF90EF90DF90CF90DC
:1058D000BF90AF909F907F906F900895283008F010
:1058E00027E03327DA01990F311D87FD916000967B
:1058F0006105710539F432602E5F3D9330E32A95DE
:10590000E1F708959F3F30F080387105610509F097
:105910003C5F3C5F3D93913008F08068911DDF93C0
:10592000CF931F930F93FF92EF92192F987F969525
:10593000E92F96959695E90FFF27E556FA4F992797
:105940003327EE24FF24A701E7010590089407946C
:1059500028F4360FE71EF81E491F511D660F771FEA
:10596000881F991F0694A1F70590079428F4E70E65
:10597000F81E491F561FC11D770F881F991F661FEC
:105980000694A1F70590079428F4F80E491F561FB6
:10599000C71FD11D880F991F661F771F0694A1F797
:1059A0000590079420F4490F561FC71FD81F990F61
:1059B000661F771F881F0694A9F7849110951770AA
:1059C00041F0D695C79557954795F794E7941A9562
:1059D000C1F7E1E4F5E06894159015913591659172
:1059E000959105907FE27395E118F10A430B560BF0
:1059F000C90BD009C0F7E10CF11E431F561FC91F88
:105A0000D01D7EF4703311F48A95E6CFE8940150EE
:105A100030F0080F0AF40027021708F4202F23950E
:105A2000022F7A3328F079E37D932A95E9F710C0A5
:105A30007D932A9589F606949795679537951795DE
:105A40001794E118F10A430B560BC90BD00998F0D3
:105A500023957E9173957A3308F070E37C9320133D
:105A6000B8F77E9170617D9330F0839571E37D93FB
:105A700070E32A95E1F71124EF90FF900F911F91A9
:105A8000CF91DF91992787FD90950895DC01FC0166
:105A9000672F71917723E1F7329704C07C916D9362
:105AA00070836291AE17BF07C8F308952F923F929B
:105AB0004F925F926F927F928F929F92AF92BF921E
:105AC000CF92DF92EF92FF920F931F93CF93DF93CA
:105AD000CDB7DEB7CA1BDB0B0FB6F894DEBF0FBE27
