:100000000C9406030C941A1C0C94471C0C94311A83
:100010000C94311A0C94311A0C942A190C942E0356
:100020000C942E030C942E030C942E030C942E038C
:100030000C942E030C94C21B0C942E030C942E03D0
:100040000C94741C0C942E030C94381F0C946A1F8F
:100050000C942E030C942E030C942E030C942E035C
:100060000C942E030C942E035375636365736675AD
:100070006C79206A6F696E656421005265737461E2
:1000800072646564206279206A6F696E2070726F95
:100090006365647572650052656A6F696E696E6743
:1000A0002E2E2E004E4F54204A4F494E45442120BB
:1000B000436865636B206E6574776F726B206F7237
:1000C00020706172616D657465727321004E6F20DE
:1000D0006B65797320656E7472792100627573792E
:1000E0002E2E2E004E6F2066726565206368616E4D
:1000F0006E656C2C207265747279696E672E2E2E77
:1001000000526561647921004177616B6521004E81
:10011000414E4F20736C65657020464F52455645E1
:10012000520054696D6520746F6F2068696768219B
:1001300000496E76616C69642074696D65210050B8
:100140006172616D65746572732073756363657345
:100150007366756C7920736176656421006D6163E7
:100160002073617665007379732067657420766506
:10017000720053656E64696E6720746F20706F72D1
:100180007420005061796C6F61643A0053656E644D
:10019000696E6720746F20706F72742000506179EF
:1001A0006C6F61643A002073746F72656420746FC1
:1001B00020454550524F4D004E657720706F727448
:1001C0003A00506F7274206F7574206F66207261F0
:1001D0006E676521004144522000414452204F4641
:1001E0004600414452204F4E0044617461207261C8
:1001F00074652073746F72656420746F2045455078
:10020000524F4D21004D6F64652073746F726564A9
:1002100020746F20454550524F4D00556E737570D8
:10022000706F72746564206D6F646500566F6C74D6
:100230006167653A0046572076657273696F6E3A5A
:10024000004170706C69636174696F6E2045554937
:100250003A0044657669636520616464726573730E
:100260003A00446576696365204555493A0053650F
:100270006E736F722046572076657273696F6E3A9F
:10028000002A2A2A2A2A506172616D657465727388
:100290002073746F72656420696E20466C617368A8
:1002A0003A2A2A2A2A2A00466972737420636F6DDB
:1002B0006D756E69636174696F6E202E2E2E006DF0
:1002C00061632067657420646576657569004144E3
:1002D00052204F464600414452204F4E00524E326B
:1002E000343833206E6F742064657465637465649C
:1002F00021002A2A2A2A2A2A2A2A2A2A2A2A2A2A91
:100300002A2A2A2A2A2A2A2A2A2A2A2A2A2A2A2A4D
:100310002A2A2A2A2A2A2A2A2A2A004300546570CD
:100320006C6F74613A007379732067657420766529
:10033000720046572076657273696F6E3A002A2AFA
:100340002A2A2A2A2A2A2A2A2A2A53656E736F728F
:100350002072656164792A2A2A2A2A2A2A2A2A2AC4
:100360002A2A00372E53656E64207061796C6F61A4
:10037000643A090973656E64553A6461746128686A
:100380006578290D0A00362E53657420706F7274DB
:100390003A0909706F72743A312D3233300D0A0008
:1003A000352E4A6F696E2047573A09096D616320FF
:1003B0006A6F696E205B6162702C6F7461615D0DA4
:1003C0000A00342E417070206B65793A09096D611D
:1003D000632073657420617070736B65790D0A001A
:1003E000332E4E6574776F726B206B65793A09090D
:1003F0006D616320736574206E776B736B65790D27
:100400000A00322E446576204555493A09096D6146
:100410006320736574206465766575690D0A003123
:100420002E44657620416464726573733A09096DE0
:1004300061632073657420646576616464720D0A7B
:10044000002A2A2A2A2A2A2A2A2A2A2A2A2A2A2A36
:100450002A48454C502A2A2A2A2A2A2A2A2A2A2A7B
:100460002A2A2A2A0D0A00524E3234383320636871
:1004700069702064657465637465642100737973C1
:100480002067657420766572002A2A2A2A2A2A2A79
:100490002A2A2A2A2A4C6F526120524E323438338B
:1004A000207365742A2A2A2A2A2A2A2A2A2A2A2AE8
:1004B0000000000008000201000003040700000023
:1004C0000000000000010204081020408001020426
:1004D0000810200102040810200404040404040489
:1004E00004020202020202030303030303000000EA
:1004F0000023002600290000000000250028002B12
:100500000000000000240027002A0000407A10F3B9
:100510005A00A0724E18090010A5D4E80000E87631
:1005200048170000E40B54020000CA9A3B00000088
:10053000E1F505000080969800000040420F0000A1
:1005400000A08601000000102700000000E8030062
:100550000000006400000000000A0000000000012C
:1005600000000000002C76D888DC674F0823DFC12C
:10057000DFAE59E1B1B796E5E3E453C63AE65199E7
:100580007696E8E6C28426EB898C9B62ED407C6F10
:10059000FCEFBC9C9F40F2BAA56FA5F490055A2AC7
:1005A000F75C936B6CF9676DC11BFCE0E40D47FED3
:1005B000F520E6B500D0ED902E03009435770500C8
:1005C00080841E080000204E0A000000C80C33334F
:1005D00033330F986E12831141EF8D2114893BE65E
:1005E0005516CFFEE6DB18D1844B381BF77C1D90E7
:1005F0001DA4BBE424203284725E228100C9F12450
:10060000ECA1E53D270014059A1F500511241FBEDB
:10061000CFEFD8E0DEBFCDBF14E0A0E0B1E0E0EF67
:10062000F7E502C005900D92A231B107D9F725E098
:10063000A2E1B4E001C01D92A63BB207E1F716E0CB
:10064000CAE0D6E004C02297FE010E946826C630A8
:10065000D107C9F70E94DE1F0C94EB2B0C9400000D
:10066000089580914E04882349F080914F04909121
:10067000500401969093500480934F0408950C9475
:1006800038290C944029CF93DF93EC01FB0124819E
:1006900035810E945424CE01DF91CF91089566E008
:1006A00071E084E195E00E948D2060E084E00E948A
:1006B000BD1D64E670E080E090E00E94ED1C61E00A
:1006C00084E00C94BD1D8F929F92AF92BF92CF9207
:1006D000DF92EF92FF920F931F93CF93DF93CDB7EB
:1006E000DEB72C970FB6F894DEBF0FBECDBF8C01DE
:1006F00065E074E0CE0107960E94082265E074E090
:10070000C8010E94082280E294E00E94BB17609119
:10071000290470912A04882777FD8095982F0E94DC
:100720000E2520E030E040E251E40E94A4246B0159
:100730007C0160931C0470931D0480931E049093AD
:100740001F046091270470912804882777FD809505
:10075000982F0E940E2520E030E040E251E40E94F4
:10076000A424609318047093190480931A0490933E
:100770001B0421E0B701A601CE0101960E94D02200
:10078000BE016F5F7F4FCE0107960E943F22CE01D0
:1007900001960E949A2121E030E040E050E0BE0145
:1007A000695F7F4FCE0101960E94542465E773E094
:1007B000CE0101960E940324F82ECE0101960E94DC
:1007C0009A21FF20D1F064E171E0C8010E945F220C
:1007D00041E050E0BE01695F7F4FCE0101960E946B
:1007E0004303BE016F5F7F4FCE0107960E943F22F9
:1007F000CE0101960E949A2105C069EE71E0C80100
:100800000E945F2262E171E0CE0101960E940822FF
:10081000BE016F5F7F4FCE0107960E9450245C019E
:10082000CE0101960E949A21BB24950140E050E040
:10083000BE01695F7F4FCE0101960E945424CE0114
:1008400001960E9499246B017C01CE0101960E94C1
:100850009A2180E1C816D1042CF46AEE71E0C80137
:100860000E94842340E1B601CE0101960E94A42299
:10087000BE016F5F7F4FC8010E947D23CE010196AC
:100880000E949A21A5014F5F5F4FBE01695F7F4FB4
:10089000CE0101960E944303CE0101960E94992445
:1008A0002AE0269F7001279FF00C1124CE010196AB
:1008B0000E949A2180E1E816F1042CF46AEE71E0BE
:1008C000C8010E94842340E1B701CE0101960E9435
:1008D000A422BE016F5F7F4FC8010E947D23CE011D
:1008E00001960E949A214091180450911904609138
:1008F0001A0470911B0421E0CE0101960E94D022BF
:10090000BE016F5F7F4FCE0107960E943F22CE014E
:1009100001960E949A2162E171E0CE0101960E9447
:100920000822BE016F5F7F4FCE0107960E945024C0
:100930005C01CE0101960E949A21BB24950140E002
:1009400050E0BE01695F7F4FCE0101960E945424A2
:10095000CE0101960E9499246B017C01CE01019683
:100960000E949A2180E1C816D1042CF46AEE71E04D
:10097000C8010E94842340E1B601CE0101960E9485
:10098000A422BE016F5F7F4FC8010E947D23CE016C
:1009900001960E949A21A5014F5F5F4FBE01695FDA
:1009A0007F4FCE0101960E944303CE0101960E9423
:1009B00099242AE0269F7001279FF00C1124CE0174
:1009C00001960E949A2180E1E816F1042CF46AEE67
:1009D00071E0C8010E94842340E1B701CE01019675
:1009E0000E94A422BE016F5F7F4FC8010E947D2339
:1009F000CE0101960E949A21CE0107960E949A216B
:100A0000C8012C960FB6F894DEBF0FBECDBFDF91A4
:100A1000CF911F910F91FF90EF90DF90CF90BF90FB
:100A2000AF909F908F90089565E074E085E794E023
:100A30000E94082265E074E08FE694E00E9408229C
:100A400065E074E089E694E00E94082267E171E0C5
:100A500083E694E00E94082265E074E08DE594E06E
:100A60000E94082265E074E087E594E00E94082275
:100A70006CE171E081E594E00E94082220E048E00A
:100A800067E08BE294E00E94041B6AE080E294E05D
:100A90000E94961765E074E082E194E00C940822CD
:100AA00082E194E00E949A218BE294E00E94AB1ACA
:100AB00081E594E00E949A2187E594E00E949A21C2
:100AC0008DE594E00E949A2183E694E00E949A21A9
:100AD00089E694E00E949A218FE694E00E949A2190
:100AE00085E794E00C949A218BE294E00E94CB1964
:100AF000181619065CF462E070E080E090E00E9455
:100B0000ED1C8BE294E00E943E19EECF08950F9306
:100B10001F93CF93DF9300D000D000D0CDB7DEB7C6
:100B20008C0165E074E00E9408228BE294E00E9450
:100B3000CB19181619068CF160E070E0CB010E9409
:100B4000ED1CF3CF8BE294E00E943E1980937B046E
:100B5000682FC8010E94942360E070E0CB010E94DE
:100B6000ED1C0E94E91B80917B048A30B1F4F801EE
:100B7000248135812250310940E050E0B801CE0196
:100B800001960E945424BE016F5F7F4FC8010E94EE
:100B90003F22CE0101960E949A218BE294E00E94AE
:100BA000CB191816190674F2C80126960FB6F894D8
:100BB000DEBF0FBECDBFDF91CF911F910F91089582
:100BC0000F931F93CF93DF93CDB7DEB72C970FB65C
:100BD000F894DEBF0FBECDBF8C0165E074E0CE019E
:100BE00007960E94082260E271E0CE0101960E9401
:100BF0000822B801CE0101960E94D623BC018BE2E7
:100C000094E00E947B20CE0101960E949A2160E030
:100C100070E0CB010E94ED1CCE0101960E94870579
:100C2000BE016F5F7F4FCE0107960E943F22CE012B
:100C300001960E949A216AE271E0CE0107960E9415
:100C40000324882349F010924D046DEC70E084E198
:100C500095E00E94692025C0CE0101960E9487057B
:100C6000BE016F5F7F4FCE0107960E943F22CE01EB
:100C700001960E949A2168E371E0CE0107960E94D6
:100C80000324882321F081E080934D0408C0109252
:100C90004D0464EA70E084E195E00E9469200E94BE
:100CA0007405CE0107960E949A212C960FB6F894EF
:100CB000DEBF0FBECDBFDF91CF911F910F91089581
:100CC0001F93CF93DF93CDB7DEB72C970FB6F89471
:100CD000DEBF0FBECDBF65E074E0CE0107960E9477
:100CE000082213E080914D0481112EC067E970E065
:100CF00084E195E00E94692061E574E0CE010196EF
:100D00000E945622CE0101960E94E005CE01019676
:100D10000E949A21115031F70E944F03CE01019693
:100D20000E948705BE016F5F7F4FCE0107960E942C
:100D30003F22CE0101960E949A216BE770E084E188
:100D400095E00E946920CDCF68E670E084E195E0EF
:100D50000E946920CE0107960E949A212C960FB618
:100D6000F894DEBF0FBECDBFDF91CF911F910895E4
:100D7000CF92DF92EF92FF920F931F93CF93DF9367
:100D8000CDB7DEB72C970FB6F894DEBF0FBECDBF40
:100D90008C017B016A0165E074E0CE0107960E9438
:100DA000082261E471E0CE0101960E940822B70199
:100DB000CE0101960E94D6236AEC71E00E94E923DD
:100DC000B6010E94D623BC018BE294E00E947B20F6
:100DD000CE0101960E949A2164E670E080E090E0E6
:100DE0000E94ED1CCE0101960E948705BE016F5F37
:100DF0007F4FCE0107960E943F22CE0101960E94AE
:100E00009A216FE471E0CE0101960E940822BE0192
:100E1000695F7F4FCE0101960E94D623BC0184E119
:100E200095E00E947B20CE0101960E949A2161E606
:100E300071E0CE0107960E940324882319F01092D6
:100E40004D043CC063E771E0CE0107960E94032485
:100E5000882379F064EE70E084E195E00E946920D7
:100E600010924D046EE771E08BE294E00E948D20B9
:100E700016C068E871E0CE0107960E94032488231B
:100E800011F16CED70E084E195E00E9469206EE75D
:100E900071E08BE294E00E948D2010924D04CE010F
:100EA00001960E948705BE016F5F7F4FCE010796B6
:100EB0000E943F22CE0101960E949A210E94600664
:100EC0006CE671E038C06DE871E0CE0107960E94D3
:100ED0000324882319F06BE971E02DC064E670E00B
:100EE00080E090E00E94ED1CCE0101960E948705F3
:100EF000BE016F5F7F4FCE0107960E943F22CE0159
:100F000001960E949A216AEA71E0CE0101960E9440
:100F10000822BE01695F7F4FCE0101960E94D62351
:100F2000BC0184E195E00E947B20CE0101960E94E5
:100F30009A2169EB71E0C8010E940822CE01079650
:100F40000E949A21C8012C960FB6F894DEBF0FBEFE
:100F5000CDBFDF91CF911F910F91FF90EF90DF9068
:100F6000CF900895CF92DF92EF92FF920F931F934D
:100F7000CF93DF93CDB7DEB72C970FB6F894DEBFD3
:100F80000FBECDBF8C0188E10FB6F894809360004E
:100F9000109260000FBEC8010E9499246B017C0171
:100FA000B80183E694E00E943F22C701B6010E9487
:100FB0000E2520E030E64AE657E40E949A25AB0170
:100FC000BC0120E0CE0107960E9400236CEB71E08B
:100FD000CE0101960E940822B801CE0101960E941E
:100FE000D6236CEC71E00E94E923BC0184E195E01A
:100FF0000E947B20CE0101960E949A2162ED71E051
:10100000CE0101960E940822BE01695F7F4FCE018A
:1010100001960E94D623BC018BE294E00E947B20C3
:10102000CE0101960E949A216FE071E084E195E083
:101030000E94692064E670E080E090E00E94ED1C70
:1010400061E08AE00E94841D60E08AE00E94BD1D8C
:1010500060E08DE00E94BD1D10924E0410924C0481
:1010600043E050E060E373E080E00E94EA1B88E127
:101070000FB6F89480936000109260000FBE20E0DD
:1010800030E040E050E06AE070E08DE794E00E94DC
:10109000E71880E00E940A1C81E080934C0461E024
:1010A0008DE00E94BD1D6DED71E08BE294E00E9429
:1010B0008D2020E030E040E050E066E070E08DE719
:1010C00094E00E94E7188BE294E00E94CB19181676
:1010D0001906CCF7CE0101960E94870569EB71E0F5
:1010E000CE0101960E940324182FCE0101960E9482
:1010F0009A21112331F068E071E084E195E00E94CB
:101100006920CE0107960E949A212C960FB6F8947A
:10111000DEBF0FBECDBFDF91CF911F910F91FF902A
:10112000EF90DF90CF900895AF92BF92CF92DF9271
:10113000EF92FF920F931F93CF93DF93CDB7DEB75C
:1011400062970FB6F894DEBF0FBECDBF8C0165E08D
:1011500074E0CE010D960E94082265E074E0CE0195
:1011600007960E94082265E074E0C8010E940822E8
:101170008BE294E00E94CB19181619062CF48BE22E
:1011800094E00E943E19F4CF6CEE71E08BE294E0A3
:101190000E948D20CE0101960E948705BE016F5FDF
:1011A0007F4FCE010D960E943F22CE0101960E94F4
:1011B0009A2122E030E040E050E0BE01635F7F4FC3
:1011C000CE0101960E945424CE0101960E949924DA
:1011D0006B017C01CE0101960E949A2180E1C81624
:1011E000D1042CF46AEE71E0C8010E94842340E12E
:1011F000B601CE0101960E94A422BE016F5F7F4F0F
:10120000C8010E947D23CE0101960E949A2142E0EE
:1012100050E0BE01635F7F4FCE0101960E94430301
:10122000CE0101960E9499246B017C01CE010196AA
:101230000E949A2180E1C816D1042CF46AEE71E074
:10124000C8010E94842340E1B601CE0101960E94AC
:10125000A422BE016F5F7F4FC8010E947D23CE0193
:1012600001960E949A21CE0107960E949A21CE01F2
:101270000D960E949A21C80162960FB6F894DEBFBF
:101280000FBECDBFDF91CF911F910F91FF90EF90D7
:10129000DF90CF90BF90AF900895CF92DF92EF9202
:1012A000FF920F931F93CF93DF93CDB7DEB72C97A9
:1012B0000FB6F894DEBF0FBECDBF8C0165E074E0C1
:1012C000CE0107960E94082265E074E0C8010E94E2
:1012D00008228BE294E00E94CB19181619062CF410
:1012E0008BE294E00E943E19F4CF68EF71E08BE24C
:1012F00094E00E948D20CE0101960E948705BE01D8
:101300006F5F7F4FCE0107960E943F22CE0101966C
:101310000E949A2121E030E040E050E0BE01695F88
:101320007F4FCE0101960E94542465E773E0CE0101
:1013300001960E940324F82ECE0101960E949A2164
:10134000FF20D1F064E171E0C8010E94842341E0F4
:1013500050E0BE01695F7F4FCE0101960E944303BA
:10136000BE016F5F7F4FCE0107960E943F22CE01E4
:1013700001960E949A2105C069EE71E0C8010E94A1
:101380008423CE0107960E9499246B017C0180E1A1
:10139000C816D1042CF46AEE71E0C8010E948423BF
:1013A00040E1B601CE0101960E94A422BE016F5F0A
:1013B0007F4FC8010E947D23CE0101960E949A2191
:1013C000CE0107960E949A21C8012C960FB6F89478
:1013D000DEBF0FBECDBFDF91CF911F910F91FF9068
:1013E000EF90DF90CF900895FF920F931F93CF93CC
:1013F000DF93CDB7DEB763970FB6F894DEBF0FBEAD
:10140000CDBF8C0165E074E00E94082265E074E0C5
:10141000CE010D960E940822CE0101960E944D0930
:10142000BE016F5F7F4FCE010D960E943F22CE011D
:1014300001960E949A2121E030E040E050E0BE0198
:10144000635F7F4FCE0101960E94542469EE71E0E4
:10145000CE0101960E940324F82ECE0101960E942F
:101460009A21FF2011F03FEF01C037EF42E050E03A
:10147000BE01635F7F4FCE0101963B8B0E94430309
:10148000BE016F5F7F4FC8010E943F22CE010196CF
:101490000E949A21CE0101960E949408BE016F5FBE
:1014A0007F4FC8010E947D23CE0101960E949A21A0
:1014B0000E94740566E072E08BE294E00E948D2049
:1014C000CE0101960E948705BE016F5F7F4FCE015E
:1014D0000D960E943F22CE0101960E949A2163EA56
:1014E00072E0CE010D960E9403243B89811101C058
:1014F0003F7762E172E08BE294E03B8B0E948D20AB
:10150000CE0101960E948705BE016F5F7F4FCE011D
:101510000D960E943F22CE0101960E949A21CE0193
:101520000D960E949924262F2295207F2D683B89B5
:10153000232340E1622FCE0107962B8B0E94772256
:10154000BE01695F7F4FCE0101960E945622B8010D
:10155000CE0101960E94D623BC01C8010E943F2201
:10156000CE0101960E949A21CE0107960E949A21EF
:101570002B89203198F46AEE71E0CE0101960E9429
:101580000822B801CE0101960E94D623BC01C801F1
:101590000E943F22CE0101960E949A21CE0101961F
:1015A0000E946303BE016F5F7F4FCE010D960E94C4
:1015B0003F22CE0101960E949A2142E050E0BE01F6
:1015C000635F7F4FCE0101960E944303BE016F5FB0
:1015D0007F4FC8010E947D23CE0101960E949A216F
:1015E00021E030E040E050E0BE01635F7F4FCE017C
:1015F00001960E94542464E171E0CE0101960E949C
:101600000324F82ECE0101960E949A21FF2019F0A2
:101610006DE172E002C069EE71E0CE010D960E94AC
:101620005F22BE01635F7F4FC8010E947D23CE0110
:101630000D960E949A21C80163960FB6F894DEBFFA
:101640000FBECDBFDF91CF911F910F91FF900895F5
:10165000CF93DF93CDB7DEB76E970FB6F894DEBFAA
:101660000FBECDBF65E074E0CE0149960E9408220E
:1016700065E074E0CE0143960E9408221092500467
:1016800010924F0410924C0461E071E084E195E007
:101690000E946920CE0101960E94F409BE016F5F8D
:1016A0007F4FCE0143960E943F22CE0101960E94B9
:1016B0009A2160E272E0CE0101960E940822BE01EA
:1016C0006D5E7F4FCE0101960E94D623BC0184E15E
:1016D00095E00E947B20CE0101960E949A21BE01D6
:1016E0006D5E7F4FCE0107960E9456226FE674E032
:1016F000CE010D960E945622AE01495F5F4FBE019A
:10170000635F7F4FCE0101960E94B806BE016F5FF6
:101710007F4FCE0149960E943F22CE0101960E9442
:101720009A21CE010D960E949A21CE0107960E9421
:101730009A216DE272E0CE0101960E940822BE015C
:10174000675E7F4FCE0101960E94D623BC0184E1E3
:1017500095E00E947B20CE0101960E949A216CE6C2
:1017600071E0CE0149960E940324882321F081E094
:1017700080934C0439C060914A0470914B046F5FB0
:101780007F4F70934B0460934A044AE0CE01079662
:101790000E94A42261E372E0CE0101960E94082219
:1017A000BE01695F7F4FCE0101960E94D623BC0126
:1017B00084E195E00E947B20CE0101960E949A214F
:1017C000CE0107960E949A210E94740563E674E098
:1017D000CE0101960E945622CE0101960E94B207C8
:1017E000CE0101960E949A21CE0143960E949A2131
:1017F000CE0149960E949A216E960FB6F894DEBFEC
:101800000FBECDBFDF91CF910895EF92FF920F935E
:101810001F93CF93DF93CDB7DEB768970FB6F894D9
:10182000DEBF0FBECDBF60E082E00E94841D61E09C
:101830008DE00E94841D61E089E00E94841D61E0CA
:1018400084E00E94841D60E084E00E94BD1D61E090
:1018500089E00E94BD1D61E08DE00E94BD1D60E930
:1018600071E080E090E00E94ED1C61E084E00E9465
:10187000BD1D61E089E00E94BD1D26E040E052EC04
:1018800061E070E084E195E00E94D61E40E051EEF8
:1018900060E070E08BE294E00E94341B69E874E041
:1018A00084E195E00E9469208BE294E00E94CB19CC
:1018B000181619065CF48BE294E00E943E1965E06C
:1018C00070E080E090E00E94ED1CEECF6DE774E0E8
:1018D0008BE294E00E94692068EC70E080E090E088
:1018E0000E94ED1C66E372E08BE294E00E948F217F
:1018F000882309F49EC167E674E084E195E00E94C4
:10190000692061E474E089E694E00E9430236FE18D
:1019100074E089E694E00E94A72362E074E089E61F
:1019200094E00E94A72360EE73E089E694E00E94B1
:10193000A72362EC73E089E694E00E94A72360EAA3
:1019400073E089E694E00E94A72366E873E089E6E5
:1019500094E00E94A72363E673E089E694E00E9486
:10196000A72369E674E084E195E00E9450206EE3CD
:1019700073E084E195E00E94692062E373E084E112
:1019800095E00E94692066E273E08BE294E00E9499
:10199000692062E370E080E090E00E94ED1CCE01DF
:1019A00001960E948705BE016F5F7F4F84E195E03D
:1019B0000E947B20CE0101960E949A216CED75E079
:1019C00080E090E00E94ED1C60E089E00E94BD1D77
:1019D00065E074E085E794E00E945F2280E294E095
:1019E0000E94BB176091290470912A04882777FD13
:1019F0008095982F0E940E2520E030E040E251E4CF
:101A00000E94A42460931C0470931D0480931E0400
:101A100090931F046091270470912804882777FD14
:101A20008095982F0E940E2520E030E040E251E49E
:101A30000E94A424609318047093190480931A04DC
:101A400090931B046DE173E084E195E00E942B20EC
:101A500040911C0450911D0460911E0470911F045C
:101A600021E0CE0101960E94D022BE016F5F7F4F20
:101A700084E195E00E945020CE0101960E949A21B7
:101A8000E0911405F09115050190F081E02D60EBD7
:101A900084E195E009956BE173E084E195E00E94B3
:101AA0006920409118045091190460911A047091B2
:101AB0001B0421E0CE0107960E94D0226DE372E064
:101AC000CE0101960E940822BE01695F7F4FCE01C0
:101AD00001960E94D62366E472E00E94E923BC01CD
:101AE00084E195E00E947B20CE0101960E949A211C
:101AF000CE0107960E949A21CE0107960E946303A9
:101B000068E472E0CE0101960E940822BE01695F7E
:101B10007F4FCE0101960E94D623BC0184E195E05F
:101B20000E947B20CE0101960E949A21CE01079649
:101B30000E949A21CE0107960E94940862E572E005
:101B4000CE0101960E940822BE01695F7F4FCE013F
:101B500001960E94D623BC0184E195E00E947B207F
:101B6000CE0101960E949A21CE0107960E949A21E9
:101B7000CE0107960E944D0960E672E0CE01019603
:101B80000E940822BE01695F7F4FCE0101960E942C
:101B9000D623BC0184E195E00E947B20CE01019612
:101BA0000E949A21CE0107960E949A2162EF72E06C
:101BB00084E195E00E94692061E08AE00E94841D32
:101BC00060E08AE00E94BD1D80E180938100109258
:101BD000800085E0809304058FEF9FEF90930605CA
:101BE00080930505909387008093860085E180931C
:101BF000810081E393E0909303058093020581E0E7
:101C000080936F001092500410924F0480934E0402
:101C100010924D0480E090E00E943F038C3A21F145
:101C20006AE672E084E195E00E948D2000E010E019
:101C300007C06DED72E084E195E00E946920FFCF5E
:101C4000B80183E694E00E9422240F5F1F4FFC013D
:101C50006081C8010E9441030430110589F76CEAD4
:101C600080E090E00E94410300E010E0B80183E6CC
:101C700094E00E9422247C010F5F1F4FC8010E9444
:101C80003F03F70180830430110581F763E872E0B8
:101C9000CE0101960E94082263E674E0CE0101960F
:101CA0000E94D623BC0184E195E00E947B20CE01F6
:101CB00001960E949A2165E074E08FE694E00E940C
:101CC0005F228AE090E00E943F034AE0682FCE0145
:101CD00001960E947722BE016F5F7F4F8FE694E0EE
:101CE0000E943F22CE0101960E949A218AE090E054
:101CF0000E943F038F3F31F46FE872E08FE694E07B
:101D00000E94032461E972E0CE0101960E9408223C
:101D10006FE674E0CE0101960E94D623BC0184E1F7
:101D200095E00E947B20CE0101960E949A218DE0D1
:101D300090E00E943F038F3FE9F467E972E08BE295
:101D400094E00E948D20CE0101960E94870569EBE8
:101D500071E0CE0101960E940324182FCE01019656
:101D60000E949A21112331F066ED72E084E195E042
:101D70000E9469208DE090E00E943F0381111DC008
:101D800066EA72E08BE294E00E948D20CE0101961B
:101D90000E94870569EB71E0CE0101960E94032441
:101DA000182FCE0101960E949A21112331F06EEC7A
:101DB00072E084E195E00E9469208BE090E00E944F
:101DC0003F038F3F31F465E773E08DE594E00E94B7
:101DD0005F228CE090E00E943F038F3F39F467E080
:101DE00073E08DE594E00E945F2211C04AE0682F05
:101DF000CE0101960E947722BE016F5F7F4F8DE575
:101E000094E00E947D23CE0101960E949A2166EB08
:101E100072E0CE0101960E9408226DE574E0CE01C9
:101E200001960E94D623BC018BE294E00E947B20A5
:101E3000CE0101960E949A21CE0101960E9487054B
:101E400069EB71E0CE0101960E940324182FCE01A8
:101E500001960E949A211123A9F066EC72E0CE014E
:101E600001960E9408226DE574E0CE0101960E9461
:101E7000D623BC0184E195E00E947B20CE0101962F
:101E80000E949A218EE090E00E943F034AE0682F72
:101E9000CE0101960E947722BE016F5F7F4F87E5DA
:101EA00094E00E943F22CE0101960E949A218EE08A
:101EB00090E00E943F038F3F31F46FE872E087E5C6
:101EC00094E00E945F2264ED72E0CE0101960E94D0
:101ED000082267E574E0CE0101960E94D623BC017A
:101EE0008BE294E00E947B20CE0101960E949A2111
:101EF000CE0101960E94870569EB71E0CE01019643
:101F00000E940324182FCE0101960E949A211123CA
:101F1000A9F060EE72E0CE0101960E94082267E50A
:101F200074E0CE0101960E94D623BC0184E195E0C5
:101F30000E947B20CE0101960E949A218FE090E0C2
:101F40000E943F038F3F19F46CE171E002C06BEE19
:101F500072E081E594E00E945F2265E074E0CE01CA
:101F600043960E94082210924D040E9460066FEB77
:101F700072E08BE294E00E946920CE0101960E94FB
:101F80008705BE016F5F7F4FCE0143960E943F22BF
:101F9000CE0101960E949A2167EA72E084E195E001
:101FA0000E946920BE016D5E7F4FCE0107960E94A0
:101FB00056226FE674E0CE010D960E945622AE01C5
:101FC000495F5F4FBE01635F7F4FCE0101960E9464
:101FD000B80669EB71E0CE0101960E940324182F28
:101FE000CE0101960E949A21CE010D960E949A215F
:101FF000CE0107960E949A211123A1F2CE010796E5
:102000000E94F40960EF72E0CE0101960E9408225E
:10201000BE01695F7F4FCE0101960E94D623BC01AD
:1020200084E195E00E947B20CE0101960E949A21D6
:10203000CE0107960E949A2184E195E00E94F31D4B
:10204000181619062CF484E195E00E940C1EF4CFBA
:1020500084E195E00E944F1ECE0143960E949A2192
:1020600068960FB6F894DEBF0FBECDBFDF91CF915B
:102070001F910F91FF90EF900895DF92EF92FF92E2
:102080000F931F93CF93DF93CDB7DEB7A4970FB60F
:10209000F894DEBF0FBECDBF8C0110925004109299
:1020A0004F0465E074E0CE014F960E9408226EEF67
:1020B00072E085E794E00E940324882309F4BFC0FE
:1020C00061E872E084E195E00E9469206EE672E0CA
:1020D00084E195E00E942B2063E073E084E195E0C9
:1020E0000E948D2062E672E084E195E00E942B2040
:1020F00069E073E08BE294E00E948D20CE010196AE
:102100000E948705BE016F5F7F4FCE014F960E94F0
:102110003F22CE0101960E949A21BE01615E7F4F4F
:1021200084E195E00E947B2062E572E084E195E025
:102130000E942B2068E173E08BE294E00E948D20E6
:10214000CE0101960E948705BE016F5F7F4FCE01D1
:102150004F960E943F22CE0101960E949A21BE0115
:10216000615E7F4F84E195E00E947B2061E472E034
:1021700084E195E00E942B2068E273E08BE294E01A
:102180000E948D20CE0101960E948705BE016F5FDF
:102190007F4FCE014F960E943F22CE0101960E94B2
:1021A0009A21BE01615E7F4F84E195E00E947B2011
:1021B00065E372E084E195E00E942B2067E373E021
:1021C0008BE294E00E948D20CE0101960E9487054B
:1021D000BE016F5F7F4FCE014F960E943F22CE011E
:1021E00001960E949A21BE01615E7F4F84E195E0D5
:1021F0000E947B206CE272E084E195E00E942B203B
:102200006CEE71E08BE294E00E948D20CE0101968D
:102210000E948705BE016F5F7F4FCE014F960E94DF
:102220003F22CE0101960E949A21BE01615E7F4F3E
:1022300084E195E00E94502063E473E04FC129E0FF
:1022400030E040E050E0B801CE0101960E945424F5
:1022500066E473E0CE0101960E940324F82ECE01BD
:1022600001960E949A21FF20D1F149E050E0B80187
:10227000CE0101960E944303BE016F5F7F4FC801EC
:102280000E943F22CE0101960E949A216CE171E0EA
:10229000C8010E940324882349F08FE090E00E9447
:1022A0003F038F3F09F420C56FEF0FC06BEE72E064
:1022B000C8010E940324882379F08FE090E00E94F7
:1022C0003F03882309F410C560E08FE090E00E948E
:1022D000410365E072E004C56BE172E001C523E0F3
:1022E00030E040E050E0B801CE0101960E94542455
:1022F00061E573E0CE0101960E940324F82ECE0121
:1023000001960E949A21FF2009F455C043E050E055
:10231000B801CE0101960E944303BE016F5F7F4F5B
:1023200087E594E00E943F22CE0101960E949A2107
:102330008EE090E00E943F03082F87E594E00E9422
:10234000992410E020E030E0061717072807390726
:1023500041F087E594E00E9499248EE090E00E948D
:10236000410364ED72E0CE0101960E94082267E508
:1023700074E0CE0101960E94D623BC018BE294E06A
:102380000E947B20CE0101960E949A21CE010196E7
:102390000E94870569EB71E0CE0101960E9403243B
:1023A000182FCE0101960E949A21112309F49CC492
:1023B00069EE71E095C424E030E040E050E0B801FF
:1023C000CE0101960E94542460E573E0CE0101968F
:1023D0000E940324F82ECE0101960E949A21FF202C
:1023E00009F481C044E050E0B801CE0101960E949A
:1023F0004303BE016F5F7F4FC8010E943F22CE01A1
:1024000001960E949A2163EA72E0C8010E940324A7
:10241000882341F18DE090E00E943F03811105C0C7
:102420006FEF8DE090E00E94410367E972E08BE27C
:1024300094E00E948D20CE0101960E94870569EBF1
:1024400071E0CE0101960E940324F82ECE01019680
:102450000E949A21FF2031F062EE71E084E195E064
:102460000E94692062EB72E0C8010E940324882365
:1024700041F18DE090E00E943F038F3F29F460E03E
:102480008DE090E00E94410366EA72E08BE294E006
:102490000E948D20CE0101960E94870569EB71E0B4
:1024A000CE0101960E940324F82ECE0101960E94CF
:1024B0009A21FF2031F06AED71E084E195E00E94FD
:1024C000692065ED71E084E195E00E942B20B80160
:1024D00084E195E00E94502065E573E084E195E099
:1024E0000E948D2001C426E030E040E050E0B801B9
:1024F000CE0101960E94542467E673E0CE01019656
:102500000E940324F82ECE0101960E949A21FF20FA
:1025100009F4FDC046E050E0B801CE0101960E94EA
:102520004303BE016F5F7F4FC8010E943F22CE016F
:1025300001960E949A21C8010E94992497FF65C0C4
:102540006FEF8BE090E00E94410341E050E0B80162
:10255000CE0101960E944303CE0101960E94992468
:102560008CE090E00E944103CE0101960E949A21E6
:102570008CE090E00E943F034AE0682FCE0107966E
:102580000E9477226EE673E0CE0101960E94082237
:10259000BE01695F7F4FCE0101960E94D62365E59B
:1025A00073E00E94E923BC0184E195E00E947B2056
:1025B000CE0101960E949A21CE0107960E949A218F
:1025C0008CE090E00E943F034AE0682FCE0107961E
:1025D0000E94772265E773E0CE0101960E940822EF
:1025E000BE01695F7F4FCE0101960E94D623BC01D8
:1025F0008DE594E00E943F22CE0101960E949A212F
:10260000CE0107960E949A213AC060E08BE090E0EC
:102610000E944103C8010E9499248CE090E00E942E
:1026200041038CE090E00E943F034AE0682FCE0116
:1026300001960E947722BE016F5F7F4F8DE594E087
:102640000E943F22CE0101960E949A2167E773E023
:10265000CE0101960E9408226DE574E0CE0101963C
:102660000E94D62365E573E00E94E923BC0184E162
:1026700095E00E947B20CE0101960E949A2166EB94
:1026800072E0CE0101960E9408226DE574E0CE0151
:1026900001960E94D623BC018BE294E00E947B202D
:1026A000CE0101960E949A21CE0101960E948705D3
:1026B00069EB71E0CE0101960E940324182FCE0130
:1026C00001960E949A211123A9F066EC72E0CE01D6
:1026D00001960E9408226DE574E0CE0101960E94E9
:1026E000D623BC0184E195E00E947B20CE010196B7
:1026F0000E949A2162E370E080E090E00E94ED1C6D
:102700000E94740584E195E00E944F1EEDC225E011
:1027100030E040E050E0B801CE0101960E94542420
:1027200060E873E0CE0101960E940324F82ECE01EA
:1027300001960E949A21FF20E1F145E050E0B801A6
:10274000CE0101960E944303BE016F5F7F4FC80117
:102750000E943F22CE0101960E949A21B8018FE685
:1027600094E00E943F228FE694E00E949924673E05
:102770007105810591053CF062EC71E084E195E022
:102780000E946920A9C28FE694E00E9499248AE001
:1027900090E00E94410368EB71E084E195E00E94C3
:1027A0002B20B80184E195E00E94502066EA71E098
:1027B00097C226E030E040E050E0B801CE0101963B
:1027C0000E94542466E873E0CE0101960E9403241F
:1027D000F82ECE0101960E949A21FF2009F476C0BE
:1027E00061E089E00E94BD1D65E074E0CE0149967C
:1027F0000E94082246E050E0B801CE0101960E94F6
:102800004303BE016F5F7F4FC8010E943F22CE018C
:1028100001960E949A216DE971E084E195E00E94A1
:102820002B20B80184E195E00E947B206CE871E0E8
:1028300084E195E00E942B206FE674E084E195E04E
:102840000E94502060E171E084E195E00E948D20BB
:10285000B801CE010D960E9456226FE674E0CE01BB
:1028600043960E945622AE01435F5F4FBE016D5EEC
:102870007F4FCE0107960E94B8066DE873E0CE0147
:1028800001960E940822BE01695F7F4FCE0101962A
:102890000E94D623BC0184E195E00E947B20CE01FA
:1028A00001960E949A21CE0107960E949A21CE019C
:1028B00043960E949A21CE010D960E949A2160E0D3
:1028C00089E00E94BD1DCE014996B6C126E030E0E8
:1028D00040E050E0B801CE0101960E94542468E91E
:1028E00073E0CE0101960E940324F82ECE010196DA
:1028F0000E949A21FF2009F4E6C061E089E00E946D
:10290000BD1D65E074E0CE0107960E94082246E0F6
:1029100050E0B801CE0101960E944303BE016F5FF3
:102920007F4FC8010E943F22CE0101960E949A214A
:1029300063E871E084E195E00E942B20B80184E116
:1029400095E00E947B2062E771E084E195E00E94BF
:102950002B206FE674E084E195E00E94502060E156
:1029600071E084E195E00E948D206FE973E0CE0173
:1029700001960E9408226FE674E0CE0101960E9443
:10298000D6236AEC71E00E94E923B8010E94D623A5
:10299000BC018BE294E00E947B20CE0101960E9454
:1029A0009A2164EF71E080E090E00E94ED1C8BE2E0
:1029B00094E00E94CB19181619060CF04AC08BE25D
:1029C00094E00E943E1980937B04682FCE01079605
:1029D0000E94942380917B048A3049F72B853C85A3
:1029E0002250310940E050E0BE01695F7F4FCE01C7
:1029F00001960E945424BE016F5F7F4FCE0107965F
:102A00000E943F22CE0101960E949A216FE471E05C
:102A1000CE0101960E940822BE01695F7F4FCE0160
:102A200001960E94D623BC0184E195E00E947B20A0
:102A3000CE0101960E949A2169EB71E0CE010796C2
:102A40000E9403248111B3CF60E089E00E94BD1D84
:102A5000F1C065E074E0CE0107960E945F228BE230
:102A600094E00E94CB1918161906CCF78BE294E07B
:102A70000E94CB19181619063CF78BE294E00E94CD
:102A80003E1980937B04682FCE0107960E94942301
:102A900080917B048A3051F76AEA71E0CE01019699
:102AA0000E940822BE01695F7F4FCE0101960E94FD
:102AB000D623BC0184E195E00E945020CE0101960E
:102AC0000E949A21D3CF6FE373E0C8010E940324D0
:102AD000882309F440C065E074E0CE0107960E94A7
:102AE000082266E671E08BE294E00E9469206AE0C9
:102AF00070E080E090E00E94ED1C8BE294E00E9488
:102B0000CB19181619060CF095C08BE294E00E94C0
:102B10003E1980937B04682FCE0107960E94942370
:102B200080917B048A3049F76BEA73E0CE0101960D
:102B30000E940822BE01695F7F4FCE0101960E946C
:102B4000D623BC0184E195E00E945020CE0101967D
:102B50000E949A21D2CF64EB73E0C8010E94032443
:102B6000882309F46CC065E074E0CE0107960E94EA
:102B700008226DE571E08BE294E00E9469208BE20F
:102B800094E00E94CB1918161906CCF78BE294E05A
:102B90000E94CB19181619060CF046C08BE294E07F
:102BA0000E943E1980937B04682FCE0107960E94F5
:102BB000942380917B048A3049F72B853C852250F1
:102BC000310940E050E0BE01695F7F4FCE010196C0
:102BD0000E945424BE016F5F7F4FCE0107960E9472
:102BE0003F22CE0101960E949A216FE471E0CE014E
:102BF00001960E940822BE01695F7F4FCE010196B7
:102C00000E94D623BC0184E195E00E947B20CE0186
:102C100001960E949A2169EB71E0CE0107960E940D
:102C200003248111B3CF06C06FE371E084E195E026
:102C30000E946920CE0107960E949A2155C026E085
:102C400030E040E050E0B801CE0101960E945424EB
:102C500069EB73E0CE0101960E940324F82ECE01A9
:102C600001960E949A21FF20F9F046E050E0B80159
:102C7000CE0101960E944303BE016F5F7F4FC801E2
:102C80000E943F22CE0101960E949A21F801848180
:102C90009581892B19F1C8010E94992416161706EF
:102CA000180619061CF11AC06EED73E0C8010E94E7
:102CB0000324882339F069E674E084E195E00E94FA
:102CC0007B2012C062E871E0C8010E9403248823BF
:102CD00019F00E944F0308C010E090C061E371E05A
:102CE00084E195E00E94692011E088C0C8010E943B
:102CF000992460317742810591051CF062E271E010
:102D0000EFCFB80183E694E00E943F2200E010E09C
:102D100084E0E82EF12C809167049091680497017B
:102D2000281B390B02171307C0F46AEE71E0CE01BD
:102D300001960E94082263E674E0CE0101960E948B
:102D4000D623BC0183E694E00E943F22CE01019687
:102D50000E949A210F5F1F4FDECF60EC73E0CE011F
:102D600001960E94082263E674E0CE0101960E945B
:102D7000D6236DEC71E00E94E923BC0184E195E06B
:102D80000E947B20CE0101960E949A21E12CF12C19
:102D900087010F5F1F4FC8010E943F03D82EB70164
:102DA00083E694E00E9422244D2D50E0FC01208116
:102DB000332727FD30954217530729F404301105B6
:102DC000C9F07801E5CF00E010E0B80183E694E0B7
:102DD0000E9422240F5F1F4FFC016081C8010E94E6
:102DE00041030430110589F76CEC73E084E195E050
:102DF0000E948D2081E080934C0476CFCE014F96C7
:102E00000E949A21812FA4960FB6F894DEBF0FBEC0
:102E1000CDBFDF91CF911F910F91FF90EF90DF9089
:102E200008951F93CF93DF9300D000D000D0CDB78B
:102E3000DEB7A89580914C0481110E94280B8091E7
:102E40004F04909150040D9714F00E94280B84E1D8
:102E500095E00E94F31D181619060CF04BC084E192
:102E600095E00E940C1E80937C04682F84E195E01D
:102E70000E945E2060917C0485E794E00E94942388
:102E800080917C048A30B1F52091790430917A04E4
:102E90002250310940E050E065E774E0CE01019630
:102EA0000E945424BE016F5F7F4F85E794E00E942B
:102EB0003F22CE0101960E949A2165E774E0CE017F
:102EC00001960E945622CE0101960E943D10182FB5
:102ED000CE0101960E949A21111106C065E774E0A7
:102EE0008BE294E00E947B2065E074E085E794E04B
:102EF0000E945F228BE294E00E94CB1918161906FB
:102F00005CF48BE294E00E943E1980937B04682F6E
:102F100084E195E00E945E2026960FB6F894DEBF0D
:102F20000FBECDBFDF91CF911F910895CF93DF9357
:102F3000EC0170E0FB01EB53FB4FE491E883FB01F4
:102F4000E752FB4FE491F0E0EE0FFF1FE351FB4F20
:102F5000859194919A8389830E94BE1C6B837C83A4
:102F60008D839E838DE19CEF98878F839A878987D5
:102F7000DF91CF9108957F928F929F92AF92BF92EF
:102F8000CF92DF92EF92FF920F931F93CF93DF9335
:102F9000CDB7DEB7A9970FB6F894DEBF0FBECDBF91
:102FA0007C01FC017080018112810E94BE1C6E01B7
:102FB000FAE2CF0ED11CFE0131961192EC15FD05FF
:102FC000E1F7F70183809480A580B6809B01AC0176
:102FD000281939094A095B0949015A0130ED83165C
:102FE00037E09306A104B10408F4D8C06383748366
:102FF00085839683F894F8018181B72CB0948B2156
:1030000081837894EEE7AE2E82E090E00E94151D59
:10301000F8018081872129F4AA94B1F781E090E03A
:10302000C2C0F894F80182818B2182838181872933
:10303000818378948CE494E00E94151DF894F80143
:1030400081818B21818378947AE1B72E82E090E0B0
:103050000E94151DF8018081872129F4BA94B1F7E7
:1030600082E090E0A0C063E3B62E82E090E00E9490
:10307000151DF8018081872129F0BA94B1F783E00A
:1030800090E091C09E012F5F3F4F590154E2952E71
:1030900082E090E00E94151DF8018081872129F4CB
:1030A0009A94B1F784E090E07EC0912C939482E0F2
:1030B00090E00E94151DF8018081872131F0F3E333
:1030C0009F12F4CF85E090E06EC0F50191925F0110
:1030D000EC15FD05D9F6FE0132968FE090E040E058
:1030E00050E021E030E061916C3048F0B901082EE9
:1030F00002C0660F771F0A94E2F7462B572B019701
:1031000090F7FE0172968FE090E020E030E061E001
:1031100070E0A191AC3048F0DB01082E02C0AA0F8C
:10312000BB1F0A94E2F72A2B3B2B019790F7FE0175
:10313000B29687E090E060E0A1E0B0E071917C3071
:1031400038F08D01082E01C0000F0A94EAF7602BB9
:103150000197A0F7CA019F77F7019087878337FF10
:1031600008C0C9019F7791958195910992878187C0
:1031700003C0F7013287218770E0852F9927840FDC
:10318000911D432F5527840F951F820F911D99275D
:103190006817790731F480E090E005C087E090E09F
:1031A00002C086E090E0A9960FB6F894DEBF0FBE8D
:1031B000CDBFDF91CF911F910F91FF90EF90DF90E6
:1031C000CF90BF90AF909F908F907F9008954115C2
:1031D000510529F480917A008F7780937A006A30C4
:1031E0007105B1F063FF02C088E201C088E067703A
:1031F000682B88E190E00FB6F894A8958093600062
:103200000FBE6093600080916000806480936000D6
:1032100083B7817F846083BF232B51F4F89483B7F5
:10322000816083BF85B7806685BF8F7D85BF04C001
:10323000F89483B7816083BF7894889583B78E7F35
:1032400083BF7894452B29F480917A00806880931D
:103250007A0008951F920F920FB60F9211248F9348
:1032600088E10FB6F89480936000109260000FBE62
:103270008F910F900FBE0F901F9018952091000511
:103280003091010528173907B9F490917E04809197
:103290007F04981789F0E0917E04F0E0E058FB4F3E
:1032A000808120917E0430E02F5F3F4F2F773327BE
:1032B00020937E0490E008958FEF9FEF08951F9371
:1032C000CF93DF93DC015C968D919C915D97009785
:1032D00049F481E090E013969C938E93129780E0DE
:1032E00090E03BC05196ED91FC91529750962C91F5
:1032F0005097322F30951FB75E964C915E9741FBE9
:10330000772770F941FD6095F8944081772311F09B
:10331000422B01C043234083EC012197F1F748E0A1
:10332000508160FF02C0522B01C053235083EC0137
:103330002197F1F76695415099F78081772311F035
:10334000832301C0822B80831FBF5C968D919C914B
:103350005D970197F1F781E090E0DF91CF911F91A8
:10336000089520910005309101052817390781F44F
:1033700090917E0480917F04981751F0E0917E0433
:10338000F0E0E058FB4F8081992787FD90950895E4
:103390008FEF9FEF089520910005309101052817C8
:1033A000390771F480917F0420917E0490E0805869
:1033B0009F4F821B910960E870E00E94FD250895EF
:1033C00080E090E0089520910005309101052817D4
:1033D000390739F48FB7F89410927F0410927E0465
:1033E0008FBF0895E0910005F0910105E817F907F6
:1033F00069F4A389B4899C918589809589238C93EC
:10340000109201051092000581E0089580E0089572
:10341000CF93DF93EC018A8D9B8D892BF1F0809106
:103420000005909101058C179D07B9F0009711F0E8
:103430000E94F2198E8D8E7F8E8F10927F041092D3
:103440007E04D0930105C0930005EB89FC8980813F
:103450009D89892B808381E001C080E0DF91CF913D
:1034600008951F920F920FB60F9211242F933F933E
:103470004F935F936F937F938F939F93AF93BF937C
:10348000EF93FF93E0910005F0910105309709F467
:1034900051C0868DA685B785958581FF04C08C9126
:1034A000892329F447C08C91892309F043C0A3895B
:1034B000B4899C918589809589238C938689978985
:1034C0000197F1F7208D318DA685B785758558E078
:1034D00040E0C9010197F1F7842F90E09595879519
:1034E000482F6C91672309F04068515091F7868D01
:1034F00081FD409580917F0490E001968F77992718
:1035000020917E04281749F0A0917F04B0E0A058D4
:10351000BB4F4C9380937F0403C0868D8160868F60
:10352000828D938D0197F1F7A389B4898C91958948
:10353000892B8C93FF91EF91BF91AF919F918F91C8
:103540007F916F915F914F913F912F910F900FBE9F
:103550000F901F90189527EE33E0FC0131832083F4
:103560000C94F2191F93CF93DF93EC01162F6E8DFD
:103570006695617081E06827812F0E94BD1D61E022
:10358000812F0E94841D812F90E0FC01EB53FB4FA3
:10359000E491E88BFC01E752FB4FE491F0E0EE0F81
:1035A000FF1FE950FB4F859194919A8B898BDF9196
:1035B000CF911F9108951F93CF93DF93EC01162FA6
:1035C00060E0812F0E94841D8E8D81FD04C061E02A
:1035D000812F0E94BD1D1C87812F90E0FC01EB53C1
:1035E000FB4FE491ED87FC01E752FB4FE491F0E0E3
:1035F000EE0FFF1FE351FB4F859194919F878E87BC
:10360000DF91CF911F910895FF920F931F93CF9356
:10361000DF93EC01F62E522F1B821A8208EE13E084
:1036200020E030E00C831D832E833F8387EE93E000
:10363000998388831F8A1E8A198E188E1B8E1A8E74
:103640001D8E1C8E8E8D8E7F50FB81F98E8F642F88
:10365000CE010E94B21A6F2DCE01DF91CF911F9142
:103660000F91FF900C94DB1ACF93DF93EC019A013A
:10367000AB011B8E1A8E198E188E1F8A1E8A60E06F
:1036800079E08DE390E00E943326C90124303105B2
:1036900020F0B9016350710902C061E070E07D8FD4
:1036A0006C8FEC85E63108F068C0B90176956795B6
:1036B0006431710518F06351710902C061E070E076
:1036C0007F8B6E8B069718F0C901059702C081E0C9
:1036D00090E0998F888FC901880F991F820F931FDF
:1036E00096958795969587958D30910510F00C9756
:1036F00002C081E090E09B8F8A8F20916800E830C3
:1037000050F091E0EE3008F490E081E001C0880FC5
:103710009A95EAF701C084E0822B809368002C859B
:10372000283038F02E3040F0263148F48CE690E016
:1037300008C08DE690E005C08BE690E002C080E016
:1037400090E09C8B8B8B283030F481E001C0880F97
:103750002A95EAF70DC0822F90E02E3010F40897DA
:1037600001C00E9791E001C0990F8A95EAF7892F61
:103770008D8B8C8D9D8D0197F1F7CE01DF91CF91CF
:103780000C94081A1F920F920FB60F9211242F93C8
:103790003F934F935F936F937F938F939F93AF93D9
:1037A000BF93EF93FF93E0910205F0910305099514
:1037B000FF91EF91BF91AF919F918F917F916F9109
:1037C0005F914F913F912F910F900FBE0F901F90DF
:1037D000189508958230E8F4E82FF0E0EE0FFF1F0F
:1037E000E95FFA4F71836083813041F08091690015
:1037F0008C7F842B80936900E89A089580916900FA
:10380000440F551F440F551F837F842B80936900FD
:10381000E99A0895823068F4813011F0E89801C087
:10382000E998E82FF0E0EE0FFF1FE95FFA4F1182F1
:10383000108208951F920F920FB60F9211242F93AA
:103840003F934F935F936F937F938F939F93AF9328
:10385000BF93EF93FF938091070590910805892B03
:1038600029F0E0910705F09108050995FF91EF9186
:10387000BF91AF919F918F917F916F915F914F9188
:103880003F912F910F900FBE0F901F9018951F9290
:103890000F920FB60F9211242F933F934F935F9384
:1038A0006F937F938F939F93AF93BF93EF93FF9308
:1038B0008091090590910A05892B29F0E09109056D
:1038C000F0910A050995FF91EF91BF91AF919F91FA
:1038D0008F917F916F915F914F913F912F910F90B9
:1038E0000FBE0F901F9018951F920F920FB60F9258
:1038F00011242F933F938F939F93AF93BF93809106
:103900000C0590910D05A0910E05B0910F05309119
:103910000B0523E0230F2D3720F40196A11DB11DC7
:1039200005C026E8230F0296A11DB11D20930B05AB
:1039300080930C0590930D05A0930E05B0930F0591
:103940008091100590911105A0911205B091130579
:103950000196A11DB11D8093100590931105A093B0
:103960001205B0931305BF91AF919F918F913F9135
:103970002F910F900FBE0F901F9018952FB7F894AE
:1039800060910C0570910D0580910E0590910F05C9
:103990002FBF08953FB7F8948091100590911105BD
:1039A000A0911205B091130526B5A89B05C02F3F25
:1039B00019F00196A11DB11D3FBF6627782F892FF1
:1039C0009A2F620F711D811D911D42E0660F771FB6
:1039D000881F991F4A95D1F70895CF92DF92EF92F1
:1039E000FF92CF93DF936B017C010E94CA1CEB0115
:1039F000C114D104E104F10489F00E94E91B0E9482
:103A0000CA1C6C1B7D0B683E734090F381E0C81AA2
:103A1000D108E108F108C851DC4FEACFDF91CF911E
:103A2000FF90EF90DF90CF9008958230910538F0AD
:103A3000880F991F880F991F05970197F1F708952F
:103A4000789484B5826084BD84B5816084BD85B579
:103A5000826085BD85B5816085BDEEE6F0E0808140
:103A600081608083E1E8F0E0108280818260808361
:103A7000808181608083E0E8F0E0808181608083E4
:103A8000E1EBF0E0808184608083E0EBF0E0808116
:103A900081608083EAE7F0E08081846080838081B8
:103AA0008260808380818160808380818068808360
:103AB0001092C1000895833081F028F4813099F08C
:103AC0008230A1F008958730A9F08830B9F08430B1
:103AD000D1F4809180008F7D03C0809180008F772A
:103AE00080938000089584B58F7702C084B58F7D60
:103AF00084BD08958091B0008F7703C08091B0009D
:103B00008F7D8093B0000895CF93DF9390E0FC0108
:103B1000EB53FB4F2491FC01E752FB4F8491882328
:103B200049F190E0880F991FFC01EF5FFA4FA591D2
:103B3000B49189509B4FFC01C591D4919FB76111FD
:103B400008C0F8948C91209582238C9388818223DD
:103B50000AC0623051F4F8948C91322F309583234F
:103B60008C938881822B888304C0F8948C91822B5B
:103B70008C939FBFDF91CF9108950F931F93CF93A5
:103B8000DF931F92CDB7DEB7282F30E0F901EF5455
:103B9000FB4F8491F901EB53FB4F1491F901E7526C
:103BA000FB4F04910023C9F0882321F069830E9410
:103BB0005B1D6981E02FF0E0EE0FFF1FE950FB4F26
:103BC000A591B4919FB7F8948C91611103C01095A1
:103BD000812301C0812B8C939FBF0F90DF91CF91E8
:103BE0001F910F910895FC01818D228D90E0805CE2
:103BF0009F4F821B91098F7399270895FC01918D26
:103C0000828D981731F0828DE80FF11D858D90E03F
:103C100008958FEF9FEF0895FC01918D828D981785
:103C200061F0828DDF01A80FB11D5D968C91928DA0
:103C30009F5F9F73928F90E008958FEF9FEF08959D
:103C400080E99FE1892B49F080E090E0892B29F001
:103C50000E94901F81110C9400000895FC01848D36
:103C6000DF01A80FB11DA35ABF4F2C91848D90E0A6
:103C700001968F739927848FA689B7892C93A08981
:103C8000B1898C9180648C93938D848D981306C038
:103C90000288F389E02D80818F7D80830895CF9302
:103CA000DF93EC01888D8823C9F0EA89FB89808144
:103CB00085FD05C0A889B9898C9186FD0FC00FB616
:103CC00007FCF5CF808185FFF2CFA889B9898C9157
:103CD00085FFEDCFCE010E942E1EE7CFDF91CF9161
:103CE0000895CF92DF92FF920F931F93CF93DF93AC
:103CF0001F92CDB7DEB76C0181E0D60158968C9348
:103D000058975B969C915B975C968C915C97981307
:103D100007C05096ED91FC915197808185FD2EC092
:103D2000F601038D10E00F5F1F4F0F731127F02E68
:103D3000F601848DF81211C00FB607FCF9CFD60139
:103D40005096ED91FC915197808185FFF1CFC6018E
:103D500069830E942E1E6981EBCF838DE80FF11DD0
:103D6000E35AFF4F6083D6015B960C935B975296A4
:103D7000ED91FC915397808180620CC0D6015696DC
:103D8000ED91FC91579760835096ED91FC9151977E
:103D900080818064808381E090E00F90DF91CF91FB
:103DA0001F910F91FF90DF90CF900895BF92CF9217
:103DB000DF92EF92FF92CF93DF93EC016A017B01D8
:103DC000B22EE889F98982E08083411581EE580797
:103DD00061057105A1F060E079E08DE390E0A70155
:103DE00096010E9411262150310941095109569529
:103DF000479537952795211580E1380798F0E88990
:103E0000F989108260E874E88EE190E0A7019601DC
:103E10000E941126215031094109510956954795B3
:103E200037952795EC85FD853083EE85FF852083CA
:103E3000188EEC89FD89B082EA89FB8980818061D6
:103E40008083EA89FB89808188608083EA89FB8995
:103E5000808180688083EA89FB8980818F7D80836F
:103E6000DF91CF91FF90EF90DF90CF90BF900895BA
:103E70001F920F920FB60F9211242F938F939F933F
:103E8000EF93FF93E0912405F09125058081E09167
:103E90002A05F0912B0582FD12C0908180912D059D
:103EA0008F5F8F7320912E05821751F0E0912D05C1
:103EB000F0E0EC5EFA4F958F80932D0501C0808174
:103EC000FF91EF919F918F912F910F900FBE0F90C7
:103ED0001F9018951F920F920FB60F9211242F93D7
:103EE0003F934F935F936F937F938F939F93AF9382
:103EF000BF93EF93FF9384E195E00E942E1EFF9104
:103F0000EF91BF91AF919F918F917F916F915F9151
:103F10004F913F912F910F900FBE0F901F901895CA
:103F200084E195E00E94F31D21E0892B09F420E053
:103F3000822F0895109217051092160588EE93E0CF
:103F4000A0E0B0E08093180590931905A0931A059E
:103F5000B0931B0587EF93E09093150580931405AC
:103F600085EC90E0909321058093200584EC90E00F
:103F7000909323058093220580EC90E09093250593
:103F80008093240581EC90E090932705809326058B
:103F900082EC90E0909329058093280586EC90E0D0
:103FA00090932B0580932A0510922D0510922E05D3
:103FB00010922F0510923005089508950E94201D3B
:103FC0000E94DD1F0E94050CC0E2DEE10E94111775
:103FD0002097E1F30E94201EF9CFCF92DF92EF925B
:103FE000FF920F931F93CF93DF936C017A01EB0144
:103FF000E60EF71E00E010E0CE15DF0561F06991D6
:10400000D601ED91FC910190F081E02DC60109955A
:10401000080F191FF1CFC801DF91CF911F910F91A8
:10402000FF90EF90DF90CF9008956115710581F0BA
:10403000DB010D900020E9F7AD0141505109461B0D
:10404000570BDC01ED91FC910280F381E02D099486
:1040500080E090E00895EF92FF920F931F93CF932B
:10406000DF938C01FB01C0E0D0E064917F018FEF12
:10407000E81AF80A662361F0D801ED91FC910190ED
:10408000F081E02DC8010995C80FD91FF701EDCFC8
:10409000CE01DF91CF911F910F91FF90EF90089586
:1040A000DC01ED91FC91DB0114964D915C9115972B
:1040B0006D917C910280F381E02D0994DC01ED91FA
:1040C000FC910190F081E02D099463E074E00C9480
:1040D00015200F931F93CF93DF93EC010E942B20A9
:1040E0008C01CE010E946520800F911FDF91CF913E
:1040F0001F910F9108950F931F93CF93DF93EC01BE
:104100000E9450208C01CE010E946520800F911FDB
:10411000DF91CF911F910F9108950F931F93CF932C
:10412000DF93EC010E9415208C01CE010E946520D6
:10413000800F911FDF91CF911F910F9108950F93E1
:104140001F93CF93DF93EC010E94BE1C6887798791
:104150008A879B87E881F9810680F781E02DCE016F
:10416000099597FF15C00E94BE1C088519852A85F0
:104170003B85601B710B820B930B0C811D812E8183
:104180003F81601771078207930720F38FEF9FEF3E
:10419000DF91CF911F910F9108954F925F926F928F
:1041A0007F928F929F92AF92BF92CF92DF92EF92C7
:1041B000FF920F931F93CF93DF934C01EB0186E0A7
:1041C000849F8001859F100D1124060F171FFB018E
:1041D000E017F10708F582819381892B21F136964A
:1041E000F7CF4081518164817581DA01A60FB71F35
:1041F0002C91332727FD30958217930711F56F5FB8
:104200007F4F75836483228133816217730759F06E
:104210003696E017F10728F3C4010E949F2097FD0E
:1042200046C0FE01F6CFEC1BFD0BF595E7952BEA9A
:104230003AEAE29FC001E39F900DF29F900D112496
:1042400038C06115710521F3A480B5809501215016
:10425000310935832483DA01A20FB31FAC91BB2748
:10426000A7FDB0958A179B07F9F421153105C9F010
:104270006A017B01E21AF30AE40EF51E412C512C6F
:10428000D6016D906D01D7017D907D01671006C04C
:10429000BFEF4B1A5B0A4216530690F342165306C1
:1042A00099F6B582A482B4CF232B71F6B1CF8FEFEC
:1042B0009FEFDF91CF911F910F91FF90EF90DF90D3
:1042C000CF90BF90AF909F908F907F906F905F90B6
:1042D0004F900895CF93DF9300D000D000D0CDB79A
:1042E000DEB7FE01319626E0DF011D922A95E9F73F
:1042F0007A8369835C834B8341E050E0BF010E9475
:10430000CD2021E0892B09F020E0822F26960FB6E0
:10431000F894DEBF0FBECDBFDF91CF910895FB01B2
:1043200001900020E9F7AF0141505109461B570B9E
:104330000C946A21FC01808191810C942527CF93F4
:10434000DF93EC0188819981009711F00E94252765
:10435000198218821D821C821B821A82DF91CF91E2
:1043600008950F931F93CF93DF93EC018B016F5F41
:104370007F4F888199810E94B427009731F09983FB
:1043800088831B830A8381E001C080E0DF91CF91A5
:104390001F910F910895CF93DF93EC01888199814C
:1043A000892B29F08A819B818617970760F4CE01BB
:1043B0000E94B121882341F08C819D81892B19F4C1
:1043C000E881F981108281E0DF91CF910895EF9229
:1043D000FF920F931F93CF93DF93EC017B018A0130
:1043E000BA010E94CB21811104C0CE010E949F21FD
:1043F00007C01D830C83B701888199810E94C7285B
:10440000CE01DF91CF911F910F91FF90EF90089512
:10441000FC011182108213821282158214826115AE
:10442000710559F0FB0101900020E9F7AF014150FF
:104430005109461B570B0C94E7210895EF92FF9208
:104440000F931F93CF93DF93EC017B018A01BA0195
:104450000E94CB21811104C0CE010E949F2107C080
:104460001D830C83B701888199810E94A528CE0104
:10447000DF91CF911F910F91FF90EF900895CF930F
:10448000DF93EC01FB018617970761F06081718172
:104490006115710529F0448155810E94E72102C010
:1044A0000E949F21CE01DF91CF910895FC011182DE
:1044B000108213821282158214820C943F22CF93B1
:1044C000DF93EC016115710561F0FB0101900020A3
:1044D000E9F7AF0141505109461B570B0E94E721F4
:1044E00002C00E949F21CE01DF91CF9108950F93CA
:1044F0001F93CF93DF93CDB7DEB729970FB6F8940C
:10450000DEBF0FBECDBF8C01862FF8011182108255
:10451000138212821582148250E0BE016F5F7F4FBA
:1045200090E00E941329BE016F5F7F4FC8010E9477
:104530005F2229960FB6F894DEBF0FBECDBFDF9184
:10454000CF911F910F9108950F931F93CF93DF93F6
:10455000CDB7DEB762970FB6F894DEBF0FBECDBF02
:104560008C01CB01F8011182108213821282158214
:10457000148250E0BE016F5F7F4F0E94E828BE01A9
:104580006F5F7F4FC8010E945F2262960FB6F8945A
:10459000DEBF0FBECDBFDF91CF911F910F91089568
:1045A000EF92FF920F931F93CF93DF93CDB7DEB7B8
:1045B000A1970FB6F894DEBF0FBECDBF7C01CB0133
:1045C000BA01F701118210821382128215821482BD
:1045D00042E0420F8E010F5F1F4F0E946C26BC010C
:1045E000C7010E945F22A1960FB6F894DEBF0FBEEE
:1045F000CDBFDF91CF911F910F91FF90EF90089564
:10460000EF92FF920F931F93CF93DF93CDB7DEB757
:10461000A1970FB6F894DEBF0FBECDBF7C01CB01D2
:10462000BA01F7011182108213821282158214825C
:1046300042E0420F8E010F5F1F4F0E946C26BC01AB
:10464000C7010E945F22A1960FB6F894DEBF0FBE8D
:10465000CDBFDF91CF911F910F91FF90EF90089503
:104660000F931F93CF93DF9300D0CDB7DEB78C01AC
:104670006115710561F0CB0169837A830E94AC28D2
:10468000AC0169817A81C8010E941E2202C00E9489
:104690009F21C8010F900F90DF91CF911F910F9133
:1046A0000895EF92FF920F931F93CF93DF93EC0146
:1046B0007B010C811D816115710511F480E016C02C
:1046C0004115510591F0040F151FB8010E94CB212F
:1046D0008823A1F3288139818C819D81B701820FC4
:1046E000931F0E94C7281D830C8381E0DF91CF9127
:1046F0001F910F91FF90EF900895FB014481558128
:10470000608171810C9451236115710559F0FB0191
:1047100001900020E9F7AF0141505109461B570BAA
:104720000C94512380E00895CF93DF9300D0CDB750
:10473000DEB769831A8241E050E0BE016F5F7F4FB0
:104740000E9451230F900F90DF91CF910895EF9227
:10475000FF920F931F93CF93DF93EC017B016115C1
:10476000710511F480E01BC0CB010E94AC280097BA
:10477000A9F00C811D81080F191FB801CE010E94FC
:10478000CB21882379F3288139818C819D81B701E0
:10479000820F931F0E94A5281D830C8381E0DF9167
:1047A000CF911F910F91FF90EF900895CF93DF93DA
:1047B000EC01FB0144815581608171810E9451238C
:1047C000811103C0CE010E949F21CE01DF91CF91C4
:1047D0000895CF93DF93EC016115710569F0FB013A
:1047E00001900020E9F7AF0141505109461B570BDA
:1047F0000E945123811103C0CE010E949F21CE014E
:10480000DF91CF910895FC0124813581232B31F470
:1048100021E061157105A1F0FB0108C0FC01808158
:1048200091816115710531F421E0FC0180818823BB
:1048300039F005C00E94BE2821E0892B09F020E054
:10484000822F0895FC01848195816817790720F4EF
:1048500080819181009729F41092B10581EB95E058
:104860000895860F971F0895CF93DF93FC018481ED
:1048700095814817590778F4C081D181FB01608187
:104880007181CE01840F951F0E94CE28009719F0E8
:104890008C1B9D0B02C08FEF9FEFDF91CF9108958E
:1048A00040E050E00C943424BF92CF92DF92EF921C
:1048B000FF920F931F93CF93DF936C017B01EA016B
:1048C00089012417350720F48D2FE901042F182FB3
:1048D00065E074E0C6010E940822D70114968D910C
:1048E0009C911597C817D907C8F48017910708F449
:1048F0008C01D701ED91FC911197E00FF11FB08071
:1049000010826D917C916C0F7D1FC6010E945F2209
:10491000D701ED91FC91E00FF11FB082C601DF914C
:10492000CF911F910F91FF90EF90DF90CF90BF90AC
:104930000895FC0180819181009711F00C947E28EC
:1049400060E070E0CB0108950CD0BAC0B2D040F066
:10495000A9D030F021F45F3F19F09BC05111E4C0A1
:104960009EC0BFD098F39923C9F35523B1F3951B8B
:10497000550BBB27AA2762177307840738F09F5F80
:104980005F4F220F331F441FAA1FA9F333D00E2EEF
:104990003AF0E0E830D091505040E695001CCAF75C
:1049A00029D0FE2F27D0660F771F881FBB1F261721
:1049B00037074807AB07B0E809F0BB0B802DBF01F4
:1049C000FF2793585F4F2AF09E3F510568F061C062
:1049D000ABC05F3FECF3983EDCF386957795679527
:1049E000B795F7959F5FC9F7880F911D96958795A5
:1049F00097F90895E1E0660F771F881FBB1F6217C4
:104A000073078407BA0720F0621B730B840BBA0B81
:104A1000EE1F88F7E0950895E89409C097FB3EF4EF
:104A200090958095709561957F4F8F4F9F4F9923FB
:104A3000A9F0F92F96E9BB279395F6958795779579
:104A40006795B795F111F8CFFAF4BB0F11F460FF39
:104A50001BC06F5F7F4F8F4F9F4F16C0882311F091
:104A600096E911C0772321F09EE8872F762F05C0A5
:104A7000662371F096E8862F70E060E02AF09A9540
:104A8000660F771F881FDAF7880F9695879597F935
:104A9000089597F99F6780E870E060E008959FEFC0
:104AA00080EC089500240A941616170618060906C5
:104AB000089500240A941216130614060506089594
:104AC000092E0394000C11F4882352F0BB0F40F41C
:104AD000BF2B11F460FF04C06F5F7F4F8F4F9F4F5C
:104AE000089557FD9058440F551F59F05F3F71F0DE
:104AF0004795880F97FB991F61F09F3F79F0879545
:104B00000895121613061406551FF2CF4695F1DFCD
:104B100008C0161617061806991FF1CF869571055D
:104B2000610508940895E894BB2766277727CB0191
:104B300097F908950BD0C4CFB5DF28F0BADF18F08D
:104B4000952309F0A6CFABCF1124EECFCADFA0F397
:104B5000959FD1F3950F50E0551F629FF001729F12
:104B6000BB27F00DB11D639FAA27F00DB11DAA1F31
:104B7000649F6627B00DA11D661F829F2227B00D7E
:104B8000A11D621F739FB00DA11D621F839FA00D09
:104B9000611D221F749F3327A00D611D231F849F59
:104BA000600D211D822F762F6A2F11249F575040B0
:104BB0008AF0E1F088234AF0EE0FFF1FBB1F661F4B
:104BC000771F881F91505040A9F79E3F510570F004
:104BD00060CFAACF5F3FECF3983EDCF386957795E4
:104BE0006795B795F795E7959F5FC1F7FE2B880FFF
:104BF000911D9695879597F9089597FB072E16F4C2
:104C0000009407D077FD09D00E94522607FC05D0FA
:104C10003EF4909581959F4F0895709561957F4FD3
:104C20000895A1E21A2EAA1BBB1BFD010DC0AA1FED
:104C3000BB1FEE1FFF1FA217B307E407F50720F005
:104C4000A21BB30BE40BF50B661F771F881F991F80
:104C50001A9469F760957095809590959B01AC01C9
:104C6000BD01CF010895052E97FB1EF400940E940C
:104C70004A2657FD07D00E94112607FC03D04EF4A8
:104C80000C944A2650954095309521953F4F4F4FB3
:104C90005F4F089590958095709561957F4F8F4FE8
:104CA0009F4F0895AA1BBB1B51E107C0AA1FBB1F42
:104CB000A617B70710F0A61BB70B881F991F5A95A8
:104CC000A9F780959095BC01CD010895EE0FFF1FC7
:104CD0000590F491E02D0994EF920F931F93CF93D9
:104CE000DF93E80147FF02C034E101C034E0E42F64
:104CF000FF27E7FDF095F7FF03C0F195E195F10976
:104D0000E32E022F2E2FAE010E944E29CE01DF91FD
:104D1000CF911F910F91EF900895CF93DF93823041
:104D2000910510F482E090E0E091B405F091B505B2
:104D300020E030E0A0E0B0E0309739F140815181CF
:104D400048175907B8F04817590771F482819381C1
:104D5000109729F013969C938E9312972CC09093E2
:104D6000B5058093B40527C02115310531F04217F0
:104D7000530718F0A901DB0101C0EF019A01BD0141
:104D8000DF010280F381E02DD7CF21153105F9F045
:104D9000281B390B2430310580F48A819B816115F1
:104DA000710521F0FB019383828304C09093B505C4
:104DB0008093B405FE01329644C0FE01E20FF31F5A
:104DC0008193919322503109398328833AC02091ED
:104DD000B2053091B305232B41F4209102013091AB
:104DE00003013093B3052093B20520910001309167
:104DF00001012115310541F42DB73EB74091040161
:104E000050910501241B350BE091B205F091B305DB
:104E1000E217F307A0F42E1B3F0B2817390778F091
:104E2000AC014E5F5F4F2417350748F04E0F5F1FF0
:104E30005093B3054093B2058193919302C0E0E093
:104E4000F0E0CF01DF91CF910895CF93DF930097EA
:104E500009F487C0FC01329713821282C091B40515
:104E6000D091B505209781F420813181280F391F19
:104E70008091B2059091B3058217930779F5F0936D
:104E8000B305E093B2056DC0DE0120E030E0AE175F
:104E9000BF0750F412964D915C9113979D014115F7
:104EA000510509F1DA01F3CFB383A2834081518127
:104EB000840F951F8A179B0771F48D919C91119710
:104EC000840F951F02969183808312968D919C91F9
:104ED0001397938382832115310529F4F093B50547
:104EE000E093B4053EC0D9011396FC93EE9312975C
:104EF0004D915D91A40FB51FEA17FB0779F48081EE
:104F00009181840F951F0296D90111969C938E93DF
:104F10008281938113969C938E931297E0E0F0E048
:104F20008A819B81009719F0FE01EC01F9CFCE0137
:104F3000029628813981820F931F2091B20530910A
:104F4000B3052817390769F4309729F41092B5058D
:104F50001092B40502C013821282D093B305C0939D
:104F6000B205DF91CF910895A0E0B0E0EAEBF7E25F
:104F70000C94B82BEC01CB01209719F40E948D26DC
:104F8000B8C0FE01E60FF71F9E0122503109E2175B
:104F9000F30708F4ACC0D9010D911C9111970617C5
:104FA0001707B8F00530110508F49FC0A801445058
:104FB00051094617570708F498C002501109061BFB
:104FC000170B019311936D937C93CF010E942527BA
:104FD0008CC05B01A01AB10A4E01800E911EA091F7
:104FE000B405B091B505612C712C60E070E01097AC
:104FF00009F449C0A815B905C9F5ED90FC901197C1
:10500000670142E0C40ED11CCA14DB0478F14701E9
:105010008A189B08640142E0C40ED11C1296BC9011
:1050200012971396AC91B5E0CB16D10440F0B28242
:10503000A38391828082D9018D939C9309C00E5FD6
:105040001F4F0E0D1F1DF90111830083EB2DFA2F49
:105050006115710531F0DB011396FC93EE93129705
:1050600044C0F093B505E093B4053FC06D917C91C9
:1050700011976616770608F43B01BD0112960D9054
:10508000BC91A02DB4CF6091B2057091B3056815A5
:105090007905E9F468167906D0F440910001509141
:1050A00001014115510541F44DB75EB7609104010E
:1050B00070910501461B570BE417F507C0F4F093F8
:1050C000B305E093B205F901918380830EC00E947D
:1050D0008D267C01009759F0A801BE010E94B528D9
:1050E000CE010E942527C70104C0CE0102C080E086
:1050F00090E0CDB7DEB7EEE00C94D42B1F93FC010B
:1051000099278827BC01E89411911032E9F31930EE
:1051100010F01E30C8F31B3251F01D3249F4689470
:1051200006C00E94FE28610F711D811D911D119105
:1051300010531A30B0F33EF49095809570956195B8
:105140007F4F8F4F9F4F1F910895FB01DC0105900A
:105150000D920020E1F70895FC0105900020E9F789
:10516000809590958E0F9F1F0895FB01DC0102C072
:1051700001900D9241505040D8F70895FB01DC0199
:105180008D91019080190110D9F3990B0895FB01BD
:10519000DC0101900D920020E1F70895FB0151918F
:1051A0005523A9F0BF01DC014D9145174111E1F7ED
:1051B00059F4CD010190002049F04D914015411165
:1051C000C9F3FB014111EFCF81E090E00197089511
:1051D0004532510520F4423010F00C94F328FB01C5
:1051E0001082CB010895BB274A3031F4992322F471
:1051F000BDE2909581959F4F0C941F29592F482F00
:10520000372F262F660F771F881F991F660F771F6E
:10521000881F991F620F731F841F951F660F771FCA
:10522000881F991F08954532510520F4423010F02F
:105230000C941E29FB011082CB010895BB27FB01B2
:105240005527AA27880F991FAA1FA41710F0A41B7F
:1052500083955051B9F7A05DAA3308F0A95DA193D9
:10526000009779F7B111B1931192CB010C94A42B53
:10527000F999FECF92BD81BDF89A992780B508951E
:10528000262FF999FECF1FBA92BD81BD20BD0FB662
:10529000F894FA9AF99A0FBE019608956F927F9248
:1052A0009F92AF92BF92CF92DF92EF92FF920F93B5
:1052B0001F93CF93DF93CDB7DEB729970FB6F8943E
:1052C000DEBF0FBECDBF6A01B22E102F0C3320F40B
:1052D000FF24F394F00E02C04CE3F42E0F2D27E0D0
:1052E000AE014F5F5F4F0E94CC2A7981272F297032
:1052F000213031F0E1FC06C0E0FC06C060E005C0F2
:105300006DE203C06BE201C060E2AE2DA07173FFDD
:1053100036C0662311F084E001C083E08B1510F4E1
:10532000B81A01C0B12CA1110BC0F6018B2D90E26F
:10533000882319F091938150FBCFCB0CD11CB12C59
:10534000662331F0F601608396012F5F3F4F6901BC
:10535000C6010396E2FE05C02EE4F601208331E487
:1053600004C02EE6F601208331E631832283FC015E
:105370002B2D30E22223F1F131932150FBCF72FF2C
:1053800040C0662311F084E001C083E08B1510F467
:10539000B81A01C0B12CA1110BC0F6018B2D90E2FF
:1053A000882319F091938150FBCFCB0CD11CB12CE9
:1053B000662331F0F601608396012F5F3F4F69014C
:1053C000C6010396E2FE07C029E4F60120832EE41D
:1053D000218326E406C029E6F60120832EE62183F8
:1053E00026E62283FC012B2D30E2222319F0319393
:1053F0002150FBCFFC01EB0DF11D10828EEF9FEFD2
:10540000B7C0B1E0611101C0B0E04B2F50E01816F9
:10541000190624F49C012F5F3F4F02C021E030E0C9
:10542000240F351F112329F0412F50E04F5F5F4FAC
:1054300002C040E050E0420F531F2B2D30E04217D6
:10544000530714F4B41A01C0B12C2E2D287159F44D
:10545000F6012B2D30E2222319F031932150FBCF9E
:10546000CB0CD11CB12CBB2331F0F601608396012B
:105470002F5F3F4F6901A1110BC0F6012B2D30E3C7
:10548000222319F031932150FBCFCB0CD11CB12C2E
:10549000F80E0A81372F3071A32E74FF03C0013339
:1054A00009F4FA941F142CF42F2D293018F028E059
:1054B00001C021E0682F392F97FF02C060E030E083
:1054C000462F532F612C712C3EE2932EBC01621BA0
:1054D00071099B01DC01A41BB50BE1E0F0E0EC0FCE
:1054E000FD1FAE0FBF1FE12EF12CF194E194F108E6
:1054F0004F3FFFEF5F0731F4F6019082B6016F5F17
:105500007F4F6B01841795074CF02417350734F44F
:10551000BD01660D771DFB01118101C010E34150F3
:105520005109FFEF6F1A7F0AB6016F5F7F4F4E156B
:105530005F0524F0F60110836B01DACF4817590795
:1055400039F4063320F4053319F4A11001C011E336
:10555000F6011083FB018B2D90E2882319F09193C3
:105560008150FBCFFB01EB0DF11D108280E090E03C
:1055700029960FB6F894DEBF0FBECDBFDF91CF9155
:105580001F910F91FF90EF90DF90CF90BF90AF9061
:105590009F907F906F900895283008F027E0332780
:1055A000DA01990F311D87FD916000966105710543
:1055B00039F432602E5F3D9330E32A95E1F7089588
:1055C0009F3F30F080387105610509F03C5F3C5F1A
:1055D0003D93913008F08068911DDF93CF931F9326
:1055E0000F93FF92EF92192F987F9695E92F96953A
:1055F0009695E90FFF27EB59FA4F99273327EE24A9
:10560000FF24A701E70105900894079428F4360FBA
:10561000E71EF81E491F511D660F771F881F991F2F
:105620000694A1F70590079428F4E70EF81E491F89
:10563000561FC11D770F881F991F661F0694A1F77B
:105640000590079428F4F80E491F561FC71FD11D57
:10565000880F991F661F771F0694A1F7059007947E
:1056600020F4490F561FC71FD81F990F661F771FB9
:10567000881F0694A9F784911095177041F0D6956C
:10568000C79557954795F794E7941A95C1F7EBE0BE
:10569000F5E0689415901591359165919591059077
:1056A0007FE27395E118F10A430B560BC90BD00941
:1056B000C0F7E10CF11E431F561FC91FD01D7EF419
:1056C000703311F48A95E6CFE894015030F0080F5A
:1056D0000AF40027021708F4202F2395022F7A33AB
:1056E00028F079E37D932A95E9F710C07D932A95F8
:1056F00089F6069497956795379517951794E1184D
:10570000F10A430B560BC90BD00998F023957E91F3
:1057100073957A3308F070E37C932013B8F77E9189
:1057200070617D9330F0839571E37D9370E32A95EA
:10573000E1F71124EF90FF900F911F91CF91DF912E
:10574000992787FD90950895DC01FC01672F7191E1
:105750007723E1F7329704C07C916D937083629157
:10576000AE17BF07C8F308952F923F924F925F92F2
:105770006F927F928F929F92AF92BF92CF92DF9261
:10578000EF92FF920F931F93CF93DF93CDB7DEB7C6
:10579000CA1BDB0B0FB6F894DEBF0FBECDBF09945A
:1057A0002A88398848885F846E847D848C849B84B1
:1057B000AA84B984C884DF80EE80FD800C811B81BF
:1057C000AA81B981CE0FD11D0FB6F894DEBF0FBEEE
:1057D000CDBFED01089516E0CAE0D6E004C0FE0199
:1057E0000E9468262296CC30D107C9F7F894FFCFE3
:1057F0000000B605800072657374617274696E672B
:105800002E2E2E0046460030303630006162700089
:105810006D6163206A6F696E20006B6579735F6EDE
:105820006F745F696E697400616363657074656449
:10583000006D616320747820756E636E662000438E
:105840006F6D6D616E6420726573706F6E73653A13
:10585000006E6F745F6A6F696E6564007265706573
:105860006174006E6F5F667265655F63680073796F
:1058700073207265736574006275737900696E7662
:10588000616C69645F706172616D00496E76616C14
:10589000696420706172616D21004C696E6B2072C9
:1058A0006573706F6E73653A006F6B00524E2073B4
:1058B0006C6565702074696D653A2000206D696EB5
:1058C0002E0073797320736C656570200073797393
:1058D00020736C656570203230303000737973202E
:1058E0006765742076646400726164696F2067651F
:1058F0007420736E72006D6163206765742061644B
:1059000072006D616320676574206472003031003D
:1059100053656E64696720627974653A0054783A19
:105920000052756E3A00524E3234383300566C686D
:105930006B6F73743A002500444854206279746593
:105940003A00566F6C7461676520627974653A003D
:10595000534E5220627974653A005A61706973201F
:1059600064656661756C747520646F20454550529E
:105970004F4D00536C6565702054696D653A003277
:1059800000506F72743A006D61632073657420611A
:105990006472206F6E006D616320736574206164B2
:1059A00072206F6666006D61632073657420707786
:1059B000726964782000506F776572207365742077
:1059C000746F20006D616320736574206472200021
:1059D00044522073657420746F20006F74616100FD
:1059E0005061796C6F616420746573743A007368F8
:1059F0006F7700302E322E31006D61632067657441
:105A000020646576657569006D6163206765742043
:105A100064657661646472006D61632067657420FB
:105A2000617070657569007379732067657420769D
:105A30006572006D56006A6F696E6D6F64653A003D
:105A40006164723A002073746F72656420746F2011
:105A5000454550524F4D00706F7765723A00506F58
:105A60007765723A202D00506F7765723A202B00CF
:105A7000706F72743A0073656E64553A0054582022
:105A80007374617475733A0073656E64433A006DA4
:105A9000616320747820636E6620005665727369B6
:105AA0006F6E3A007361766500736C6565703A00DD
:105AB000536C6565702074696D653A0053746F723C
:105AC000656420746F20454550524F4D2100686534
:105AD0006C7000000000005F19ED1FCB193E19B17A
